{
  "txid": "e2aa459ebfe0ba3625c917143452678a3e80636489fe0ec8cc7e9651cfd4ddb2",
  "hash": "e2aa459ebfe0ba3625c917143452678a3e80636489fe0ec8cc7e9651cfd4ddb2",
  "version": 2,
  "size": 371,
  "vsize": 371,
  "weight": 1484,
  "locktime": 0,
  "vin": [
    {
      "txid": "fc7d16677a834b09e955fc8d1506c0cf51cc0084a68262698a89b32e43b715c6",
      "vout": 0,
      "scriptSig": {
        "asm": "3045022100a7b98927302746033cdf13a11952f5db47a22bcdcb28a7b3d5081066b3ae836c022002bc56af621f4ea8fa4053269bc103ace4488d8f084c1655a0574f8ff80854cd[ALL] 038560f24759ce9ea4c8c5aecfaea2a466702ff20d5c02a452eed194ebb84aa24c",
        "hex": "483045022100a7b98927302746033cdf13a11952f5db47a22bcdcb28a7b3d5081066b3ae836c022002bc56af621f4ea8fa4053269bc103ace4488d8f084c1655a0574f8ff80854cd0121038560f24759ce9ea4c8c5aecfaea2a466702ff20d5c02a452eed194ebb84aa24c"
      },
      "sequence": 4294967293
    }
  ],
  "vout": [
    {
      "value": 0.00000547,
      "n": 0,
      "scriptPubKey": {
        "asm": "OP_DUP OP_HASH160 263172a4e2afc3afb435c5b1bdfe28eb59407304 OP_EQUALVERIFY OP_CHECKSIG",
        "desc": "addr(14Uwuz8EVjokXLUmtM1WEGZmxLVcmNKAMR)#j55gpefa",
        "hex": "76a914263172a4e2afc3afb435c5b1bdfe28eb5940730488ac",
        "address": "14Uwuz8EVjokXLUmtM1WEGZmxLVcmNKAMR",
        "type": "pubkeyhash"
      }
    },
    {
      "value": 0.00000796,
      "n": 1,
      "scriptPubKey": {
        "asm": "1 021132f009af524c95eb77f88c5fd8b46225606c711ea527ea693c7843807147a5 035c7463c809a1146dc4a6bc443b84ec3a550a8fad3971824e644863d9785200ce 020202020202020202020202020202020202020202020202020202020202020202 3 OP_CHECKMULTISIG",
        "desc": "multi(1,021132f009af524c95eb77f88c5fd8b46225606c711ea527ea693c7843807147a5,035c7463c809a1146dc4a6bc443b84ec3a550a8fad3971824e644863d9785200ce,020202020202020202020202020202020202020202020202020202020202020202)#sxt5jeqq",
        "hex": "5121021132f009af524c95eb77f88c5fd8b46225606c711ea527ea693c7843807147a521035c7463c809a1146dc4a6bc443b84ec3a550a8fad3971824e644863d9785200ce2102020202020202020202020202020202020202020202020202020202020202020253ae",
        "type": "multisig"
      }
    },
    {
      "value": 0.00030000,
      "n": 2,
      "scriptPubKey": {
        "asm": "0 4cb70be9830de47ab66d4a81b8a96109ab53603f",
        "desc": "addr(bc1qfjmsh6vrphj84dndf2qm32tppx44xcpllpwk3q)#m6jlzlzw",
        "hex": "00144cb70be9830de47ab66d4a81b8a96109ab53603f",
        "address": "bc1qfjmsh6vrphj84dndf2qm32tppx44xcpllpwk3q",
        "type": "witness_v0_keyhash"
      }
    },
    {
      "value": 0.00107305,
      "n": 3,
      "scriptPubKey": {
        "asm": "OP_DUP OP_HASH160 4cb70be9830de47ab66d4a81b8a96109ab53603f OP_EQUALVERIFY OP_CHECKSIG",
        "desc": "addr(17zddskstWkvejUDA2aeM9rT3Ehp8PPtxx)#suxrwxwn",
        "hex": "76a9144cb70be9830de47ab66d4a81b8a96109ab53603f88ac",
        "address": "17zddskstWkvejUDA2aeM9rT3Ehp8PPtxx",
        "type": "pubkeyhash"
      }
    }
  ],
  "hex": "0200000001c615b7432eb3898a696282a68400cc51cfc006158dfc55e9094b837a67167dfc000000006b483045022100a7b98927302746033cdf13a11952f5db47a22bcdcb28a7b3d5081066b3ae836c022002bc56af621f4ea8fa4053269bc103ace4488d8f084c1655a0574f8ff80854cd0121038560f24759ce9ea4c8c5aecfaea2a466702ff20d5c02a452eed194ebb84aa24cfdffffff0423020000000000001976a914263172a4e2afc3afb435c5b1bdfe28eb5940730488ac1c03000000000000695121021132f009af524c95eb77f88c5fd8b46225606c711ea527ea693c7843807147a521035c7463c809a1146dc4a6bc443b84ec3a550a8fad3971824e644863d9785200ce2102020202020202020202020202020202020202020202020202020202020202020253ae30750000000000001600144cb70be9830de47ab66d4a81b8a96109ab53603f29a30100000000001976a9144cb70be9830de47ab66d4a81b8a96109ab53603f88ac00000000",
  "blockhash": "00000000000000000003f61e5968705d913e3ffd7a8f1e5afe65f07d7a4ced1a",
  "confirmations": 119340,
  "time": 1687429194,
  "blocktime": 1687429194
}
