{
  "txid": "934dc31e690d0237d8d0d6a69355a7448920dbd12ff21abf694af48cfb30d715",
  "hash": "934dc31e690d0237d8d0d6a69355a7448920dbd12ff21abf694af48cfb30d715",
  "version": 1,
  "size": 1559,
  "vsize": 1559,
  "weight": 6236,
  "locktime": 0,
  "vin": [
    {
      "txid": "14097bbb0db5b4bb09a0cf10338ae2b9913f49104d637cfd3980bd4431efd875",
      "vout": 4,
      "scriptSig": {
        "asm": "304402203317a71994eb829564178323db27acb9402187a47105522ecc6c1565e558931202203d0a6da68a4f95bb937d922588bee860a720f6d0bf0b37b12b5d1e82ce0bb902[ALL] 03bd4af275e35adc9b92e064666e7e827d79af81e6fe6effd6d27dffdad4f52396",
        "hex": "47304402203317a71994eb829564178323db27acb9402187a47105522ecc6c1565e558931202203d0a6da68a4f95bb937d922588bee860a720f6d0bf0b37b12b5d1e82ce0bb902012103bd4af275e35adc9b92e064666e7e827d79af81e6fe6effd6d27dffdad4f52396"
      },
      "sequence": 4294967295
    }
  ],
  "vout": [
    {
      "value": 0.00001000,
      "n": 0,
      "scriptPubKey": {
        "asm": "1 03f4f4abdcab34aa508bbc290ddb5c30b34681616615593aa7ea9a011e8c9fdf12 02b43bc18dbcbda952d31e223b23ad0ba709b7cc11d1929a6b370a4b2bad2e5547 022222222222222222222222222222222222222222222222222222222222222222 3 OP_CHECKMULTISIG",
        "desc": "multi(1,03f4f4abdcab34aa508bbc290ddb5c30b34681616615593aa7ea9a011e8c9fdf12,02b43bc18dbcbda952d31e223b23ad0ba709b7cc11d1929a6b370a4b2bad2e5547,022222222222222222222222222222222222222222222222222222222222222222)#g6wwg8np",
        "hex": "512103f4f4abdcab34aa508bbc290ddb5c30b34681616615593aa7ea9a011e8c9fdf122102b43bc18dbcbda952d31e223b23ad0ba709b7cc11d1929a6b370a4b2bad2e55472102222222222222222222222222222222222222222222222222222222222222222253ae",
        "type": "multisig"
      }
    },
    {
      "value": 0.00001000,
      "n": 1,
      "scriptPubKey": {
        "asm": "1 03f4f4abdcab34aa508be9231a07c96c375e452027576078d68cb8405ecd8dc1f9 02c434dce190bda247db0a63220a932aa31a91b50ee8f3956431286326a90258ee 022222222222222222222222222222222222222222222222222222222222222222 3 OP_CHECKMULTISIG",
        "desc": "multi(1,03f4f4abdcab34aa508be9231a07c96c375e452027576078d68cb8405ecd8dc1f9,02c434dce190bda247db0a63220a932aa31a91b50ee8f3956431286326a90258ee,022222222222222222222222222222222222222222222222222222222222222222)#stvqfkmc",
        "hex": "512103f4f4abdcab34aa508be9231a07c96c375e452027576078d68cb8405ecd8dc1f92102c434dce190bda247db0a63220a932aa31a91b50ee8f3956431286326a90258ee2102222222222222222222222222222222222222222222222222222222222222222253ae",
        "type": "multisig"
      }
    },
    {
      "value": 0.00001000,
      "n": 2,
      "scriptPubKey": {
        "asm": "1 02f4f4abdcab34aa508be7242807bc6f322445300d701e4290c5d12e34dfa3d2d6 028d23f0e0a4a29374b22c53312588308d24b3dc09d3f38b19513d793fdb297f42 022222222222222222222222222222222222222222222222222222222222222222 3 OP_CHECKMULTISIG",
        "desc": "multi(1,02f4f4abdcab34aa508be7242807bc6f322445300d701e4290c5d12e34dfa3d2d6,028d23f0e0a4a29374b22c53312588308d24b3dc09d3f38b19513d793fdb297f42,022222222222222222222222222222222222222222222222222222222222222222)#gkgzqw2s",
        "hex": "512102f4f4abdcab34aa508be7242807bc6f322445300d701e4290c5d12e34dfa3d2d621028d23f0e0a4a29374b22c53312588308d24b3dc09d3f38b19513d793fdb297f422102222222222222222222222222222222222222222222222222222222222222222253ae",
        "type": "multisig"
      }
    },
    {
      "value": 0.00001000,
      "n": 3,
      "scriptPubKey": {
        "asm": "1 02f4f4abdcab34aa508bea331d76bb7d1f52322c2e7c355d9086bf3956c9a4e695 03a715d2e5fe9ca26cb9246221129b21de30aff52dc4a6a445181d481fba027310 022222222222222222222222222222222222222222222222222222222222222222 3 OP_CHECKMULTISIG",
        "desc": "multi(1,02f4f4abdcab34aa508bea331d76bb7d1f52322c2e7c355d9086bf3956c9a4e695,03a715d2e5fe9ca26cb9246221129b21de30aff52dc4a6a445181d481fba027310,022222222222222222222222222222222222222222222222222222222222222222)#elpt88ah",
        "hex": "512102f4f4abdcab34aa508bea331d76bb7d1f52322c2e7c355d9086bf3956c9a4e6952103a715d2e5fe9ca26cb9246221129b21de30aff52dc4a6a445181d481fba0273102102222222222222222222222222222222222222222222222222222222222222222253ae",
        "type": "multisig"
      }
    },
    {
      "value": 0.00001000,
      "n": 4,
      "scriptPubKey": {
        "asm": "1 02f4f4abdcab34aa508be5557404ca761541762957501377d18b8e6a34a7a6efee 02c40cf0d697d8a22bd92d2437218e22a907ddd835a98d8367061f3a1e8b2b024d 022222222222222222222222222222222222222222222222222222222222222222 3 OP_CHECKMULTISIG",
        "desc": "multi(1,02f4f4abdcab34aa508be5557404ca761541762957501377d18b8e6a34a7a6efee,02c40cf0d697d8a22bd92d2437218e22a907ddd835a98d8367061f3a1e8b2b024d,022222222222222222222222222222222222222222222222222222222222222222)#q2xfzh32",
        "hex": "512102f4f4abdcab34aa508be5557404ca761541762957501377d18b8e6a34a7a6efee2102c40cf0d697d8a22bd92d2437218e22a907ddd835a98d8367061f3a1e8b2b024d2102222222222222222222222222222222222222222222222222222222222222222253ae",
        "type": "multisig"
      }
    },
    {
      "value": 0.00001000,
      "n": 5,
      "scriptPubKey": {
        "asm": "1 02f4f4abdcab34aa508bc75170249f05155a2f0e127e1b0c9493b03166c7b6be0f 038d26e0cebcaeaf5cae26205f3c892dbf09a1b43ec9f7c176155b5839d51d1d1d 022222222222222222222222222222222222222222222222222222222222222222 3 OP_CHECKMULTISIG",
        "desc": "multi(1,02f4f4abdcab34aa508bc75170249f05155a2f0e127e1b0c9493b03166c7b6be0f,038d26e0cebcaeaf5cae26205f3c892dbf09a1b43ec9f7c176155b5839d51d1d1d,022222222222222222222222222222222222222222222222222222222222222222)#phhn3rx9",
        "hex": "512102f4f4abdcab34aa508bc75170249f05155a2f0e127e1b0c9493b03166c7b6be0f21038d26e0cebcaeaf5cae26205f3c892dbf09a1b43ec9f7c176155b5839d51d1d1d2102222222222222222222222222222222222222222222222222222222222222222253ae",
        "type": "multisig"
      }
    },
    {
      "value": 0.00001000,
      "n": 6,
      "scriptPubKey": {
        "asm": "1 02f4f4abdcab34aa508bc9506b1e8e601b526d0b52266077c6bdcb754ae681babf 029234a3e6b29da66ccd5a5b4213b32eb53ab0eb1dd084bc6d3a5a603ea72c7773 022222222222222222222222222222222222222222222222222222222222222222 3 OP_CHECKMULTISIG",
        "desc": "multi(1,02f4f4abdcab34aa508bc9506b1e8e601b526d0b52266077c6bdcb754ae681babf,029234a3e6b29da66ccd5a5b4213b32eb53ab0eb1dd084bc6d3a5a603ea72c7773,022222222222222222222222222222222222222222222222222222222222222222)#sy92ym9z",
        "hex": "512102f4f4abdcab34aa508bc9506b1e8e601b526d0b52266077c6bdcb754ae681babf21029234a3e6b29da66ccd5a5b4213b32eb53ab0eb1dd084bc6d3a5a603ea72c77732102222222222222222222222222222222222222222222222222222222222222222253ae",
        "type": "multisig"
      }
    },
    {
      "value": 0.00001000,
      "n": 7,
      "scriptPubKey": {
        "asm": "1 03f4f4abdcab34aa508bd92c6a05b31f1d5d40292e790c7ec1a3af4857cfabb39f 03a723a4d2bf85bf7fd50b7c3c0d9357b50786de07b0a2b6473400451299344a18 022222222222222222222222222222222222222222222222222222222222222222 3 OP_CHECKMULTISIG",
        "desc": "multi(1,03f4f4abdcab34aa508bd92c6a05b31f1d5d40292e790c7ec1a3af4857cfabb39f,03a723a4d2bf85bf7fd50b7c3c0d9357b50786de07b0a2b6473400451299344a18,022222222222222222222222222222222222222222222222222222222222222222)#mmd523ru",
        "hex": "512103f4f4abdcab34aa508bd92c6a05b31f1d5d40292e790c7ec1a3af4857cfabb39f2103a723a4d2bf85bf7fd50b7c3c0d9357b50786de07b0a2b6473400451299344a182102222222222222222222222222222222222222222222222222222222222222222253ae",
        "type": "multisig"
      }
    },
    {
      "value": 0.00001000,
      "n": 8,
      "scriptPubKey": {
        "asm": "1 03f4f4abdcab34aa508bf9316d07a5771f524008103a6162f6d9ab5b2ccea0cc73 03902fe8f991a0a972d05a4a4526ff519e20c4e30be4bfba400542463fc32e6692 022222222222222222222222222222222222222222222222222222222222222222 3 OP_CHECKMULTISIG",
        "desc": "multi(1,03f4f4abdcab34aa508bf9316d07a5771f524008103a6162f6d9ab5b2ccea0cc73,03902fe8f991a0a972d05a4a4526ff519e20c4e30be4bfba400542463fc32e6692,022222222222222222222222222222222222222222222222222222222222222222)#mqg43ntc",
        "hex": "512103f4f4abdcab34aa508bf9316d07a5771f524008103a6162f6d9ab5b2ccea0cc732103902fe8f991a0a972d05a4a4526ff519e20c4e30be4bfba400542463fc32e66922102222222222222222222222222222222222222222222222222222222222222222253ae",
        "type": "multisig"
      }
    },
    {
      "value": 0.00001000,
      "n": 9,
      "scriptPubKey": {
        "asm": "1 02f4f4abdcab34aa508bcd20707eca783e79650d2d5c3c0ae5dca77b55b980fda1 02803fc1ffb8b1dc72c54227230e8508800da5cc09c98d81633b5a602ddf22428c 022222222222222222222222222222222222222222222222222222222222222222 3 OP_CHECKMULTISIG",
        "desc": "multi(1,02f4f4abdcab34aa508bcd20707eca783e79650d2d5c3c0ae5dca77b55b980fda1,02803fc1ffb8b1dc72c54227230e8508800da5cc09c98d81633b5a602ddf22428c,022222222222222222222222222222222222222222222222222222222222222222)#5sl0qn6v",
        "hex": "512102f4f4abdcab34aa508bcd20707eca783e79650d2d5c3c0ae5dca77b55b980fda12102803fc1ffb8b1dc72c54227230e8508800da5cc09c98d81633b5a602ddf22428c2102222222222222222222222222222222222222222222222222222222222222222253ae",
        "type": "multisig"
      }
    },
    {
      "value": 0.00001000,
      "n": 10,
      "scriptPubKey": {
        "asm": "1 03f4f4abdcab34aa508bee296a72c95a3464622d13781049e18689404cea9ec916 02a230fbd0a1c0af6ae75b591236e1288332c7ea14eab6987703255d2bae1404e5 022222222222222222222222222222222222222222222222222222222222222222 3 OP_CHECKMULTISIG",
        "desc": "multi(1,03f4f4abdcab34aa508bee296a72c95a3464622d13781049e18689404cea9ec916,02a230fbd0a1c0af6ae75b591236e1288332c7ea14eab6987703255d2bae1404e5,022222222222222222222222222222222222222222222222222222222222222222)#u9h2g5gj",
        "hex": "512103f4f4abdcab34aa508bee296a72c95a3464622d13781049e18689404cea9ec9162102a230fbd0a1c0af6ae75b591236e1288332c7ea14eab6987703255d2bae1404e52102222222222222222222222222222222222222222222222222222222222222222253ae",
        "type": "multisig"
      }
    },
    {
      "value": 0.00001000,
      "n": 11,
      "scriptPubKey": {
        "asm": "1 03e2f4abdcab34aa508be60a330fb9011f407006025e1e72c49aaf405ecd8dc9ac 02bf24c48290998057e60e754d59ca64e648f68d5f82c7f22e626d0a6aec6d324e 022222222222222222222222222222222222222222222222222222222222222222 3 OP_CHECKMULTISIG",
        "desc": "multi(1,03e2f4abdcab34aa508be60a330fb9011f407006025e1e72c49aaf405ecd8dc9ac,02bf24c48290998057e60e754d59ca64e648f68d5f82c7f22e626d0a6aec6d324e,022222222222222222222222222222222222222222222222222222222222222222)#5406gzdv",
        "hex": "512103e2f4abdcab34aa508be60a330fb9011f407006025e1e72c49aaf405ecd8dc9ac2102bf24c48290998057e60e754d59ca64e648f68d5f82c7f22e626d0a6aec6d324e2102222222222222222222222222222222222222222222222222222222222222222253ae",
        "type": "multisig"
      }
    },
    {
      "value": 0.05849901,
      "n": 12,
      "scriptPubKey": {
        "asm": "OP_DUP OP_HASH160 05a9aded780d8bf0de5e74f3d4768d8b25ffb86d OP_EQUALVERIFY OP_CHECKSIG",
        "desc": "addr(1WweVUK8kLmSNt6yKKqwVxch3Z7Lw5HAY)#sddt2r63",
        "hex": "76a91405a9aded780d8bf0de5e74f3d4768d8b25ffb86d88ac",
        "address": "1WweVUK8kLmSNt6yKKqwVxch3Z7Lw5HAY",
        "type": "pubkeyhash"
      }
    }
  ],
  "hex": "010000000175d8ef3144bd8039fd7c634d10493f91b9e28a3310cfa009bbb4b50dbb7b0914040000006a47304402203317a71994eb829564178323db27acb9402187a47105522ecc6c1565e558931202203d0a6da68a4f95bb937d922588bee860a720f6d0bf0b37b12b5d1e82ce0bb902012103bd4af275e35adc9b92e064666e7e827d79af81e6fe6effd6d27dffdad4f52396ffffffff0de80300000000000069512103f4f4abdcab34aa508bbc290ddb5c30b34681616615593aa7ea9a011e8c9fdf122102b43bc18dbcbda952d31e223b23ad0ba709b7cc11d1929a6b370a4b2bad2e55472102222222222222222222222222222222222222222222222222222222222222222253aee80300000000000069512103f4f4abdcab34aa508be9231a07c96c375e452027576078d68cb8405ecd8dc1f92102c434dce190bda247db0a63220a932aa31a91b50ee8f3956431286326a90258ee2102222222222222222222222222222222222222222222222222222222222222222253aee80300000000000069512102f4f4abdcab34aa508be7242807bc6f322445300d701e4290c5d12e34dfa3d2d621028d23f0e0a4a29374b22c53312588308d24b3dc09d3f38b19513d793fdb297f422102222222222222222222222222222222222222222222222222222222222222222253aee80300000000000069512102f4f4abdcab34aa508bea331d76bb7d1f52322c2e7c355d9086bf3956c9a4e6952103a715d2e5fe9ca26cb9246221129b21de30aff52dc4a6a445181d481fba0273102102222222222222222222222222222222222222222222222222222222222222222253aee80300000000000069512102f4f4abdcab34aa508be5557404ca761541762957501377d18b8e6a34a7a6efee2102c40cf0d697d8a22bd92d2437218e22a907ddd835a98d8367061f3a1e8b2b024d2102222222222222222222222222222222222222222222222222222222222222222253aee80300000000000069512102f4f4abdcab34aa508bc75170249f05155a2f0e127e1b0c9493b03166c7b6be0f21038d26e0cebcaeaf5cae26205f3c892dbf09a1b43ec9f7c176155b5839d51d1d1d2102222222222222222222222222222222222222222222222222222222222222222253aee80300000000000069512102f4f4abdcab34aa508bc9506b1e8e601b526d0b52266077c6bdcb754ae681babf21029234a3e6b29da66ccd5a5b4213b32eb53ab0eb1dd084bc6d3a5a603ea72c77732102222222222222222222222222222222222222222222222222222222222222222253aee80300000000000069512103f4f4abdcab34aa508bd92c6a05b31f1d5d40292e790c7ec1a3af4857cfabb39f2103a723a4d2bf85bf7fd50b7c3c0d9357b50786de07b0a2b6473400451299344a182102222222222222222222222222222222222222222222222222222222222222222253aee80300000000000069512103f4f4abdcab34aa508bf9316d07a5771f524008103a6162f6d9ab5b2ccea0cc732103902fe8f991a0a972d05a4a4526ff519e20c4e30be4bfba400542463fc32e66922102222222222222222222222222222222222222222222222222222222222222222253aee80300000000000069512102f4f4abdcab34aa508bcd20707eca783e79650d2d5c3c0ae5dca77b55b980fda12102803fc1ffb8b1dc72c54227230e8508800da5cc09c98d81633b5a602ddf22428c2102222222222222222222222222222222222222222222222222222222222222222253aee80300000000000069512103f4f4abdcab34aa508bee296a72c95a3464622d13781049e18689404cea9ec9162102a230fbd0a1c0af6ae75b591236e1288332c7ea14eab6987703255d2bae1404e52102222222222222222222222222222222222222222222222222222222222222222253aee80300000000000069512103e2f4abdcab34aa508be60a330fb9011f407006025e1e72c49aaf405ecd8dc9ac2102bf24c48290998057e60e754d59ca64e648f68d5f82c7f22e626d0a6aec6d324e2102222222222222222222222222222222222222222222222222222222222222222253ae2d435900000000001976a91405a9aded780d8bf0de5e74f3d4768d8b25ffb86d88ac00000000",
  "blockhash": "0000000000000000000371a57a093283943ff336e14e030ea96644691f3ae0bd",
  "confirmations": 123828,
  "time": 1684859792,
  "blocktime": 1684859792
}
