{
  "txid": "0fea78019487990814cfaba4c9b3fd861f70b3190886a659eaedc0bdc221d0ed",
  "hash": "4251135017cda240f825dd076d8c22f2192d3870b01840b6c5831d170175c8bd",
  "version": 2,
  "size": 481,
  "vsize": 400,
  "weight": 1597,
  "locktime": 0,
  "vin": [
    {
      "txid": "09c8f28cbc5f250ffc35360f77f0a0cc4037d77ebaa3e6e52356d0b83b80c54c",
      "vout": 0,
      "scriptSig": {
        "asm": "",
        "hex": ""
      },
      "txinwitness": [
        "304402204ef3db38d38729e69227c9c179b0429c98f8dbfcac82c8924e1d17ff0264cdfd022039f72b068eb370db96161b40c339e252865a61940c775f8140f3d5515836f57e81",
        "032b721cdaf919f6fd1a6ed519b815cfcbfa1225eef7354c6857675dfb32f8eaae"
      ],
      "sequence": 4294967293
    }
  ],
  "vout": [
    {
      "value": 0.00000547,
      "n": 0,
      "scriptPubKey": {
        "asm": "0 d23fe71176b17a3bafe225635a05174a6b8cbbdd",
        "desc": "addr(bc1q6gl7wytkk9arhtlzy4345pghff4cew7awltp7n)#r4fzsmtx",
        "hex": "0014d23fe71176b17a3bafe225635a05174a6b8cbbdd",
        "address": "bc1q6gl7wytkk9arhtlzy4345pghff4cew7awltp7n",
        "type": "witness_v0_keyhash"
      }
    },
    {
      "value": 0.00000796,
      "n": 1,
      "scriptPubKey": {
        "asm": "1 02740cd5909dcf18055b319b8aeff23e02d4f9d6642ecd9565086d801e48e868de 0238f2a688cb3888aaf0933282d67c86d9372bc64dcbcbaa2763f4d975d8f14ae7 020202020202020202020202020202020202020202020202020202020202020202 3 OP_CHECKMULTISIG",
        "desc": "multi(1,02740cd5909dcf18055b319b8aeff23e02d4f9d6642ecd9565086d801e48e868de,0238f2a688cb3888aaf0933282d67c86d9372bc64dcbcbaa2763f4d975d8f14ae7,020202020202020202020202020202020202020202020202020202020202020202)#hwxjwyzt",
        "hex": "512102740cd5909dcf18055b319b8aeff23e02d4f9d6642ecd9565086d801e48e868de210238f2a688cb3888aaf0933282d67c86d9372bc64dcbcbaa2763f4d975d8f14ae72102020202020202020202020202020202020202020202020202020202020202020253ae",
        "type": "multisig"
      }
    },
    {
      "value": 0.00000796,
      "n": 2,
      "scriptPubKey": {
        "asm": "1 021924c9ec4f7e6e3a2a26180ccbc7334735df19ce2e92a24ee060423a50426aa1 02487affe3a6923775a9b4c1254fcc5812e127811d2ace30e79a4b1b3fe572bc74 020202020202020202020202020202020202020202020202020202020202020202 3 OP_CHECKMULTISIG",
        "desc": "multi(1,021924c9ec4f7e6e3a2a26180ccbc7334735df19ce2e92a24ee060423a50426aa1,02487affe3a6923775a9b4c1254fcc5812e127811d2ace30e79a4b1b3fe572bc74,020202020202020202020202020202020202020202020202020202020202020202)#2xmkrmm3",
        "hex": "5121021924c9ec4f7e6e3a2a26180ccbc7334735df19ce2e92a24ee060423a50426aa12102487affe3a6923775a9b4c1254fcc5812e127811d2ace30e79a4b1b3fe572bc742102020202020202020202020202020202020202020202020202020202020202020253ae",
        "type": "multisig"
      }
    },
    {
      "value": 0.00772089,
      "n": 3,
      "scriptPubKey": {
        "asm": "0 8735e4a24716bcd03743d402f30cc49601de92a1",
        "desc": "addr(bc1qsu67fgj8z67dqd6r6sp0xrxyjcqaay4pxqfdnw)#u2zuu9y9",
        "hex": "00148735e4a24716bcd03743d402f30cc49601de92a1",
        "address": "bc1qsu67fgj8z67dqd6r6sp0xrxyjcqaay4pxqfdnw",
        "type": "witness_v0_keyhash"
      }
    },
    {
      "value": 0.00031547,
      "n": 4,
      "scriptPubKey": {
        "asm": "0 fd597ecc27a2362ab5c827907d251ab8f2870a1a",
        "desc": "addr(bc1ql4vhanp85gmz4dwgy7g86fg6hregwzs66z2v0f)#vukwrfqg",
        "hex": "0014fd597ecc27a2362ab5c827907d251ab8f2870a1a",
        "address": "bc1ql4vhanp85gmz4dwgy7g86fg6hregwzs66z2v0f",
        "type": "witness_v0_keyhash"
      }
    }
  ],
  "hex": "020000000001014cc5803bb8d05623e5e6a3ba7ed73740cca0f0770f3635fc0f255fbc8cf2c8090000000000fdffffff052302000000000000160014d23fe71176b17a3bafe225635a05174a6b8cbbdd1c0300000000000069512102740cd5909dcf18055b319b8aeff23e02d4f9d6642ecd9565086d801e48e868de210238f2a688cb3888aaf0933282d67c86d9372bc64dcbcbaa2763f4d975d8f14ae72102020202020202020202020202020202020202020202020202020202020202020253ae1c03000000000000695121021924c9ec4f7e6e3a2a26180ccbc7334735df19ce2e92a24ee060423a50426aa12102487affe3a6923775a9b4c1254fcc5812e127811d2ace30e79a4b1b3fe572bc742102020202020202020202020202020202020202020202020202020202020202020253aef9c70b00000000001600148735e4a24716bcd03743d402f30cc49601de92a13b7b000000000000160014fd597ecc27a2362ab5c827907d251ab8f2870a1a0247304402204ef3db38d38729e69227c9c179b0429c98f8dbfcac82c8924e1d17ff0264cdfd022039f72b068eb370db96161b40c339e252865a61940c775f8140f3d5515836f57e8121032b721cdaf919f6fd1a6ed519b815cfcbfa1225eef7354c6857675dfb32f8eaae00000000",
  "blockhash": "0000000000000000000137693a132c504f1734852d53f20e0095cb98dc2b6591",
  "confirmations": 49756,
  "time": 1728542797,
  "blocktime": 1728542797
}
