{
  "txid": "f353823cdc63ee24fe2167ca14d3bb9b6a54dd063b53382c0cd42f05d7262808",
  "hash": "f353823cdc63ee24fe2167ca14d3bb9b6a54dd063b53382c0cd42f05d7262808",
  "version": 1,
  "size": 567,
  "vsize": 567,
  "weight": 2268,
  "locktime": 0,
  "vin": [
    {
      "txid": "668bce85fe6911a712a57ef0e4351e556f70cb07d0404b31b158ed86ce5f10e8",
      "vout": 5,
      "scriptSig": {
        "asm": "304402204724882405c83440bad5486cd6d5f3d9eff6add2c9308b58f7209f7022f91c37022039a4e58b9617454d07dd47fa03331d55cba109d6322115507a85069431ba0c10[ALL] 03c067d3d03af257df24cab4f26183e85a3619b796dad50302f5754f2f6fb8166c",
        "hex": "47304402204724882405c83440bad5486cd6d5f3d9eff6add2c9308b58f7209f7022f91c37022039a4e58b9617454d07dd47fa03331d55cba109d6322115507a85069431ba0c10012103c067d3d03af257df24cab4f26183e85a3619b796dad50302f5754f2f6fb8166c"
      },
      "sequence": 4294967295
    }
  ],
  "vout": [
    {
      "value": 0.00000546,
      "n": 0,
      "scriptPubKey": {
        "asm": "OP_DUP OP_HASH160 e186d8d88dc39ab5f296bc93b46e03e9f4229b97 OP_EQUALVERIFY OP_CHECKSIG",
        "desc": "addr(1MZUaVy6y7vmwh2MqMKTFy2JiqXteyevpN)#d4zt2zpr",
        "hex": "76a914e186d8d88dc39ab5f296bc93b46e03e9f4229b9788ac",
        "address": "1MZUaVy6y7vmwh2MqMKTFy2JiqXteyevpN",
        "type": "pubkeyhash"
      }
    },
    {
      "value": 0.00000796,
      "n": 1,
      "scriptPubKey": {
        "asm": "1 03cf8acee2752053160b486a951f40f3b3d4f17e4e7c3686a7260c8aea144b5728 02de07b9e6cfd2adf6fb1b1290c30d80359b5b6b80cdc9839100267be804940822 030303030303030303030303030303030303030303030303030303030303030302 3 OP_CHECKMULTISIG",
        "desc": "multi(1,03cf8acee2752053160b486a951f40f3b3d4f17e4e7c3686a7260c8aea144b5728,02de07b9e6cfd2adf6fb1b1290c30d80359b5b6b80cdc9839100267be804940822,030303030303030303030303030303030303030303030303030303030303030302)#w34an3ue",
        "hex": "512103cf8acee2752053160b486a951f40f3b3d4f17e4e7c3686a7260c8aea144b57282102de07b9e6cfd2adf6fb1b1290c30d80359b5b6b80cdc9839100267be8049408222103030303030303030303030303030303030303030303030303030303030303030253ae",
        "type": "multisig"
      }
    },
    {
      "value": 0.00000796,
      "n": 2,
      "scriptPubKey": {
        "asm": "1 03cf8acee2752053160b6a847433071e6c62691c7d175fcae46765eeac785242bb 03c623ff95e9e1b3d7f73733a2c92abd0581682fa0d8eda3ad202458d333963616 030303030303030303030303030303030303030303030303030303030303030302 3 OP_CHECKMULTISIG",
        "desc": "multi(1,03cf8acee2752053160b6a847433071e6c62691c7d175fcae46765eeac785242bb,03c623ff95e9e1b3d7f73733a2c92abd0581682fa0d8eda3ad202458d333963616,030303030303030303030303030303030303030303030303030303030303030302)#j0xqcwt0",
        "hex": "512103cf8acee2752053160b6a847433071e6c62691c7d175fcae46765eeac785242bb2103c623ff95e9e1b3d7f73733a2c92abd0581682fa0d8eda3ad202458d3339636162103030303030303030303030303030303030303030303030303030303030303030253ae",
        "type": "multisig"
      }
    },
    {
      "value": 0.00000796,
      "n": 3,
      "scriptPubKey": {
        "asm": "1 03de8acee2752053160b1189760e21007557573d070f7fc5ed556ddddb7d774ad2 03fe038488ebdcaac5f3063499ba5ece4cc2225bf9808acae24965319e67d741ee 030303030303030303030303030303030303030303030303030303030303030302 3 OP_CHECKMULTISIG",
        "desc": "multi(1,03de8acee2752053160b1189760e21007557573d070f7fc5ed556ddddb7d774ad2,03fe038488ebdcaac5f3063499ba5ece4cc2225bf9808acae24965319e67d741ee,030303030303030303030303030303030303030303030303030303030303030302)#gw4ah8xt",
        "hex": "512103de8acee2752053160b1189760e21007557573d070f7fc5ed556ddddb7d774ad22103fe038488ebdcaac5f3063499ba5ece4cc2225bf9808acae24965319e67d741ee2103030303030303030303030303030303030303030303030303030303030303030253ae",
        "type": "multisig"
      }
    },
    {
      "value": 0.01684210,
      "n": 4,
      "scriptPubKey": {
        "asm": "OP_DUP OP_HASH160 a8d2e9c3426d63b7f0b1dc06c26869e7843fe58f OP_EQUALVERIFY OP_CHECKSIG",
        "desc": "addr(1GPfBjHemZayEHkPFuMTQsPUPDSdv86oHf)#2rphngu7",
        "hex": "76a914a8d2e9c3426d63b7f0b1dc06c26869e7843fe58f88ac",
        "address": "1GPfBjHemZayEHkPFuMTQsPUPDSdv86oHf",
        "type": "pubkeyhash"
      }
    }
  ],
  "hex": "0100000001e8105fce86ed58b1314b40d007cb706f551e35e4f07ea512a71169fe85ce8b66050000006a47304402204724882405c83440bad5486cd6d5f3d9eff6add2c9308b58f7209f7022f91c37022039a4e58b9617454d07dd47fa03331d55cba109d6322115507a85069431ba0c10012103c067d3d03af257df24cab4f26183e85a3619b796dad50302f5754f2f6fb8166cffffffff0522020000000000001976a914e186d8d88dc39ab5f296bc93b46e03e9f4229b9788ac1c0300000000000069512103cf8acee2752053160b486a951f40f3b3d4f17e4e7c3686a7260c8aea144b57282102de07b9e6cfd2adf6fb1b1290c30d80359b5b6b80cdc9839100267be8049408222103030303030303030303030303030303030303030303030303030303030303030253ae1c0300000000000069512103cf8acee2752053160b6a847433071e6c62691c7d175fcae46765eeac785242bb2103c623ff95e9e1b3d7f73733a2c92abd0581682fa0d8eda3ad202458d3339636162103030303030303030303030303030303030303030303030303030303030303030253ae1c0300000000000069512103de8acee2752053160b1189760e21007557573d070f7fc5ed556ddddb7d774ad22103fe038488ebdcaac5f3063499ba5ece4cc2225bf9808acae24965319e67d741ee2103030303030303030303030303030303030303030303030303030303030303030253aef2b21900000000001976a914a8d2e9c3426d63b7f0b1dc06c26869e7843fe58f88ac00000000",
  "blockhash": "00000000000000000001a51f58b7189cf87dde6decd2b1ec24fdf075ccdcd1e4",
  "confirmations": 126669,
  "time": 1683119409,
  "blocktime": 1683119409
}
