{
  "txid": "c8c3831f6354831f1f14ee8f979c2b114d883c85653aae1c2d286ad351dfc30c",
  "hash": "a0498f7f5468ad5cf255ec7b861ea587c381a4efd386049eeeafae657c67f82f",
  "version": 2,
  "size": 570,
  "vsize": 438,
  "weight": 1752,
  "locktime": 0,
  "vin": [
    {
      "txid": "cad58fd184bfc86761ae65408b65c51d05ea62dd8bf1d4c84b26b9c3fca0011d",
      "vout": 3,
      "scriptSig": {
        "asm": "",
        "hex": ""
      },
      "txinwitness": [
        "859dc6415af1b981877cb877e4a2adf6fc366880ea3bea076804abd600e0acba27fc8c97ab0222b29f6aa0313f0736d5b0736824f76b2545f0a8cf8173905dc281"
      ],
      "sequence": 4294967293
    },
    {
      "txid": "6a8219e7e51d0ca6da2f350a1da108c64e08c4c57739a5593c3987a9b54e9304",
      "vout": 1,
      "scriptSig": {
        "asm": "",
        "hex": ""
      },
      "txinwitness": [
        "304402207cda7324bd69ffb0886c19f437796c948980c8b8f02db87a965fd895cf862bb9022042f0bdc1b8181c0b3e2ba65b6df133d76e69a26dad966151f47cbfaa66257a6401",
        "02a57c4f91689e1373d9498faeded98b8a385e337f67f2fd4f98348e67ee45b04e"
      ],
      "sequence": 4294967293
    }
  ],
  "vout": [
    {
      "value": 0.00532440,
      "n": 0,
      "scriptPubKey": {
        "asm": "0 401dc07c62c27d4048215b573ba6a6ec370953aa",
        "desc": "addr(bc1qgqwuqlrzcf75qjpptdtnhf4xasmsj5a2cnsmzs)#pe3zcq6h",
        "hex": "0014401dc07c62c27d4048215b573ba6a6ec370953aa",
        "address": "bc1qgqwuqlrzcf75qjpptdtnhf4xasmsj5a2cnsmzs",
        "type": "witness_v0_keyhash"
      }
    },
    {
      "value": 0.00000796,
      "n": 1,
      "scriptPubKey": {
        "asm": "1 021c74afc09468461fe773b4787d814e9f3949af888f5d7da847b6a8c46082e077 0261007b84a35ed1cc9e66ee582083e01431a0006fd16d1dcbc3a96d68be8a2b85 033333333333333333333333333333333333333333333333333333333333333333 3 OP_CHECKMULTISIG",
        "desc": "multi(1,021c74afc09468461fe773b4787d814e9f3949af888f5d7da847b6a8c46082e077,0261007b84a35ed1cc9e66ee582083e01431a0006fd16d1dcbc3a96d68be8a2b85,033333333333333333333333333333333333333333333333333333333333333333)#34f97dxa",
        "hex": "5121021c74afc09468461fe773b4787d814e9f3949af888f5d7da847b6a8c46082e077210261007b84a35ed1cc9e66ee582083e01431a0006fd16d1dcbc3a96d68be8a2b852103333333333333333333333333333333333333333333333333333333333333333353ae",
        "type": "multisig"
      }
    },
    {
      "value": 0.00000796,
      "n": 2,
      "scriptPubKey": {
        "asm": "1 02a5568af814fa9e35686faa71cbdaaef9954e7e3e82d51134c0f009e9a3a589cd 027d2480bff7298ad2551c679c4671691c973bb907b7e7e03b726f1806c224f879 020202020202020202020202020202020202020202020202020202020202020202 3 OP_CHECKMULTISIG",
        "desc": "multi(1,02a5568af814fa9e35686faa71cbdaaef9954e7e3e82d51134c0f009e9a3a589cd,027d2480bff7298ad2551c679c4671691c973bb907b7e7e03b726f1806c224f879,020202020202020202020202020202020202020202020202020202020202020202)#rhjg02r6",
        "hex": "512102a5568af814fa9e35686faa71cbdaaef9954e7e3e82d51134c0f009e9a3a589cd21027d2480bff7298ad2551c679c4671691c973bb907b7e7e03b726f1806c224f8792102020202020202020202020202020202020202020202020202020202020202020253ae",
        "type": "multisig"
      }
    },
    {
      "value": 0.00000547,
      "n": 3,
      "scriptPubKey": {
        "asm": "1 351694bb9f666b958ebe550a491b8cb4e5d29e99eff9ffa14a24e6c09d3b5248",
        "desc": "rawtr(351694bb9f666b958ebe550a491b8cb4e5d29e99eff9ffa14a24e6c09d3b5248)#8n5j4s42",
        "hex": "5120351694bb9f666b958ebe550a491b8cb4e5d29e99eff9ffa14a24e6c09d3b5248",
        "address": "bc1px5tffwulve4etr47259yjxuvknja985ealullg22ynnvp8fm2fyqfhh8kr",
        "type": "witness_v1_taproot"
      }
    }
  ],
  "hex": "020000000001021d01a0fcc3b9264bc8d4f18bdd62ea051dc5658b4065ae6167c8bf84d18fd5ca0300000000fdffffff04934eb5a987393c59a53977c5c4084ec608a11d0a352fdaa60c1de5e719826a0100000000fdffffff04d81f080000000000160014401dc07c62c27d4048215b573ba6a6ec370953aa1c03000000000000695121021c74afc09468461fe773b4787d814e9f3949af888f5d7da847b6a8c46082e077210261007b84a35ed1cc9e66ee582083e01431a0006fd16d1dcbc3a96d68be8a2b852103333333333333333333333333333333333333333333333333333333333333333353ae1c0300000000000069512102a5568af814fa9e35686faa71cbdaaef9954e7e3e82d51134c0f009e9a3a589cd21027d2480bff7298ad2551c679c4671691c973bb907b7e7e03b726f1806c224f8792102020202020202020202020202020202020202020202020202020202020202020253ae2302000000000000225120351694bb9f666b958ebe550a491b8cb4e5d29e99eff9ffa14a24e6c09d3b52480141859dc6415af1b981877cb877e4a2adf6fc366880ea3bea076804abd600e0acba27fc8c97ab0222b29f6aa0313f0736d5b0736824f76b2545f0a8cf8173905dc2810247304402207cda7324bd69ffb0886c19f437796c948980c8b8f02db87a965fd895cf862bb9022042f0bdc1b8181c0b3e2ba65b6df133d76e69a26dad966151f47cbfaa66257a64012102a57c4f91689e1373d9498faeded98b8a385e337f67f2fd4f98348e67ee45b04e00000000",
  "blockhash": "0000000000000000000137693a132c504f1734852d53f20e0095cb98dc2b6591",
  "confirmations": 49756,
  "time": 1728542797,
  "blocktime": 1728542797
}
