{
  "txid": "1e20a653c0824c10ed9401953927bef16cfaf43411f7d45165b88e252d8a9f48",
  "hash": "7726f9810678faf218cd58d23b9d4f26a409982f875334aa75bc6d376c97183b",
  "version": 2,
  "size": 494,
  "vsize": 412,
  "weight": 1646,
  "locktime": 0,
  "vin": [
    {
      "txid": "e2b3caa0f54037348db775d58d4be3c6e1ebb33c288fbed5a7f9e128725c6e46",
      "vout": 0,
      "scriptSig": {
        "asm": "",
        "hex": ""
      },
      "txinwitness": [
        "304502210085bdbb733635c0e02c1d84e9803787c17447ec3c741e6f2272bc3c150da0bf1a02204cf004f51c387a9f98d042bcd740e6afee6db26398cc9f0ed88557308782f98a81",
        "03cb9789d5f08f475fe5079ad8ee6df35ca3a1c659c7e9a77c1e3d4460829bd721"
      ],
      "sequence": 4294967293
    }
  ],
  "vout": [
    {
      "value": 0.00000547,
      "n": 0,
      "scriptPubKey": {
        "asm": "1 9ac6d52efe61c6b0466a44016a39099d484ee94d526c99b7cc93fe9fdbd7bb68",
        "desc": "rawtr(9ac6d52efe61c6b0466a44016a39099d484ee94d526c99b7cc93fe9fdbd7bb68)#lrugcyzy",
        "hex": "51209ac6d52efe61c6b0466a44016a39099d484ee94d526c99b7cc93fe9fdbd7bb68",
        "address": "bc1pntrd2th7v8rtq3n2gsqk5wgfn4yya62d2fkfnd7vj0lflk7hhd5q7kyn23",
        "type": "witness_v1_taproot"
      }
    },
    {
      "value": 0.00000796,
      "n": 1,
      "scriptPubKey": {
        "asm": "1 02c858b2341a6aae6a7ea7e79672c936018a74dfe3287d66b56ea89f4045bc5c21 02be5154af3d0b071eff5011f8f823e592f1b879a268139690ff7dbb1b8ab26788 020202020202020202020202020202020202020202020202020202020202020202 3 OP_CHECKMULTISIG",
        "desc": "multi(1,02c858b2341a6aae6a7ea7e79672c936018a74dfe3287d66b56ea89f4045bc5c21,02be5154af3d0b071eff5011f8f823e592f1b879a268139690ff7dbb1b8ab26788,020202020202020202020202020202020202020202020202020202020202020202)#5gg9q7ln",
        "hex": "512102c858b2341a6aae6a7ea7e79672c936018a74dfe3287d66b56ea89f4045bc5c212102be5154af3d0b071eff5011f8f823e592f1b879a268139690ff7dbb1b8ab267882102020202020202020202020202020202020202020202020202020202020202020253ae",
        "type": "multisig"
      }
    },
    {
      "value": 0.00000796,
      "n": 2,
      "scriptPubKey": {
        "asm": "1 02ae8af94f2f527e6e5ff10efbdc0312a38185e00889e98ec456467769d6119976 027460f8380306900fe6b72061f90a0e4e4b10396d6949c8c44b7adf8ce78b713f 033333333333333333333333333333333333333333333333333333333333333333 3 OP_CHECKMULTISIG",
        "desc": "multi(1,02ae8af94f2f527e6e5ff10efbdc0312a38185e00889e98ec456467769d6119976,027460f8380306900fe6b72061f90a0e4e4b10396d6949c8c44b7adf8ce78b713f,033333333333333333333333333333333333333333333333333333333333333333)#d7rd5z7v",
        "hex": "512102ae8af94f2f527e6e5ff10efbdc0312a38185e00889e98ec456467769d611997621027460f8380306900fe6b72061f90a0e4e4b10396d6949c8c44b7adf8ce78b713f2103333333333333333333333333333333333333333333333333333333333333333353ae",
        "type": "multisig"
      }
    },
    {
      "value": 0.00328786,
      "n": 3,
      "scriptPubKey": {
        "asm": "0 f7d56905d3a1b08ab94a3fdee9d73ffe1362b25a",
        "desc": "addr(bc1q7l2kjpwn5xcg4w228l0wn4ellcfk9vj6h3lnz6)#0lm0k7cc",
        "hex": "0014f7d56905d3a1b08ab94a3fdee9d73ffe1362b25a",
        "address": "bc1q7l2kjpwn5xcg4w228l0wn4ellcfk9vj6h3lnz6",
        "type": "witness_v0_keyhash"
      }
    },
    {
      "value": 0.00013453,
      "n": 4,
      "scriptPubKey": {
        "asm": "0 09d702355110f0faaf6a69dba7740cca176586aa",
        "desc": "addr(bc1qp8tsyd23zrc04tm2d8d6waqvegtktp42rj4x00)#3yq5z99p",
        "hex": "001409d702355110f0faaf6a69dba7740cca176586aa",
        "address": "bc1qp8tsyd23zrc04tm2d8d6waqvegtktp42rj4x00",
        "type": "witness_v0_keyhash"
      }
    }
  ],
  "hex": "02000000000101466e5c7228e1f9a7d5be8f283cb3ebe1c6e34b8dd575b78d343740f5a0cab3e20000000000fdffffff0523020000000000002251209ac6d52efe61c6b0466a44016a39099d484ee94d526c99b7cc93fe9fdbd7bb681c0300000000000069512102c858b2341a6aae6a7ea7e79672c936018a74dfe3287d66b56ea89f4045bc5c212102be5154af3d0b071eff5011f8f823e592f1b879a268139690ff7dbb1b8ab267882102020202020202020202020202020202020202020202020202020202020202020253ae1c0300000000000069512102ae8af94f2f527e6e5ff10efbdc0312a38185e00889e98ec456467769d611997621027460f8380306900fe6b72061f90a0e4e4b10396d6949c8c44b7adf8ce78b713f2103333333333333333333333333333333333333333333333333333333333333333353ae5204050000000000160014f7d56905d3a1b08ab94a3fdee9d73ffe1362b25a8d3400000000000016001409d702355110f0faaf6a69dba7740cca176586aa0248304502210085bdbb733635c0e02c1d84e9803787c17447ec3c741e6f2272bc3c150da0bf1a02204cf004f51c387a9f98d042bcd740e6afee6db26398cc9f0ed88557308782f98a812103cb9789d5f08f475fe5079ad8ee6df35ca3a1c659c7e9a77c1e3d4460829bd72100000000",
  "blockhash": "0000000000000000000137693a132c504f1734852d53f20e0095cb98dc2b6591",
  "confirmations": 49756,
  "time": 1728542797,
  "blocktime": 1728542797
}
