{
  "txid": "3368bd06d79cc3a66a01d55cf81112e92affcb64022d7f1c78fafcad824ea426",
  "hash": "15c7975326835c156c59f063172e652ea11e46479222ea5575975985a8a82489",
  "version": 2,
  "size": 600,
  "vsize": 437,
  "weight": 1746,
  "locktime": 0,
  "vin": [
    {
      "txid": "117884ae989cfd2279f61fa04b7475c6a70aecd09a0f1ffb640083c58f6b4ce3",
      "vout": 10,
      "scriptSig": {
        "asm": "",
        "hex": ""
      },
      "txinwitness": [
        "3045022100d219ab4d3b66ce9aa6a94e725c7fbe9dccb2dc789e82d4d946bcab5f4626412e0220717406f78a165bdbde77f3c78a92c62f06b7aa4f74a5fb9741b58d8d495d625a81",
        "02e77ce3073695c12c113b221ba891fe1c9b6aa3e8aa4f52bf53c00400a06d1afd"
      ],
      "sequence": 4294967293
    },
    {
      "txid": "b02440d41dae032e7c17bf04a406516a092faf245f6b3e6f796dd527006c0995",
      "vout": 1,
      "scriptSig": {
        "asm": "",
        "hex": ""
      },
      "txinwitness": [
        "3045022100965d100afdcfce89d337fb1cb66d64506a54cd442556cfaded710b60fa017b3f022043543e11da94959a3ff280fd3ebb26f43a8cfc92d11ca2f89f38514dc51a910d01",
        "02a6b2b4b6b860de367b3a8ba2c82887c655b24d53f69c5fef7f75fa63b60e2006"
      ],
      "sequence": 4294967293
    }
  ],
  "vout": [
    {
      "value": 0.00834748,
      "n": 0,
      "scriptPubKey": {
        "asm": "0 f03878a309ec892a66b517e2ef874220da14b4ce",
        "desc": "addr(bc1q7qu83gcfajyj5e44zl3wlp6zyrdpfdxwzlc60d)#2ylkwkr0",
        "hex": "0014f03878a309ec892a66b517e2ef874220da14b4ce",
        "address": "bc1q7qu83gcfajyj5e44zl3wlp6zyrdpfdxwzlc60d",
        "type": "witness_v0_keyhash"
      }
    },
    {
      "value": 0.00000796,
      "n": 1,
      "scriptPubKey": {
        "asm": "1 0230f585699a5cb971820f83130224adf9cb303b9687f743b9a360012ad007dfe2 02b61add953cb469e7ce2aa3da91120259baf0a405476519870414329972885ca2 020202020202020202020202020202020202020202020202020202020202020202 3 OP_CHECKMULTISIG",
        "desc": "multi(1,0230f585699a5cb971820f83130224adf9cb303b9687f743b9a360012ad007dfe2,02b61add953cb469e7ce2aa3da91120259baf0a405476519870414329972885ca2,020202020202020202020202020202020202020202020202020202020202020202)#2tp7st29",
        "hex": "51210230f585699a5cb971820f83130224adf9cb303b9687f743b9a360012ad007dfe22102b61add953cb469e7ce2aa3da91120259baf0a405476519870414329972885ca22102020202020202020202020202020202020202020202020202020202020202020253ae",
        "type": "multisig"
      }
    },
    {
      "value": 0.00000796,
      "n": 2,
      "scriptPubKey": {
        "asm": "1 02123037af86deaedc611f6b1561fc97f74c9c6b55794dd339f9ce4eb4fc3fbcc4 02ce20fdabe29758b89d744bafaa79dd3656e471c1329d3a0abc012159da04f188 020202020202020202020202020202020202020202020202020202020202020202 3 OP_CHECKMULTISIG",
        "desc": "multi(1,02123037af86deaedc611f6b1561fc97f74c9c6b55794dd339f9ce4eb4fc3fbcc4,02ce20fdabe29758b89d744bafaa79dd3656e471c1329d3a0abc012159da04f188,020202020202020202020202020202020202020202020202020202020202020202)#6wa5q8k6",
        "hex": "512102123037af86deaedc611f6b1561fc97f74c9c6b55794dd339f9ce4eb4fc3fbcc42102ce20fdabe29758b89d744bafaa79dd3656e471c1329d3a0abc012159da04f1882102020202020202020202020202020202020202020202020202020202020202020253ae",
        "type": "multisig"
      }
    },
    {
      "value": 0.00000547,
      "n": 3,
      "scriptPubKey": {
        "asm": "0 ba297e865341c9b679f5cf5d1aef2dde0d499d96",
        "desc": "addr(bc1qhg5hapjng8ymv704eaw34medmcx5n8vkkutqqz)#xd38uq46",
        "hex": "0014ba297e865341c9b679f5cf5d1aef2dde0d499d96",
        "address": "bc1qhg5hapjng8ymv704eaw34medmcx5n8vkkutqqz",
        "type": "witness_v0_keyhash"
      }
    }
  ],
  "hex": "02000000000102e34c6b8fc5830064fb1f0f9ad0ec0aa7c675744ba01ff67922fd9c98ae8478110a00000000fdffffff95096c0027d56d796f3e6b5f24af2f096a5106a404bf177c2e03ae1dd44024b00100000000fdffffff04bcbc0c0000000000160014f03878a309ec892a66b517e2ef874220da14b4ce1c030000000000006951210230f585699a5cb971820f83130224adf9cb303b9687f743b9a360012ad007dfe22102b61add953cb469e7ce2aa3da91120259baf0a405476519870414329972885ca22102020202020202020202020202020202020202020202020202020202020202020253ae1c0300000000000069512102123037af86deaedc611f6b1561fc97f74c9c6b55794dd339f9ce4eb4fc3fbcc42102ce20fdabe29758b89d744bafaa79dd3656e471c1329d3a0abc012159da04f1882102020202020202020202020202020202020202020202020202020202020202020253ae2302000000000000160014ba297e865341c9b679f5cf5d1aef2dde0d499d9602483045022100d219ab4d3b66ce9aa6a94e725c7fbe9dccb2dc789e82d4d946bcab5f4626412e0220717406f78a165bdbde77f3c78a92c62f06b7aa4f74a5fb9741b58d8d495d625a812102e77ce3073695c12c113b221ba891fe1c9b6aa3e8aa4f52bf53c00400a06d1afd02483045022100965d100afdcfce89d337fb1cb66d64506a54cd442556cfaded710b60fa017b3f022043543e11da94959a3ff280fd3ebb26f43a8cfc92d11ca2f89f38514dc51a910d012102a6b2b4b6b860de367b3a8ba2c82887c655b24d53f69c5fef7f75fa63b60e200600000000",
  "blockhash": "0000000000000000000137693a132c504f1734852d53f20e0095cb98dc2b6591",
  "confirmations": 49756,
  "time": 1728542797,
  "blocktime": 1728542797
}
