{
  "txid": "0d5a0c9f4e29646d2dbafab12aaad8465f9e2dc637697ef83899f9d7086cc56b",
  "hash": "39db70f053acd6761af93f8280b263860a128bcd2538b6d377f1eeb2491307cb",
  "version": 2,
  "size": 599,
  "vsize": 437,
  "weight": 1745,
  "locktime": 0,
  "vin": [
    {
      "txid": "7b0fd577a2def98d0bbfca4f9041b7db8b6f6ea9a77bc107e418ceb75254fcf0",
      "vout": 3,
      "scriptSig": {
        "asm": "",
        "hex": ""
      },
      "txinwitness": [
        "3045022100e735bfbc0050ea425246eb34bfdb3a176e7c6b897c0d70e6a0ed5155dad9d49302204f66aa3fa9eee2363c47aa325b8e9b40b205d4ede0bda046b533cfba1d0a6f0681",
        "038994ce5582341c163cf1b24aa6cec80c97add2e664176b601ef61c638212c079"
      ],
      "sequence": 4294967293
    },
    {
      "txid": "8581c7dcdaa288d4d9b373136e1c321aa6305513547041afc37fa947c46e1373",
      "vout": 1,
      "scriptSig": {
        "asm": "",
        "hex": ""
      },
      "txinwitness": [
        "304402202cb5db11394f4ce61a46586b94b606ea13648d76ef6aaaff0135a282b0dfd65c02204cd0943e37900043cd079415e96f7300063ac919b140075e485777f53649b73f01",
        "021df778085a244814cfdf1f997337d3a6cfc878f66a197c7fc8318c477fa4474e"
      ],
      "sequence": 4294967293
    }
  ],
  "vout": [
    {
      "value": 0.00362100,
      "n": 0,
      "scriptPubKey": {
        "asm": "0 7f62237b9d99060e1ad342a57325dd733aad4b6c",
        "desc": "addr(bc1q0a3zx7uanyrquxkng2jhxfwawva26jmvwshcrm)#u7kd07z3",
        "hex": "00147f62237b9d99060e1ad342a57325dd733aad4b6c",
        "address": "bc1q0a3zx7uanyrquxkng2jhxfwawva26jmvwshcrm",
        "type": "witness_v0_keyhash"
      }
    },
    {
      "value": 0.00000796,
      "n": 1,
      "scriptPubKey": {
        "asm": "1 0237e657c4e6da8255ace597a198f89748a5d90ab737e90f19176f7fbb8103c5bf 02c24ea3a058f9d53b9a8598c24c0d398fba92beeb280c3a450f69f680c6692119 033333333333333333333333333333333333333333333333333333333333333333 3 OP_CHECKMULTISIG",
        "desc": "multi(1,0237e657c4e6da8255ace597a198f89748a5d90ab737e90f19176f7fbb8103c5bf,02c24ea3a058f9d53b9a8598c24c0d398fba92beeb280c3a450f69f680c6692119,033333333333333333333333333333333333333333333333333333333333333333)#k5jy83rx",
        "hex": "51210237e657c4e6da8255ace597a198f89748a5d90ab737e90f19176f7fbb8103c5bf2102c24ea3a058f9d53b9a8598c24c0d398fba92beeb280c3a450f69f680c66921192103333333333333333333333333333333333333333333333333333333333333333353ae",
        "type": "multisig"
      }
    },
    {
      "value": 0.00000796,
      "n": 2,
      "scriptPubKey": {
        "asm": "1 020387eb09472e83fb4095d8e2a3f061414df2432d519a5b14cc4afc53a956ca83 0208c0c44f2c41199e9d8e2d4b997940c964f24bdec1df45cd26594e61b06bac8c 022222222222222222222222222222222222222222222222222222222222222222 3 OP_CHECKMULTISIG",
        "desc": "multi(1,020387eb09472e83fb4095d8e2a3f061414df2432d519a5b14cc4afc53a956ca83,0208c0c44f2c41199e9d8e2d4b997940c964f24bdec1df45cd26594e61b06bac8c,022222222222222222222222222222222222222222222222222222222222222222)#zcqq7hfv",
        "hex": "5121020387eb09472e83fb4095d8e2a3f061414df2432d519a5b14cc4afc53a956ca83210208c0c44f2c41199e9d8e2d4b997940c964f24bdec1df45cd26594e61b06bac8c2102222222222222222222222222222222222222222222222222222222222222222253ae",
        "type": "multisig"
      }
    },
    {
      "value": 0.00000547,
      "n": 3,
      "scriptPubKey": {
        "asm": "0 aa5d09fcede314699bfc648957d372808a704683",
        "desc": "addr(bc1q4fwsnl8duv2xnxluvjy405mjsz98q35rc9yycj)#p4p7433s",
        "hex": "0014aa5d09fcede314699bfc648957d372808a704683",
        "address": "bc1q4fwsnl8duv2xnxluvjy405mjsz98q35rc9yycj",
        "type": "witness_v0_keyhash"
      }
    }
  ],
  "hex": "02000000000102f0fc5452b7ce18e407c17ba7a96e6f8bdbb741904fcabf0b8df9dea277d50f7b0300000000fdffffff73136ec447a97fc3af417054135530a61a321c6e1373b3d9d488a2dadcc781850100000000fdffffff0474860500000000001600147f62237b9d99060e1ad342a57325dd733aad4b6c1c030000000000006951210237e657c4e6da8255ace597a198f89748a5d90ab737e90f19176f7fbb8103c5bf2102c24ea3a058f9d53b9a8598c24c0d398fba92beeb280c3a450f69f680c66921192103333333333333333333333333333333333333333333333333333333333333333353ae1c03000000000000695121020387eb09472e83fb4095d8e2a3f061414df2432d519a5b14cc4afc53a956ca83210208c0c44f2c41199e9d8e2d4b997940c964f24bdec1df45cd26594e61b06bac8c2102222222222222222222222222222222222222222222222222222222222222222253ae2302000000000000160014aa5d09fcede314699bfc648957d372808a70468302483045022100e735bfbc0050ea425246eb34bfdb3a176e7c6b897c0d70e6a0ed5155dad9d49302204f66aa3fa9eee2363c47aa325b8e9b40b205d4ede0bda046b533cfba1d0a6f068121038994ce5582341c163cf1b24aa6cec80c97add2e664176b601ef61c638212c0790247304402202cb5db11394f4ce61a46586b94b606ea13648d76ef6aaaff0135a282b0dfd65c02204cd0943e37900043cd079415e96f7300063ac919b140075e485777f53649b73f0121021df778085a244814cfdf1f997337d3a6cfc878f66a197c7fc8318c477fa4474e00000000",
  "blockhash": "0000000000000000000184f77892f72b0ce032377a82a66e1189687149bccbe6",
  "confirmations": 49757,
  "time": 1728542758,
  "blocktime": 1728542758
}
