{
  "txid": "4d89d7f69ee77c3ddda041f94270b4112d002fc67b88008f29710fadfb486da8",
  "hash": "10e6f5ba107c45795276f23aa035d29b3f77481664f78177bbf01d5afe35e039",
  "version": 2,
  "size": 337,
  "vsize": 255,
  "weight": 1018,
  "locktime": 0,
  "vin": [
    {
      "txid": "9d4e8bac0b68f2f1dbee1b8b7187971731de6184b193a6c722aa6103818258fd",
      "vout": 2,
      "scriptSig": {
        "asm": "",
        "hex": ""
      },
      "txinwitness": [
        "3045022100dc9cbb37d8e58926a5c8755ad1332ca34e9da91fe48df9373dc7738162f06fca0220440217a39f276fc863dfd3e947e162e1135e897bfa277039fb53b5ae8562b53e01",
        "02b57765d1bf73bea490a484ab345b2fed3e261a91a2563081e73d0cd77f55374e"
      ],
      "sequence": 4294967293
    }
  ],
  "vout": [
    {
      "value": 0.00000298,
      "n": 0,
      "scriptPubKey": {
        "asm": "0 6a66d3c350baa3249a59d7017547c2fc5b623902",
        "desc": "addr(bc1qdfnd8s6sh23jfxje6uqh237zl3dkywgzvg8uyv)#heae34vg",
        "hex": "00146a66d3c350baa3249a59d7017547c2fc5b623902",
        "address": "bc1qdfnd8s6sh23jfxje6uqh237zl3dkywgzvg8uyv",
        "type": "witness_v0_keyhash"
      }
    },
    {
      "value": 0.00000796,
      "n": 1,
      "scriptPubKey": {
        "asm": "1 026a43aa44d05e6318b171b76f2058ddf4fc8a3826099690689d4666d0905f11f8 0309ddfdbb7584f3221c94561d38fbd136dc8b4ba6b25e6e8d4055a1527b186ede 020202020202020202020202020202020202020202020202020202020202020202 3 OP_CHECKMULTISIG",
        "desc": "multi(1,026a43aa44d05e6318b171b76f2058ddf4fc8a3826099690689d4666d0905f11f8,0309ddfdbb7584f3221c94561d38fbd136dc8b4ba6b25e6e8d4055a1527b186ede,020202020202020202020202020202020202020202020202020202020202020202)#73f553k2",
        "hex": "5121026a43aa44d05e6318b171b76f2058ddf4fc8a3826099690689d4666d0905f11f8210309ddfdbb7584f3221c94561d38fbd136dc8b4ba6b25e6e8d4055a1527b186ede2102020202020202020202020202020202020202020202020202020202020202020253ae",
        "type": "multisig"
      }
    },
    {
      "value": 0.00044116,
      "n": 2,
      "scriptPubKey": {
        "asm": "0 761e2eeaf2b17a12a346e288fed08fb105c74cda",
        "desc": "addr(bc1qwc0za6hjk9ap9g6xu2y0a5y0kyzuwnx6a3lq7y)#nyy0fwup",
        "hex": "0014761e2eeaf2b17a12a346e288fed08fb105c74cda",
        "address": "bc1qwc0za6hjk9ap9g6xu2y0a5y0kyzuwnx6a3lq7y",
        "type": "witness_v0_keyhash"
      }
    }
  ],
  "hex": "02000000000101fd5882810361aa22c7a693b18461de31179787718b1beedbf1f2680bac8b4e9d0200000000fdffffff032a010000000000001600146a66d3c350baa3249a59d7017547c2fc5b6239021c03000000000000695121026a43aa44d05e6318b171b76f2058ddf4fc8a3826099690689d4666d0905f11f8210309ddfdbb7584f3221c94561d38fbd136dc8b4ba6b25e6e8d4055a1527b186ede2102020202020202020202020202020202020202020202020202020202020202020253ae54ac000000000000160014761e2eeaf2b17a12a346e288fed08fb105c74cda02483045022100dc9cbb37d8e58926a5c8755ad1332ca34e9da91fe48df9373dc7738162f06fca0220440217a39f276fc863dfd3e947e162e1135e897bfa277039fb53b5ae8562b53e012102b57765d1bf73bea490a484ab345b2fed3e261a91a2563081e73d0cd77f55374e00000000",
  "blockhash": "000000000000000000023ce61baef0dde77b10b1f9f1880c1af2f3be868d5bec",
  "confirmations": 61680,
  "time": 1721808728,
  "blocktime": 1721808728
}
