{
  "txid": "001a863cf538ac94b121baf79c596abdb904e4cda87f407df2751aefc5590dd4",
  "hash": "001a863cf538ac94b121baf79c596abdb904e4cda87f407df2751aefc5590dd4",
  "version": 1,
  "size": 448,
  "vsize": 448,
  "weight": 1792,
  "locktime": 0,
  "vin": [
    {
      "txid": "3213f80f25b2ceb8be076082e011b18bead110314e5b4817466bce1dc5cd78fd",
      "vout": 2,
      "scriptSig": {
        "asm": "3045022100e87f6ef8c9ecbc7bb83d21d82db2e8ec227d8b43c0f614aea57145ac62050f9e022076a320914f704cf631edf0b280bd2039df8964a5b08748fe93693a9ce576e29b[ALL] 0451e39856a4df5f4a8001e33b66db83d186c2e04eeddb8c9fcb0f5754000bd1026cdbb382f13c6d7af6147719020cc5bc00ee2cceec1ecc32eaa2e6a8d02b84dd",
        "hex": "483045022100e87f6ef8c9ecbc7bb83d21d82db2e8ec227d8b43c0f614aea57145ac62050f9e022076a320914f704cf631edf0b280bd2039df8964a5b08748fe93693a9ce576e29b01410451e39856a4df5f4a8001e33b66db83d186c2e04eeddb8c9fcb0f5754000bd1026cdbb382f13c6d7af6147719020cc5bc00ee2cceec1ecc32eaa2e6a8d02b84dd"
      },
      "sequence": 4294967295
    }
  ],
  "vout": [
    {
      "value": 0.00010860,
      "n": 0,
      "scriptPubKey": {
        "asm": "1 0451e39856a4df5f4a8001e33b66db83d186c2e04eeddb8c9fcb0f5754000bd1026cdbb382f13c6d7af6147719020cc5bc00ee2cceec1ecc32eaa2e6a8d02b84dd 204348414e4345434f00000046432c142e281d68d40682d5c4f323dcd2ebfebc6f 2 OP_CHECKMULTISIG",
        "desc": "raw(51410451e39856a4df5f4a8001e33b66db83d186c2e04eeddb8c9fcb0f5754000bd1026cdbb382f13c6d7af6147719020cc5bc00ee2cceec1ecc32eaa2e6a8d02b84dd21204348414e4345434f00000046432c142e281d68d40682d5c4f323dcd2ebfebc6f52ae)#snym7u70",
        "hex": "51410451e39856a4df5f4a8001e33b66db83d186c2e04eeddb8c9fcb0f5754000bd1026cdbb382f13c6d7af6147719020cc5bc00ee2cceec1ecc32eaa2e6a8d02b84dd21204348414e4345434f00000046432c142e281d68d40682d5c4f323dcd2ebfebc6f52ae",
        "type": "nonstandard"
      }
    },
    {
      "value": 0.00010860,
      "n": 1,
      "scriptPubKey": {
        "asm": "1 0451e39856a4df5f4a8001e33b66db83d186c2e04eeddb8c9fcb0f5754000bd1026cdbb382f13c6d7af6147719020cc5bc00ee2cceec1ecc32eaa2e6a8d02b84dd 0c538c0599fd4d5d6eb3571e940000000000000000000000000000000000000000 2 OP_CHECKMULTISIG",
        "desc": "raw(51410451e39856a4df5f4a8001e33b66db83d186c2e04eeddb8c9fcb0f5754000bd1026cdbb382f13c6d7af6147719020cc5bc00ee2cceec1ecc32eaa2e6a8d02b84dd210c538c0599fd4d5d6eb3571e94000000000000000000000000000000000000000052ae)#72hy5y9l",
        "hex": "51410451e39856a4df5f4a8001e33b66db83d186c2e04eeddb8c9fcb0f5754000bd1026cdbb382f13c6d7af6147719020cc5bc00ee2cceec1ecc32eaa2e6a8d02b84dd210c538c0599fd4d5d6eb3571e94000000000000000000000000000000000000000052ae",
        "type": "nonstandard"
      }
    },
    {
      "value": 0.22360341,
      "n": 2,
      "scriptPubKey": {
        "asm": "OP_DUP OP_HASH160 646ba85d02d7ceafb8d9da33b3e978ce69b420d2 OP_EQUALVERIFY OP_CHECKSIG",
        "desc": "addr(1A9yYNQSYqD7W3GSXwdsFM4LCSkjgifhAj)#mj2epe24",
        "hex": "76a914646ba85d02d7ceafb8d9da33b3e978ce69b420d288ac",
        "address": "1A9yYNQSYqD7W3GSXwdsFM4LCSkjgifhAj",
        "type": "pubkeyhash"
      }
    }
  ],
  "hex": "0100000001fd78cdc51dce6b4617485b4e3110d1ea8bb111e0826007beb8ceb2250ff81332020000008b483045022100e87f6ef8c9ecbc7bb83d21d82db2e8ec227d8b43c0f614aea57145ac62050f9e022076a320914f704cf631edf0b280bd2039df8964a5b08748fe93693a9ce576e29b01410451e39856a4df5f4a8001e33b66db83d186c2e04eeddb8c9fcb0f5754000bd1026cdbb382f13c6d7af6147719020cc5bc00ee2cceec1ecc32eaa2e6a8d02b84ddffffffff036c2a0000000000006751410451e39856a4df5f4a8001e33b66db83d186c2e04eeddb8c9fcb0f5754000bd1026cdbb382f13c6d7af6147719020cc5bc00ee2cceec1ecc32eaa2e6a8d02b84dd21204348414e4345434f00000046432c142e281d68d40682d5c4f323dcd2ebfebc6f52ae6c2a0000000000006751410451e39856a4df5f4a8001e33b66db83d186c2e04eeddb8c9fcb0f5754000bd1026cdbb382f13c6d7af6147719020cc5bc00ee2cceec1ecc32eaa2e6a8d02b84dd210c538c0599fd4d5d6eb3571e94000000000000000000000000000000000000000052ae15315501000000001976a914646ba85d02d7ceafb8d9da33b3e978ce69b420d288ac00000000",
  "blockhash": "000000000000000053355ddcc1c113a02409d1903343c99ad0e6dfb84cc4123a",
  "confirmations": 616516,
  "time": 1400135221,
  "blocktime": 1400135221
}
