{
  "txid": "0023fad37f02dd0cbd8d12e97d46ccba3947342c422f3793ccea301e9c28045f",
  "hash": "0023fad37f02dd0cbd8d12e97d46ccba3947342c422f3793ccea301e9c28045f",
  "version": 1,
  "size": 448,
  "vsize": 448,
  "weight": 1792,
  "locktime": 0,
  "vin": [
    {
      "txid": "8542d1f10034170806ed3793bb4e3f59a21b5427d6a70cc3bb5e0bcf2161e9b2",
      "vout": 0,
      "scriptSig": {
        "asm": "30450221009974ab91be8370949767f576924280389aba3b4017bcafe9cebc3ac143402d7302206015b8659e78034f878fdf7a604d1e4773d811513cbb94b08da9b4b2b0fa357d[ALL] 04b4ac193ff7bc849e81fd90e8f3334691aba5382221a270e3e134dfe3d6621c1357d9f4d1d7dff6d160dc28554d8eed7e45181c93fb69829c644196349323929a",
        "hex": "4830450221009974ab91be8370949767f576924280389aba3b4017bcafe9cebc3ac143402d7302206015b8659e78034f878fdf7a604d1e4773d811513cbb94b08da9b4b2b0fa357d014104b4ac193ff7bc849e81fd90e8f3334691aba5382221a270e3e134dfe3d6621c1357d9f4d1d7dff6d160dc28554d8eed7e45181c93fb69829c644196349323929a"
      },
      "sequence": 4294967295
    }
  ],
  "vout": [
    {
      "value": 0.00001000,
      "n": 0,
      "scriptPubKey": {
        "asm": "OP_DUP OP_HASH160 7bb7b3c730fcc298294b0d1d4d1427f685a9ce74 OP_EQUALVERIFY OP_CHECKSIG",
        "desc": "addr(1CHABTCsWGp25zjfDWjYrhejgP5V97Zv9r)#smx3u8nv",
        "hex": "76a9147bb7b3c730fcc298294b0d1d4d1427f685a9ce7488ac",
        "address": "1CHABTCsWGp25zjfDWjYrhejgP5V97Zv9r",
        "type": "pubkeyhash"
      }
    },
    {
      "value": 0.00000780,
      "n": 1,
      "scriptPubKey": {
        "asm": "1 04b4ac193ff7bc849e81fd90e8f3334691aba5382221a270e3e134dfe3d6621c1357d9f4d1d7dff6d160dc28554d8eed7e45181c93fb69829c644196349323929a 204348414e4345434f0000000e8542d1f10034170806ed3793bb4e3f59a21b5427 2 OP_CHECKMULTISIG",
        "desc": "raw(514104b4ac193ff7bc849e81fd90e8f3334691aba5382221a270e3e134dfe3d6621c1357d9f4d1d7dff6d160dc28554d8eed7e45181c93fb69829c644196349323929a21204348414e4345434f0000000e8542d1f10034170806ed3793bb4e3f59a21b542752ae)#f50hvzee",
        "hex": "514104b4ac193ff7bc849e81fd90e8f3334691aba5382221a270e3e134dfe3d6621c1357d9f4d1d7dff6d160dc28554d8eed7e45181c93fb69829c644196349323929a21204348414e4345434f0000000e8542d1f10034170806ed3793bb4e3f59a21b542752ae",
        "type": "nonstandard"
      }
    },
    {
      "value": 0.00000780,
      "n": 2,
      "scriptPubKey": {
        "asm": "1 04b4ac193ff7bc849e81fd90e8f3334691aba5382221a270e3e134dfe3d6621c1357d9f4d1d7dff6d160dc28554d8eed7e45181c93fb69829c644196349323929a 14d6a70cc3bb5e0bcf2161e9b23fea9e5fdc3774ba000000000000000000000000 2 OP_CHECKMULTISIG",
        "desc": "raw(514104b4ac193ff7bc849e81fd90e8f3334691aba5382221a270e3e134dfe3d6621c1357d9f4d1d7dff6d160dc28554d8eed7e45181c93fb69829c644196349323929a2114d6a70cc3bb5e0bcf2161e9b23fea9e5fdc3774ba00000000000000000000000052ae)#86y9zzzm",
        "hex": "514104b4ac193ff7bc849e81fd90e8f3334691aba5382221a270e3e134dfe3d6621c1357d9f4d1d7dff6d160dc28554d8eed7e45181c93fb69829c644196349323929a2114d6a70cc3bb5e0bcf2161e9b23fea9e5fdc3774ba00000000000000000000000052ae",
        "type": "nonstandard"
      }
    }
  ],
  "hex": "0100000001b2e96121cf0b5ebbc30ca7d627541ba2593f4ebb9337ed0608173400f1d14285000000008b4830450221009974ab91be8370949767f576924280389aba3b4017bcafe9cebc3ac143402d7302206015b8659e78034f878fdf7a604d1e4773d811513cbb94b08da9b4b2b0fa357d014104b4ac193ff7bc849e81fd90e8f3334691aba5382221a270e3e134dfe3d6621c1357d9f4d1d7dff6d160dc28554d8eed7e45181c93fb69829c644196349323929affffffff03e8030000000000001976a9147bb7b3c730fcc298294b0d1d4d1427f685a9ce7488ac0c0300000000000067514104b4ac193ff7bc849e81fd90e8f3334691aba5382221a270e3e134dfe3d6621c1357d9f4d1d7dff6d160dc28554d8eed7e45181c93fb69829c644196349323929a21204348414e4345434f0000000e8542d1f10034170806ed3793bb4e3f59a21b542752ae0c0300000000000067514104b4ac193ff7bc849e81fd90e8f3334691aba5382221a270e3e134dfe3d6621c1357d9f4d1d7dff6d160dc28554d8eed7e45181c93fb69829c644196349323929a2114d6a70cc3bb5e0bcf2161e9b23fea9e5fdc3774ba00000000000000000000000052ae00000000",
  "blockhash": "000000000000000018e7117d6dbde846bb0231d7e0d626b47e7e93d78fd15d94",
  "confirmations": 584839,
  "time": 1417484555,
  "blocktime": 1417484555
}
