{
  "txid": "00465a96bb61ef1ab9df812f0c6f196da902064a4d63ab05399747252907f962",
  "hash": "00465a96bb61ef1ab9df812f0c6f196da902064a4d63ab05399747252907f962",
  "version": 1,
  "size": 305,
  "vsize": 305,
  "weight": 1220,
  "locktime": 0,
  "vin": [
    {
      "txid": "410951ad5bf9f50516cd76d029d7bf59b30e4b63bdbf1c12eebfac78a138f8fd",
      "vout": 2,
      "scriptSig": {
        "asm": "304402201d736d8e7edb3e007e0089fc28403157320dc16bb1f86010f72e8573f1deffcf02201b9ba560f88fa2916a0dbab482ef2bb12881459fab65ae63a1072236d0c482e7[ALL] 02ce957053134909530c611f495bbc394addd152eb9c146acc0a6fa67baebe043e",
        "hex": "47304402201d736d8e7edb3e007e0089fc28403157320dc16bb1f86010f72e8573f1deffcf02201b9ba560f88fa2916a0dbab482ef2bb12881459fab65ae63a1072236d0c482e7012102ce957053134909530c611f495bbc394addd152eb9c146acc0a6fa67baebe043e"
      },
      "sequence": 4294967295
    }
  ],
  "vout": [
    {
      "value": 0.00010860,
      "n": 0,
      "scriptPubKey": {
        "asm": "OP_DUP OP_HASH160 018bd63d2e78c7987fb82b24cfaa5fd43ed128dc OP_EQUALVERIFY OP_CHECKSIG",
        "desc": "addr(19BCEDshTCpu3N5DW867CTutUK3DDuycW)#tgfggu4r",
        "hex": "76a914018bd63d2e78c7987fb82b24cfaa5fd43ed128dc88ac",
        "address": "19BCEDshTCpu3N5DW867CTutUK3DDuycW",
        "type": "pubkeyhash"
      }
    },
    {
      "value": 0.00010860,
      "n": 1,
      "scriptPubKey": {
        "asm": "1 02ce957053134909530c611f495bbc394addd152eb9c146acc0a6fa67baebe043e 1c4348414e4345434f00000000000000000000000100000005a569a28000000000 2 OP_CHECKMULTISIG",
        "desc": "raw(512102ce957053134909530c611f495bbc394addd152eb9c146acc0a6fa67baebe043e211c4348414e4345434f00000000000000000000000100000005a569a2800000000052ae)#u26he0ug",
        "hex": "512102ce957053134909530c611f495bbc394addd152eb9c146acc0a6fa67baebe043e211c4348414e4345434f00000000000000000000000100000005a569a2800000000052ae",
        "type": "nonstandard"
      }
    },
    {
      "value": 0.06852260,
      "n": 2,
      "scriptPubKey": {
        "asm": "OP_DUP OP_HASH160 618a1c6c3660688cf794fd1417ace0929438de58 OP_EQUALVERIFY OP_CHECKSIG",
        "desc": "addr(19tjzjLKgiLCUZA2s2wH9aNd3TTHJJXgY7)#rw0ngu8l",
        "hex": "76a914618a1c6c3660688cf794fd1417ace0929438de5888ac",
        "address": "19tjzjLKgiLCUZA2s2wH9aNd3TTHJJXgY7",
        "type": "pubkeyhash"
      }
    }
  ],
  "hex": "0100000001fdf838a178acbfee121cbfbd634b0eb359bfd729d076cd1605f5f95bad510941020000006a47304402201d736d8e7edb3e007e0089fc28403157320dc16bb1f86010f72e8573f1deffcf02201b9ba560f88fa2916a0dbab482ef2bb12881459fab65ae63a1072236d0c482e7012102ce957053134909530c611f495bbc394addd152eb9c146acc0a6fa67baebe043effffffff036c2a0000000000001976a914018bd63d2e78c7987fb82b24cfaa5fd43ed128dc88ac6c2a00000000000047512102ce957053134909530c611f495bbc394addd152eb9c146acc0a6fa67baebe043e211c4348414e4345434f00000000000000000000000100000005a569a2800000000052aea48e6800000000001976a914618a1c6c3660688cf794fd1417ace0929438de5888ac00000000",
  "blockhash": "0000000000000000134514e71da327e0c04f976f1f79036f131245584adfc50f",
  "confirmations": 616069,
  "time": 1400360195,
  "blocktime": 1400360195
}
