{
  "txid": "0052a7c60352399ed25cba926078c58cf795ff70891a7ca3e6c59299b9084cd0",
  "hash": "0052a7c60352399ed25cba926078c58cf795ff70891a7ca3e6c59299b9084cd0",
  "version": 1,
  "size": 351,
  "vsize": 351,
  "weight": 1404,
  "locktime": 0,
  "vin": [
    {
      "txid": "c5da4b4a33eaa4f8d5aa4a3fa25cdfc2f0686432265cb7edbb6c088cb786a677",
      "vout": 0,
      "scriptSig": {
        "asm": "304402205c355e542acfce8ec74096a81f1e117c3273cd22b4bb7f5ddfb9eec3dd495ed802200ab526972fe80b2deb98eed6a6d89bb1e97649d634a690dc183e811a6999796a[ALL] 027ed37d607ad691646dbc091d26866b8951fb50b300d33e9093c4d2bb7aad5d5b",
        "hex": "47304402205c355e542acfce8ec74096a81f1e117c3273cd22b4bb7f5ddfb9eec3dd495ed802200ab526972fe80b2deb98eed6a6d89bb1e97649d634a690dc183e811a6999796a0121027ed37d607ad691646dbc091d26866b8951fb50b300d33e9093c4d2bb7aad5d5b"
      },
      "sequence": 4294967295
    }
  ],
  "vout": [
    {
      "value": 0.00010860,
      "n": 0,
      "scriptPubKey": {
        "asm": "1 027ed37d607ad691646dbc091d26866b8951fb50b300d33e9093c4d2bb7aad5d5b 204348414e4345434f00000028000000003b9aca0040440000000000004003cccc 2 OP_CHECKMULTISIG",
        "desc": "raw(5121027ed37d607ad691646dbc091d26866b8951fb50b300d33e9093c4d2bb7aad5d5b21204348414e4345434f00000028000000003b9aca0040440000000000004003cccc52ae)#keyz7tur",
        "hex": "5121027ed37d607ad691646dbc091d26866b8951fb50b300d33e9093c4d2bb7aad5d5b21204348414e4345434f00000028000000003b9aca0040440000000000004003cccc52ae",
        "type": "nonstandard"
      }
    },
    {
      "value": 0.00010860,
      "n": 1,
      "scriptPubKey": {
        "asm": "1 027ed37d607ad691646dbc091d26866b8951fb50b300d33e9093c4d2bb7aad5d5b 04cccccccd00000000000000000000000000000000000000000000000000000000 2 OP_CHECKMULTISIG",
        "desc": "raw(5121027ed37d607ad691646dbc091d26866b8951fb50b300d33e9093c4d2bb7aad5d5b2104cccccccd0000000000000000000000000000000000000000000000000000000052ae)#pe3ywxdx",
        "hex": "5121027ed37d607ad691646dbc091d26866b8951fb50b300d33e9093c4d2bb7aad5d5b2104cccccccd0000000000000000000000000000000000000000000000000000000052ae",
        "type": "nonstandard"
      }
    },
    {
      "value": 0.01968280,
      "n": 2,
      "scriptPubKey": {
        "asm": "OP_DUP OP_HASH160 581d833bd9573b7b4690dc8df2e7052d79ac539b OP_EQUALVERIFY OP_CHECKSIG",
        "desc": "addr(192upTNbXXuh4ndbnGFdk1SPY1TAHCReVF)#ae9yuf5t",
        "hex": "76a914581d833bd9573b7b4690dc8df2e7052d79ac539b88ac",
        "address": "192upTNbXXuh4ndbnGFdk1SPY1TAHCReVF",
        "type": "pubkeyhash"
      }
    }
  ],
  "hex": "010000000177a686b78c086cbbedb75c26326468f0c2df5ca23f4aaad5f8a4ea334a4bdac5000000006a47304402205c355e542acfce8ec74096a81f1e117c3273cd22b4bb7f5ddfb9eec3dd495ed802200ab526972fe80b2deb98eed6a6d89bb1e97649d634a690dc183e811a6999796a0121027ed37d607ad691646dbc091d26866b8951fb50b300d33e9093c4d2bb7aad5d5bffffffff036c2a000000000000475121027ed37d607ad691646dbc091d26866b8951fb50b300d33e9093c4d2bb7aad5d5b21204348414e4345434f00000028000000003b9aca0040440000000000004003cccc52ae6c2a000000000000475121027ed37d607ad691646dbc091d26866b8951fb50b300d33e9093c4d2bb7aad5d5b2104cccccccd0000000000000000000000000000000000000000000000000000000052ae98081e00000000001976a914581d833bd9573b7b4690dc8df2e7052d79ac539b88ac00000000",
  "blockhash": "000000000000000068d7ff7f10a3907030390ba07009628f4926b2412f25177d",
  "confirmations": 616521,
  "time": 1400134025,
  "blocktime": 1400134025
}
