{
  "txid": "005b47811eb0c50a9272ec8ce79faca62cc14d3a9f787d6d19dacd6818974057",
  "hash": "005b47811eb0c50a9272ec8ce79faca62cc14d3a9f787d6d19dacd6818974057",
  "version": 1,
  "size": 447,
  "vsize": 447,
  "weight": 1788,
  "locktime": 0,
  "vin": [
    {
      "txid": "dcffca0cdc43a05015ffcc9229277b9a4a3ccb8e2bdf86e4824ceec02f7f4ec2",
      "vout": 0,
      "scriptSig": {
        "asm": "304402205cb8fa1fb14d16d82f4136ea7933984f4cbff16ab920fea3139a9c1c4f8606d6022046080226d432b4fe81353fad297da8af11ca789d081c9b30da4d6d57238a684c[ALL] 04b4ac193ff7bc849e81fd90e8f3334691aba5382221a270e3e134dfe3d6621c1357d9f4d1d7dff6d160dc28554d8eed7e45181c93fb69829c644196349323929a",
        "hex": "47304402205cb8fa1fb14d16d82f4136ea7933984f4cbff16ab920fea3139a9c1c4f8606d6022046080226d432b4fe81353fad297da8af11ca789d081c9b30da4d6d57238a684c014104b4ac193ff7bc849e81fd90e8f3334691aba5382221a270e3e134dfe3d6621c1357d9f4d1d7dff6d160dc28554d8eed7e45181c93fb69829c644196349323929a"
      },
      "sequence": 4294967295
    }
  ],
  "vout": [
    {
      "value": 0.00001000,
      "n": 0,
      "scriptPubKey": {
        "asm": "OP_DUP OP_HASH160 7bb7b3c730fcc298294b0d1d4d1427f685a9ce74 OP_EQUALVERIFY OP_CHECKSIG",
        "desc": "addr(1CHABTCsWGp25zjfDWjYrhejgP5V97Zv9r)#smx3u8nv",
        "hex": "76a9147bb7b3c730fcc298294b0d1d4d1427f685a9ce7488ac",
        "address": "1CHABTCsWGp25zjfDWjYrhejgP5V97Zv9r",
        "type": "pubkeyhash"
      }
    },
    {
      "value": 0.00000780,
      "n": 1,
      "scriptPubKey": {
        "asm": "1 04b4ac193ff7bc849e81fd90e8f3334691aba5382221a270e3e134dfe3d6621c1357d9f4d1d7dff6d160dc28554d8eed7e45181c93fb69829c644196349323929a 204348414e4345434f0000000edcffca0cdc43a05015ffcc9229277b9a4a3ccb8e 2 OP_CHECKMULTISIG",
        "desc": "raw(514104b4ac193ff7bc849e81fd90e8f3334691aba5382221a270e3e134dfe3d6621c1357d9f4d1d7dff6d160dc28554d8eed7e45181c93fb69829c644196349323929a21204348414e4345434f0000000edcffca0cdc43a05015ffcc9229277b9a4a3ccb8e52ae)#eaaxr27s",
        "hex": "514104b4ac193ff7bc849e81fd90e8f3334691aba5382221a270e3e134dfe3d6621c1357d9f4d1d7dff6d160dc28554d8eed7e45181c93fb69829c644196349323929a21204348414e4345434f0000000edcffca0cdc43a05015ffcc9229277b9a4a3ccb8e52ae",
        "type": "nonstandard"
      }
    },
    {
      "value": 0.00000780,
      "n": 2,
      "scriptPubKey": {
        "asm": "1 04b4ac193ff7bc849e81fd90e8f3334691aba5382221a270e3e134dfe3d6621c1357d9f4d1d7dff6d160dc28554d8eed7e45181c93fb69829c644196349323929a 142bdf86e4824ceec02f7f4ec23fef477453436892000000000000000000000000 2 OP_CHECKMULTISIG",
        "desc": "raw(514104b4ac193ff7bc849e81fd90e8f3334691aba5382221a270e3e134dfe3d6621c1357d9f4d1d7dff6d160dc28554d8eed7e45181c93fb69829c644196349323929a21142bdf86e4824ceec02f7f4ec23fef47745343689200000000000000000000000052ae)#fqtw4tfe",
        "hex": "514104b4ac193ff7bc849e81fd90e8f3334691aba5382221a270e3e134dfe3d6621c1357d9f4d1d7dff6d160dc28554d8eed7e45181c93fb69829c644196349323929a21142bdf86e4824ceec02f7f4ec23fef47745343689200000000000000000000000052ae",
        "type": "nonstandard"
      }
    }
  ],
  "hex": "0100000001c24e7f2fc0ee4c82e486df2b8ecb3c4a9a7b272992ccff1550a043dc0ccaffdc000000008a47304402205cb8fa1fb14d16d82f4136ea7933984f4cbff16ab920fea3139a9c1c4f8606d6022046080226d432b4fe81353fad297da8af11ca789d081c9b30da4d6d57238a684c014104b4ac193ff7bc849e81fd90e8f3334691aba5382221a270e3e134dfe3d6621c1357d9f4d1d7dff6d160dc28554d8eed7e45181c93fb69829c644196349323929affffffff03e8030000000000001976a9147bb7b3c730fcc298294b0d1d4d1427f685a9ce7488ac0c0300000000000067514104b4ac193ff7bc849e81fd90e8f3334691aba5382221a270e3e134dfe3d6621c1357d9f4d1d7dff6d160dc28554d8eed7e45181c93fb69829c644196349323929a21204348414e4345434f0000000edcffca0cdc43a05015ffcc9229277b9a4a3ccb8e52ae0c0300000000000067514104b4ac193ff7bc849e81fd90e8f3334691aba5382221a270e3e134dfe3d6621c1357d9f4d1d7dff6d160dc28554d8eed7e45181c93fb69829c644196349323929a21142bdf86e4824ceec02f7f4ec23fef47745343689200000000000000000000000052ae00000000",
  "blockhash": "0000000000000000084325ca26212e4503c9be6569dfd41b6a1847d9f58c46ff",
  "confirmations": 598330,
  "time": 1409802119,
  "blocktime": 1409802119
}
