{
  "txid": "005e3f8e406820abf1af5d6e2fa20774dceeac6bf087cfcff16737e90af56e68",
  "hash": "005e3f8e406820abf1af5d6e2fa20774dceeac6bf087cfcff16737e90af56e68",
  "version": 1,
  "size": 352,
  "vsize": 352,
  "weight": 1408,
  "locktime": 0,
  "vin": [
    {
      "txid": "65c723dcc3619d2179ae053eb3b2877b13853535393a15ba2b4244d439c2d112",
      "vout": 2,
      "scriptSig": {
        "asm": "30450221009b8a97fb525fa691b40570a16510e4a0cea32d3065d2fe08d8b13075ab47497d02207d5b799d5d591d8e92cb8cbfb7ddb7494bc95af568393f71cb78229fe211b1dc[ALL] 0385a76bf4b90f4943c562baa4f5e2b1a0191449930796992ba6ec2bd9558c3cb8",
        "hex": "4830450221009b8a97fb525fa691b40570a16510e4a0cea32d3065d2fe08d8b13075ab47497d02207d5b799d5d591d8e92cb8cbfb7ddb7494bc95af568393f71cb78229fe211b1dc01210385a76bf4b90f4943c562baa4f5e2b1a0191449930796992ba6ec2bd9558c3cb8"
      },
      "sequence": 4294967295
    }
  ],
  "vout": [
    {
      "value": 0.00010860,
      "n": 0,
      "scriptPubKey": {
        "asm": "1 0385a76bf4b90f4943c562baa4f5e2b1a0191449930796992ba6ec2bd9558c3cb8 204348414e4345434f000000280000000059682f0040440000000000004003cccc 2 OP_CHECKMULTISIG",
        "desc": "raw(51210385a76bf4b90f4943c562baa4f5e2b1a0191449930796992ba6ec2bd9558c3cb821204348414e4345434f000000280000000059682f0040440000000000004003cccc52ae)#75s963k3",
        "hex": "51210385a76bf4b90f4943c562baa4f5e2b1a0191449930796992ba6ec2bd9558c3cb821204348414e4345434f000000280000000059682f0040440000000000004003cccc52ae",
        "type": "nonstandard"
      }
    },
    {
      "value": 0.00010860,
      "n": 1,
      "scriptPubKey": {
        "asm": "1 0385a76bf4b90f4943c562baa4f5e2b1a0191449930796992ba6ec2bd9558c3cb8 04cccccccd00000000000000000000000000000000000000000000000000000000 2 OP_CHECKMULTISIG",
        "desc": "raw(51210385a76bf4b90f4943c562baa4f5e2b1a0191449930796992ba6ec2bd9558c3cb82104cccccccd0000000000000000000000000000000000000000000000000000000052ae)#n7x77gq8",
        "hex": "51210385a76bf4b90f4943c562baa4f5e2b1a0191449930796992ba6ec2bd9558c3cb82104cccccccd0000000000000000000000000000000000000000000000000000000052ae",
        "type": "nonstandard"
      }
    },
    {
      "value": 0.02510120,
      "n": 2,
      "scriptPubKey": {
        "asm": "OP_DUP OP_HASH160 69b73f5028cdde54f14aa6abb9961be0a714e828 OP_EQUALVERIFY OP_CHECKSIG",
        "desc": "addr(1AdyUPZYAEHs25rUaTQqZf8Tc2VTF8Kbvn)#kuxpuupa",
        "hex": "76a91469b73f5028cdde54f14aa6abb9961be0a714e82888ac",
        "address": "1AdyUPZYAEHs25rUaTQqZf8Tc2VTF8Kbvn",
        "type": "pubkeyhash"
      }
    }
  ],
  "hex": "010000000112d1c239d444422bba153a39353585137b87b2b33e05ae79219d61c3dc23c765020000006b4830450221009b8a97fb525fa691b40570a16510e4a0cea32d3065d2fe08d8b13075ab47497d02207d5b799d5d591d8e92cb8cbfb7ddb7494bc95af568393f71cb78229fe211b1dc01210385a76bf4b90f4943c562baa4f5e2b1a0191449930796992ba6ec2bd9558c3cb8ffffffff036c2a0000000000004751210385a76bf4b90f4943c562baa4f5e2b1a0191449930796992ba6ec2bd9558c3cb821204348414e4345434f000000280000000059682f0040440000000000004003cccc52ae6c2a0000000000004751210385a76bf4b90f4943c562baa4f5e2b1a0191449930796992ba6ec2bd9558c3cb82104cccccccd0000000000000000000000000000000000000000000000000000000052ae284d2600000000001976a91469b73f5028cdde54f14aa6abb9961be0a714e82888ac00000000",
  "blockhash": "00000000000000006a572056c227dc59debc1179f3e954f217c6f2ee72aa82b0",
  "confirmations": 615950,
  "time": 1400424386,
  "blocktime": 1400424386
}
