{
  "txid": "a9b505f1edb8fedaa7c1edb96cdd622b72b0623b1a5fafa7a1eac97f1a377889",
  "hash": "a9b505f1edb8fedaa7c1edb96cdd622b72b0623b1a5fafa7a1eac97f1a377889",
  "version": 1,
  "size": 447,
  "vsize": 447,
  "weight": 1788,
  "locktime": 0,
  "vin": [
    {
      "txid": "b2be3b3143fb2e2243710285a47a99be3b11e5ab3dc6f3e1955cedbd230423cc",
      "vout": 0,
      "scriptSig": {
        "asm": "304402203b239b59888906bf7fb0b98a7abb60261f9fa6435b2d801c2d390bcd49533ca402204d781bd27b254a492bfb66367c8bf9d00ed99d7f3d1e30efe7743cac3492017d[ALL] 04b4ac193ff7bc849e81fd90e8f3334691aba5382221a270e3e134dfe3d6621c1357d9f4d1d7dff6d160dc28554d8eed7e45181c93fb69829c644196349323929a",
        "hex": "47304402203b239b59888906bf7fb0b98a7abb60261f9fa6435b2d801c2d390bcd49533ca402204d781bd27b254a492bfb66367c8bf9d00ed99d7f3d1e30efe7743cac3492017d014104b4ac193ff7bc849e81fd90e8f3334691aba5382221a270e3e134dfe3d6621c1357d9f4d1d7dff6d160dc28554d8eed7e45181c93fb69829c644196349323929a"
      },
      "sequence": 4294967295
    }
  ],
  "vout": [
    {
      "value": 0.00001000,
      "n": 0,
      "scriptPubKey": {
        "asm": "OP_DUP OP_HASH160 7bb7b3c730fcc298294b0d1d4d1427f685a9ce74 OP_EQUALVERIFY OP_CHECKSIG",
        "desc": "addr(1CHABTCsWGp25zjfDWjYrhejgP5V97Zv9r)#smx3u8nv",
        "hex": "76a9147bb7b3c730fcc298294b0d1d4d1427f685a9ce7488ac",
        "address": "1CHABTCsWGp25zjfDWjYrhejgP5V97Zv9r",
        "type": "pubkeyhash"
      }
    },
    {
      "value": 0.00000780,
      "n": 1,
      "scriptPubKey": {
        "asm": "1 04b4ac193ff7bc849e81fd90e8f3334691aba5382221a270e3e134dfe3d6621c1357d9f4d1d7dff6d160dc28554d8eed7e45181c93fb69829c644196349323929a 204348414e4345434f0000000eb2be3b3143fb2e2243710285a47a99be3b11e5ab 2 OP_CHECKMULTISIG",
        "desc": "raw(514104b4ac193ff7bc849e81fd90e8f3334691aba5382221a270e3e134dfe3d6621c1357d9f4d1d7dff6d160dc28554d8eed7e45181c93fb69829c644196349323929a21204348414e4345434f0000000eb2be3b3143fb2e2243710285a47a99be3b11e5ab52ae)#g0564su8",
        "hex": "514104b4ac193ff7bc849e81fd90e8f3334691aba5382221a270e3e134dfe3d6621c1357d9f4d1d7dff6d160dc28554d8eed7e45181c93fb69829c644196349323929a21204348414e4345434f0000000eb2be3b3143fb2e2243710285a47a99be3b11e5ab52ae",
        "type": "nonstandard"
      }
    },
    {
      "value": 0.00000780,
      "n": 2,
      "scriptPubKey": {
        "asm": "1 04b4ac193ff7bc849e81fd90e8f3334691aba5382221a270e3e134dfe3d6621c1357d9f4d1d7dff6d160dc28554d8eed7e45181c93fb69829c644196349323929a 143dc6f3e1955cedbd230423cc3fc2dfb3543708b0000000000000000000000000 2 OP_CHECKMULTISIG",
        "desc": "raw(514104b4ac193ff7bc849e81fd90e8f3334691aba5382221a270e3e134dfe3d6621c1357d9f4d1d7dff6d160dc28554d8eed7e45181c93fb69829c644196349323929a21143dc6f3e1955cedbd230423cc3fc2dfb3543708b000000000000000000000000052ae)#j0lqn4xy",
        "hex": "514104b4ac193ff7bc849e81fd90e8f3334691aba5382221a270e3e134dfe3d6621c1357d9f4d1d7dff6d160dc28554d8eed7e45181c93fb69829c644196349323929a21143dc6f3e1955cedbd230423cc3fc2dfb3543708b000000000000000000000000052ae",
        "type": "nonstandard"
      }
    }
  ],
  "hex": "0100000001cc230423bded5c95e1f3c63dabe5113bbe997aa485027143222efb43313bbeb2000000008a47304402203b239b59888906bf7fb0b98a7abb60261f9fa6435b2d801c2d390bcd49533ca402204d781bd27b254a492bfb66367c8bf9d00ed99d7f3d1e30efe7743cac3492017d014104b4ac193ff7bc849e81fd90e8f3334691aba5382221a270e3e134dfe3d6621c1357d9f4d1d7dff6d160dc28554d8eed7e45181c93fb69829c644196349323929affffffff03e8030000000000001976a9147bb7b3c730fcc298294b0d1d4d1427f685a9ce7488ac0c0300000000000067514104b4ac193ff7bc849e81fd90e8f3334691aba5382221a270e3e134dfe3d6621c1357d9f4d1d7dff6d160dc28554d8eed7e45181c93fb69829c644196349323929a21204348414e4345434f0000000eb2be3b3143fb2e2243710285a47a99be3b11e5ab52ae0c0300000000000067514104b4ac193ff7bc849e81fd90e8f3334691aba5382221a270e3e134dfe3d6621c1357d9f4d1d7dff6d160dc28554d8eed7e45181c93fb69829c644196349323929a21143dc6f3e1955cedbd230423cc3fc2dfb3543708b000000000000000000000000052ae00000000",
  "blockhash": "000000000000000013ac43604565cf54224bca21ce1dc83fae313e6a4f8529ec",
  "confirmations": 601733,
  "time": 1408030964,
  "blocktime": 1408030964
}
