{
  "hash": "39dc482ec69056ae445d1acad9507f8167d3f91fc93b9076e94cfb866e639600",
  "hex": "0100000002ddefc4bc514ce4033743ce2f94d9e5b2f5271961c5a0161262ab5c0865916748010000006a47304402207ad8d8db16c4110c7afe8950347c465c64ea7e538d4ba186bb32010b0046adeb02204f3a2a48e35eed893832f5ebc92ff561b0d6ce83bb6c4eff655ee26ecc8cb53d012102b8c1cbbdd8d51522f6c1f69f4cfa341f869ad9d86e6a63de87aa7d346923e267ffffffffddefc4bc514ce4033743ce2f94d9e5b2f5271961c5a0161262ab5c0865916748000000004a00483045022100a99335e2111e5b05510267ac2d0da202104b363170ad163b85ff3d769393af1a0220486918620ab51f72fc9d4089946d76070d65bb96d047f5cd6d15fa80a5ecc8d101ffffffff02e80300000000000069512102b8c1cbbdd8d51522f6c1f69f4cfa341f869ad9d86e6a63de87aa7d346923e267210320a0de360cc2ae8672db7d557086a4e7c8eca062c0a5a4ba9922dee0aacf3e122103175254147b22766572223a312c2261757468223a2230227d202020202020202053aeb2050000000000001976a91404ba01105bd83bac3fc0459bea0cf50d9970a02288ac00000000",
  "locktime": 0,
  "size": 420,
  "txid": "39dc482ec69056ae445d1acad9507f8167d3f91fc93b9076e94cfb866e639600",
  "version": 1,
  "vin": [
    {
      "scriptSig": {
        "asm": "Script(OP_PUSHBYTES_71 304402207ad8d8db16c4110c7afe8950347c465c64ea7e538d4ba186bb32010b0046adeb02204f3a2a48e35eed893832f5ebc92ff561b0d6ce83bb6c4eff655ee26ecc8cb53d01 OP_PUSHBYTES_33 02b8c1cbbdd8d51522f6c1f69f4cfa341f869ad9d86e6a63de87aa7d346923e267)",
        "hex": "47304402207ad8d8db16c4110c7afe8950347c465c64ea7e538d4ba186bb32010b0046adeb02204f3a2a48e35eed893832f5ebc92ff561b0d6ce83bb6c4eff655ee26ecc8cb53d012102b8c1cbbdd8d51522f6c1f69f4cfa341f869ad9d86e6a63de87aa7d346923e267"
      },
      "sequence": 4294967295,
      "txid": "48679165085cab621216a0c5611927f5b2e5d9942fce433703e44c51bcc4efdd",
      "vout": 1
    },
    {
      "scriptSig": {
        "asm": "Script(OP_0 OP_PUSHBYTES_72 3045022100a99335e2111e5b05510267ac2d0da202104b363170ad163b85ff3d769393af1a0220486918620ab51f72fc9d4089946d76070d65bb96d047f5cd6d15fa80a5ecc8d101)",
        "hex": "00483045022100a99335e2111e5b05510267ac2d0da202104b363170ad163b85ff3d769393af1a0220486918620ab51f72fc9d4089946d76070d65bb96d047f5cd6d15fa80a5ecc8d101"
      },
      "sequence": 4294967295,
      "txid": "48679165085cab621216a0c5611927f5b2e5d9942fce433703e44c51bcc4efdd",
      "vout": 0
    }
  ],
  "vout": [
    {
      "n": 0,
      "scriptPubKey": {
        "asm": "Script(OP_PUSHNUM_1 OP_PUSHBYTES_33 02b8c1cbbdd8d51522f6c1f69f4cfa341f869ad9d86e6a63de87aa7d346923e267 OP_PUSHBYTES_33 0320a0de360cc2ae8672db7d557086a4e7c8eca062c0a5a4ba9922dee0aacf3e12 OP_PUSHBYTES_33 03175254147b22766572223a312c2261757468223a2230227d2020202020202020 OP_PUSHNUM_3 OP_CHECKMULTISIG)",
        "hex": "512102b8c1cbbdd8d51522f6c1f69f4cfa341f869ad9d86e6a63de87aa7d346923e267210320a0de360cc2ae8672db7d557086a4e7c8eca062c0a5a4ba9922dee0aacf3e122103175254147b22766572223a312c2261757468223a2230227d202020202020202053ae",
        "type": "multisig"
      },
      "value": 0.00001
    },
    {
      "n": 1,
      "scriptPubKey": {
        "asm": "Script(OP_DUP OP_HASH160 OP_PUSHBYTES_20 04ba01105bd83bac3fc0459bea0cf50d9970a022 OP_EQUALVERIFY OP_CHECKSIG)",
        "hex": "76a91404ba01105bd83bac3fc0459bea0cf50d9970a02288ac",
        "type": "pubkeyhash"
      },
      "value": 0.00001458
    }
  ],
  "vsize": 420,
  "weight": 1680
}