{
  "hash": "a72d797a108fca918efbded273623ce1f9348b716c0f700bab97f12fe5837200",
  "hex": "01000000019e72fbd8fbdce70f857e9a9382dfe503718fa158e19d54982446813b5d6a5bb2020000006b4830450221008883fc1c97402a47fa2660d8df28862b228da81dd1968ef265f3bc1a573eb1b6022038e54734e52cc2e55e59aa8ee547e639e4b517327af9e0d3f047020af5e5c5430121020ee6fcfc1ffed43059a5a71b30967c99e7ffcd720f28a3d2827f9cff497dec29ffffffff03e803000000000000695121020ee6fcfc1ffed43059a5a71b30967c99e7ffcd720f28a3d2827f9cff497dec29210320a0de360cc2ae8672db7d557086a4e7c8eca062c0a5a4ba9922dee0aacf3e1221031f5254227b22766572223a312c2261757468223a2230222c227469746c65223a53ae0000000000000000086a0622333133227d95510200000000001976a9147cb6fc74c855bbdd748e4f36c803359a77b0a9c488ac00000000",
  "locktime": 0,
  "size": 323,
  "txid": "a72d797a108fca918efbded273623ce1f9348b716c0f700bab97f12fe5837200",
  "version": 1,
  "vin": [
    {
      "scriptSig": {
        "asm": "Script(OP_PUSHBYTES_72 30450221008883fc1c97402a47fa2660d8df28862b228da81dd1968ef265f3bc1a573eb1b6022038e54734e52cc2e55e59aa8ee547e639e4b517327af9e0d3f047020af5e5c54301 OP_PUSHBYTES_33 020ee6fcfc1ffed43059a5a71b30967c99e7ffcd720f28a3d2827f9cff497dec29)",
        "hex": "4830450221008883fc1c97402a47fa2660d8df28862b228da81dd1968ef265f3bc1a573eb1b6022038e54734e52cc2e55e59aa8ee547e639e4b517327af9e0d3f047020af5e5c5430121020ee6fcfc1ffed43059a5a71b30967c99e7ffcd720f28a3d2827f9cff497dec29"
      },
      "sequence": 4294967295,
      "txid": "b25b6a5d3b81462498549de158a18f7103e5df82939a7e850fe7dcfbd8fb729e",
      "vout": 2
    }
  ],
  "vout": [
    {
      "n": 0,
      "scriptPubKey": {
        "asm": "Script(OP_PUSHNUM_1 OP_PUSHBYTES_33 020ee6fcfc1ffed43059a5a71b30967c99e7ffcd720f28a3d2827f9cff497dec29 OP_PUSHBYTES_33 0320a0de360cc2ae8672db7d557086a4e7c8eca062c0a5a4ba9922dee0aacf3e12 OP_PUSHBYTES_33 031f5254227b22766572223a312c2261757468223a2230222c227469746c65223a OP_PUSHNUM_3 OP_CHECKMULTISIG)",
        "hex": "5121020ee6fcfc1ffed43059a5a71b30967c99e7ffcd720f28a3d2827f9cff497dec29210320a0de360cc2ae8672db7d557086a4e7c8eca062c0a5a4ba9922dee0aacf3e1221031f5254227b22766572223a312c2261757468223a2230222c227469746c65223a53ae",
        "type": "multisig"
      },
      "value": 0.00001
    },
    {
      "n": 1,
      "scriptPubKey": {
        "asm": "Script(OP_RETURN OP_PUSHBYTES_6 22333133227d)",
        "hex": "6a0622333133227d",
        "type": "nulldata"
      },
      "value": 0.0
    },
    {
      "n": 2,
      "scriptPubKey": {
        "asm": "Script(OP_DUP OP_HASH160 OP_PUSHBYTES_20 7cb6fc74c855bbdd748e4f36c803359a77b0a9c4 OP_EQUALVERIFY OP_CHECKSIG)",
        "hex": "76a9147cb6fc74c855bbdd748e4f36c803359a77b0a9c488ac",
        "type": "pubkeyhash"
      },
      "value": 0.00151957
    }
  ],
  "vsize": 323,
  "weight": 1292
}