{
  "hash": "20cb5958edce385c3fa3ec7f3b12391f158442c7a742a924312556eca891f400",
  "hex": "0100000001958e94005fac6f7c51c9b663e39fe9e03731558dfaa3039e97d7d1d975dbe3d4020000006a4730440220270b28af30302368668db8d0c12bda4f9271a09f987d2fb54e4ba9bf21abdd0c022076804c60d827b3ef7a6e88be2c9e6a26dff943077aff31d854118378f99a27af01210356bbdcfb07e334177b218d5286e51ed7a006b84b4c0b9d241ae530d611641901ffffffff03e8030000000000006951210356bbdcfb07e334177b218d5286e51ed7a006b84b4c0b9d241ae530d611641901210320a0de360cc2ae8672db7d557086a4e7c8eca062c0a5a4ba9922dee0aacf3e1221031f5254207b22766572223a312c2261757468223a2230222c227469746c65223a53ae0000000000000000066a042258227daf350600000000001976a9148ce69e5528114ff80b83ba80fad4ff80205f5c8a88ac00000000",
  "locktime": 0,
  "size": 320,
  "txid": "20cb5958edce385c3fa3ec7f3b12391f158442c7a742a924312556eca891f400",
  "version": 1,
  "vin": [
    {
      "scriptSig": {
        "asm": "Script(OP_PUSHBYTES_71 30440220270b28af30302368668db8d0c12bda4f9271a09f987d2fb54e4ba9bf21abdd0c022076804c60d827b3ef7a6e88be2c9e6a26dff943077aff31d854118378f99a27af01 OP_PUSHBYTES_33 0356bbdcfb07e334177b218d5286e51ed7a006b84b4c0b9d241ae530d611641901)",
        "hex": "4730440220270b28af30302368668db8d0c12bda4f9271a09f987d2fb54e4ba9bf21abdd0c022076804c60d827b3ef7a6e88be2c9e6a26dff943077aff31d854118378f99a27af01210356bbdcfb07e334177b218d5286e51ed7a006b84b4c0b9d241ae530d611641901"
      },
      "sequence": 4294967295,
      "txid": "d4e3db75d9d1d7979e03a3fa8d553137e0e99fe363b6c9517c6fac5f00948e95",
      "vout": 2
    }
  ],
  "vout": [
    {
      "n": 0,
      "scriptPubKey": {
        "asm": "Script(OP_PUSHNUM_1 OP_PUSHBYTES_33 0356bbdcfb07e334177b218d5286e51ed7a006b84b4c0b9d241ae530d611641901 OP_PUSHBYTES_33 0320a0de360cc2ae8672db7d557086a4e7c8eca062c0a5a4ba9922dee0aacf3e12 OP_PUSHBYTES_33 031f5254207b22766572223a312c2261757468223a2230222c227469746c65223a OP_PUSHNUM_3 OP_CHECKMULTISIG)",
        "hex": "51210356bbdcfb07e334177b218d5286e51ed7a006b84b4c0b9d241ae530d611641901210320a0de360cc2ae8672db7d557086a4e7c8eca062c0a5a4ba9922dee0aacf3e1221031f5254207b22766572223a312c2261757468223a2230222c227469746c65223a53ae",
        "type": "multisig"
      },
      "value": 0.00001
    },
    {
      "n": 1,
      "scriptPubKey": {
        "asm": "Script(OP_RETURN OP_PUSHBYTES_4 2258227d)",
        "hex": "6a042258227d",
        "type": "nulldata"
      },
      "value": 0.0
    },
    {
      "n": 2,
      "scriptPubKey": {
        "asm": "Script(OP_DUP OP_HASH160 OP_PUSHBYTES_20 8ce69e5528114ff80b83ba80fad4ff80205f5c8a OP_EQUALVERIFY OP_CHECKSIG)",
        "hex": "76a9148ce69e5528114ff80b83ba80fad4ff80205f5c8a88ac",
        "type": "pubkeyhash"
      },
      "value": 0.00406959
    }
  ],
  "vsize": 320,
  "weight": 1280
}