{
  "hash": "ed95e04018dcc2f01ba8cd699d86852f85ca0af63d05f715a9b2701bb61c6b00",
  "hex": "01000000016897e2c15d21f1873dcc92226d2eaf7b0c8ed5c5ac1be37bf5c6786bdc69d83a020000006a4730440220418358ab4d75cbd95d21c5156eafea82f3917b3709c49025b0ff242d5d07d84b022055ce76778ce9cfff8f4c344198d2dd420c2c3085ac86183cfdc51a2d86559c210121030d25abb3d0c857b015565b664e8581d03248bfeae33d83c6fe67a7a2e84c907cffffffff03e803000000000000475121030d25abb3d0c857b015565b664e8581d03248bfeae33d83c6fe67a7a2e84c907c210320a0de360cc2ae8672db7d557086a4e7c8eca062c0a5a4ba9922dee0aacf3e1252ae0000000000000000426a4052543d7b22766572223a312c227469746c65223a22524e47222c22656d61696c223a223833353433343930394071712e636f6d222c2261757468223a2230227dd05a0700000000001976a91418006f1b708dac69db150a5c79814a9b7e6bc08088ac00000000",
  "locktime": 0,
  "size": 346,
  "txid": "ed95e04018dcc2f01ba8cd699d86852f85ca0af63d05f715a9b2701bb61c6b00",
  "version": 1,
  "vin": [
    {
      "scriptSig": {
        "asm": "Script(OP_PUSHBYTES_71 30440220418358ab4d75cbd95d21c5156eafea82f3917b3709c49025b0ff242d5d07d84b022055ce76778ce9cfff8f4c344198d2dd420c2c3085ac86183cfdc51a2d86559c2101 OP_PUSHBYTES_33 030d25abb3d0c857b015565b664e8581d03248bfeae33d83c6fe67a7a2e84c907c)",
        "hex": "4730440220418358ab4d75cbd95d21c5156eafea82f3917b3709c49025b0ff242d5d07d84b022055ce76778ce9cfff8f4c344198d2dd420c2c3085ac86183cfdc51a2d86559c210121030d25abb3d0c857b015565b664e8581d03248bfeae33d83c6fe67a7a2e84c907c"
      },
      "sequence": 4294967295,
      "txid": "3ad869dc6b78c6f57be31bacc5d58e0c7baf2e6d2292cc3d87f1215dc1e29768",
      "vout": 2
    }
  ],
  "vout": [
    {
      "n": 0,
      "scriptPubKey": {
        "asm": "Script(OP_PUSHNUM_1 OP_PUSHBYTES_33 030d25abb3d0c857b015565b664e8581d03248bfeae33d83c6fe67a7a2e84c907c OP_PUSHBYTES_33 0320a0de360cc2ae8672db7d557086a4e7c8eca062c0a5a4ba9922dee0aacf3e12 OP_PUSHNUM_2 OP_CHECKMULTISIG)",
        "hex": "5121030d25abb3d0c857b015565b664e8581d03248bfeae33d83c6fe67a7a2e84c907c210320a0de360cc2ae8672db7d557086a4e7c8eca062c0a5a4ba9922dee0aacf3e1252ae",
        "type": "multisig"
      },
      "value": 0.00001
    },
    {
      "n": 1,
      "scriptPubKey": {
        "asm": "Script(OP_RETURN OP_PUSHBYTES_64 52543d7b22766572223a312c227469746c65223a22524e47222c22656d61696c223a223833353433343930394071712e636f6d222c2261757468223a2230227d)",
        "hex": "6a4052543d7b22766572223a312c227469746c65223a22524e47222c22656d61696c223a223833353433343930394071712e636f6d222c2261757468223a2230227d",
        "type": "nulldata"
      },
      "value": 0.0
    },
    {
      "n": 2,
      "scriptPubKey": {
        "asm": "Script(OP_DUP OP_HASH160 OP_PUSHBYTES_20 18006f1b708dac69db150a5c79814a9b7e6bc080 OP_EQUALVERIFY OP_CHECKSIG)",
        "hex": "76a91418006f1b708dac69db150a5c79814a9b7e6bc08088ac",
        "type": "pubkeyhash"
      },
      "value": 0.00482
    }
  ],
  "vsize": 346,
  "weight": 1384
}