{
  "txid": "053c5cdcb7af03a75fa26bbdea36f0eae860c93c40561506145b88be1921f210",
  "hash": "053c5cdcb7af03a75fa26bbdea36f0eae860c93c40561506145b88be1921f210",
  "version": 1,
  "size": 369,
  "vsize": 369,
  "weight": 1476,
  "locktime": 0,
  "vin": [
    {
      "txid": "40ed98181869e06348139318061189a9a724ba1f616fa3a8805821c6c0f06994",
      "vout": 0,
      "scriptSig": {
        "asm": "0 3045022100d8314dec46530c61689b02ff4f813048d642b8fb8a1c1aaa16a314ed437bae450220401a5fc4dee4b93c66de1b26b7a63b136000e194c9e0c25ecb0c4978d1df9dc7[ALL] 3043022001a85fb09fb7b239952f39a28dd572577a8100cdc89830d05cf2e71203509048021f26dcb0f2a8ef5e0f1c73cd5141908ffc020c57f9df2fad80ef9b5362d0837a[ALL] 522103184208671c28c070bbe6033a1d9c035cc5bb80e3542c6bf8ebfcee991a8631e12103e3467e839473a31001068ae2b99d0ff30e992298f4bd9f0c2f3eb748ee2ac59321030a7f38454b377f175645586540c8969d952b446f5ae6b702e4ad2b3f59d5af2653ae",
        "hex": "00483045022100d8314dec46530c61689b02ff4f813048d642b8fb8a1c1aaa16a314ed437bae450220401a5fc4dee4b93c66de1b26b7a63b136000e194c9e0c25ecb0c4978d1df9dc701463043022001a85fb09fb7b239952f39a28dd572577a8100cdc89830d05cf2e71203509048021f26dcb0f2a8ef5e0f1c73cd5141908ffc020c57f9df2fad80ef9b5362d0837a014c69522103184208671c28c070bbe6033a1d9c035cc5bb80e3542c6bf8ebfcee991a8631e12103e3467e839473a31001068ae2b99d0ff30e992298f4bd9f0c2f3eb748ee2ac59321030a7f38454b377f175645586540c8969d952b446f5ae6b702e4ad2b3f59d5af2653ae"
      },
      "sequence": 4294967295
    }
  ],
  "vout": [
    {
      "value": 27.17000000,
      "n": 0,
      "scriptPubKey": {
        "asm": "OP_DUP OP_HASH160 b608bd77ebf6577263f331995e32fda49ac9708e OP_EQUALVERIFY OP_CHECKSIG",
        "desc": "addr(1HbWTBq4uZadEWndAWPATPMfZeFPtYjvNn)#k8fcjncp",
        "hex": "76a914b608bd77ebf6577263f331995e32fda49ac9708e88ac",
        "address": "1HbWTBq4uZadEWndAWPATPMfZeFPtYjvNn",
        "type": "pubkeyhash"
      }
    },
    {
      "value": 120.56744616,
      "n": 1,
      "scriptPubKey": {
        "asm": "OP_HASH160 7eb87276826657d9b74ecaf29987be2a8b1520a0 OP_EQUAL",
        "desc": "addr(3DF42KobeYN5jrGXexfTF81s29k1EbLJte)#y0s0uaf9",
        "hex": "a9147eb87276826657d9b74ecaf29987be2a8b1520a087",
        "address": "3DF42KobeYN5jrGXexfTF81s29k1EbLJte",
        "type": "scripthash"
      }
    }
  ],
  "hex": "01000000019469f0c0c6215880a8a36f611fba24a7a98911061893134863e069181898ed4000000000fc00483045022100d8314dec46530c61689b02ff4f813048d642b8fb8a1c1aaa16a314ed437bae450220401a5fc4dee4b93c66de1b26b7a63b136000e194c9e0c25ecb0c4978d1df9dc701463043022001a85fb09fb7b239952f39a28dd572577a8100cdc89830d05cf2e71203509048021f26dcb0f2a8ef5e0f1c73cd5141908ffc020c57f9df2fad80ef9b5362d0837a014c69522103184208671c28c070bbe6033a1d9c035cc5bb80e3542c6bf8ebfcee991a8631e12103e3467e839473a31001068ae2b99d0ff30e992298f4bd9f0c2f3eb748ee2ac59321030a7f38454b377f175645586540c8969d952b446f5ae6b702e4ad2b3f59d5af2653aeffffffff024021f2a1000000001976a914b608bd77ebf6577263f331995e32fda49ac9708e88aca852a3ce0200000017a9147eb87276826657d9b74ecaf29987be2a8b1520a08700000000",
  "blockhash": "00000000000000000c926f1caf2d2b90bd2caaf119afef790327713e226e8fd9",
  "confirmations": 548693,
  "time": 1437595396,
  "blocktime": 1437595396
}
