{
  "txid": "12fa9f8b389e03c2163b0353de80d9b01116054d597f896f15963a559255ea50",
  "hash": "12fa9f8b389e03c2163b0353de80d9b01116054d597f896f15963a559255ea50",
  "version": 1,
  "size": 403,
  "vsize": 403,
  "weight": 1612,
  "locktime": 0,
  "vin": [
    {
      "txid": "9364478d9558a3827fc03944d4c5e840701523cbd935e1c94835db0c02c389ce",
      "vout": 0,
      "scriptSig": {
        "asm": "304402204b7bd0c4a71be2d572b1206c0d4f147071efab967c01d16088d1bf770d50ced3022039abc6abb82c2fcbd4194513e5fcd8e2ead763a20636b5d1b436c90f6539e5e7[ALL] 04dc5f7f45007d5a38be2187641c69cb450e9848e8c029fdc8d6bf1cdbb3d11ae419214aae603e3bff7f12bd7f71aaeb46b4e2116952ec3d8b9ee0a1f2de4e2ef4",
        "hex": "47304402204b7bd0c4a71be2d572b1206c0d4f147071efab967c01d16088d1bf770d50ced3022039abc6abb82c2fcbd4194513e5fcd8e2ead763a20636b5d1b436c90f6539e5e7014104dc5f7f45007d5a38be2187641c69cb450e9848e8c029fdc8d6bf1cdbb3d11ae419214aae603e3bff7f12bd7f71aaeb46b4e2116952ec3d8b9ee0a1f2de4e2ef4"
      },
      "sequence": 4294967295
    }
  ],
  "vout": [
    {
      "value": 0.00670000,
      "n": 0,
      "scriptPubKey": {
        "asm": "OP_DUP OP_HASH160 f6b75c526ce508fdadd316d591cd662a175fe2aa OP_EQUALVERIFY OP_CHECKSIG",
        "desc": "addr(1PVWtK1ATnvbRaRceLRH5xj8XV1LxUBu7n)#pa4zaq5w",
        "hex": "76a914f6b75c526ce508fdadd316d591cd662a175fe2aa88ac",
        "address": "1PVWtK1ATnvbRaRceLRH5xj8XV1LxUBu7n",
        "type": "pubkeyhash"
      }
    },
    {
      "value": 0.00006000,
      "n": 1,
      "scriptPubKey": {
        "asm": "OP_DUP OP_HASH160 946cb2e08075bcbaf157e47bcb67eb2b2339d242 OP_EQUALVERIFY OP_CHECKSIG",
        "desc": "addr(1EXoDusjGwvnjZUyKkxZ4UHEf77z6A5S4P)#03u9lduk",
        "hex": "76a914946cb2e08075bcbaf157e47bcb67eb2b2339d24288ac",
        "address": "1EXoDusjGwvnjZUyKkxZ4UHEf77z6A5S4P",
        "type": "pubkeyhash"
      }
    },
    {
      "value": 0.00006000,
      "n": 2,
      "scriptPubKey": {
        "asm": "OP_DUP OP_HASH160 c65a1e5a6ec3a51daaae66e1f8ce471a5c7b7ebd OP_EQUALVERIFY OP_CHECKSIG",
        "desc": "addr(1K5nkXkng2NCdWAkyetTzu242ZvyW2aLV4)#ugld6f0a",
        "hex": "76a914c65a1e5a6ec3a51daaae66e1f8ce471a5c7b7ebd88ac",
        "address": "1K5nkXkng2NCdWAkyetTzu242ZvyW2aLV4",
        "type": "pubkeyhash"
      }
    },
    {
      "value": 0.00012000,
      "n": 3,
      "scriptPubKey": {
        "asm": "1 04dc5f7f45007d5a38be2187641c69cb450e9848e8c029fdc8d6bf1cdbb3d11ae419214aae603e3bff7f12bd7f71aaeb46b4e2116952ec3d8b9ee0a1f2de4e2ef4 02caa5e7913c4542b8c9cbd2681a3f57041fff6709a565c0668d269cf65f02036f 2 OP_CHECKMULTISIG",
        "desc": "multi(1,04dc5f7f45007d5a38be2187641c69cb450e9848e8c029fdc8d6bf1cdbb3d11ae419214aae603e3bff7f12bd7f71aaeb46b4e2116952ec3d8b9ee0a1f2de4e2ef4,02caa5e7913c4542b8c9cbd2681a3f57041fff6709a565c0668d269cf65f02036f)#um6w7kjc",
        "hex": "514104dc5f7f45007d5a38be2187641c69cb450e9848e8c029fdc8d6bf1cdbb3d11ae419214aae603e3bff7f12bd7f71aaeb46b4e2116952ec3d8b9ee0a1f2de4e2ef42102caa5e7913c4542b8c9cbd2681a3f57041fff6709a565c0668d269cf65f02036f52ae",
        "type": "multisig"
      }
    }
  ],
  "hex": "0100000001ce89c3020cdb3548c9e135d9cb23157040e8c5d44439c07f82a358958d476493000000008a47304402204b7bd0c4a71be2d572b1206c0d4f147071efab967c01d16088d1bf770d50ced3022039abc6abb82c2fcbd4194513e5fcd8e2ead763a20636b5d1b436c90f6539e5e7014104dc5f7f45007d5a38be2187641c69cb450e9848e8c029fdc8d6bf1cdbb3d11ae419214aae603e3bff7f12bd7f71aaeb46b4e2116952ec3d8b9ee0a1f2de4e2ef4ffffffff0430390a00000000001976a914f6b75c526ce508fdadd316d591cd662a175fe2aa88ac70170000000000001976a914946cb2e08075bcbaf157e47bcb67eb2b2339d24288ac70170000000000001976a914c65a1e5a6ec3a51daaae66e1f8ce471a5c7b7ebd88ace02e00000000000067514104dc5f7f45007d5a38be2187641c69cb450e9848e8c029fdc8d6bf1cdbb3d11ae419214aae603e3bff7f12bd7f71aaeb46b4e2116952ec3d8b9ee0a1f2de4e2ef42102caa5e7913c4542b8c9cbd2681a3f57041fff6709a565c0668d269cf65f02036f52ae00000000",
  "blockhash": "000000000000000021e3dae47ea1db150397ae480d707114e967320a91d4a4af",
  "confirmations": 595128,
  "time": 1410388505,
  "blocktime": 1410388505
}
