{
  "txid": "1caf0432ef165b19d5b5d726dc7fd1461390283c15bade2c9683fd712099e53b",
  "hash": "1caf0432ef165b19d5b5d726dc7fd1461390283c15bade2c9683fd712099e53b",
  "version": 1,
  "size": 370,
  "vsize": 370,
  "weight": 1480,
  "locktime": 0,
  "vin": [
    {
      "txid": "73914fb386c19f09181ac01cb3680eaee01268ef0781dff9f25d5c069b5334f0",
      "vout": 0,
      "scriptSig": {
        "asm": "3045022100c4dc112a846155dccd2e0e9e605f199d868eda2140bef1730b5210af98ef1fa602203a9af8ace9b417849df626bb8dfd9575090729acd7138c599cb4ac37255f1db3[ALL] 04dc5f7f45007d5a38be2187641c69cb450e9848e8c029fdc8d6bf1cdbb3d11ae419214aae603e3bff7f12bd7f71aaeb46b4e2116952ec3d8b9ee0a1f2de4e2ef4",
        "hex": "483045022100c4dc112a846155dccd2e0e9e605f199d868eda2140bef1730b5210af98ef1fa602203a9af8ace9b417849df626bb8dfd9575090729acd7138c599cb4ac37255f1db3014104dc5f7f45007d5a38be2187641c69cb450e9848e8c029fdc8d6bf1cdbb3d11ae419214aae603e3bff7f12bd7f71aaeb46b4e2116952ec3d8b9ee0a1f2de4e2ef4"
      },
      "sequence": 4294967295
    }
  ],
  "vout": [
    {
      "value": 0.00611500,
      "n": 0,
      "scriptPubKey": {
        "asm": "OP_DUP OP_HASH160 f6b75c526ce508fdadd316d591cd662a175fe2aa OP_EQUALVERIFY OP_CHECKSIG",
        "desc": "addr(1PVWtK1ATnvbRaRceLRH5xj8XV1LxUBu7n)#pa4zaq5w",
        "hex": "76a914f6b75c526ce508fdadd316d591cd662a175fe2aa88ac",
        "address": "1PVWtK1ATnvbRaRceLRH5xj8XV1LxUBu7n",
        "type": "pubkeyhash"
      }
    },
    {
      "value": 0.00005500,
      "n": 1,
      "scriptPubKey": {
        "asm": "OP_DUP OP_HASH160 946cb2e08075bcbaf157e47bcb67eb2b2339d242 OP_EQUALVERIFY OP_CHECKSIG",
        "desc": "addr(1EXoDusjGwvnjZUyKkxZ4UHEf77z6A5S4P)#03u9lduk",
        "hex": "76a914946cb2e08075bcbaf157e47bcb67eb2b2339d24288ac",
        "address": "1EXoDusjGwvnjZUyKkxZ4UHEf77z6A5S4P",
        "type": "pubkeyhash"
      }
    },
    {
      "value": 0.00011000,
      "n": 2,
      "scriptPubKey": {
        "asm": "1 04dc5f7f45007d5a38be2187641c69cb450e9848e8c029fdc8d6bf1cdbb3d11ae419214aae603e3bff7f12bd7f71aaeb46b4e2116952ec3d8b9ee0a1f2de4e2ef4 02caa5e7910b4542b8c8cbd2681a3f57041fff6709a565c0668d269cf65f0203d2 2 OP_CHECKMULTISIG",
        "desc": "multi(1,04dc5f7f45007d5a38be2187641c69cb450e9848e8c029fdc8d6bf1cdbb3d11ae419214aae603e3bff7f12bd7f71aaeb46b4e2116952ec3d8b9ee0a1f2de4e2ef4,02caa5e7910b4542b8c8cbd2681a3f57041fff6709a565c0668d269cf65f0203d2)#d9r84ysl",
        "hex": "514104dc5f7f45007d5a38be2187641c69cb450e9848e8c029fdc8d6bf1cdbb3d11ae419214aae603e3bff7f12bd7f71aaeb46b4e2116952ec3d8b9ee0a1f2de4e2ef42102caa5e7910b4542b8c8cbd2681a3f57041fff6709a565c0668d269cf65f0203d252ae",
        "type": "multisig"
      }
    }
  ],
  "hex": "0100000001f034539b065c5df2f9df8107ef6812e0ae0e68b31cc01a18099fc186b34f9173000000008b483045022100c4dc112a846155dccd2e0e9e605f199d868eda2140bef1730b5210af98ef1fa602203a9af8ace9b417849df626bb8dfd9575090729acd7138c599cb4ac37255f1db3014104dc5f7f45007d5a38be2187641c69cb450e9848e8c029fdc8d6bf1cdbb3d11ae419214aae603e3bff7f12bd7f71aaeb46b4e2116952ec3d8b9ee0a1f2de4e2ef4ffffffff03ac540900000000001976a914f6b75c526ce508fdadd316d591cd662a175fe2aa88ac7c150000000000001976a914946cb2e08075bcbaf157e47bcb67eb2b2339d24288acf82a00000000000067514104dc5f7f45007d5a38be2187641c69cb450e9848e8c029fdc8d6bf1cdbb3d11ae419214aae603e3bff7f12bd7f71aaeb46b4e2116952ec3d8b9ee0a1f2de4e2ef42102caa5e7910b4542b8c8cbd2681a3f57041fff6709a565c0668d269cf65f0203d252ae00000000",
  "blockhash": "00000000000000001fa2fc5647691593f6c9ea63db3817cd54f526d2f28d91fd",
  "confirmations": 594588,
  "time": 1410661867,
  "blocktime": 1410661867
}
