{
  "txid": "488c6da638c4190b852e8bbfd5d8080d29e1a786142b0b32d5acb4cf5f9a0eb7",
  "hash": "488c6da638c4190b852e8bbfd5d8080d29e1a786142b0b32d5acb4cf5f9a0eb7",
  "version": 1,
  "size": 305,
  "vsize": 305,
  "weight": 1220,
  "locktime": 0,
  "vin": [
    {
      "txid": "c9516dd9eab02e637c5a47069744e08d6a5a5a537a35f757ec387bc803f49f82",
      "vout": 0,
      "scriptSig": {
        "asm": "30440220177df6c01c6da03ff06cee77373b385fbcad441443c58a43ef587605fb0ed12902206114a44c90e6fd468d66b4274687d71715203b241e90fb5f4abe9ec99b67f107[ALL] 03b0e9b494983a3977cbb68de0a1edb412376e1613e78e6966c5dfbbb3e189ae9b",
        "hex": "4730440220177df6c01c6da03ff06cee77373b385fbcad441443c58a43ef587605fb0ed12902206114a44c90e6fd468d66b4274687d71715203b241e90fb5f4abe9ec99b67f107012103b0e9b494983a3977cbb68de0a1edb412376e1613e78e6966c5dfbbb3e189ae9b"
      },
      "sequence": 4294967295
    }
  ],
  "vout": [
    {
      "value": 0.00000684,
      "n": 0,
      "scriptPubKey": {
        "asm": "1 03b0e9b494983a3977cbb68de0a1edb412376e1613e78e6966c5dfbbb3e189ae9b 023809d6c9ed5edbdd7ae6f15e5ce653c3c462a539ce11ebcfa2f8b280ffbd6321 2 OP_CHECKMULTISIG",
        "desc": "multi(1,03b0e9b494983a3977cbb68de0a1edb412376e1613e78e6966c5dfbbb3e189ae9b,023809d6c9ed5edbdd7ae6f15e5ce653c3c462a539ce11ebcfa2f8b280ffbd6321)#pkang05n",
        "hex": "512103b0e9b494983a3977cbb68de0a1edb412376e1613e78e6966c5dfbbb3e189ae9b21023809d6c9ed5edbdd7ae6f15e5ce653c3c462a539ce11ebcfa2f8b280ffbd632152ae",
        "type": "multisig"
      }
    },
    {
      "value": 0.01940090,
      "n": 1,
      "scriptPubKey": {
        "asm": "OP_DUP OP_HASH160 fbbdb3ce0e77ce7bb47b98229250f5532c3096ee OP_EQUALVERIFY OP_CHECKSIG",
        "desc": "addr(1Px5ruEuWdtvkG3AJ1sJ8Q7ckV8B1f3us5)#uudxkzsx",
        "hex": "76a914fbbdb3ce0e77ce7bb47b98229250f5532c3096ee88ac",
        "address": "1Px5ruEuWdtvkG3AJ1sJ8Q7ckV8B1f3us5",
        "type": "pubkeyhash"
      }
    },
    {
      "value": 0.00000546,
      "n": 2,
      "scriptPubKey": {
        "asm": "OP_DUP OP_HASH160 946cb2e08075bcbaf157e47bcb67eb2b2339d242 OP_EQUALVERIFY OP_CHECKSIG",
        "desc": "addr(1EXoDusjGwvnjZUyKkxZ4UHEf77z6A5S4P)#03u9lduk",
        "hex": "76a914946cb2e08075bcbaf157e47bcb67eb2b2339d24288ac",
        "address": "1EXoDusjGwvnjZUyKkxZ4UHEf77z6A5S4P",
        "type": "pubkeyhash"
      }
    }
  ],
  "hex": "0100000001829ff403c87b38ec57f7357a535a5a6a8de0449706475a7c632eb0ead96d51c9000000006a4730440220177df6c01c6da03ff06cee77373b385fbcad441443c58a43ef587605fb0ed12902206114a44c90e6fd468d66b4274687d71715203b241e90fb5f4abe9ec99b67f107012103b0e9b494983a3977cbb68de0a1edb412376e1613e78e6966c5dfbbb3e189ae9bffffffff03ac0200000000000047512103b0e9b494983a3977cbb68de0a1edb412376e1613e78e6966c5dfbbb3e189ae9b21023809d6c9ed5edbdd7ae6f15e5ce653c3c462a539ce11ebcfa2f8b280ffbd632152ae7a9a1d00000000001976a914fbbdb3ce0e77ce7bb47b98229250f5532c3096ee88ac22020000000000001976a914946cb2e08075bcbaf157e47bcb67eb2b2339d24288ac00000000",
  "blockhash": "00000000000000000f384b3ab54bf14a71e6f1fbe8d8a4ce88f26f3ebfaed374",
  "confirmations": 550005,
  "time": 1436818546,
  "blocktime": 1436818546
}
