{
  "txid": "5e0f7b309a038a41804b8a59396141eddc76d408fe239a507be04feadc2337c9",
  "hash": "5e0f7b309a038a41804b8a59396141eddc76d408fe239a507be04feadc2337c9",
  "version": 1,
  "size": 404,
  "vsize": 404,
  "weight": 1616,
  "locktime": 0,
  "vin": [
    {
      "txid": "87d76adf6ba79343f311138143612d653923509acba91dd44f734c4a88204243",
      "vout": 2,
      "scriptSig": {
        "asm": "3045022011d48efb5b91e7c18b31739cb1c20c5ad8a906b429249da55b37bea4964aca3e022100e49bed31a7f8cb1bc6fccd7758116b80062f4b6e2d1db80b7581c49933f98f5a[ALL] 04c66dbbe3a2dd25ab6ddd3eaa35356166c5f55fba2e76772ffcfa1e4ffa6ae779a5adad05d8b432d2388460f77e7d5cbe92f2bdf0a73fc947a361c3e512dba4a6",
        "hex": "483045022011d48efb5b91e7c18b31739cb1c20c5ad8a906b429249da55b37bea4964aca3e022100e49bed31a7f8cb1bc6fccd7758116b80062f4b6e2d1db80b7581c49933f98f5a014104c66dbbe3a2dd25ab6ddd3eaa35356166c5f55fba2e76772ffcfa1e4ffa6ae779a5adad05d8b432d2388460f77e7d5cbe92f2bdf0a73fc947a361c3e512dba4a6"
      },
      "sequence": 4294967295
    }
  ],
  "vout": [
    {
      "value": 0.00005555,
      "n": 0,
      "scriptPubKey": {
        "asm": "OP_DUP OP_HASH160 946cb2e08075bcbaf157e47bcb67eb2b2339d242 OP_EQUALVERIFY OP_CHECKSIG",
        "desc": "addr(1EXoDusjGwvnjZUyKkxZ4UHEf77z6A5S4P)#03u9lduk",
        "hex": "76a914946cb2e08075bcbaf157e47bcb67eb2b2339d24288ac",
        "address": "1EXoDusjGwvnjZUyKkxZ4UHEf77z6A5S4P",
        "type": "pubkeyhash"
      }
    },
    {
      "value": 0.00011110,
      "n": 1,
      "scriptPubKey": {
        "asm": "1 04c66dbbe3a2dd25ab6ddd3eaa35356166c5f55fba2e76772ffcfa1e4ffa6ae779a5adad05d8b432d2388460f77e7d5cbe92f2bdf0a73fc947a361c3e512dba4a6 02b927eaeb689d4f07adccbae96ccf75f01635a94c7b6925340d93fe45e092d70b 025cf4c84c8032e57b13a6d7f49d63954cf545377d25de7beeb5b5ad33da948b5e 3 OP_CHECKMULTISIG",
        "desc": "multi(1,04c66dbbe3a2dd25ab6ddd3eaa35356166c5f55fba2e76772ffcfa1e4ffa6ae779a5adad05d8b432d2388460f77e7d5cbe92f2bdf0a73fc947a361c3e512dba4a6,02b927eaeb689d4f07adccbae96ccf75f01635a94c7b6925340d93fe45e092d70b,025cf4c84c8032e57b13a6d7f49d63954cf545377d25de7beeb5b5ad33da948b5e)#067cqrnv",
        "hex": "514104c66dbbe3a2dd25ab6ddd3eaa35356166c5f55fba2e76772ffcfa1e4ffa6ae779a5adad05d8b432d2388460f77e7d5cbe92f2bdf0a73fc947a361c3e512dba4a62102b927eaeb689d4f07adccbae96ccf75f01635a94c7b6925340d93fe45e092d70b21025cf4c84c8032e57b13a6d7f49d63954cf545377d25de7beeb5b5ad33da948b5e53ae",
        "type": "multisig"
      }
    },
    {
      "value": 0.00175785,
      "n": 2,
      "scriptPubKey": {
        "asm": "OP_DUP OP_HASH160 bd6acf2a99430ec6707785f0f7d8512efc621882 OP_EQUALVERIFY OP_CHECKSIG",
        "desc": "addr(1JGYfVZ8Ghp4L8igCGgfjVtF4cWotsHhmn)#3r2k4zd6",
        "hex": "76a914bd6acf2a99430ec6707785f0f7d8512efc62188288ac",
        "address": "1JGYfVZ8Ghp4L8igCGgfjVtF4cWotsHhmn",
        "type": "pubkeyhash"
      }
    }
  ],
  "hex": "0100000001434220884a4c734fd41da9cb9a502339652d6143811311f34393a76bdf6ad787020000008b483045022011d48efb5b91e7c18b31739cb1c20c5ad8a906b429249da55b37bea4964aca3e022100e49bed31a7f8cb1bc6fccd7758116b80062f4b6e2d1db80b7581c49933f98f5a014104c66dbbe3a2dd25ab6ddd3eaa35356166c5f55fba2e76772ffcfa1e4ffa6ae779a5adad05d8b432d2388460f77e7d5cbe92f2bdf0a73fc947a361c3e512dba4a6ffffffff03b3150000000000001976a914946cb2e08075bcbaf157e47bcb67eb2b2339d24288ac662b00000000000089514104c66dbbe3a2dd25ab6ddd3eaa35356166c5f55fba2e76772ffcfa1e4ffa6ae779a5adad05d8b432d2388460f77e7d5cbe92f2bdf0a73fc947a361c3e512dba4a62102b927eaeb689d4f07adccbae96ccf75f01635a94c7b6925340d93fe45e092d70b21025cf4c84c8032e57b13a6d7f49d63954cf545377d25de7beeb5b5ad33da948b5e53aea9ae0200000000001976a914bd6acf2a99430ec6707785f0f7d8512efc62188288ac00000000",
  "blockhash": "000000000000000026f24850d44fb25e9bf9453e2ed3aab3d2fb4c56f11ae62a",
  "confirmations": 608507,
  "time": 1403199159,
  "blocktime": 1403199159
}
