{
  "txid": "5fa6f173e7eec88e3bfeb6d63a28acaccb5e7e8ca4afdca0936b9b1aa3fae6c5",
  "hash": "5fa6f173e7eec88e3bfeb6d63a28acaccb5e7e8ca4afdca0936b9b1aa3fae6c5",
  "version": 1,
  "size": 225,
  "vsize": 225,
  "weight": 900,
  "locktime": 0,
  "vin": [
    {
      "txid": "e22bf36aed8be2547c10f3cbd364473354f306da7420275626ba16980a14462f",
      "vout": 0,
      "scriptSig": {
        "asm": "304402200a6dd21680bd55da361eb27d3a62faea20fc7a74705d972a211e2bb11ce1989a0220122355fcd13e089d793f9027ce3d966c4403e6c7d81da71917b0aac83f023f1e[ALL] 020de8955a6142518e258d4111eec53669733daae4c748968b6fe6a52602cebbb3",
        "hex": "47304402200a6dd21680bd55da361eb27d3a62faea20fc7a74705d972a211e2bb11ce1989a0220122355fcd13e089d793f9027ce3d966c4403e6c7d81da71917b0aac83f023f1e0121020de8955a6142518e258d4111eec53669733daae4c748968b6fe6a52602cebbb3"
      },
      "sequence": 4294967295
    }
  ],
  "vout": [
    {
      "value": 0.18431987,
      "n": 0,
      "scriptPubKey": {
        "asm": "OP_DUP OP_HASH160 f19ca00118c0e4f188bbcc61132fba6730a591a8 OP_EQUALVERIFY OP_CHECKSIG",
        "desc": "addr(1P2XUjEFXLR9WywnDraHcCY3Bcd13PPwvC)#g5xzvm6y",
        "hex": "76a914f19ca00118c0e4f188bbcc61132fba6730a591a888ac",
        "address": "1P2XUjEFXLR9WywnDraHcCY3Bcd13PPwvC",
        "type": "pubkeyhash"
      }
    },
    {
      "value": 0.01558013,
      "n": 1,
      "scriptPubKey": {
        "asm": "OP_DUP OP_HASH160 fad953831953fbbbe0853078a0329c13a1cee0dc OP_EQUALVERIFY OP_CHECKSIG",
        "desc": "addr(1PsNH3nb8CFqjFZQEnHv3igYHtDNv1c8gY)#nzku7lj5",
        "hex": "76a914fad953831953fbbbe0853078a0329c13a1cee0dc88ac",
        "address": "1PsNH3nb8CFqjFZQEnHv3igYHtDNv1c8gY",
        "type": "pubkeyhash"
      }
    }
  ],
  "hex": "01000000012f46140a9816ba2656272074da06f354334764d3cbf3107c54e28bed6af32be2000000006a47304402200a6dd21680bd55da361eb27d3a62faea20fc7a74705d972a211e2bb11ce1989a0220122355fcd13e089d793f9027ce3d966c4403e6c7d81da71917b0aac83f023f1e0121020de8955a6142518e258d4111eec53669733daae4c748968b6fe6a52602cebbb3ffffffff02f33f1901000000001976a914f19ca00118c0e4f188bbcc61132fba6730a591a888acfdc51700000000001976a914fad953831953fbbbe0853078a0329c13a1cee0dc88ac00000000",
  "blockhash": "000000000000000018bf537d9b2ed2a37a13ecc2f690bd584368d74193d621bd",
  "confirmations": 598867,
  "time": 1408392062,
  "blocktime": 1408392062
}
