{
  "txid": "6de3ebc2af02efe47c0ec30415de52d1ec1e3cc9e17260c35726530ddf9e8207",
  "hash": "6de3ebc2af02efe47c0ec30415de52d1ec1e3cc9e17260c35726530ddf9e8207",
  "version": 1,
  "size": 661,
  "vsize": 661,
  "weight": 2644,
  "locktime": 0,
  "vin": [
    {
      "txid": "3bfadbdaa445bb0b5c6ba35d03cad7dc5631a0c26229edd234d0dc409619f03f",
      "vout": 0,
      "scriptSig": {
        "asm": "304402203a90132f81e00b38073e6b154a78c95f1dc7cb4aad9c84a8cd35351c5269265902206231f3fddaae88eabf5102856aa591c865c9f1b70104b424ced968f2e6dff093[ALL] 04d04e52ef6ac676394089e25fd1a2d69865cf3513e878331041b00238f9b58444565448bc7b7a153c25ba609556b7f6545e2ca124aba749ef4f98a44415d64131",
        "hex": "47304402203a90132f81e00b38073e6b154a78c95f1dc7cb4aad9c84a8cd35351c5269265902206231f3fddaae88eabf5102856aa591c865c9f1b70104b424ced968f2e6dff093014104d04e52ef6ac676394089e25fd1a2d69865cf3513e878331041b00238f9b58444565448bc7b7a153c25ba609556b7f6545e2ca124aba749ef4f98a44415d64131"
      },
      "sequence": 4294967295
    }
  ],
  "vout": [
    {
      "value": 0.00836374,
      "n": 0,
      "scriptPubKey": {
        "asm": "OP_DUP OP_HASH160 5409b84f671bd227249fae4b06094db18c2e4232 OP_EQUALVERIFY OP_CHECKSIG",
        "desc": "addr(18fMQUB86vgx3WaQnYBdx5D2d5zYN8zKtd)#gdvgzhr0",
        "hex": "76a9145409b84f671bd227249fae4b06094db18c2e423288ac",
        "address": "18fMQUB86vgx3WaQnYBdx5D2d5zYN8zKtd",
        "type": "pubkeyhash"
      }
    },
    {
      "value": 0.00005757,
      "n": 1,
      "scriptPubKey": {
        "asm": "OP_DUP OP_HASH160 946cb2e08075bcbaf157e47bcb67eb2b2339d242 OP_EQUALVERIFY OP_CHECKSIG",
        "desc": "addr(1EXoDusjGwvnjZUyKkxZ4UHEf77z6A5S4P)#03u9lduk",
        "hex": "76a914946cb2e08075bcbaf157e47bcb67eb2b2339d24288ac",
        "address": "1EXoDusjGwvnjZUyKkxZ4UHEf77z6A5S4P",
        "type": "pubkeyhash"
      }
    },
    {
      "value": 0.00017271,
      "n": 2,
      "scriptPubKey": {
        "asm": "1 04d04e52ef6ac676394089e25fd1a2d69865cf3513e878331041b00238f9b58444565448bc7b7a153c25ba609556b7f6545e2ca124aba749ef4f98a44415d64131 0252de6c3282124e6e52641ca27548ae62b4b9f80cc15921ff44b7297d8db539ab 02ee26b1a9ee870b8b5784172e8c53d90359c1c9a794f6a1cfc231f45fa3d65c75 3 OP_CHECKMULTISIG",
        "desc": "multi(1,04d04e52ef6ac676394089e25fd1a2d69865cf3513e878331041b00238f9b58444565448bc7b7a153c25ba609556b7f6545e2ca124aba749ef4f98a44415d64131,0252de6c3282124e6e52641ca27548ae62b4b9f80cc15921ff44b7297d8db539ab,02ee26b1a9ee870b8b5784172e8c53d90359c1c9a794f6a1cfc231f45fa3d65c75)#883ne7sw",
        "hex": "514104d04e52ef6ac676394089e25fd1a2d69865cf3513e878331041b00238f9b58444565448bc7b7a153c25ba609556b7f6545e2ca124aba749ef4f98a44415d64131210252de6c3282124e6e52641ca27548ae62b4b9f80cc15921ff44b7297d8db539ab2102ee26b1a9ee870b8b5784172e8c53d90359c1c9a794f6a1cfc231f45fa3d65c7553ae",
        "type": "multisig"
      }
    },
    {
      "value": 0.00017271,
      "n": 3,
      "scriptPubKey": {
        "asm": "1 04d04e52ef6ac676394089e25fd1a2d69865cf3513e878331041b00238f9b58444565448bc7b7a153c25ba609556b7f6545e2ca124aba749ef4f98a44415d64131 02840f1c1ad904238bf17a6b034d79838df9863b17516ff8851acd569c2748721d 0266710ed2c1f2ab4c9e70a1c4001a63b379149a95864d8b77c19542c143d833e9 3 OP_CHECKMULTISIG",
        "desc": "multi(1,04d04e52ef6ac676394089e25fd1a2d69865cf3513e878331041b00238f9b58444565448bc7b7a153c25ba609556b7f6545e2ca124aba749ef4f98a44415d64131,02840f1c1ad904238bf17a6b034d79838df9863b17516ff8851acd569c2748721d,0266710ed2c1f2ab4c9e70a1c4001a63b379149a95864d8b77c19542c143d833e9)#wse6alz9",
        "hex": "514104d04e52ef6ac676394089e25fd1a2d69865cf3513e878331041b00238f9b58444565448bc7b7a153c25ba609556b7f6545e2ca124aba749ef4f98a44415d641312102840f1c1ad904238bf17a6b034d79838df9863b17516ff8851acd569c2748721d210266710ed2c1f2ab4c9e70a1c4001a63b379149a95864d8b77c19542c143d833e953ae",
        "type": "multisig"
      }
    },
    {
      "value": 0.00011514,
      "n": 4,
      "scriptPubKey": {
        "asm": "1 04d04e52ef6ac676394089e25fd1a2d69865cf3513e878331041b00238f9b58444565448bc7b7a153c25ba609556b7f6545e2ca124aba749ef4f98a44415d64131 02e4d549f5ca95340043722939c80393d33ad1dc49c202b4a21bdafeab887c8b5e 2 OP_CHECKMULTISIG",
        "desc": "multi(1,04d04e52ef6ac676394089e25fd1a2d69865cf3513e878331041b00238f9b58444565448bc7b7a153c25ba609556b7f6545e2ca124aba749ef4f98a44415d64131,02e4d549f5ca95340043722939c80393d33ad1dc49c202b4a21bdafeab887c8b5e)#r056fxqh",
        "hex": "514104d04e52ef6ac676394089e25fd1a2d69865cf3513e878331041b00238f9b58444565448bc7b7a153c25ba609556b7f6545e2ca124aba749ef4f98a44415d641312102e4d549f5ca95340043722939c80393d33ad1dc49c202b4a21bdafeab887c8b5e52ae",
        "type": "multisig"
      }
    }
  ],
  "hex": "01000000013ff0199640dcd034d2ed2962c2a03156dcd7ca035da36b5c0bbb45a4dadbfa3b000000008a47304402203a90132f81e00b38073e6b154a78c95f1dc7cb4aad9c84a8cd35351c5269265902206231f3fddaae88eabf5102856aa591c865c9f1b70104b424ced968f2e6dff093014104d04e52ef6ac676394089e25fd1a2d69865cf3513e878331041b00238f9b58444565448bc7b7a153c25ba609556b7f6545e2ca124aba749ef4f98a44415d64131ffffffff0516c30c00000000001976a9145409b84f671bd227249fae4b06094db18c2e423288ac7d160000000000001976a914946cb2e08075bcbaf157e47bcb67eb2b2339d24288ac774300000000000089514104d04e52ef6ac676394089e25fd1a2d69865cf3513e878331041b00238f9b58444565448bc7b7a153c25ba609556b7f6545e2ca124aba749ef4f98a44415d64131210252de6c3282124e6e52641ca27548ae62b4b9f80cc15921ff44b7297d8db539ab2102ee26b1a9ee870b8b5784172e8c53d90359c1c9a794f6a1cfc231f45fa3d65c7553ae774300000000000089514104d04e52ef6ac676394089e25fd1a2d69865cf3513e878331041b00238f9b58444565448bc7b7a153c25ba609556b7f6545e2ca124aba749ef4f98a44415d641312102840f1c1ad904238bf17a6b034d79838df9863b17516ff8851acd569c2748721d210266710ed2c1f2ab4c9e70a1c4001a63b379149a95864d8b77c19542c143d833e953aefa2c00000000000067514104d04e52ef6ac676394089e25fd1a2d69865cf3513e878331041b00238f9b58444565448bc7b7a153c25ba609556b7f6545e2ca124aba749ef4f98a44415d641312102e4d549f5ca95340043722939c80393d33ad1dc49c202b4a21bdafeab887c8b5e52ae00000000",
  "blockhash": "000000000000000005a8efe4284d32cc751ae9a7d11b07acf1ecc87c4a53abfa",
  "confirmations": 600281,
  "time": 1407874287,
  "blocktime": 1407874287
}
