{
  "txid": "73914fb386c19f09181ac01cb3680eaee01268ef0781dff9f25d5c069b5334f0",
  "hash": "73914fb386c19f09181ac01cb3680eaee01268ef0781dff9f25d5c069b5334f0",
  "version": 1,
  "size": 404,
  "vsize": 404,
  "weight": 1616,
  "locktime": 0,
  "vin": [
    {
      "txid": "12fa9f8b389e03c2163b0353de80d9b01116054d597f896f15963a559255ea50",
      "vout": 0,
      "scriptSig": {
        "asm": "3045022100ee9ae60e09cabdd7654b4c3da51558452ea29a1c2112498d683016b37dcca44002203d761f789cf381642af69abfdc34db7ea5dea1f624d7f43abb8f531f87dc8528[ALL] 04dc5f7f45007d5a38be2187641c69cb450e9848e8c029fdc8d6bf1cdbb3d11ae419214aae603e3bff7f12bd7f71aaeb46b4e2116952ec3d8b9ee0a1f2de4e2ef4",
        "hex": "483045022100ee9ae60e09cabdd7654b4c3da51558452ea29a1c2112498d683016b37dcca44002203d761f789cf381642af69abfdc34db7ea5dea1f624d7f43abb8f531f87dc8528014104dc5f7f45007d5a38be2187641c69cb450e9848e8c029fdc8d6bf1cdbb3d11ae419214aae603e3bff7f12bd7f71aaeb46b4e2116952ec3d8b9ee0a1f2de4e2ef4"
      },
      "sequence": 4294967295
    }
  ],
  "vout": [
    {
      "value": 0.00638000,
      "n": 0,
      "scriptPubKey": {
        "asm": "OP_DUP OP_HASH160 f6b75c526ce508fdadd316d591cd662a175fe2aa OP_EQUALVERIFY OP_CHECKSIG",
        "desc": "addr(1PVWtK1ATnvbRaRceLRH5xj8XV1LxUBu7n)#pa4zaq5w",
        "hex": "76a914f6b75c526ce508fdadd316d591cd662a175fe2aa88ac",
        "address": "1PVWtK1ATnvbRaRceLRH5xj8XV1LxUBu7n",
        "type": "pubkeyhash"
      }
    },
    {
      "value": 0.00005500,
      "n": 1,
      "scriptPubKey": {
        "asm": "OP_DUP OP_HASH160 946cb2e08075bcbaf157e47bcb67eb2b2339d242 OP_EQUALVERIFY OP_CHECKSIG",
        "desc": "addr(1EXoDusjGwvnjZUyKkxZ4UHEf77z6A5S4P)#03u9lduk",
        "hex": "76a914946cb2e08075bcbaf157e47bcb67eb2b2339d24288ac",
        "address": "1EXoDusjGwvnjZUyKkxZ4UHEf77z6A5S4P",
        "type": "pubkeyhash"
      }
    },
    {
      "value": 0.00016500,
      "n": 2,
      "scriptPubKey": {
        "asm": "1 04dc5f7f45007d5a38be2187641c69cb450e9848e8c029fdc8d6bf1cdbb3d11ae419214aae603e3bff7f12bd7f71aaeb46b4e2116952ec3d8b9ee0a1f2de4e2ef4 02caa5e7910ac742ba91cbd2685f0e32856d960409f100b312ad72f39d3a6c039d 02a15c01226a06b28414fab6ab395cf7688d1c23af1169f6e179a258e9dc7b7ae0 3 OP_CHECKMULTISIG",
        "desc": "multi(1,04dc5f7f45007d5a38be2187641c69cb450e9848e8c029fdc8d6bf1cdbb3d11ae419214aae603e3bff7f12bd7f71aaeb46b4e2116952ec3d8b9ee0a1f2de4e2ef4,02caa5e7910ac742ba91cbd2685f0e32856d960409f100b312ad72f39d3a6c039d,02a15c01226a06b28414fab6ab395cf7688d1c23af1169f6e179a258e9dc7b7ae0)#09atpsrt",
        "hex": "514104dc5f7f45007d5a38be2187641c69cb450e9848e8c029fdc8d6bf1cdbb3d11ae419214aae603e3bff7f12bd7f71aaeb46b4e2116952ec3d8b9ee0a1f2de4e2ef42102caa5e7910ac742ba91cbd2685f0e32856d960409f100b312ad72f39d3a6c039d2102a15c01226a06b28414fab6ab395cf7688d1c23af1169f6e179a258e9dc7b7ae053ae",
        "type": "multisig"
      }
    }
  ],
  "hex": "010000000150ea5592553a96156f897f594d051611b0d980de53033b16c2039e388b9ffa12000000008b483045022100ee9ae60e09cabdd7654b4c3da51558452ea29a1c2112498d683016b37dcca44002203d761f789cf381642af69abfdc34db7ea5dea1f624d7f43abb8f531f87dc8528014104dc5f7f45007d5a38be2187641c69cb450e9848e8c029fdc8d6bf1cdbb3d11ae419214aae603e3bff7f12bd7f71aaeb46b4e2116952ec3d8b9ee0a1f2de4e2ef4ffffffff0330bc0900000000001976a914f6b75c526ce508fdadd316d591cd662a175fe2aa88ac7c150000000000001976a914946cb2e08075bcbaf157e47bcb67eb2b2339d24288ac744000000000000089514104dc5f7f45007d5a38be2187641c69cb450e9848e8c029fdc8d6bf1cdbb3d11ae419214aae603e3bff7f12bd7f71aaeb46b4e2116952ec3d8b9ee0a1f2de4e2ef42102caa5e7910ac742ba91cbd2685f0e32856d960409f100b312ad72f39d3a6c039d2102a15c01226a06b28414fab6ab395cf7688d1c23af1169f6e179a258e9dc7b7ae053ae00000000",
  "blockhash": "00000000000000000499aad90bdb3ce4040bd14505f060ac833890148a18c967",
  "confirmations": 594590,
  "time": 1410660698,
  "blocktime": 1410660698
}
