{
  "txid": "7feadf33ff57c787ad42ea17c9740b783091c9b68374ea242f3e04217cc7ab0e",
  "hash": "7feadf33ff57c787ad42ea17c9740b783091c9b68374ea242f3e04217cc7ab0e",
  "version": 1,
  "size": 226,
  "vsize": 226,
  "weight": 904,
  "locktime": 0,
  "vin": [
    {
      "txid": "b831a6cbe2b454379b32c74e2f8adfac6816b5557bd99f29f93449c55194f7ba",
      "vout": 1,
      "scriptSig": {
        "asm": "30450221008667154113243a747260b0327e07a5e3610618c1a58213ddd78467fc91d07708022036cf298867b7338ce87c1df703e011fdce9802fdb1978eef2b27326129e4d7dc[ALL] 023e94f50e71a73ff3935252645fb4418871cc576b113130a578ced8b53c2a3f84",
        "hex": "4830450221008667154113243a747260b0327e07a5e3610618c1a58213ddd78467fc91d07708022036cf298867b7338ce87c1df703e011fdce9802fdb1978eef2b27326129e4d7dc0121023e94f50e71a73ff3935252645fb4418871cc576b113130a578ced8b53c2a3f84"
      },
      "sequence": 4294967295
    }
  ],
  "vout": [
    {
      "value": 0.01060000,
      "n": 0,
      "scriptPubKey": {
        "asm": "OP_DUP OP_HASH160 f603fad065ebbbf66ce7880c968004195c4f89b8 OP_EQUALVERIFY OP_CHECKSIG",
        "desc": "addr(1PRozi3UhpXtC4kZtPD1nfCFXJkXrV27Wp)#l9w4eu8y",
        "hex": "76a914f603fad065ebbbf66ce7880c968004195c4f89b888ac",
        "address": "1PRozi3UhpXtC4kZtPD1nfCFXJkXrV27Wp",
        "type": "pubkeyhash"
      }
    },
    {
      "value": 0.07951037,
      "n": 1,
      "scriptPubKey": {
        "asm": "OP_DUP OP_HASH160 877735b1e1c6c1085d4175834a840b210b4eb964 OP_EQUALVERIFY OP_CHECKSIG",
        "desc": "addr(1DMH2jezmNha2ShBhq3ogsXGviPBRppmwX)#93uyfd7q",
        "hex": "76a914877735b1e1c6c1085d4175834a840b210b4eb96488ac",
        "address": "1DMH2jezmNha2ShBhq3ogsXGviPBRppmwX",
        "type": "pubkeyhash"
      }
    }
  ],
  "hex": "0100000001baf79451c54934f9299fd97b55b51668acdf8a2f4ec7329b3754b4e2cba631b8010000006b4830450221008667154113243a747260b0327e07a5e3610618c1a58213ddd78467fc91d07708022036cf298867b7338ce87c1df703e011fdce9802fdb1978eef2b27326129e4d7dc0121023e94f50e71a73ff3935252645fb4418871cc576b113130a578ced8b53c2a3f84ffffffff02a02c1000000000001976a914f603fad065ebbbf66ce7880c968004195c4f89b888acbd527900000000001976a914877735b1e1c6c1085d4175834a840b210b4eb96488ac00000000",
  "blockhash": "0000000000000000291d4e2b563c359b5f6a0e702d460fcc218cb5a9ac079533",
  "confirmations": 601674,
  "time": 1406912145,
  "blocktime": 1406912145
}
