{
  "txid": "85538aa567d929a400342043299725a49518d32f2ed238a25c21831f84dc83e5",
  "hash": "85538aa567d929a400342043299725a49518d32f2ed238a25c21831f84dc83e5",
  "version": 1,
  "size": 404,
  "vsize": 404,
  "weight": 1616,
  "locktime": 0,
  "vin": [
    {
      "txid": "ab27cd708dd69a269d2f4a6d2441ec54ed14fd410a573b3c6fcf7386826d8c69",
      "vout": 2,
      "scriptSig": {
        "asm": "3045022100a846d4d7fb2e3eb66877cb1ffd958a43230496308ade4b15923ec18d23804f18022054c6e61f887f0fa35cefd83f439750042e22affc717a1964984d3c8376c51ad2[ALL] 046da28da8843ce92babea0d8685ba9c0131b6d5bcbacf5bc9dc89c974724d7ab50ec2fb0be0bcc640117ad89d1c7abaa934eb7d626c2fa8497dafde485272a4cb",
        "hex": "483045022100a846d4d7fb2e3eb66877cb1ffd958a43230496308ade4b15923ec18d23804f18022054c6e61f887f0fa35cefd83f439750042e22affc717a1964984d3c8376c51ad20141046da28da8843ce92babea0d8685ba9c0131b6d5bcbacf5bc9dc89c974724d7ab50ec2fb0be0bcc640117ad89d1c7abaa934eb7d626c2fa8497dafde485272a4cb"
      },
      "sequence": 4294967295
    }
  ],
  "vout": [
    {
      "value": 0.00005757,
      "n": 0,
      "scriptPubKey": {
        "asm": "OP_DUP OP_HASH160 f58a3b32e0f095b2a66452620e0aa6f427b5aefd OP_EQUALVERIFY OP_CHECKSIG",
        "desc": "addr(1PPJ9UUfLkowpYzW5wUuBxjt8SHkbnkX5e)#r2tpr829",
        "hex": "76a914f58a3b32e0f095b2a66452620e0aa6f427b5aefd88ac",
        "address": "1PPJ9UUfLkowpYzW5wUuBxjt8SHkbnkX5e",
        "type": "pubkeyhash"
      }
    },
    {
      "value": 0.00005757,
      "n": 1,
      "scriptPubKey": {
        "asm": "OP_DUP OP_HASH160 946cb2e08075bcbaf157e47bcb67eb2b2339d242 OP_EQUALVERIFY OP_CHECKSIG",
        "desc": "addr(1EXoDusjGwvnjZUyKkxZ4UHEf77z6A5S4P)#03u9lduk",
        "hex": "76a914946cb2e08075bcbaf157e47bcb67eb2b2339d24288ac",
        "address": "1EXoDusjGwvnjZUyKkxZ4UHEf77z6A5S4P",
        "type": "pubkeyhash"
      }
    },
    {
      "value": 0.04558823,
      "n": 2,
      "scriptPubKey": {
        "asm": "OP_DUP OP_HASH160 7e7bc8c1b4ab7b4e99cefa5d40a7fa394f5c7d7e OP_EQUALVERIFY OP_CHECKSIG",
        "desc": "addr(1CXnRrBm3NezYeAcu555Ubu7swwKsn26dT)#kapq6hpk",
        "hex": "76a9147e7bc8c1b4ab7b4e99cefa5d40a7fa394f5c7d7e88ac",
        "address": "1CXnRrBm3NezYeAcu555Ubu7swwKsn26dT",
        "type": "pubkeyhash"
      }
    },
    {
      "value": 0.00011514,
      "n": 3,
      "scriptPubKey": {
        "asm": "1 046da28da8843ce92babea0d8685ba9c0131b6d5bcbacf5bc9dc89c974724d7ab50ec2fb0be0bcc640117ad89d1c7abaa934eb7d626c2fa8497dafde485272a4cb 024ac208b8d07121fb434a89428b767dfae06d440e466ecdc4cedc8bbbbeedb2d5 2 OP_CHECKMULTISIG",
        "desc": "multi(1,046da28da8843ce92babea0d8685ba9c0131b6d5bcbacf5bc9dc89c974724d7ab50ec2fb0be0bcc640117ad89d1c7abaa934eb7d626c2fa8497dafde485272a4cb,024ac208b8d07121fb434a89428b767dfae06d440e466ecdc4cedc8bbbbeedb2d5)#wxdqjqck",
        "hex": "5141046da28da8843ce92babea0d8685ba9c0131b6d5bcbacf5bc9dc89c974724d7ab50ec2fb0be0bcc640117ad89d1c7abaa934eb7d626c2fa8497dafde485272a4cb21024ac208b8d07121fb434a89428b767dfae06d440e466ecdc4cedc8bbbbeedb2d552ae",
        "type": "multisig"
      }
    }
  ],
  "hex": "0100000001698c6d828673cf6f3c3b570a41fd14ed54ec41246d4a2f9d269ad68d70cd27ab020000008b483045022100a846d4d7fb2e3eb66877cb1ffd958a43230496308ade4b15923ec18d23804f18022054c6e61f887f0fa35cefd83f439750042e22affc717a1964984d3c8376c51ad20141046da28da8843ce92babea0d8685ba9c0131b6d5bcbacf5bc9dc89c974724d7ab50ec2fb0be0bcc640117ad89d1c7abaa934eb7d626c2fa8497dafde485272a4cbffffffff047d160000000000001976a914f58a3b32e0f095b2a66452620e0aa6f427b5aefd88ac7d160000000000001976a914946cb2e08075bcbaf157e47bcb67eb2b2339d24288ace78f4500000000001976a9147e7bc8c1b4ab7b4e99cefa5d40a7fa394f5c7d7e88acfa2c000000000000675141046da28da8843ce92babea0d8685ba9c0131b6d5bcbacf5bc9dc89c974724d7ab50ec2fb0be0bcc640117ad89d1c7abaa934eb7d626c2fa8497dafde485272a4cb21024ac208b8d07121fb434a89428b767dfae06d440e466ecdc4cedc8bbbbeedb2d552ae00000000",
  "blockhash": "000000000000000003c10f842feff962cfb183fc7cf0048668f95abcd830a9fa",
  "confirmations": 606686,
  "time": 1404316506,
  "blocktime": 1404316506
}
