{
  "txid": "ad42161f67791bcd9a61734202bcc3b47397dcc8e0de3a58322fe412104128c4",
  "hash": "ad42161f67791bcd9a61734202bcc3b47397dcc8e0de3a58322fe412104128c4",
  "version": 1,
  "size": 371,
  "vsize": 371,
  "weight": 1484,
  "locktime": 0,
  "vin": [
    {
      "txid": "26a2a90bed06811b7dbab355a091ec7a381a705b124e0c6e007ed92505ce13fd",
      "vout": 0,
      "scriptSig": {
        "asm": "304602210093ff5ed8a79383e9e216a0c9ba000d44525946b7fb73db7c677703ff8a103419022100a1905ce075512ed6033851584e683bb962270553380edc740a64f249d9580bb1[ALL] 04dc5f7f45007d5a38be2187641c69cb450e9848e8c029fdc8d6bf1cdbb3d11ae419214aae603e3bff7f12bd7f71aaeb46b4e2116952ec3d8b9ee0a1f2de4e2ef4",
        "hex": "49304602210093ff5ed8a79383e9e216a0c9ba000d44525946b7fb73db7c677703ff8a103419022100a1905ce075512ed6033851584e683bb962270553380edc740a64f249d9580bb1014104dc5f7f45007d5a38be2187641c69cb450e9848e8c029fdc8d6bf1cdbb3d11ae419214aae603e3bff7f12bd7f71aaeb46b4e2116952ec3d8b9ee0a1f2de4e2ef4"
      },
      "sequence": 4294967295
    }
  ],
  "vout": [
    {
      "value": 0.00298398,
      "n": 0,
      "scriptPubKey": {
        "asm": "OP_DUP OP_HASH160 f6b75c526ce508fdadd316d591cd662a175fe2aa OP_EQUALVERIFY OP_CHECKSIG",
        "desc": "addr(1PVWtK1ATnvbRaRceLRH5xj8XV1LxUBu7n)#pa4zaq5w",
        "hex": "76a914f6b75c526ce508fdadd316d591cd662a175fe2aa88ac",
        "address": "1PVWtK1ATnvbRaRceLRH5xj8XV1LxUBu7n",
        "type": "pubkeyhash"
      }
    },
    {
      "value": 0.00005757,
      "n": 1,
      "scriptPubKey": {
        "asm": "OP_DUP OP_HASH160 946cb2e08075bcbaf157e47bcb67eb2b2339d242 OP_EQUALVERIFY OP_CHECKSIG",
        "desc": "addr(1EXoDusjGwvnjZUyKkxZ4UHEf77z6A5S4P)#03u9lduk",
        "hex": "76a914946cb2e08075bcbaf157e47bcb67eb2b2339d24288ac",
        "address": "1EXoDusjGwvnjZUyKkxZ4UHEf77z6A5S4P",
        "type": "pubkeyhash"
      }
    },
    {
      "value": 0.00011514,
      "n": 2,
      "scriptPubKey": {
        "asm": "1 04dc5f7f45007d5a38be2187641c69cb450e9848e8c029fdc8d6bf1cdbb3d11ae419214aae603e3bff7f12bd7f71aaeb46b4e2116952ec3d8b9ee0a1f2de4e2ef4 02caa5e7913cc542b893cbd268186b5ce037ff6709a565c0668d269cf65f0203e5 2 OP_CHECKMULTISIG",
        "desc": "multi(1,04dc5f7f45007d5a38be2187641c69cb450e9848e8c029fdc8d6bf1cdbb3d11ae419214aae603e3bff7f12bd7f71aaeb46b4e2116952ec3d8b9ee0a1f2de4e2ef4,02caa5e7913cc542b893cbd268186b5ce037ff6709a565c0668d269cf65f0203e5)#c3dl8jyk",
        "hex": "514104dc5f7f45007d5a38be2187641c69cb450e9848e8c029fdc8d6bf1cdbb3d11ae419214aae603e3bff7f12bd7f71aaeb46b4e2116952ec3d8b9ee0a1f2de4e2ef42102caa5e7913cc542b893cbd268186b5ce037ff6709a565c0668d269cf65f0203e552ae",
        "type": "multisig"
      }
    }
  ],
  "hex": "0100000001fd13ce0525d97e006e0c4e125b701a387aec91a055b3ba7d1b8106ed0ba9a226000000008c49304602210093ff5ed8a79383e9e216a0c9ba000d44525946b7fb73db7c677703ff8a103419022100a1905ce075512ed6033851584e683bb962270553380edc740a64f249d9580bb1014104dc5f7f45007d5a38be2187641c69cb450e9848e8c029fdc8d6bf1cdbb3d11ae419214aae603e3bff7f12bd7f71aaeb46b4e2116952ec3d8b9ee0a1f2de4e2ef4ffffffff039e8d0400000000001976a914f6b75c526ce508fdadd316d591cd662a175fe2aa88ac7d160000000000001976a914946cb2e08075bcbaf157e47bcb67eb2b2339d24288acfa2c00000000000067514104dc5f7f45007d5a38be2187641c69cb450e9848e8c029fdc8d6bf1cdbb3d11ae419214aae603e3bff7f12bd7f71aaeb46b4e2116952ec3d8b9ee0a1f2de4e2ef42102caa5e7913cc542b893cbd268186b5ce037ff6709a565c0668d269cf65f0203e552ae00000000",
  "blockhash": "000000000000000013fed4f5ee87349c6d8f1fbef74e1a4123fd5bb0a0c2eb5b",
  "confirmations": 602146,
  "time": 1406657578,
  "blocktime": 1406657578
}
