{
  "txid": "b798f0b4edca0b63d2dd3e9e81335044fed807796f20a97aedac0bfb6da95236",
  "hash": "b798f0b4edca0b63d2dd3e9e81335044fed807796f20a97aedac0bfb6da95236",
  "version": 1,
  "size": 405,
  "vsize": 405,
  "weight": 1620,
  "locktime": 0,
  "vin": [
    {
      "txid": "be21caecc74b44da9f2ed4720675ec46c3df347b0562c68850d6eecc88563771",
      "vout": 2,
      "scriptSig": {
        "asm": "30460221009b7900a382c5d71bd52addb1f2607453033dc85397deabdba0f5d04815ab5307022100ebd0e59761f66b8f4cb1ec27e23fea1e93946d807bdf1f1cd02fcd1f6cad5586[ALL] 04dc5f7f45007d5a38be2187641c69cb450e9848e8c029fdc8d6bf1cdbb3d11ae419214aae603e3bff7f12bd7f71aaeb46b4e2116952ec3d8b9ee0a1f2de4e2ef4",
        "hex": "4930460221009b7900a382c5d71bd52addb1f2607453033dc85397deabdba0f5d04815ab5307022100ebd0e59761f66b8f4cb1ec27e23fea1e93946d807bdf1f1cd02fcd1f6cad5586014104dc5f7f45007d5a38be2187641c69cb450e9848e8c029fdc8d6bf1cdbb3d11ae419214aae603e3bff7f12bd7f71aaeb46b4e2116952ec3d8b9ee0a1f2de4e2ef4"
      },
      "sequence": 4294967295
    }
  ],
  "vout": [
    {
      "value": 0.00005757,
      "n": 0,
      "scriptPubKey": {
        "asm": "OP_DUP OP_HASH160 946cb2e08075bcbaf157e47bcb67eb2b2339d242 OP_EQUALVERIFY OP_CHECKSIG",
        "desc": "addr(1EXoDusjGwvnjZUyKkxZ4UHEf77z6A5S4P)#03u9lduk",
        "hex": "76a914946cb2e08075bcbaf157e47bcb67eb2b2339d24288ac",
        "address": "1EXoDusjGwvnjZUyKkxZ4UHEf77z6A5S4P",
        "type": "pubkeyhash"
      }
    },
    {
      "value": 0.00011514,
      "n": 1,
      "scriptPubKey": {
        "asm": "1 04dc5f7f45007d5a38be2187641c69cb450e9848e8c029fdc8d6bf1cdbb3d11ae419214aae603e3bff7f12bd7f71aaeb46b4e2116952ec3d8b9ee0a1f2de4e2ef4 02caa5e79128c542b890cbd268186b5ce01fff6709a565c0668d2c9cf65f02035e 02a218644f0526e6eb7f9fd8ab11328204a41c0bc16405dfe179a258e9dc7b7abe 3 OP_CHECKMULTISIG",
        "desc": "multi(1,04dc5f7f45007d5a38be2187641c69cb450e9848e8c029fdc8d6bf1cdbb3d11ae419214aae603e3bff7f12bd7f71aaeb46b4e2116952ec3d8b9ee0a1f2de4e2ef4,02caa5e79128c542b890cbd268186b5ce01fff6709a565c0668d2c9cf65f02035e,02a218644f0526e6eb7f9fd8ab11328204a41c0bc16405dfe179a258e9dc7b7abe)#h5zhq9k5",
        "hex": "514104dc5f7f45007d5a38be2187641c69cb450e9848e8c029fdc8d6bf1cdbb3d11ae419214aae603e3bff7f12bd7f71aaeb46b4e2116952ec3d8b9ee0a1f2de4e2ef42102caa5e79128c542b890cbd268186b5ce01fff6709a565c0668d2c9cf65f02035e2102a218644f0526e6eb7f9fd8ab11328204a41c0bc16405dfe179a258e9dc7b7abe53ae",
        "type": "multisig"
      }
    },
    {
      "value": 0.00337766,
      "n": 2,
      "scriptPubKey": {
        "asm": "OP_DUP OP_HASH160 f6b75c526ce508fdadd316d591cd662a175fe2aa OP_EQUALVERIFY OP_CHECKSIG",
        "desc": "addr(1PVWtK1ATnvbRaRceLRH5xj8XV1LxUBu7n)#pa4zaq5w",
        "hex": "76a914f6b75c526ce508fdadd316d591cd662a175fe2aa88ac",
        "address": "1PVWtK1ATnvbRaRceLRH5xj8XV1LxUBu7n",
        "type": "pubkeyhash"
      }
    }
  ],
  "hex": "010000000171375688cceed65088c662057b34dfc346ec750672d42e9fda444bc7ecca21be020000008c4930460221009b7900a382c5d71bd52addb1f2607453033dc85397deabdba0f5d04815ab5307022100ebd0e59761f66b8f4cb1ec27e23fea1e93946d807bdf1f1cd02fcd1f6cad5586014104dc5f7f45007d5a38be2187641c69cb450e9848e8c029fdc8d6bf1cdbb3d11ae419214aae603e3bff7f12bd7f71aaeb46b4e2116952ec3d8b9ee0a1f2de4e2ef4ffffffff037d160000000000001976a914946cb2e08075bcbaf157e47bcb67eb2b2339d24288acfa2c00000000000089514104dc5f7f45007d5a38be2187641c69cb450e9848e8c029fdc8d6bf1cdbb3d11ae419214aae603e3bff7f12bd7f71aaeb46b4e2116952ec3d8b9ee0a1f2de4e2ef42102caa5e79128c542b890cbd268186b5ce01fff6709a565c0668d2c9cf65f02035e2102a218644f0526e6eb7f9fd8ab11328204a41c0bc16405dfe179a258e9dc7b7abe53ae66270500000000001976a914f6b75c526ce508fdadd316d591cd662a175fe2aa88ac00000000",
  "blockhash": "000000000000000019cc1bd137b98cf8372e6fd35f773cae76820ed0351a3708",
  "confirmations": 604814,
  "time": 1405389988,
  "blocktime": 1405389988
}
