{
  "txid": "cb5abb071dc60417609590af18860229316f6c34b2ef0b1cdbe22723cfd7cc79",
  "hash": "f58d89821697558e6c813a39293ed2db6481268f12c4a30123cb7b356d171d3a",
  "version": 1,
  "size": 225,
  "vsize": 144,
  "weight": 573,
  "locktime": 0,
  "vin": [
    {
      "txid": "12e1b5647e0255c3aae6c9c09affe3c81719a93578239e8e9eb53e9c6441c3d9",
      "vout": 1,
      "scriptSig": {
        "asm": "",
        "hex": ""
      },
      "txinwitness": [
        "3044022019e81ca63b02eea091278b25127451b95d03674a62adc9d1f1cc67a4fcfa12090220162ab026338aeef8ee807c67bbe3005c97b22991692afe184da59353281e2a3701",
        "02dc8683704adb6dbea6d1e0bb392ab45b57dcc9c5f919b7d59389fdd9fb096f25"
      ],
      "sequence": 4294967295
    }
  ],
  "vout": [
    {
      "value": 0.00027000,
      "n": 0,
      "scriptPubKey": {
        "asm": "OP_DUP OP_HASH160 84ba71d9b723263d171385cb450e18e6e25886b0 OP_EQUALVERIFY OP_CHECKSIG",
        "desc": "addr(1D6oYjFVRAETW1Us9oS36YC71gfRw1omZB)#j5k0x68e",
        "hex": "76a91484ba71d9b723263d171385cb450e18e6e25886b088ac",
        "address": "1D6oYjFVRAETW1Us9oS36YC71gfRw1omZB",
        "type": "pubkeyhash"
      }
    },
    {
      "value": 37.79198366,
      "n": 1,
      "scriptPubKey": {
        "asm": "0 48721845d8d8ad552aecdd259053f9fcc1f10a72",
        "desc": "addr(bc1qfpeps3wcmzk422hvm5jeq5lelnqlzznjwyfy69)#hk3gz35f",
        "hex": "001448721845d8d8ad552aecdd259053f9fcc1f10a72",
        "address": "bc1qfpeps3wcmzk422hvm5jeq5lelnqlzznjwyfy69",
        "type": "witness_v0_keyhash"
      }
    }
  ],
  "hex": "01000000000101d9c341649c3eb59e8e9e237835a91917c8e3ff9ac0c9e6aac355027e64b5e1120100000000ffffffff0278690000000000001976a91484ba71d9b723263d171385cb450e18e6e25886b088ac9efd41e10000000016001448721845d8d8ad552aecdd259053f9fcc1f10a7202473044022019e81ca63b02eea091278b25127451b95d03674a62adc9d1f1cc67a4fcfa12090220162ab026338aeef8ee807c67bbe3005c97b22991692afe184da59353281e2a37012102dc8683704adb6dbea6d1e0bb392ab45b57dcc9c5f919b7d59389fdd9fb096f2500000000",
  "blockhash": "000000000000000000012ce785929b61fa4bb8426310b1c1680da769cd52bbc3",
  "confirmations": 12614,
  "time": 1750805238,
  "blocktime": 1750805238
}
