{
  "txid": "df964d3c4acbabc67e4bc52c90701f3878677a0075045c1d245e6d0400f3b0a0",
  "hash": "df964d3c4acbabc67e4bc52c90701f3878677a0075045c1d245e6d0400f3b0a0",
  "version": 1,
  "size": 259,
  "vsize": 259,
  "weight": 1036,
  "locktime": 0,
  "vin": [
    {
      "txid": "95c4d829bd61b62b75d61611a1e8bcd6e4b092961e810678b48576faea09763b",
      "vout": 1,
      "scriptSig": {
        "asm": "3046022100a0006081117389578bb261d552fe27a74b024b80f9daf4bcf59dbb5af560cd8c022100f3ed70acf383092bbf9016da6f81496f4c33641ddc2188f3b8c1a849c6b65910[ALL] 04622200eab5210ed385f8b46d4e819e20a190a3ef0c60f8d9efb54f065474036ed6453484615a1526d8e0ee43730f73e3605e57ee1603c14940b6dec1348b7354",
        "hex": "493046022100a0006081117389578bb261d552fe27a74b024b80f9daf4bcf59dbb5af560cd8c022100f3ed70acf383092bbf9016da6f81496f4c33641ddc2188f3b8c1a849c6b65910014104622200eab5210ed385f8b46d4e819e20a190a3ef0c60f8d9efb54f065474036ed6453484615a1526d8e0ee43730f73e3605e57ee1603c14940b6dec1348b7354"
      },
      "sequence": 4294967295
    }
  ],
  "vout": [
    {
      "value": 0.10000000,
      "n": 0,
      "scriptPubKey": {
        "asm": "OP_DUP OP_HASH160 67669873a19989a900d7fde35e40f967b42d3873 OP_EQUALVERIFY OP_CHECKSIG",
        "desc": "addr(1ARjWDkZ7kT9fwjPrjcQyvbXDkEySzKHwu)#sd0n3v4d",
        "hex": "76a91467669873a19989a900d7fde35e40f967b42d387388ac",
        "address": "1ARjWDkZ7kT9fwjPrjcQyvbXDkEySzKHwu",
        "type": "pubkeyhash"
      }
    },
    {
      "value": 0.80883450,
      "n": 1,
      "scriptPubKey": {
        "asm": "OP_DUP OP_HASH160 119bf35ba60203bda7fbc9babb655e537f43bf64 OP_EQUALVERIFY OP_CHECKSIG",
        "desc": "addr(12c7JuCUFkzGN5GNiNVL68BzwBnW66ja4i)#rmq97sly",
        "hex": "76a914119bf35ba60203bda7fbc9babb655e537f43bf6488ac",
        "address": "12c7JuCUFkzGN5GNiNVL68BzwBnW66ja4i",
        "type": "pubkeyhash"
      }
    }
  ],
  "hex": "01000000013b7609eafa7685b47806811e9692b0e4d6bce8a11116d6752bb661bd29d8c495010000008c493046022100a0006081117389578bb261d552fe27a74b024b80f9daf4bcf59dbb5af560cd8c022100f3ed70acf383092bbf9016da6f81496f4c33641ddc2188f3b8c1a849c6b65910014104622200eab5210ed385f8b46d4e819e20a190a3ef0c60f8d9efb54f065474036ed6453484615a1526d8e0ee43730f73e3605e57ee1603c14940b6dec1348b7354ffffffff0280969800000000001976a91467669873a19989a900d7fde35e40f967b42d387388acfa2ed204000000001976a914119bf35ba60203bda7fbc9babb655e537f43bf6488ac00000000",
  "blockhash": "000000000000000028c3a30c046279266dff2cb97c5dcaf4f8d07f262b084552",
  "confirmations": 618038,
  "time": 1398172009,
  "blocktime": 1398172009
}
