{
  "txid": "f706f60ff3f8cfb4161e9135af82d432f5bc588cae77dfdfedde011ec8baf287",
  "hash": "f706f60ff3f8cfb4161e9135af82d432f5bc588cae77dfdfedde011ec8baf287",
  "version": 1,
  "size": 403,
  "vsize": 403,
  "weight": 1612,
  "locktime": 0,
  "vin": [
    {
      "txid": "5e0f7b309a038a41804b8a59396141eddc76d408fe239a507be04feadc2337c9",
      "vout": 2,
      "scriptSig": {
        "asm": "30440220561efcc408f0f636337a196d38bc55d62564c4ddbb29b93f977b5057f1106bd5022045ac9c9c62cf21933dde8b769810158a5a37839e7cde586b4a18aaa1abedf0a8[ALL] 04c66dbbe3a2dd25ab6ddd3eaa35356166c5f55fba2e76772ffcfa1e4ffa6ae779a5adad05d8b432d2388460f77e7d5cbe92f2bdf0a73fc947a361c3e512dba4a6",
        "hex": "4730440220561efcc408f0f636337a196d38bc55d62564c4ddbb29b93f977b5057f1106bd5022045ac9c9c62cf21933dde8b769810158a5a37839e7cde586b4a18aaa1abedf0a8014104c66dbbe3a2dd25ab6ddd3eaa35356166c5f55fba2e76772ffcfa1e4ffa6ae779a5adad05d8b432d2388460f77e7d5cbe92f2bdf0a73fc947a361c3e512dba4a6"
      },
      "sequence": 4294967295
    }
  ],
  "vout": [
    {
      "value": 0.00005757,
      "n": 0,
      "scriptPubKey": {
        "asm": "OP_DUP OP_HASH160 946cb2e08075bcbaf157e47bcb67eb2b2339d242 OP_EQUALVERIFY OP_CHECKSIG",
        "desc": "addr(1EXoDusjGwvnjZUyKkxZ4UHEf77z6A5S4P)#03u9lduk",
        "hex": "76a914946cb2e08075bcbaf157e47bcb67eb2b2339d24288ac",
        "address": "1EXoDusjGwvnjZUyKkxZ4UHEf77z6A5S4P",
        "type": "pubkeyhash"
      }
    },
    {
      "value": 0.00011514,
      "n": 1,
      "scriptPubKey": {
        "asm": "1 04c66dbbe3a2dd25ab6ddd3eaa35356166c5f55fba2e76772ffcfa1e4ffa6ae779a5adad05d8b432d2388460f77e7d5cbe92f2bdf0a73fc947a361c3e512dba4a6 02b927ebeb689d4f07adccbae96d21c2031635a94c7b2310054dfdfe45e092d735 025cf4ef5c8132e57b13a6d7f49d63954cf545377d25de7beeb5b5ad33da948b76 3 OP_CHECKMULTISIG",
        "desc": "multi(1,04c66dbbe3a2dd25ab6ddd3eaa35356166c5f55fba2e76772ffcfa1e4ffa6ae779a5adad05d8b432d2388460f77e7d5cbe92f2bdf0a73fc947a361c3e512dba4a6,02b927ebeb689d4f07adccbae96d21c2031635a94c7b2310054dfdfe45e092d735,025cf4ef5c8132e57b13a6d7f49d63954cf545377d25de7beeb5b5ad33da948b76)#2aqt2xpz",
        "hex": "514104c66dbbe3a2dd25ab6ddd3eaa35356166c5f55fba2e76772ffcfa1e4ffa6ae779a5adad05d8b432d2388460f77e7d5cbe92f2bdf0a73fc947a361c3e512dba4a62102b927ebeb689d4f07adccbae96d21c2031635a94c7b2310054dfdfe45e092d73521025cf4ef5c8132e57b13a6d7f49d63954cf545377d25de7beeb5b5ad33da948b7653ae",
        "type": "multisig"
      }
    },
    {
      "value": 0.00148514,
      "n": 2,
      "scriptPubKey": {
        "asm": "OP_DUP OP_HASH160 bd6acf2a99430ec6707785f0f7d8512efc621882 OP_EQUALVERIFY OP_CHECKSIG",
        "desc": "addr(1JGYfVZ8Ghp4L8igCGgfjVtF4cWotsHhmn)#3r2k4zd6",
        "hex": "76a914bd6acf2a99430ec6707785f0f7d8512efc62188288ac",
        "address": "1JGYfVZ8Ghp4L8igCGgfjVtF4cWotsHhmn",
        "type": "pubkeyhash"
      }
    }
  ],
  "hex": "0100000001c93723dcea4fe07b509a23fe08d476dced416139598a4b80418a039a307b0f5e020000008a4730440220561efcc408f0f636337a196d38bc55d62564c4ddbb29b93f977b5057f1106bd5022045ac9c9c62cf21933dde8b769810158a5a37839e7cde586b4a18aaa1abedf0a8014104c66dbbe3a2dd25ab6ddd3eaa35356166c5f55fba2e76772ffcfa1e4ffa6ae779a5adad05d8b432d2388460f77e7d5cbe92f2bdf0a73fc947a361c3e512dba4a6ffffffff037d160000000000001976a914946cb2e08075bcbaf157e47bcb67eb2b2339d24288acfa2c00000000000089514104c66dbbe3a2dd25ab6ddd3eaa35356166c5f55fba2e76772ffcfa1e4ffa6ae779a5adad05d8b432d2388460f77e7d5cbe92f2bdf0a73fc947a361c3e512dba4a62102b927ebeb689d4f07adccbae96d21c2031635a94c7b2310054dfdfe45e092d73521025cf4ef5c8132e57b13a6d7f49d63954cf545377d25de7beeb5b5ad33da948b7653ae22440200000000001976a914bd6acf2a99430ec6707785f0f7d8512efc62188288ac00000000",
  "blockhash": "0000000000000000104576b0b546b96cdae5d8dfc21b97b8922c69fea5f2e398",
  "confirmations": 598341,
  "time": 1408652669,
  "blocktime": 1408652669
}
