{
  "hash": "9b4afd1d54dc88b50dbda166e837fb4ce110f4185b432c6155a403ca0fb2eb75",
  "hex": "010000000297094f3e75e2d06d48ad9fdfd948d317447f35bffb92b8355f0978e0c19373f1010000008a47304402203331543e9a18d494dcd9c3cc573f3170d52613244749c1c0ce3ffbf7e0428250022037d9ce2eeb1db6af11e5c1cf7bcbf615badde34611ae8769431e258d76e6fc8e01410426156245525daa71f2e84a40797bcf28099a2c508662a8a33324a703597b9aa2661a79a82ffb4caaa9b15f4094622fbfa85f8b9dc7381f991f5a265421391cc3ffffffff4145483fa448c7d9bee2a74912f0bee6f30746fb8260bbb5130818b99447dc42000000008a473044022033493360cf3e2fc7ecf9edbe997aecabde09c5ec41e777fcd72404fe08ce658b0220307cbca239cfc7fc143449208a1ac6d83f4ac6efd0b0e0821b845439d1cfc69201410426156245525daa71f2e84a40797bcf28099a2c508662a8a33324a703597b9aa2661a79a82ffb4caaa9b15f4094622fbfa85f8b9dc7381f991f5a265421391cc3ffffffff07e8030000000000008951210271ebf61e21d2ff9323f5350f3b2ff19d33791b2d8d2594aba465f16e191c95fc21039efd48f3bf19f6751e300330a63f276feb4ee7cf7a633d993f92a52e4d27db18410426156245525daa71f2e84a40797bcf28099a2c508662a8a33324a703597b9aa2661a79a82ffb4caaa9b15f4094622fbfa85f8b9dc7381f991f5a265421391cc353aee8030000000000008951210271ebf61e21d2ff93238f6886fdf990a90b412f14ef15a69d9751690e7e1ad9bc210295d33790db54f03f1e7d0233a1372232ba4fedc67e2b3ce04a98fa477d29cea7410426156245525daa71f2e84a40797bcf28099a2c508662a8a33324a703597b9aa2661a79a82ffb4caaa9b15f4094622fbfa85f8b9dc7381f991f5a265421391cc353aee8030000000000008951210271ebf61e21d2ff9323ba32e2e7e897e55b0f2d75c66efec8dd0c6f34594aa7932103c1d477dcda23904d40225f4fa14d753f9440e1b4232e7edf6990d5737b5ecd3f410426156245525daa71f2e84a40797bcf28099a2c508662a8a33324a703597b9aa2661a79a82ffb4caaa9b15f4094622fbfa85f8b9dc7381f991f5a265421391cc353aee8030000000000008951210271ebf61e21d2ff9323d912fac8ec8bee4f485d5ae66ed592c7147c234a38b5bf2103d4e760cf800195637b756c63ae782635aa01b68b36356e9b7fc2ad76566f8d06410426156245525daa71f2e84a40797bcf28099a2c508662a8a33324a703597b9aa2661a79a82ffb4caaa9b15f4094622fbfa85f8b9dc7381f991f5a265421391cc353aee8030000000000008951210271ebf61e21d2ff9323dd3b88f3af9aa4591e6c4cfe53f7d190086f172808d142210397d777929250b76d573448338f682e61b22eb2bd1b3e35e6789ded7a6857db36410426156245525daa71f2e84a40797bcf28099a2c508662a8a33324a703597b9aa2661a79a82ffb4caaa9b15f4094622fbfa85f8b9dc7381f991f5a265421391cc353aee803000000000000895121025aebf61e21d2ff9323d91785f7fb83ac46334d4cb851a0aba4650c6d187ee1522103a4b101a0eb65c7092f4c3402c30e4357d876d5fe4a570daa0ef79d1d2e1fba1a410426156245525daa71f2e84a40797bcf28099a2c508662a8a33324a703597b9aa2661a79a82ffb4caaa9b15f4094622fbfa85f8b9dc7381f991f5a265421391cc353ae4d918100000000001976a914bce6191bf2fd5981313cae869e9fafe164f7dbaf88ac00000000",
  "locktime": 0,
  "size": 1278,
  "txid": "9b4afd1d54dc88b50dbda166e837fb4ce110f4185b432c6155a403ca0fb2eb75",
  "version": 1,
  "vin": [
    {
      "scriptSig": {
        "asm": "Script(OP_PUSHBYTES_71 304402203331543e9a18d494dcd9c3cc573f3170d52613244749c1c0ce3ffbf7e0428250022037d9ce2eeb1db6af11e5c1cf7bcbf615badde34611ae8769431e258d76e6fc8e01 OP_PUSHBYTES_65 0426156245525daa71f2e84a40797bcf28099a2c508662a8a33324a703597b9aa2661a79a82ffb4caaa9b15f4094622fbfa85f8b9dc7381f991f5a265421391cc3)",
        "hex": "47304402203331543e9a18d494dcd9c3cc573f3170d52613244749c1c0ce3ffbf7e0428250022037d9ce2eeb1db6af11e5c1cf7bcbf615badde34611ae8769431e258d76e6fc8e01410426156245525daa71f2e84a40797bcf28099a2c508662a8a33324a703597b9aa2661a79a82ffb4caaa9b15f4094622fbfa85f8b9dc7381f991f5a265421391cc3"
      },
      "sequence": 4294967295,
      "txid": "f17393c1e078095f35b892fbbf357f4417d348d9df9fad486dd0e2753e4f0997",
      "vout": 1
    },
    {
      "scriptSig": {
        "asm": "Script(OP_PUSHBYTES_71 3044022033493360cf3e2fc7ecf9edbe997aecabde09c5ec41e777fcd72404fe08ce658b0220307cbca239cfc7fc143449208a1ac6d83f4ac6efd0b0e0821b845439d1cfc69201 OP_PUSHBYTES_65 0426156245525daa71f2e84a40797bcf28099a2c508662a8a33324a703597b9aa2661a79a82ffb4caaa9b15f4094622fbfa85f8b9dc7381f991f5a265421391cc3)",
        "hex": "473044022033493360cf3e2fc7ecf9edbe997aecabde09c5ec41e777fcd72404fe08ce658b0220307cbca239cfc7fc143449208a1ac6d83f4ac6efd0b0e0821b845439d1cfc69201410426156245525daa71f2e84a40797bcf28099a2c508662a8a33324a703597b9aa2661a79a82ffb4caaa9b15f4094622fbfa85f8b9dc7381f991f5a265421391cc3"
      },
      "sequence": 4294967295,
      "txid": "42dc4794b9180813b5bb6082fb4607f3e6bef01249a7e2bed9c748a43f484541",
      "vout": 0
    }
  ],
  "vout": [
    {
      "n": 0,
      "scriptPubKey": {
        "asm": "Script(OP_PUSHNUM_1 OP_PUSHBYTES_33 0271ebf61e21d2ff9323f5350f3b2ff19d33791b2d8d2594aba465f16e191c95fc OP_PUSHBYTES_33 039efd48f3bf19f6751e300330a63f276feb4ee7cf7a633d993f92a52e4d27db18 OP_PUSHBYTES_65 0426156245525daa71f2e84a40797bcf28099a2c508662a8a33324a703597b9aa2661a79a82ffb4caaa9b15f4094622fbfa85f8b9dc7381f991f5a265421391cc3 OP_PUSHNUM_3 OP_CHECKMULTISIG)",
        "hex": "51210271ebf61e21d2ff9323f5350f3b2ff19d33791b2d8d2594aba465f16e191c95fc21039efd48f3bf19f6751e300330a63f276feb4ee7cf7a633d993f92a52e4d27db18410426156245525daa71f2e84a40797bcf28099a2c508662a8a33324a703597b9aa2661a79a82ffb4caaa9b15f4094622fbfa85f8b9dc7381f991f5a265421391cc353ae",
        "type": "multisig"
      },
      "value": 0.00001
    },
    {
      "n": 1,
      "scriptPubKey": {
        "asm": "Script(OP_PUSHNUM_1 OP_PUSHBYTES_33 0271ebf61e21d2ff93238f6886fdf990a90b412f14ef15a69d9751690e7e1ad9bc OP_PUSHBYTES_33 0295d33790db54f03f1e7d0233a1372232ba4fedc67e2b3ce04a98fa477d29cea7 OP_PUSHBYTES_65 0426156245525daa71f2e84a40797bcf28099a2c508662a8a33324a703597b9aa2661a79a82ffb4caaa9b15f4094622fbfa85f8b9dc7381f991f5a265421391cc3 OP_PUSHNUM_3 OP_CHECKMULTISIG)",
        "hex": "51210271ebf61e21d2ff93238f6886fdf990a90b412f14ef15a69d9751690e7e1ad9bc210295d33790db54f03f1e7d0233a1372232ba4fedc67e2b3ce04a98fa477d29cea7410426156245525daa71f2e84a40797bcf28099a2c508662a8a33324a703597b9aa2661a79a82ffb4caaa9b15f4094622fbfa85f8b9dc7381f991f5a265421391cc353ae",
        "type": "multisig"
      },
      "value": 0.00001
    },
    {
      "n": 2,
      "scriptPubKey": {
        "asm": "Script(OP_PUSHNUM_1 OP_PUSHBYTES_33 0271ebf61e21d2ff9323ba32e2e7e897e55b0f2d75c66efec8dd0c6f34594aa793 OP_PUSHBYTES_33 03c1d477dcda23904d40225f4fa14d753f9440e1b4232e7edf6990d5737b5ecd3f OP_PUSHBYTES_65 0426156245525daa71f2e84a40797bcf28099a2c508662a8a33324a703597b9aa2661a79a82ffb4caaa9b15f4094622fbfa85f8b9dc7381f991f5a265421391cc3 OP_PUSHNUM_3 OP_CHECKMULTISIG)",
        "hex": "51210271ebf61e21d2ff9323ba32e2e7e897e55b0f2d75c66efec8dd0c6f34594aa7932103c1d477dcda23904d40225f4fa14d753f9440e1b4232e7edf6990d5737b5ecd3f410426156245525daa71f2e84a40797bcf28099a2c508662a8a33324a703597b9aa2661a79a82ffb4caaa9b15f4094622fbfa85f8b9dc7381f991f5a265421391cc353ae",
        "type": "multisig"
      },
      "value": 0.00001
    },
    {
      "n": 3,
      "scriptPubKey": {
        "asm": "Script(OP_PUSHNUM_1 OP_PUSHBYTES_33 0271ebf61e21d2ff9323d912fac8ec8bee4f485d5ae66ed592c7147c234a38b5bf OP_PUSHBYTES_33 03d4e760cf800195637b756c63ae782635aa01b68b36356e9b7fc2ad76566f8d06 OP_PUSHBYTES_65 0426156245525daa71f2e84a40797bcf28099a2c508662a8a33324a703597b9aa2661a79a82ffb4caaa9b15f4094622fbfa85f8b9dc7381f991f5a265421391cc3 OP_PUSHNUM_3 OP_CHECKMULTISIG)",
        "hex": "51210271ebf61e21d2ff9323d912fac8ec8bee4f485d5ae66ed592c7147c234a38b5bf2103d4e760cf800195637b756c63ae782635aa01b68b36356e9b7fc2ad76566f8d06410426156245525daa71f2e84a40797bcf28099a2c508662a8a33324a703597b9aa2661a79a82ffb4caaa9b15f4094622fbfa85f8b9dc7381f991f5a265421391cc353ae",
        "type": "multisig"
      },
      "value": 0.00001
    },
    {
      "n": 4,
      "scriptPubKey": {
        "asm": "Script(OP_PUSHNUM_1 OP_PUSHBYTES_33 0271ebf61e21d2ff9323dd3b88f3af9aa4591e6c4cfe53f7d190086f172808d142 OP_PUSHBYTES_33 0397d777929250b76d573448338f682e61b22eb2bd1b3e35e6789ded7a6857db36 OP_PUSHBYTES_65 0426156245525daa71f2e84a40797bcf28099a2c508662a8a33324a703597b9aa2661a79a82ffb4caaa9b15f4094622fbfa85f8b9dc7381f991f5a265421391cc3 OP_PUSHNUM_3 OP_CHECKMULTISIG)",
        "hex": "51210271ebf61e21d2ff9323dd3b88f3af9aa4591e6c4cfe53f7d190086f172808d142210397d777929250b76d573448338f682e61b22eb2bd1b3e35e6789ded7a6857db36410426156245525daa71f2e84a40797bcf28099a2c508662a8a33324a703597b9aa2661a79a82ffb4caaa9b15f4094622fbfa85f8b9dc7381f991f5a265421391cc353ae",
        "type": "multisig"
      },
      "value": 0.00001
    },
    {
      "n": 5,
      "scriptPubKey": {
        "asm": "Script(OP_PUSHNUM_1 OP_PUSHBYTES_33 025aebf61e21d2ff9323d91785f7fb83ac46334d4cb851a0aba4650c6d187ee152 OP_PUSHBYTES_33 03a4b101a0eb65c7092f4c3402c30e4357d876d5fe4a570daa0ef79d1d2e1fba1a OP_PUSHBYTES_65 0426156245525daa71f2e84a40797bcf28099a2c508662a8a33324a703597b9aa2661a79a82ffb4caaa9b15f4094622fbfa85f8b9dc7381f991f5a265421391cc3 OP_PUSHNUM_3 OP_CHECKMULTISIG)",
        "hex": "5121025aebf61e21d2ff9323d91785f7fb83ac46334d4cb851a0aba4650c6d187ee1522103a4b101a0eb65c7092f4c3402c30e4357d876d5fe4a570daa0ef79d1d2e1fba1a410426156245525daa71f2e84a40797bcf28099a2c508662a8a33324a703597b9aa2661a79a82ffb4caaa9b15f4094622fbfa85f8b9dc7381f991f5a265421391cc353ae",
        "type": "multisig"
      },
      "value": 0.00001
    },
    {
      "n": 6,
      "scriptPubKey": {
        "asm": "Script(OP_DUP OP_HASH160 OP_PUSHBYTES_20 bce6191bf2fd5981313cae869e9fafe164f7dbaf OP_EQUALVERIFY OP_CHECKSIG)",
        "hex": "76a914bce6191bf2fd5981313cae869e9fafe164f7dbaf88ac",
        "type": "pubkeyhash"
      },
      "value": 0.08491341
    }
  ],
  "vsize": 1278,
  "weight": 5112
}