{
  "txid": "34da6ecf10c66ed659054aa6c71900c807875cb57b96abea4cee4f7a831ed690",
  "hash": "34da6ecf10c66ed659054aa6c71900c807875cb57b96abea4cee4f7a831ed690",
  "version": 1,
  "size": 432,
  "vsize": 432,
  "weight": 1728,
  "locktime": 0,
  "vin": [
    {
      "txid": "e5e9f6a63ede5315994cf2d8a5f8fe760f1f37f6261e5fbb1263bed54114768a",
      "vout": 3,
      "scriptSig": {
        "asm": "304502200487a29d5fdf6f0a75c12735dda49179569cbefa16a1007e76348c69c4ce27f90221009dcc0cdb31cb97d43b01475e7f1d5001fcafd21bbf31c35c85efaa87139073a9[ALL] 0335972f0ad82df9da8e5fa3ee613eeae83c191d359e4098dd5613cd2bf395f74e",
        "hex": "48304502200487a29d5fdf6f0a75c12735dda49179569cbefa16a1007e76348c69c4ce27f90221009dcc0cdb31cb97d43b01475e7f1d5001fcafd21bbf31c35c85efaa87139073a901210335972f0ad82df9da8e5fa3ee613eeae83c191d359e4098dd5613cd2bf395f74e"
      },
      "sequence": 4294967295
    }
  ],
  "vout": [
    {
      "value": 0.00010860,
      "n": 0,
      "scriptPubKey": {
        "asm": "1 0335972f0ad82df9da8e5fa3ee613eeae83c191d359e4098dd5613cd2bf395f74e 20434e54525052545900000014000000000003ded80000000000000000000053c1 2 OP_CHECKMULTISIG",
        "desc": "raw(51210335972f0ad82df9da8e5fa3ee613eeae83c191d359e4098dd5613cd2bf395f74e2120434e54525052545900000014000000000003ded80000000000000000000053c152ae)#2t7xsxms",
        "hex": "51210335972f0ad82df9da8e5fa3ee613eeae83c191d359e4098dd5613cd2bf395f74e2120434e54525052545900000014000000000003ded80000000000000000000053c152ae",
        "type": "nonstandard"
      }
    },
    {
      "value": 0.00010860,
      "n": 1,
      "scriptPubKey": {
        "asm": "1 0335972f0ad82df9da8e5fa3ee613eeae83c191d359e4098dd5613cd2bf395f74e 207bfa00000000044c4f434b000000000000000000000000000000000000000000 2 OP_CHECKMULTISIG",
        "desc": "raw(51210335972f0ad82df9da8e5fa3ee613eeae83c191d359e4098dd5613cd2bf395f74e21207bfa00000000044c4f434b00000000000000000000000000000000000000000052ae)#r4k4k9yh",
        "hex": "51210335972f0ad82df9da8e5fa3ee613eeae83c191d359e4098dd5613cd2bf395f74e21207bfa00000000044c4f434b00000000000000000000000000000000000000000052ae",
        "type": "nonstandard"
      }
    },
    {
      "value": 0.00010860,
      "n": 2,
      "scriptPubKey": {
        "asm": "1 0335972f0ad82df9da8e5fa3ee613eeae83c191d359e4098dd5613cd2bf395f74e 100000000000000000000000000000000000000000000000000000000000000000 2 OP_CHECKMULTISIG",
        "desc": "raw(51210335972f0ad82df9da8e5fa3ee613eeae83c191d359e4098dd5613cd2bf395f74e2110000000000000000000000000000000000000000000000000000000000000000052ae)#lt4htc7t",
        "hex": "51210335972f0ad82df9da8e5fa3ee613eeae83c191d359e4098dd5613cd2bf395f74e2110000000000000000000000000000000000000000000000000000000000000000052ae",
        "type": "nonstandard"
      }
    },
    {
      "value": 0.01517640,
      "n": 3,
      "scriptPubKey": {
        "asm": "OP_DUP OP_HASH160 b5ff17c37643c359832a55220b19faf72969c95b OP_EQUALVERIFY OP_CHECKSIG",
        "desc": "addr(1HbJtt8hm7TGd2DhHvxuw4BRdZsd2iuxYp)#xc68954k",
        "hex": "76a914b5ff17c37643c359832a55220b19faf72969c95b88ac",
        "address": "1HbJtt8hm7TGd2DhHvxuw4BRdZsd2iuxYp",
        "type": "pubkeyhash"
      }
    }
  ],
  "hex": "01000000018a761441d5be6312bb5f1e26f6371f0f76fef8a5d8f24c991553de3ea6f6e9e5030000006b48304502200487a29d5fdf6f0a75c12735dda49179569cbefa16a1007e76348c69c4ce27f90221009dcc0cdb31cb97d43b01475e7f1d5001fcafd21bbf31c35c85efaa87139073a901210335972f0ad82df9da8e5fa3ee613eeae83c191d359e4098dd5613cd2bf395f74effffffff046c2a0000000000004751210335972f0ad82df9da8e5fa3ee613eeae83c191d359e4098dd5613cd2bf395f74e2120434e54525052545900000014000000000003ded80000000000000000000053c152ae6c2a0000000000004751210335972f0ad82df9da8e5fa3ee613eeae83c191d359e4098dd5613cd2bf395f74e21207bfa00000000044c4f434b00000000000000000000000000000000000000000052ae6c2a0000000000004751210335972f0ad82df9da8e5fa3ee613eeae83c191d359e4098dd5613cd2bf395f74e2110000000000000000000000000000000000000000000000000000000000000000052ae48281700000000001976a914b5ff17c37643c359832a55220b19faf72969c95b88ac00000000",
  "blockhash": "00000000000000000f55315a56c1a2137e9827c9d87294fa6cb57b22f46966ad",
  "confirmations": 609906,
  "time": 1402599730,
  "blocktime": 1402599730
}
