{
  "txid": "a63ee2b1e64d98784ba39c9e6738bc923fd88a808d618dd833254978247d66ea",
  "hash": "a63ee2b1e64d98784ba39c9e6738bc923fd88a808d618dd833254978247d66ea",
  "version": 2,
  "size": 828,
  "vsize": 828,
  "weight": 3312,
  "locktime": 0,
  "vin": [
    {
      "txid": "fc4e043487c914df6334cd3382dbdb4a4ea2554d3fc2f159db91188503cd8ac7",
      "vout": 0,
      "scriptSig": {
        "asm": "3044022049df9619b0e4bfeab76e092fe5b43e66d30c8e0accf2c25b39e823a59d935467022070fdf4aaddbeb669786e3781cf53efcd0c23c20bbad3aeb63e495092b919f707[ALL] 02643fbf3216fcd208d617aab2a78d622b1aec0842b46f0f69f2e1f2e8d103e3a3",
        "hex": "473044022049df9619b0e4bfeab76e092fe5b43e66d30c8e0accf2c25b39e823a59d935467022070fdf4aaddbeb669786e3781cf53efcd0c23c20bbad3aeb63e495092b919f707012102643fbf3216fcd208d617aab2a78d622b1aec0842b46f0f69f2e1f2e8d103e3a3"
      },
      "sequence": 4294967295
    },
    {
      "txid": "e7ff9b2257a58af7f90c68904e0eb6dd75490d9c062398c16a070c9fce63d163",
      "vout": 1,
      "scriptSig": {
        "asm": "3045022100d1dd751781c02022915dfb2be482619de0aa144f9ae325db6152f9705569dee302206f11552ec1ea1abab4637625e64cd77ee3a0d8bb4957288617fcd34a6ba8ddd1[ALL] 02643fbf3216fcd208d617aab2a78d622b1aec0842b46f0f69f2e1f2e8d103e3a3",
        "hex": "483045022100d1dd751781c02022915dfb2be482619de0aa144f9ae325db6152f9705569dee302206f11552ec1ea1abab4637625e64cd77ee3a0d8bb4957288617fcd34a6ba8ddd1012102643fbf3216fcd208d617aab2a78d622b1aec0842b46f0f69f2e1f2e8d103e3a3"
      },
      "sequence": 4294967295
    },
    {
      "txid": "65d68ffa4365786366c825b3e5f4182b7b4b3bb4eca27a22fc8acd793c616359",
      "vout": 3,
      "scriptSig": {
        "asm": "304402202956b6b6c553231645694b4c2947853a4b45ef13f82a1fce9cf93963b0e21d9a02200ee029b1b92152d942f682aa2555bea8b82d6d6bfaf090914502f8f30b4424d8[ALL] 02643fbf3216fcd208d617aab2a78d622b1aec0842b46f0f69f2e1f2e8d103e3a3",
        "hex": "47304402202956b6b6c553231645694b4c2947853a4b45ef13f82a1fce9cf93963b0e21d9a02200ee029b1b92152d942f682aa2555bea8b82d6d6bfaf090914502f8f30b4424d8012102643fbf3216fcd208d617aab2a78d622b1aec0842b46f0f69f2e1f2e8d103e3a3"
      },
      "sequence": 4294967295
    }
  ],
  "vout": [
    {
      "value": 0.00001000,
      "n": 0,
      "scriptPubKey": {
        "asm": "1 03706ccd0d1ab95d0c4c7d97218af4ddf0c35b5cec9dbebef41fcfa4ba879193b0 0215402aa7c73ce5299f6935d8ba147ee46ef9a538739b6145e25b269183f089a8 02643fbf3216fcd208d617aab2a78d622b1aec0842b46f0f69f2e1f2e8d103e3a3 3 OP_CHECKMULTISIG",
        "desc": "multi(1,03706ccd0d1ab95d0c4c7d97218af4ddf0c35b5cec9dbebef41fcfa4ba879193b0,0215402aa7c73ce5299f6935d8ba147ee46ef9a538739b6145e25b269183f089a8,02643fbf3216fcd208d617aab2a78d622b1aec0842b46f0f69f2e1f2e8d103e3a3)#auj0nvas",
        "hex": "512103706ccd0d1ab95d0c4c7d97218af4ddf0c35b5cec9dbebef41fcfa4ba879193b0210215402aa7c73ce5299f6935d8ba147ee46ef9a538739b6145e25b269183f089a82102643fbf3216fcd208d617aab2a78d622b1aec0842b46f0f69f2e1f2e8d103e3a353ae",
        "type": "multisig"
      }
    },
    {
      "value": 0.00001000,
      "n": 1,
      "scriptPubKey": {
        "asm": "1 03706ccd0d1ab95d0c4c01625cff90ea84e2156c19e5263b740da4a9bcc7948e44 03091774a6d33fea3c967e348fae1438a06bcbf92665aa6a61c47e60b9bbf3b7de 02643fbf3216fcd208d617aab2a78d622b1aec0842b46f0f69f2e1f2e8d103e3a3 3 OP_CHECKMULTISIG",
        "desc": "multi(1,03706ccd0d1ab95d0c4c01625cff90ea84e2156c19e5263b740da4a9bcc7948e44,03091774a6d33fea3c967e348fae1438a06bcbf92665aa6a61c47e60b9bbf3b7de,02643fbf3216fcd208d617aab2a78d622b1aec0842b46f0f69f2e1f2e8d103e3a3)#hh9c8g24",
        "hex": "512103706ccd0d1ab95d0c4c01625cff90ea84e2156c19e5263b740da4a9bcc7948e442103091774a6d33fea3c967e348fae1438a06bcbf92665aa6a61c47e60b9bbf3b7de2102643fbf3216fcd208d617aab2a78d622b1aec0842b46f0f69f2e1f2e8d103e3a353ae",
        "type": "multisig"
      }
    },
    {
      "value": 0.00001000,
      "n": 2,
      "scriptPubKey": {
        "asm": "1 03626ccd0d1ab95d0c4c2a200decbe8fc9e92d721dcd73036716e6ede6a78f9643 022a1f54d18726b20abc5103eeee1b3fe07588ce5c02e2002b8a3510fbeac7ee28 02643fbf3216fcd208d617aab2a78d622b1aec0842b46f0f69f2e1f2e8d103e3a3 3 OP_CHECKMULTISIG",
        "desc": "multi(1,03626ccd0d1ab95d0c4c2a200decbe8fc9e92d721dcd73036716e6ede6a78f9643,022a1f54d18726b20abc5103eeee1b3fe07588ce5c02e2002b8a3510fbeac7ee28,02643fbf3216fcd208d617aab2a78d622b1aec0842b46f0f69f2e1f2e8d103e3a3)#4he93uuk",
        "hex": "512103626ccd0d1ab95d0c4c2a200decbe8fc9e92d721dcd73036716e6ede6a78f964321022a1f54d18726b20abc5103eeee1b3fe07588ce5c02e2002b8a3510fbeac7ee282102643fbf3216fcd208d617aab2a78d622b1aec0842b46f0f69f2e1f2e8d103e3a353ae",
        "type": "multisig"
      }
    },
    {
      "value": 0.00000847,
      "n": 3,
      "scriptPubKey": {
        "asm": "OP_DUP OP_HASH160 c8c7c7a8eeaa8109cc0d7d539cd60f8b908732f5 OP_EQUALVERIFY OP_CHECKSIG",
        "desc": "addr(1KJdUKU1xC9hTTZukNb4ynabKu46RMNzGz)#75dwpl9l",
        "hex": "76a914c8c7c7a8eeaa8109cc0d7d539cd60f8b908732f588ac",
        "address": "1KJdUKU1xC9hTTZukNb4ynabKu46RMNzGz",
        "type": "pubkeyhash"
      }
    }
  ],
  "hex": "0200000003c78acd03851891db59f1c23f4d55a24e4adbdb8233cd3463df14c98734044efc000000006a473044022049df9619b0e4bfeab76e092fe5b43e66d30c8e0accf2c25b39e823a59d935467022070fdf4aaddbeb669786e3781cf53efcd0c23c20bbad3aeb63e495092b919f707012102643fbf3216fcd208d617aab2a78d622b1aec0842b46f0f69f2e1f2e8d103e3a3ffffffff63d163ce9f0c076ac19823069c0d4975ddb60e4e90680cf9f78aa557229bffe7010000006b483045022100d1dd751781c02022915dfb2be482619de0aa144f9ae325db6152f9705569dee302206f11552ec1ea1abab4637625e64cd77ee3a0d8bb4957288617fcd34a6ba8ddd1012102643fbf3216fcd208d617aab2a78d622b1aec0842b46f0f69f2e1f2e8d103e3a3ffffffff5963613c79cd8afc227aa2ecb43b4b7b2b18f4e5b325c86663786543fa8fd665030000006a47304402202956b6b6c553231645694b4c2947853a4b45ef13f82a1fce9cf93963b0e21d9a02200ee029b1b92152d942f682aa2555bea8b82d6d6bfaf090914502f8f30b4424d8012102643fbf3216fcd208d617aab2a78d622b1aec0842b46f0f69f2e1f2e8d103e3a3ffffffff04e80300000000000069512103706ccd0d1ab95d0c4c7d97218af4ddf0c35b5cec9dbebef41fcfa4ba879193b0210215402aa7c73ce5299f6935d8ba147ee46ef9a538739b6145e25b269183f089a82102643fbf3216fcd208d617aab2a78d622b1aec0842b46f0f69f2e1f2e8d103e3a353aee80300000000000069512103706ccd0d1ab95d0c4c01625cff90ea84e2156c19e5263b740da4a9bcc7948e442103091774a6d33fea3c967e348fae1438a06bcbf92665aa6a61c47e60b9bbf3b7de2102643fbf3216fcd208d617aab2a78d622b1aec0842b46f0f69f2e1f2e8d103e3a353aee80300000000000069512103626ccd0d1ab95d0c4c2a200decbe8fc9e92d721dcd73036716e6ede6a78f964321022a1f54d18726b20abc5103eeee1b3fe07588ce5c02e2002b8a3510fbeac7ee282102643fbf3216fcd208d617aab2a78d622b1aec0842b46f0f69f2e1f2e8d103e3a353ae4f030000000000001976a914c8c7c7a8eeaa8109cc0d7d539cd60f8b908732f588ac00000000",
  "blockhash": "00000000000000000000f2fd667fec91d4329f3e67d283207f6bed62004d5294",
  "confirmations": 1399,
  "time": 1757309077,
  "blocktime": 1757309077
}
