{
  "txid": "793566ef1644a14c2658aed6b3c2df41bc519941f121f9cff82825f48911e451",
  "hash": "793566ef1644a14c2658aed6b3c2df41bc519941f121f9cff82825f48911e451",
  "version": 1,
  "size": 419,
  "vsize": 419,
  "weight": 1676,
  "locktime": 0,
  "vin": [
    {
      "txid": "71926a6c028963a4fa8c1a1e8bf408a6ffd85743c19587af79efb5a880efe314",
      "vout": 2,
      "scriptSig": {
        "asm": "304402203bd4ea2ae84ae03f868338503d76373b090ea064ed2c45c08f606e5ea2fb0ca7022021246f43dc8e63cd53da1f961c35c1148cd83e3a9a45eb06f82a0ced164742a6[ALL] 02a06ec12606fb16cb62371a1fd2d959f5c3d51c82aba296578ee9a44c46799d06",
        "hex": "47304402203bd4ea2ae84ae03f868338503d76373b090ea064ed2c45c08f606e5ea2fb0ca7022021246f43dc8e63cd53da1f961c35c1148cd83e3a9a45eb06f82a0ced164742a6012102a06ec12606fb16cb62371a1fd2d959f5c3d51c82aba296578ee9a44c46799d06"
      },
      "sequence": 4294967295
    }
  ],
  "vout": [
    {
      "value": 0.00007800,
      "n": 0,
      "scriptPubKey": {
        "asm": "1 02912ef3cac868eeae2ddf4cbc192a939df7de2e7fb0b403344a6e375671e25b5b 027b43115991401d0bb04e3a38b334dd0c30ab2d98b73ea94ca51c62880b695feb 02a06ec12606fb16cb62371a1fd2d959f5c3d51c82aba296578ee9a44c46799d06 3 OP_CHECKMULTISIG",
        "desc": "multi(1,02912ef3cac868eeae2ddf4cbc192a939df7de2e7fb0b403344a6e375671e25b5b,027b43115991401d0bb04e3a38b334dd0c30ab2d98b73ea94ca51c62880b695feb,02a06ec12606fb16cb62371a1fd2d959f5c3d51c82aba296578ee9a44c46799d06)#tdv5ukce",
        "hex": "512102912ef3cac868eeae2ddf4cbc192a939df7de2e7fb0b403344a6e375671e25b5b21027b43115991401d0bb04e3a38b334dd0c30ab2d98b73ea94ca51c62880b695feb2102a06ec12606fb16cb62371a1fd2d959f5c3d51c82aba296578ee9a44c46799d0653ae",
        "type": "multisig"
      }
    },
    {
      "value": 0.00007800,
      "n": 1,
      "scriptPubKey": {
        "asm": "1 03862ef3cac868eeae2dba4a86f94ed912b89f4a1c828536012b1a54311795c326 02554ee8a5ec367fe03fb5bcd52d63851cab1145ecc34eda768a3303f86247310d 02a06ec12606fb16cb62371a1fd2d959f5c3d51c82aba296578ee9a44c46799d06 3 OP_CHECKMULTISIG",
        "desc": "multi(1,03862ef3cac868eeae2dba4a86f94ed912b89f4a1c828536012b1a54311795c326,02554ee8a5ec367fe03fb5bcd52d63851cab1145ecc34eda768a3303f86247310d,02a06ec12606fb16cb62371a1fd2d959f5c3d51c82aba296578ee9a44c46799d06)#wwq074wa",
        "hex": "512103862ef3cac868eeae2dba4a86f94ed912b89f4a1c828536012b1a54311795c3262102554ee8a5ec367fe03fb5bcd52d63851cab1145ecc34eda768a3303f86247310d2102a06ec12606fb16cb62371a1fd2d959f5c3d51c82aba296578ee9a44c46799d0653ae",
        "type": "multisig"
      }
    },
    {
      "value": 0.00287300,
      "n": 2,
      "scriptPubKey": {
        "asm": "OP_DUP OP_HASH160 d8b671fc8bdbeb1eed22b79a3465ec071be7139f OP_EQUALVERIFY OP_CHECKSIG",
        "desc": "addr(1LksWxM7nNDACvZJyF85MQStqeGhFvw49y)#8klpnezp",
        "hex": "76a914d8b671fc8bdbeb1eed22b79a3465ec071be7139f88ac",
        "address": "1LksWxM7nNDACvZJyF85MQStqeGhFvw49y",
        "type": "pubkeyhash"
      }
    }
  ],
  "hex": "010000000114e3ef80a8b5ef79af8795c14357d8ffa608f48b1e1a8cfaa46389026c6a9271020000006a47304402203bd4ea2ae84ae03f868338503d76373b090ea064ed2c45c08f606e5ea2fb0ca7022021246f43dc8e63cd53da1f961c35c1148cd83e3a9a45eb06f82a0ced164742a6012102a06ec12606fb16cb62371a1fd2d959f5c3d51c82aba296578ee9a44c46799d06ffffffff03781e00000000000069512102912ef3cac868eeae2ddf4cbc192a939df7de2e7fb0b403344a6e375671e25b5b21027b43115991401d0bb04e3a38b334dd0c30ab2d98b73ea94ca51c62880b695feb2102a06ec12606fb16cb62371a1fd2d959f5c3d51c82aba296578ee9a44c46799d0653ae781e00000000000069512103862ef3cac868eeae2dba4a86f94ed912b89f4a1c828536012b1a54311795c3262102554ee8a5ec367fe03fb5bcd52d63851cab1145ecc34eda768a3303f86247310d2102a06ec12606fb16cb62371a1fd2d959f5c3d51c82aba296578ee9a44c46799d0653ae44620400000000001976a914d8b671fc8bdbeb1eed22b79a3465ec071be7139f88ac00000000",
  "blockhash": "000000000000000000045be16670070dc555bb1a5e82abdab6c8725de379ec93",
  "confirmations": 136529,
  "time": 1677531755,
  "blocktime": 1677531755
}
