{
  "txid": "e5e9f6a63ede5315994cf2d8a5f8fe760f1f37f6261e5fbb1263bed54114768a",
  "hash": "e5e9f6a63ede5315994cf2d8a5f8fe760f1f37f6261e5fbb1263bed54114768a",
  "version": 1,
  "size": 432,
  "vsize": 432,
  "weight": 1728,
  "locktime": 0,
  "vin": [
    {
      "txid": "338ecc4ed1d38e081675d4ed80d167f0091899d23bfcfc01b4e3ba318acf7ce7",
      "vout": 2,
      "scriptSig": {
        "asm": "3045022100a62a20fbfc6757a38cfff498c919a79d9c5bd160e0dc54d42e70bc98cf40b710022009ad7084bc9f15d4596580ce9abdee5d92e5ddf5bba818676e5a2dc3038d4fa3[ALL] 0335972f0ad82df9da8e5fa3ee613eeae83c191d359e4098dd5613cd2bf395f74e",
        "hex": "483045022100a62a20fbfc6757a38cfff498c919a79d9c5bd160e0dc54d42e70bc98cf40b710022009ad7084bc9f15d4596580ce9abdee5d92e5ddf5bba818676e5a2dc3038d4fa301210335972f0ad82df9da8e5fa3ee613eeae83c191d359e4098dd5613cd2bf395f74e"
      },
      "sequence": 4294967295
    }
  ],
  "vout": [
    {
      "value": 0.00010860,
      "n": 0,
      "scriptPubKey": {
        "asm": "1 0335972f0ad82df9da8e5fa3ee613eeae83c191d359e4098dd5613cd2bf395f74e 20434e54525052545900000014000000000003ded80000000000000001000053c1 2 OP_CHECKMULTISIG",
        "desc": "raw(51210335972f0ad82df9da8e5fa3ee613eeae83c191d359e4098dd5613cd2bf395f74e2120434e54525052545900000014000000000003ded80000000000000001000053c152ae)#jmhqy9vk",
        "hex": "51210335972f0ad82df9da8e5fa3ee613eeae83c191d359e4098dd5613cd2bf395f74e2120434e54525052545900000014000000000003ded80000000000000001000053c152ae",
        "type": "nonstandard"
      }
    },
    {
      "value": 0.00010860,
      "n": 1,
      "scriptPubKey": {
        "asm": "1 0335972f0ad82df9da8e5fa3ee613eeae83c191d359e4098dd5613cd2bf395f74e 207bfa000000001ed09cd0bed18f20d092d0b5d187d0bdd0b0d18f204f6e652026 2 OP_CHECKMULTISIG",
        "desc": "raw(51210335972f0ad82df9da8e5fa3ee613eeae83c191d359e4098dd5613cd2bf395f74e21207bfa000000001ed09cd0bed18f20d092d0b5d187d0bdd0b0d18f204f6e65202652ae)#w7cma958",
        "hex": "51210335972f0ad82df9da8e5fa3ee613eeae83c191d359e4098dd5613cd2bf395f74e21207bfa000000001ed09cd0bed18f20d092d0b5d187d0bdd0b0d18f204f6e65202652ae",
        "type": "nonstandard"
      }
    },
    {
      "value": 0.00010860,
      "n": 2,
      "scriptPubKey": {
        "asm": "1 0335972f0ad82df9da8e5fa3ee613eeae83c191d359e4098dd5613cd2bf395f74e 10204f6e6c79000000000000000000000000000000000000000000000000000000 2 OP_CHECKMULTISIG",
        "desc": "raw(51210335972f0ad82df9da8e5fa3ee613eeae83c191d359e4098dd5613cd2bf395f74e2110204f6e6c7900000000000000000000000000000000000000000000000000000052ae)#tvux0y32",
        "hex": "51210335972f0ad82df9da8e5fa3ee613eeae83c191d359e4098dd5613cd2bf395f74e2110204f6e6c7900000000000000000000000000000000000000000000000000000052ae",
        "type": "nonstandard"
      }
    },
    {
      "value": 0.01570220,
      "n": 3,
      "scriptPubKey": {
        "asm": "OP_DUP OP_HASH160 b5ff17c37643c359832a55220b19faf72969c95b OP_EQUALVERIFY OP_CHECKSIG",
        "desc": "addr(1HbJtt8hm7TGd2DhHvxuw4BRdZsd2iuxYp)#xc68954k",
        "hex": "76a914b5ff17c37643c359832a55220b19faf72969c95b88ac",
        "address": "1HbJtt8hm7TGd2DhHvxuw4BRdZsd2iuxYp",
        "type": "pubkeyhash"
      }
    }
  ],
  "hex": "0100000001e77ccf8a31bae3b401fcfc3bd2991809f067d180edd47516088ed3d14ecc8e33020000006b483045022100a62a20fbfc6757a38cfff498c919a79d9c5bd160e0dc54d42e70bc98cf40b710022009ad7084bc9f15d4596580ce9abdee5d92e5ddf5bba818676e5a2dc3038d4fa301210335972f0ad82df9da8e5fa3ee613eeae83c191d359e4098dd5613cd2bf395f74effffffff046c2a0000000000004751210335972f0ad82df9da8e5fa3ee613eeae83c191d359e4098dd5613cd2bf395f74e2120434e54525052545900000014000000000003ded80000000000000001000053c152ae6c2a0000000000004751210335972f0ad82df9da8e5fa3ee613eeae83c191d359e4098dd5613cd2bf395f74e21207bfa000000001ed09cd0bed18f20d092d0b5d187d0bdd0b0d18f204f6e65202652ae6c2a0000000000004751210335972f0ad82df9da8e5fa3ee613eeae83c191d359e4098dd5613cd2bf395f74e2110204f6e6c7900000000000000000000000000000000000000000000000000000052aeacf51700000000001976a914b5ff17c37643c359832a55220b19faf72969c95b88ac00000000",
  "blockhash": "00000000000000005d3281fcf31d7b71def91f6e986f20406f16897996316e24",
  "confirmations": 609639,
  "time": 1402597571,
  "blocktime": 1402597571
}
