{
  "txid": "da3ed1efda82824cb24ea081ef2a8f532a7dd9cd1ebc5efa873498c3958c864e",
  "hash": "da3ed1efda82824cb24ea081ef2a8f532a7dd9cd1ebc5efa873498c3958c864e",
  "version": 1,
  "size": 306,
  "vsize": 306,
  "weight": 1224,
  "locktime": 0,
  "vin": [
    {
      "txid": "9f0aa774906c7069d0f43222d774edd83ea0a2a44db003bf3f03b7e30e9bbff1",
      "vout": 2,
      "scriptSig": {
        "asm": "30450221008fbb92fdea28199ebb9257322e46c37e4d805e0de3750a6ed8d583c10ae7b84502206e6f2573576b0a8b937c04176bc0307d57cc935e4c86d9d5db21f3dd13923bc0[ALL] 0335972f0ad82df9da8e5fa3ee613eeae83c191d359e4098dd5613cd2bf395f74e",
        "hex": "4830450221008fbb92fdea28199ebb9257322e46c37e4d805e0de3750a6ed8d583c10ae7b84502206e6f2573576b0a8b937c04176bc0307d57cc935e4c86d9d5db21f3dd13923bc001210335972f0ad82df9da8e5fa3ee613eeae83c191d359e4098dd5613cd2bf395f74e"
      },
      "sequence": 4294967295
    }
  ],
  "vout": [
    {
      "value": 0.00010860,
      "n": 0,
      "scriptPubKey": {
        "asm": "OP_DUP OP_HASH160 86a9090f436d2217ea80ed63a2b1216b1f94c9ce OP_EQUALVERIFY OP_CHECKSIG",
        "desc": "addr(1DH23VRQgF5spVcQj9PiMT6XGxsQWXJ5HP)#v8n5u42s",
        "hex": "76a91486a9090f436d2217ea80ed63a2b1216b1f94c9ce88ac",
        "address": "1DH23VRQgF5spVcQj9PiMT6XGxsQWXJ5HP",
        "type": "pubkeyhash"
      }
    },
    {
      "value": 0.00010860,
      "n": 1,
      "scriptPubKey": {
        "asm": "1 0335972f0ad82df9da8e5fa3ee613eeae83c191d359e4098dd5613cd2bf395f74e 1c434e545250525459000000000000000006ca029900000000000001f500000000 2 OP_CHECKMULTISIG",
        "desc": "raw(51210335972f0ad82df9da8e5fa3ee613eeae83c191d359e4098dd5613cd2bf395f74e211c434e545250525459000000000000000006ca029900000000000001f50000000052ae)#yq79023z",
        "hex": "51210335972f0ad82df9da8e5fa3ee613eeae83c191d359e4098dd5613cd2bf395f74e211c434e545250525459000000000000000006ca029900000000000001f50000000052ae",
        "type": "nonstandard"
      }
    },
    {
      "value": 0.01381620,
      "n": 2,
      "scriptPubKey": {
        "asm": "OP_DUP OP_HASH160 b5ff17c37643c359832a55220b19faf72969c95b OP_EQUALVERIFY OP_CHECKSIG",
        "desc": "addr(1HbJtt8hm7TGd2DhHvxuw4BRdZsd2iuxYp)#xc68954k",
        "hex": "76a914b5ff17c37643c359832a55220b19faf72969c95b88ac",
        "address": "1HbJtt8hm7TGd2DhHvxuw4BRdZsd2iuxYp",
        "type": "pubkeyhash"
      }
    }
  ],
  "hex": "0100000001f1bf9b0ee3b7033fbf03b04da4a2a03ed8ed74d72232f4d069706c9074a70a9f020000006b4830450221008fbb92fdea28199ebb9257322e46c37e4d805e0de3750a6ed8d583c10ae7b84502206e6f2573576b0a8b937c04176bc0307d57cc935e4c86d9d5db21f3dd13923bc001210335972f0ad82df9da8e5fa3ee613eeae83c191d359e4098dd5613cd2bf395f74effffffff036c2a0000000000001976a91486a9090f436d2217ea80ed63a2b1216b1f94c9ce88ac6c2a0000000000004751210335972f0ad82df9da8e5fa3ee613eeae83c191d359e4098dd5613cd2bf395f74e211c434e545250525459000000000000000006ca029900000000000001f50000000052aef4141500000000001976a914b5ff17c37643c359832a55220b19faf72969c95b88ac00000000",
  "blockhash": "00000000000000000b0c01d61ba5ce601b1f016b7ae9058809526903bfbc9319",
  "confirmations": 609554,
  "time": 1402776775,
  "blocktime": 1402776775
}
