{
  "txid": "21c2cd5b369c2e7a350bf92ad43c31e5abb0aa85ccba11368b08f9f4abb8e0af",
  "hash": "21c2cd5b369c2e7a350bf92ad43c31e5abb0aa85ccba11368b08f9f4abb8e0af",
  "version": 1,
  "size": 807,
  "vsize": 807,
  "weight": 3228,
  "locktime": 0,
  "vin": [
    {
      "txid": "755565f08408bb5f9830c4132d0fa5aceb4944bb494c1ba7c3ad4637bb6362b9",
      "vout": 0,
      "scriptSig": {
        "asm": "304402203eb5b61dce1d2d43cda2cc8fe51cf113d96dfd834aca5b6d1d478959d7ea4b500220772f5e0a64f65a3ea07716cb998c5ceed2c299e234209f35216b25e1d8e5fa27[ALL] 0335972f0ad82df9da8e5fa3ee613eeae83c191d359e4098dd5613cd2bf395f74e",
        "hex": "47304402203eb5b61dce1d2d43cda2cc8fe51cf113d96dfd834aca5b6d1d478959d7ea4b500220772f5e0a64f65a3ea07716cb998c5ceed2c299e234209f35216b25e1d8e5fa2701210335972f0ad82df9da8e5fa3ee613eeae83c191d359e4098dd5613cd2bf395f74e"
      },
      "sequence": 4294967295
    },
    {
      "txid": "770002faf46c5b7c180481c0d3d5070dc45fe1ad784d89e715bc3e38cf8041e1",
      "vout": 0,
      "scriptSig": {
        "asm": "3045022047f4d28097c657fc9036a2ec62e7b98f1ffe8476d1dddafcc44cd49578361e16022100f181d540e27cc05ddc71c037289a611f619aead83a40b03693fafcc8720821cf[ALL] 0335972f0ad82df9da8e5fa3ee613eeae83c191d359e4098dd5613cd2bf395f74e",
        "hex": "483045022047f4d28097c657fc9036a2ec62e7b98f1ffe8476d1dddafcc44cd49578361e16022100f181d540e27cc05ddc71c037289a611f619aead83a40b03693fafcc8720821cf01210335972f0ad82df9da8e5fa3ee613eeae83c191d359e4098dd5613cd2bf395f74e"
      },
      "sequence": 4294967295
    },
    {
      "txid": "dc81eb6391e338ba39e790c8419bd84493f74063e59fb5e24e93cb6a89824ac6",
      "vout": 1,
      "scriptSig": {
        "asm": "304502205a078a76d1a64ed38458cb228c085036c59d33d7b54555996deb880f651cd64e022100b7166b5a1dbe41a8200bdbcfb530667b2dd2c6cc81450e878f26d3143571197b[ALL] 0335972f0ad82df9da8e5fa3ee613eeae83c191d359e4098dd5613cd2bf395f74e",
        "hex": "48304502205a078a76d1a64ed38458cb228c085036c59d33d7b54555996deb880f651cd64e022100b7166b5a1dbe41a8200bdbcfb530667b2dd2c6cc81450e878f26d3143571197b01210335972f0ad82df9da8e5fa3ee613eeae83c191d359e4098dd5613cd2bf395f74e"
      },
      "sequence": 4294967295
    }
  ],
  "vout": [
    {
      "value": 0.00007800,
      "n": 0,
      "scriptPubKey": {
        "asm": "1 0335972f0ad82df9da8e5fa3ee613eeae83c191d359e4098dd5613cd2bf395f74e 20434e5452505254590000001e545105c7bff0000000000000000000006a706a61 2 OP_CHECKMULTISIG",
        "desc": "raw(51210335972f0ad82df9da8e5fa3ee613eeae83c191d359e4098dd5613cd2bf395f74e2120434e5452505254590000001e545105c7bff0000000000000000000006a706a6152ae)#q2k2gqam",
        "hex": "51210335972f0ad82df9da8e5fa3ee613eeae83c191d359e4098dd5613cd2bf395f74e2120434e5452505254590000001e545105c7bff0000000000000000000006a706a6152ae",
        "type": "nonstandard"
      }
    },
    {
      "value": 0.00007800,
      "n": 1,
      "scriptPubKey": {
        "asm": "1 0335972f0ad82df9da8e5fa3ee613eeae83c191d359e4098dd5613cd2bf395f74e 202e6e65742f7064662f56616c75652d6f662d5843502e706466202d2032626361 2 OP_CHECKMULTISIG",
        "desc": "raw(51210335972f0ad82df9da8e5fa3ee613eeae83c191d359e4098dd5613cd2bf395f74e21202e6e65742f7064662f56616c75652d6f662d5843502e706466202d203262636152ae)#lek5vpyh",
        "hex": "51210335972f0ad82df9da8e5fa3ee613eeae83c191d359e4098dd5613cd2bf395f74e21202e6e65742f7064662f56616c75652d6f662d5843502e706466202d203262636152ae",
        "type": "nonstandard"
      }
    },
    {
      "value": 0.00007800,
      "n": 2,
      "scriptPubKey": {
        "asm": "1 0335972f0ad82df9da8e5fa3ee613eeae83c191d359e4098dd5613cd2bf395f74e 203935656239316536626531653961653562323364653566383337333935323938 2 OP_CHECKMULTISIG",
        "desc": "raw(51210335972f0ad82df9da8e5fa3ee613eeae83c191d359e4098dd5613cd2bf395f74e2120393565623931653662653165396165356232336465356638333733393532393852ae)#9j5m47yw",
        "hex": "51210335972f0ad82df9da8e5fa3ee613eeae83c191d359e4098dd5613cd2bf395f74e2120393565623931653662653165396165356232336465356638333733393532393852ae",
        "type": "nonstandard"
      }
    },
    {
      "value": 0.00007800,
      "n": 3,
      "scriptPubKey": {
        "asm": "1 0335972f0ad82df9da8e5fa3ee613eeae83c191d359e4098dd5613cd2bf395f74e 1c3766306364656262643766366230643438343832313935316634383600000000 2 OP_CHECKMULTISIG",
        "desc": "raw(51210335972f0ad82df9da8e5fa3ee613eeae83c191d359e4098dd5613cd2bf395f74e211c376630636465626264376636623064343834383231393531663438360000000052ae)#p2wrmtnq",
        "hex": "51210335972f0ad82df9da8e5fa3ee613eeae83c191d359e4098dd5613cd2bf395f74e211c376630636465626264376636623064343834383231393531663438360000000052ae",
        "type": "nonstandard"
      }
    },
    {
      "value": 0.01811400,
      "n": 4,
      "scriptPubKey": {
        "asm": "OP_DUP OP_HASH160 b5ff17c37643c359832a55220b19faf72969c95b OP_EQUALVERIFY OP_CHECKSIG",
        "desc": "addr(1HbJtt8hm7TGd2DhHvxuw4BRdZsd2iuxYp)#xc68954k",
        "hex": "76a914b5ff17c37643c359832a55220b19faf72969c95b88ac",
        "address": "1HbJtt8hm7TGd2DhHvxuw4BRdZsd2iuxYp",
        "type": "pubkeyhash"
      }
    }
  ],
  "hex": "0100000003b96263bb3746adc3a71b4c49bb4449ebaca50f2d13c430985fbb0884f0655575000000006a47304402203eb5b61dce1d2d43cda2cc8fe51cf113d96dfd834aca5b6d1d478959d7ea4b500220772f5e0a64f65a3ea07716cb998c5ceed2c299e234209f35216b25e1d8e5fa2701210335972f0ad82df9da8e5fa3ee613eeae83c191d359e4098dd5613cd2bf395f74effffffffe14180cf383ebc15e7894d78ade15fc40d07d5d3c08104187c5b6cf4fa020077000000006b483045022047f4d28097c657fc9036a2ec62e7b98f1ffe8476d1dddafcc44cd49578361e16022100f181d540e27cc05ddc71c037289a611f619aead83a40b03693fafcc8720821cf01210335972f0ad82df9da8e5fa3ee613eeae83c191d359e4098dd5613cd2bf395f74effffffffc64a82896acb934ee2b59fe56340f79344d89b41c890e739ba38e39163eb81dc010000006b48304502205a078a76d1a64ed38458cb228c085036c59d33d7b54555996deb880f651cd64e022100b7166b5a1dbe41a8200bdbcfb530667b2dd2c6cc81450e878f26d3143571197b01210335972f0ad82df9da8e5fa3ee613eeae83c191d359e4098dd5613cd2bf395f74effffffff05781e0000000000004751210335972f0ad82df9da8e5fa3ee613eeae83c191d359e4098dd5613cd2bf395f74e2120434e5452505254590000001e545105c7bff0000000000000000000006a706a6152ae781e0000000000004751210335972f0ad82df9da8e5fa3ee613eeae83c191d359e4098dd5613cd2bf395f74e21202e6e65742f7064662f56616c75652d6f662d5843502e706466202d203262636152ae781e0000000000004751210335972f0ad82df9da8e5fa3ee613eeae83c191d359e4098dd5613cd2bf395f74e2120393565623931653662653165396165356232336465356638333733393532393852ae781e0000000000004751210335972f0ad82df9da8e5fa3ee613eeae83c191d359e4098dd5613cd2bf395f74e211c376630636465626264376636623064343834383231393531663438360000000052aec8a31b00000000001976a914b5ff17c37643c359832a55220b19faf72969c95b88ac00000000",
  "blockhash": "00000000000000000750e65973824b10c943b263331e08e8d6be2f190173a1c7",
  "confirmations": 587568,
  "time": 1414596313,
  "blocktime": 1414596313
}
