{
  "txid": "541e640fbb527c35e0ee32d724efa4a5506c4c52acfba1ebc3b45949780c08a8",
  "hash": "541e640fbb527c35e0ee32d724efa4a5506c4c52acfba1ebc3b45949780c08a8",
  "version": 1,
  "size": 454,
  "vsize": 454,
  "weight": 1816,
  "locktime": 0,
  "vin": [
    {
      "txid": "de3dec665a89228593ffa3c0236dd098a6f9ef6ac698db016f8a3303ce728649",
      "vout": 2,
      "scriptSig": {
        "asm": "304502201aa00850d6d1352b1fa11f55ea72cdddc144baf66864d097ebd22dab3b73e766022100c4b7b153719db02939bc9f4cf61e63da51b02288126471b1a6d364e1500319ee[ALL] 0241e401603ff07343f84d3dcad01ddbd01385506cf85209d8b150fe6c93f6ee1f",
        "hex": "48304502201aa00850d6d1352b1fa11f55ea72cdddc144baf66864d097ebd22dab3b73e766022100c4b7b153719db02939bc9f4cf61e63da51b02288126471b1a6d364e1500319ee01210241e401603ff07343f84d3dcad01ddbd01385506cf85209d8b150fe6c93f6ee1f"
      },
      "sequence": 4294967295
    }
  ],
  "vout": [
    {
      "value": 0.00005430,
      "n": 0,
      "scriptPubKey": {
        "asm": "OP_DUP OP_HASH160 04d63b99645722c03c7abeec3139ef8b481413a1 OP_EQUALVERIFY OP_CHECKSIG",
        "desc": "addr(1SaLvationGodsMarveLousGracaLgYQS)#luv5qvxz",
        "hex": "76a91404d63b99645722c03c7abeec3139ef8b481413a188ac",
        "address": "1SaLvationGodsMarveLousGracaLgYQS",
        "type": "pubkeyhash"
      }
    },
    {
      "value": 0.00007800,
      "n": 1,
      "scriptPubKey": {
        "asm": "1 026e8c99cf905947268385eb5eb08ecd489965fa5e722761d0d7c3bd8ac8ee3920 020b446132ea04f474e116b900546155e2ff731cfde2b6e984525d18e522feb512 0241e401603ff07343f84d3dcad01ddbd01385506cf85209d8b150fe6c93f6ee1f 3 OP_CHECKMULTISIG",
        "desc": "multi(1,026e8c99cf905947268385eb5eb08ecd489965fa5e722761d0d7c3bd8ac8ee3920,020b446132ea04f474e116b900546155e2ff731cfde2b6e984525d18e522feb512,0241e401603ff07343f84d3dcad01ddbd01385506cf85209d8b150fe6c93f6ee1f)#vxta2ev7",
        "hex": "5121026e8c99cf905947268385eb5eb08ecd489965fa5e722761d0d7c3bd8ac8ee392021020b446132ea04f474e116b900546155e2ff731cfde2b6e984525d18e522feb512210241e401603ff07343f84d3dcad01ddbd01385506cf85209d8b150fe6c93f6ee1f53ae",
        "type": "multisig"
      }
    },
    {
      "value": 0.00007800,
      "n": 2,
      "scriptPubKey": {
        "asm": "1 02498c99cf9059472683a3cb17f0dded08ba23382ad272249e9486ee8ac8ee3948 030b446132ea04f474c945f856114100b0df2053a8ae96afd61d1038b66bb09503 0241e401603ff07343f84d3dcad01ddbd01385506cf85209d8b150fe6c93f6ee1f 3 OP_CHECKMULTISIG",
        "desc": "multi(1,02498c99cf9059472683a3cb17f0dded08ba23382ad272249e9486ee8ac8ee3948,030b446132ea04f474c945f856114100b0df2053a8ae96afd61d1038b66bb09503,0241e401603ff07343f84d3dcad01ddbd01385506cf85209d8b150fe6c93f6ee1f)#msf664pv",
        "hex": "512102498c99cf9059472683a3cb17f0dded08ba23382ad272249e9486ee8ac8ee394821030b446132ea04f474c945f856114100b0df2053a8ae96afd61d1038b66bb09503210241e401603ff07343f84d3dcad01ddbd01385506cf85209d8b150fe6c93f6ee1f53ae",
        "type": "multisig"
      }
    },
    {
      "value": 0.00366570,
      "n": 3,
      "scriptPubKey": {
        "asm": "OP_DUP OP_HASH160 4e8a58f27a25421f314af64b5b7f78f0d02326f9 OP_EQUALVERIFY OP_CHECKSIG",
        "desc": "addr(18AHSWhk7xU6TB2sZJnZKLyGneB452nmG7)#ufdpv87s",
        "hex": "76a9144e8a58f27a25421f314af64b5b7f78f0d02326f988ac",
        "address": "18AHSWhk7xU6TB2sZJnZKLyGneB452nmG7",
        "type": "pubkeyhash"
      }
    }
  ],
  "hex": "0100000001498672ce03338a6f01db98c66aeff9a698d06d23c0a3ff938522895a66ec3dde020000006b48304502201aa00850d6d1352b1fa11f55ea72cdddc144baf66864d097ebd22dab3b73e766022100c4b7b153719db02939bc9f4cf61e63da51b02288126471b1a6d364e1500319ee01210241e401603ff07343f84d3dcad01ddbd01385506cf85209d8b150fe6c93f6ee1fffffffff0436150000000000001976a91404d63b99645722c03c7abeec3139ef8b481413a188ac781e000000000000695121026e8c99cf905947268385eb5eb08ecd489965fa5e722761d0d7c3bd8ac8ee392021020b446132ea04f474e116b900546155e2ff731cfde2b6e984525d18e522feb512210241e401603ff07343f84d3dcad01ddbd01385506cf85209d8b150fe6c93f6ee1f53ae781e00000000000069512102498c99cf9059472683a3cb17f0dded08ba23382ad272249e9486ee8ac8ee394821030b446132ea04f474c945f856114100b0df2053a8ae96afd61d1038b66bb09503210241e401603ff07343f84d3dcad01ddbd01385506cf85209d8b150fe6c93f6ee1f53aeea970500000000001976a9144e8a58f27a25421f314af64b5b7f78f0d02326f988ac00000000",
  "blockhash": "0000000000000000102836b6107448289827c7eba93b7c37bc2b144bfc9cfb51",
  "confirmations": 546488,
  "time": 1438836775,
  "blocktime": 1438836775
}
