{
  "txid": "585f50f12288cd9044705483672fbbddb71dff8198b390b40ab3de30db0a88dd",
  "hash": "585f50f12288cd9044705483672fbbddb71dff8198b390b40ab3de30db0a88dd",
  "version": 1,
  "size": 306,
  "vsize": 306,
  "weight": 1224,
  "locktime": 0,
  "vin": [
    {
      "txid": "d44de058ad30854b587c9cb2d75f94e44003614e4a0152af768ed106a480bd4f",
      "vout": 2,
      "scriptSig": {
        "asm": "304502202b05a819cf1915f2bb0fdfe2a55571586fc671914868c84af2ef2e15ae54fd35022100a9bea74ccdbf67db560ec269491e928af306c7247baae02565f5956896476a80[ALL] 02dd842167b625c60c10eda494eadd54df7b30f372d717b946b1912f0ce59dddf6",
        "hex": "48304502202b05a819cf1915f2bb0fdfe2a55571586fc671914868c84af2ef2e15ae54fd35022100a9bea74ccdbf67db560ec269491e928af306c7247baae02565f5956896476a80012102dd842167b625c60c10eda494eadd54df7b30f372d717b946b1912f0ce59dddf6"
      },
      "sequence": 4294967295
    }
  ],
  "vout": [
    {
      "value": 0.00010860,
      "n": 0,
      "scriptPubKey": {
        "asm": "OP_DUP OP_HASH160 81ed9e147ff6c438b079ae55e546af16fa4a3a45 OP_EQUALVERIFY OP_CHECKSIG",
        "desc": "addr(1Cqzpha4kAGTfxaKEE5XdzVpZfY6Hp3J8W)#3t86dkqp",
        "hex": "76a91481ed9e147ff6c438b079ae55e546af16fa4a3a4588ac",
        "address": "1Cqzpha4kAGTfxaKEE5XdzVpZfY6Hp3J8W",
        "type": "pubkeyhash"
      }
    },
    {
      "value": 0.00010860,
      "n": 1,
      "scriptPubKey": {
        "asm": "1 02dd842167b625c60c10eda494eadd54df7b30f372d717b946b1912f0ce59dddf6 1c434e5452505254590000000000000000000000010000000001312d0000000000 2 OP_CHECKMULTISIG",
        "desc": "raw(512102dd842167b625c60c10eda494eadd54df7b30f372d717b946b1912f0ce59dddf6211c434e5452505254590000000000000000000000010000000001312d000000000052ae)#d569wyq7",
        "hex": "512102dd842167b625c60c10eda494eadd54df7b30f372d717b946b1912f0ce59dddf6211c434e5452505254590000000000000000000000010000000001312d000000000052ae",
        "type": "nonstandard"
      }
    },
    {
      "value": 0.00409040,
      "n": 2,
      "scriptPubKey": {
        "asm": "OP_DUP OP_HASH160 b26df8031da4150c7d2a5151c5fdff10f4b7d950 OP_EQUALVERIFY OP_CHECKSIG",
        "desc": "addr(1HGT1utMx3JbkDyrCiH3rf84FzK1BVEhSm)#nu3adnm8",
        "hex": "76a914b26df8031da4150c7d2a5151c5fdff10f4b7d95088ac",
        "address": "1HGT1utMx3JbkDyrCiH3rf84FzK1BVEhSm",
        "type": "pubkeyhash"
      }
    }
  ],
  "hex": "01000000014fbd80a406d18e76af52014a4e610340e4945fd7b29c7c584b8530ad58e04dd4020000006b48304502202b05a819cf1915f2bb0fdfe2a55571586fc671914868c84af2ef2e15ae54fd35022100a9bea74ccdbf67db560ec269491e928af306c7247baae02565f5956896476a80012102dd842167b625c60c10eda494eadd54df7b30f372d717b946b1912f0ce59dddf6ffffffff036c2a0000000000001976a91481ed9e147ff6c438b079ae55e546af16fa4a3a4588ac6c2a00000000000047512102dd842167b625c60c10eda494eadd54df7b30f372d717b946b1912f0ce59dddf6211c434e5452505254590000000000000000000000010000000001312d000000000052aed03d0600000000001976a914b26df8031da4150c7d2a5151c5fdff10f4b7d95088ac00000000",
  "blockhash": "0000000000000000c548d152b0873eabd83cfba496bb5dddfb2a639b65bf5e9e",
  "confirmations": 624432,
  "time": 1395018572,
  "blocktime": 1395018572
}
