{
  "hash": "67792f9c87eb1632408bc537c42517c98c5218216df8f2d295eb17d617eb2006",
  "hex": "01000000030b6aac89c6e08432e5a47eb7baf3848fce4cb23b5f134f17d9c367c5c25226ef000000006b483045022100e627b0f99470e5e34c0ea48432574e8052eea8a92dd9728174c3031eecda30b402203908952b28ac3ac59b94a4c84b5b5b67cd46caac1fbbc60aa40832748f7425670121030de62f107975dc7c7b8e8ef6015b804d83a97d46f64c3667271b08766a140af1ffffffff49c56b8b63597b937730c06f443edfa7d7eeeb602cb430df4084d717ea1721dc020000006a47304402205dd5c7e3e5228eedf021a6bb63dbe7c24d1d129f1b2014a8e5a82cea9e4142f002206e12f5e4face9907e3e9f78f45b365930cce74f2edfde21fb0a22ddcc3f9a8130121030de62f107975dc7c7b8e8ef6015b804d83a97d46f64c3667271b08766a140af1ffffffff49c56b8b63597b937730c06f443edfa7d7eeeb602cb430df4084d717ea1721dc010000004900473044022079dc46c66e6c4cffe925b314b1ff64e0a411d42579c3b5ed8949a4797893fed60220122f14cd3ef84bb1932de1ed2ea78f5e25d99dd160df01e170a67a781c1b94d601ffffffff031027000000000000475121025442303030310010f06710cb9e9eebbd325bd4a2e9299fc300000000000000122103b23751bb95b2559c816c8f01ddd5abf5104a5039da91c01317296fe1746ac73a52ae102700000000000047512102544230303031000df06710cb9e9eebbd325bd4a2e9299fc3000000000000005e21030de62f107975dc7c7b8e8ef6015b804d83a97d46f64c3667271b08766a140af152aec0b60600000000001976a91421e7ca6489be63eab221e5d14e72a09d2146c89488ac00000000",
  "locktime": 0,
  "size": 613,
  "txid": "67792f9c87eb1632408bc537c42517c98c5218216df8f2d295eb17d617eb2006",
  "version": 1,
  "vin": [
    {
      "scriptSig": {
        "asm": "Script(OP_PUSHBYTES_72 3045022100e627b0f99470e5e34c0ea48432574e8052eea8a92dd9728174c3031eecda30b402203908952b28ac3ac59b94a4c84b5b5b67cd46caac1fbbc60aa40832748f74256701 OP_PUSHBYTES_33 030de62f107975dc7c7b8e8ef6015b804d83a97d46f64c3667271b08766a140af1)",
        "hex": "483045022100e627b0f99470e5e34c0ea48432574e8052eea8a92dd9728174c3031eecda30b402203908952b28ac3ac59b94a4c84b5b5b67cd46caac1fbbc60aa40832748f7425670121030de62f107975dc7c7b8e8ef6015b804d83a97d46f64c3667271b08766a140af1"
      },
      "sequence": 4294967295,
      "txid": "ef2652c2c567c3d9174f135f3bb24cce8f84f3bab77ea4e53284e0c689ac6a0b",
      "vout": 0
    },
    {
      "scriptSig": {
        "asm": "Script(OP_PUSHBYTES_71 304402205dd5c7e3e5228eedf021a6bb63dbe7c24d1d129f1b2014a8e5a82cea9e4142f002206e12f5e4face9907e3e9f78f45b365930cce74f2edfde21fb0a22ddcc3f9a81301 OP_PUSHBYTES_33 030de62f107975dc7c7b8e8ef6015b804d83a97d46f64c3667271b08766a140af1)",
        "hex": "47304402205dd5c7e3e5228eedf021a6bb63dbe7c24d1d129f1b2014a8e5a82cea9e4142f002206e12f5e4face9907e3e9f78f45b365930cce74f2edfde21fb0a22ddcc3f9a8130121030de62f107975dc7c7b8e8ef6015b804d83a97d46f64c3667271b08766a140af1"
      },
      "sequence": 4294967295,
      "txid": "dc2117ea17d78440df30b42c60ebeed7a7df3e446fc03077937b59638b6bc549",
      "vout": 2
    },
    {
      "scriptSig": {
        "asm": "Script(OP_0 OP_PUSHBYTES_71 3044022079dc46c66e6c4cffe925b314b1ff64e0a411d42579c3b5ed8949a4797893fed60220122f14cd3ef84bb1932de1ed2ea78f5e25d99dd160df01e170a67a781c1b94d601)",
        "hex": "00473044022079dc46c66e6c4cffe925b314b1ff64e0a411d42579c3b5ed8949a4797893fed60220122f14cd3ef84bb1932de1ed2ea78f5e25d99dd160df01e170a67a781c1b94d601"
      },
      "sequence": 4294967295,
      "txid": "dc2117ea17d78440df30b42c60ebeed7a7df3e446fc03077937b59638b6bc549",
      "vout": 1
    }
  ],
  "vout": [
    {
      "n": 0,
      "scriptPubKey": {
        "asm": "Script(OP_PUSHNUM_1 OP_PUSHBYTES_33 025442303030310010f06710cb9e9eebbd325bd4a2e9299fc30000000000000012 OP_PUSHBYTES_33 03b23751bb95b2559c816c8f01ddd5abf5104a5039da91c01317296fe1746ac73a OP_PUSHNUM_2 OP_CHECKMULTISIG)",
        "hex": "5121025442303030310010f06710cb9e9eebbd325bd4a2e9299fc300000000000000122103b23751bb95b2559c816c8f01ddd5abf5104a5039da91c01317296fe1746ac73a52ae",
        "type": "multisig"
      },
      "value": 0.0001
    },
    {
      "n": 1,
      "scriptPubKey": {
        "asm": "Script(OP_PUSHNUM_1 OP_PUSHBYTES_33 02544230303031000df06710cb9e9eebbd325bd4a2e9299fc3000000000000005e OP_PUSHBYTES_33 030de62f107975dc7c7b8e8ef6015b804d83a97d46f64c3667271b08766a140af1 OP_PUSHNUM_2 OP_CHECKMULTISIG)",
        "hex": "512102544230303031000df06710cb9e9eebbd325bd4a2e9299fc3000000000000005e21030de62f107975dc7c7b8e8ef6015b804d83a97d46f64c3667271b08766a140af152ae",
        "type": "multisig"
      },
      "value": 0.0001
    },
    {
      "n": 2,
      "scriptPubKey": {
        "asm": "Script(OP_DUP OP_HASH160 OP_PUSHBYTES_20 21e7ca6489be63eab221e5d14e72a09d2146c894 OP_EQUALVERIFY OP_CHECKSIG)",
        "hex": "76a91421e7ca6489be63eab221e5d14e72a09d2146c89488ac",
        "type": "pubkeyhash"
      },
      "value": 0.0044
    }
  ],
  "vsize": 613,
  "weight": 2452
}