{
  "hash": "08437467cbb88640b40185169293b138e216ec1a970f596e3c915ce74021d85e",
  "hex": "0100000001a826be3089c7f9dced5b3136e6bb5fad4e20827ba1569069a5d03c5cacd5b3fe2a0000006a47304402207540c7a0ec926bb65a0a5fac9befee2b2c4716bba4ee0a58f26805196e7129cd02203752463e63382cd9eb3b1ff9110ccd13cc37dbfccac31e25870621dad7f32c31012102636fb9b995be8c163e31222cf202e992899901415ef1142a99a7605e5480258dffffffff02102700000000000047522102be10bfc785ea981090794c923c46a27f102132380b7aa79f83d5ecfd295e3e972102532b5b7cd69e4a8b09555a5b42dd1c91e3eb4817355c306b9fe53a7804a6462452ae00000000000000000e6a0c434c49505045525a2052454700000000",
  "locktime": 0,
  "size": 260,
  "txid": "08437467cbb88640b40185169293b138e216ec1a970f596e3c915ce74021d85e",
  "version": 1,
  "vin": [
    {
      "scriptSig": {
        "asm": "Script(OP_PUSHBYTES_71 304402207540c7a0ec926bb65a0a5fac9befee2b2c4716bba4ee0a58f26805196e7129cd02203752463e63382cd9eb3b1ff9110ccd13cc37dbfccac31e25870621dad7f32c3101 OP_PUSHBYTES_33 02636fb9b995be8c163e31222cf202e992899901415ef1142a99a7605e5480258d)",
        "hex": "47304402207540c7a0ec926bb65a0a5fac9befee2b2c4716bba4ee0a58f26805196e7129cd02203752463e63382cd9eb3b1ff9110ccd13cc37dbfccac31e25870621dad7f32c31012102636fb9b995be8c163e31222cf202e992899901415ef1142a99a7605e5480258d"
      },
      "sequence": 4294967295,
      "txid": "feb3d5ac5c3cd0a5699056a17b82204ead5fbbe636315beddcf9c78930be26a8",
      "vout": 42
    }
  ],
  "vout": [
    {
      "n": 0,
      "scriptPubKey": {
        "asm": "Script(OP_PUSHNUM_2 OP_PUSHBYTES_33 02be10bfc785ea981090794c923c46a27f102132380b7aa79f83d5ecfd295e3e97 OP_PUSHBYTES_33 02532b5b7cd69e4a8b09555a5b42dd1c91e3eb4817355c306b9fe53a7804a64624 OP_PUSHNUM_2 OP_CHECKMULTISIG)",
        "hex": "522102be10bfc785ea981090794c923c46a27f102132380b7aa79f83d5ecfd295e3e972102532b5b7cd69e4a8b09555a5b42dd1c91e3eb4817355c306b9fe53a7804a6462452ae",
        "type": "multisig"
      },
      "value": 0.0001
    },
    {
      "n": 1,
      "scriptPubKey": {
        "asm": "Script(OP_RETURN OP_PUSHBYTES_12 434c49505045525a20524547)",
        "hex": "6a0c434c49505045525a20524547",
        "type": "nulldata"
      },
      "value": 0.0
    }
  ],
  "vsize": 260,
  "weight": 1040
}