{
  "hash": "4bc03ae94ae9775db84fc3d7ef859fad9d4267beacf209ac53bd960ed6a4a0b2",
  "hex": "0100000001a826be3089c7f9dced5b3136e6bb5fad4e20827ba1569069a5d03c5cacd5b3fe2b0000006a47304402205bdab2a4ea849c2b795791ee63806f70270adac1992292ff4c125597d26314fa02206df04e5f56499f72008174e26ee3304cbf3cc67f7b74a793883d53408d91bb66012102636fb9b995be8c163e31222cf202e992899901415ef1142a99a7605e5480258dffffffff021027000000000000475221034755c07193170b5efe3ff5f6b231b93d60baee16e8c0213009cace9b6f246c8a21027f8637b94f511af154d1cc76fc03a108e4a50904d1951df4c46d145f077eb22552ae0000000000000000126a10434c49505045525a20312e302052454700000000",
  "locktime": 0,
  "size": 264,
  "txid": "4bc03ae94ae9775db84fc3d7ef859fad9d4267beacf209ac53bd960ed6a4a0b2",
  "version": 1,
  "vin": [
    {
      "scriptSig": {
        "asm": "Script(OP_PUSHBYTES_71 304402205bdab2a4ea849c2b795791ee63806f70270adac1992292ff4c125597d26314fa02206df04e5f56499f72008174e26ee3304cbf3cc67f7b74a793883d53408d91bb6601 OP_PUSHBYTES_33 02636fb9b995be8c163e31222cf202e992899901415ef1142a99a7605e5480258d)",
        "hex": "47304402205bdab2a4ea849c2b795791ee63806f70270adac1992292ff4c125597d26314fa02206df04e5f56499f72008174e26ee3304cbf3cc67f7b74a793883d53408d91bb66012102636fb9b995be8c163e31222cf202e992899901415ef1142a99a7605e5480258d"
      },
      "sequence": 4294967295,
      "txid": "feb3d5ac5c3cd0a5699056a17b82204ead5fbbe636315beddcf9c78930be26a8",
      "vout": 43
    }
  ],
  "vout": [
    {
      "n": 0,
      "scriptPubKey": {
        "asm": "Script(OP_PUSHNUM_2 OP_PUSHBYTES_33 034755c07193170b5efe3ff5f6b231b93d60baee16e8c0213009cace9b6f246c8a OP_PUSHBYTES_33 027f8637b94f511af154d1cc76fc03a108e4a50904d1951df4c46d145f077eb225 OP_PUSHNUM_2 OP_CHECKMULTISIG)",
        "hex": "5221034755c07193170b5efe3ff5f6b231b93d60baee16e8c0213009cace9b6f246c8a21027f8637b94f511af154d1cc76fc03a108e4a50904d1951df4c46d145f077eb22552ae",
        "type": "multisig"
      },
      "value": 0.0001
    },
    {
      "n": 1,
      "scriptPubKey": {
        "asm": "Script(OP_RETURN OP_PUSHBYTES_16 434c49505045525a20312e3020524547)",
        "hex": "6a10434c49505045525a20312e3020524547",
        "type": "nulldata"
      },
      "value": 0.0
    }
  ],
  "vsize": 264,
  "weight": 1056
}