{
  "hash": "903656a0eb2a8c0d2aa325db77d61fd3f03f39c05fc1ddd099c89a3def46609f",
  "hex": "0100000002044c03b2d54de2eeb6ad1330bf4950a6c86e70d3ede43fefdb903c252898c39c0100000049004730440220745257738059d534e5d5f7d28fd1bfefa77bb5bf0e54b42ddbb17f722219040102204030ebdd1c35f401884475c0b03ffa2b3de76ed429a708a629263f4a42f68b3001ffffffff044c03b2d54de2eeb6ad1330bf4950a6c86e70d3ede43fefdb903c252898c39c030000008b483045022100ed1ca4be10cf2b7b904bcb03e192d949df9a151270422faa1a6826cc9e1092480220725da781b7f69f4752ea2a5bce3583d2d3f7cbd6bfde8963a2fd3e4750a30526014104c2268aba55e0584f27f7885a915fb3c4927408a175616879faec76d9b0d125601977ad913f58c098a96ae34adcd6083273cb1ce6e9aed0db0b5e19364669c17effffffff04e8030000000000001976a914fc916f213a3d7f1369313d5fa30f6168f9446a2d88ace80300000000000089514104c2268aba55e0584f27f7885a915fb3c4927408a175616879faec76d9b0d125601977ad913f58c098a96ae34adcd6083273cb1ce6e9aed0db0b5e19364669c17e210320a0de360cc2ae8672db7d557086a4e7c8eca062c0a5a4ba9922dee0aacf3e1221031f52544c7b22766572223a312c2261757468223a2230222c227469746c65223a53ae0000000000000000326a302246696e6420747275652076616c7565206f6620626c6f636b636861696e20776974682050506b5075622e6f7267227d896f0000000000001976a914a509004dd29af0bf0a2a1484fbd51c1d43581aba88ac00000000",
  "locktime": 0,
  "size": 577,
  "txid": "903656a0eb2a8c0d2aa325db77d61fd3f03f39c05fc1ddd099c89a3def46609f",
  "version": 1,
  "vin": [
    {
      "scriptSig": {
        "asm": "Script(OP_0 OP_PUSHBYTES_71 30440220745257738059d534e5d5f7d28fd1bfefa77bb5bf0e54b42ddbb17f722219040102204030ebdd1c35f401884475c0b03ffa2b3de76ed429a708a629263f4a42f68b3001)",
        "hex": "004730440220745257738059d534e5d5f7d28fd1bfefa77bb5bf0e54b42ddbb17f722219040102204030ebdd1c35f401884475c0b03ffa2b3de76ed429a708a629263f4a42f68b3001"
      },
      "sequence": 4294967295,
      "txid": "9cc39828253c90dbef3fe4edd3706ec8a65049bf3013adb6eee24dd5b2034c04",
      "vout": 1
    },
    {
      "scriptSig": {
        "asm": "Script(OP_PUSHBYTES_72 3045022100ed1ca4be10cf2b7b904bcb03e192d949df9a151270422faa1a6826cc9e1092480220725da781b7f69f4752ea2a5bce3583d2d3f7cbd6bfde8963a2fd3e4750a3052601 OP_PUSHBYTES_65 04c2268aba55e0584f27f7885a915fb3c4927408a175616879faec76d9b0d125601977ad913f58c098a96ae34adcd6083273cb1ce6e9aed0db0b5e19364669c17e)",
        "hex": "483045022100ed1ca4be10cf2b7b904bcb03e192d949df9a151270422faa1a6826cc9e1092480220725da781b7f69f4752ea2a5bce3583d2d3f7cbd6bfde8963a2fd3e4750a30526014104c2268aba55e0584f27f7885a915fb3c4927408a175616879faec76d9b0d125601977ad913f58c098a96ae34adcd6083273cb1ce6e9aed0db0b5e19364669c17e"
      },
      "sequence": 4294967295,
      "txid": "9cc39828253c90dbef3fe4edd3706ec8a65049bf3013adb6eee24dd5b2034c04",
      "vout": 3
    }
  ],
  "vout": [
    {
      "n": 0,
      "scriptPubKey": {
        "asm": "Script(OP_DUP OP_HASH160 OP_PUSHBYTES_20 fc916f213a3d7f1369313d5fa30f6168f9446a2d OP_EQUALVERIFY OP_CHECKSIG)",
        "hex": "76a914fc916f213a3d7f1369313d5fa30f6168f9446a2d88ac",
        "type": "pubkeyhash"
      },
      "value": 0.00001
    },
    {
      "n": 1,
      "scriptPubKey": {
        "asm": "Script(OP_PUSHNUM_1 OP_PUSHBYTES_65 04c2268aba55e0584f27f7885a915fb3c4927408a175616879faec76d9b0d125601977ad913f58c098a96ae34adcd6083273cb1ce6e9aed0db0b5e19364669c17e OP_PUSHBYTES_33 0320a0de360cc2ae8672db7d557086a4e7c8eca062c0a5a4ba9922dee0aacf3e12 OP_PUSHBYTES_33 031f52544c7b22766572223a312c2261757468223a2230222c227469746c65223a OP_PUSHNUM_3 OP_CHECKMULTISIG)",
        "hex": "514104c2268aba55e0584f27f7885a915fb3c4927408a175616879faec76d9b0d125601977ad913f58c098a96ae34adcd6083273cb1ce6e9aed0db0b5e19364669c17e210320a0de360cc2ae8672db7d557086a4e7c8eca062c0a5a4ba9922dee0aacf3e1221031f52544c7b22766572223a312c2261757468223a2230222c227469746c65223a53ae",
        "type": "multisig"
      },
      "value": 0.00001
    },
    {
      "n": 2,
      "scriptPubKey": {
        "asm": "Script(OP_RETURN OP_PUSHBYTES_48 2246696e6420747275652076616c7565206f6620626c6f636b636861696e20776974682050506b5075622e6f7267227d)",
        "hex": "6a302246696e6420747275652076616c7565206f6620626c6f636b636861696e20776974682050506b5075622e6f7267227d",
        "type": "nulldata"
      },
      "value": 0.0
    },
    {
      "n": 3,
      "scriptPubKey": {
        "asm": "Script(OP_DUP OP_HASH160 OP_PUSHBYTES_20 a509004dd29af0bf0a2a1484fbd51c1d43581aba OP_EQUALVERIFY OP_CHECKSIG)",
        "hex": "76a914a509004dd29af0bf0a2a1484fbd51c1d43581aba88ac",
        "type": "pubkeyhash"
      },
      "value": 0.00028553
    }
  ],
  "vsize": 577,
  "weight": 2308
}