{
  "hash": "2bde62d3da128f82ae4a1d9ead39b9382055757e3b8498af33cded984574528c",
  "hex": "01000000018ea65577edbe034e73c7067013214fb742a072e2bb79872816d7d9476e8bbc83020000006b483045022100ad0326153fe0e53f0b421df652d62e6a0ddd55edafa3cffd9d222742009917aa02206823266bcdbc77a482b54bb36f586d5fe01b32e6c5c5a2d267f9a781e702d4b3012103c47b6996b4bc9ef5401117f3dfddc6a48008da265d38a91019ba31a05277fd27ffffffff03e80300000000000069512103c47b6996b4bc9ef5401117f3dfddc6a48008da265d38a91019ba31a05277fd27210320a0de360cc2ae8672db7d557086a4e7c8eca062c0a5a4ba9922dee0aacf3e1221031f5254287b22766572223a312c2261757468223a2230222c22782d746f6f6c2253ae00000000000000000e6a0c3a2250506b302e383036227d28030000000000001976a91476f3f2865a4d87fc42694a0eee7250b80025727d88ac00000000",
  "locktime": 0,
  "size": 329,
  "txid": "2bde62d3da128f82ae4a1d9ead39b9382055757e3b8498af33cded984574528c",
  "version": 1,
  "vin": [
    {
      "scriptSig": {
        "asm": "Script(OP_PUSHBYTES_72 3045022100ad0326153fe0e53f0b421df652d62e6a0ddd55edafa3cffd9d222742009917aa02206823266bcdbc77a482b54bb36f586d5fe01b32e6c5c5a2d267f9a781e702d4b301 OP_PUSHBYTES_33 03c47b6996b4bc9ef5401117f3dfddc6a48008da265d38a91019ba31a05277fd27)",
        "hex": "483045022100ad0326153fe0e53f0b421df652d62e6a0ddd55edafa3cffd9d222742009917aa02206823266bcdbc77a482b54bb36f586d5fe01b32e6c5c5a2d267f9a781e702d4b3012103c47b6996b4bc9ef5401117f3dfddc6a48008da265d38a91019ba31a05277fd27"
      },
      "sequence": 4294967295,
      "txid": "83bc8b6e47d9d716288779bbe272a042b74f21137006c7734e03beed7755a68e",
      "vout": 2
    }
  ],
  "vout": [
    {
      "n": 0,
      "scriptPubKey": {
        "asm": "Script(OP_PUSHNUM_1 OP_PUSHBYTES_33 03c47b6996b4bc9ef5401117f3dfddc6a48008da265d38a91019ba31a05277fd27 OP_PUSHBYTES_33 0320a0de360cc2ae8672db7d557086a4e7c8eca062c0a5a4ba9922dee0aacf3e12 OP_PUSHBYTES_33 031f5254287b22766572223a312c2261757468223a2230222c22782d746f6f6c22 OP_PUSHNUM_3 OP_CHECKMULTISIG)",
        "hex": "512103c47b6996b4bc9ef5401117f3dfddc6a48008da265d38a91019ba31a05277fd27210320a0de360cc2ae8672db7d557086a4e7c8eca062c0a5a4ba9922dee0aacf3e1221031f5254287b22766572223a312c2261757468223a2230222c22782d746f6f6c2253ae",
        "type": "multisig"
      },
      "value": 0.00001
    },
    {
      "n": 1,
      "scriptPubKey": {
        "asm": "Script(OP_RETURN OP_PUSHBYTES_12 3a2250506b302e383036227d)",
        "hex": "6a0c3a2250506b302e383036227d",
        "type": "nulldata"
      },
      "value": 0.0
    },
    {
      "n": 2,
      "scriptPubKey": {
        "asm": "Script(OP_DUP OP_HASH160 OP_PUSHBYTES_20 76f3f2865a4d87fc42694a0eee7250b80025727d OP_EQUALVERIFY OP_CHECKSIG)",
        "hex": "76a91476f3f2865a4d87fc42694a0eee7250b80025727d88ac",
        "type": "pubkeyhash"
      },
      "value": 8.08e-6
    }
  ],
  "vsize": 329,
  "weight": 1316
}