{
  "hash": "a7fcc7391e2db0fe13b3a12d37fdbdc6138b2c76a9a447020fa92071a64dfe0c",
  "hex": "0100000004c98675cdd2a00e0e14e7df6828883bb1255f7e054dc751d1620c997d56750d1c040000004900473044022019a9856c615a5c57e798f3e94e570a2fee9506a86881f3bfce564aaadb48ff3202201ac0f6bd82980bfe0106f59d4e13561a5366385ae81b60be88c475a042066af501ffffffff1919a0a9babe74d334ced7f6337ff972f09a823637186827306f21c0f34e27ef01000000490047304402207fcd30bbf0b21778a179d9a3575dec3bec29f597dd92129657befd3b48230c4602207c41650109659783a733a3b0591c2f321488be7c05a6a4048398a462e68db7a001ffffffffc42fb1c54404aa2ded0766b3cc0c17bb3a8700febda91bdffc4ff9f1245b4f11010000004900473044022059c470a1c89a272b8f419237d8d115213243423f3d3210c89be55b60f2d0c21b0220088990f3f7ce38a780950f4e3934b0259f39122ecb44fbd2b39a39ea0b11b21301ffffffff1919a0a9babe74d334ced7f6337ff972f09a823637186827306f21c0f34e27ef030000008a47304402201328d5ffe98f71e31004a6625937a55bdd396162aeb97d2dd4e7977484f9063f02203f22595bc5efd796951c4c9e62b57e5c43a587ed1b5f47b10ee745edcf3b2b060141045af5f261ad1e978355b6ad1f12218e3fc3439e02b66bb883ce40ad7686cdec83a8087863bdf36ce7473f4c68ca6534b2ca74a2e8c1428d9695be7edf4f0d705bffffffff047d160000000000001976a914f59fd64eb03beacf88b7a7d87e8df12cbabe998988ac7d16000000000000895141045af5f261ad1e978355b6ad1f12218e3fc3439e02b66bb883ce40ad7686cdec83a8087863bdf36ce7473f4c68ca6534b2ca74a2e8c1428d9695be7edf4f0d705b210320a0de360cc2ae8672db7d557086a4e7c8eca062c0a5a4ba9922dee0aacf3e1221031f52544a7b22766572223a312c2261757468223a2230222c227469746c65223a53ae0000000000000000306a2e2250506b205075626c69632047726f7570222c22656d61696c223a2270706b70756240676d61696c2e636f6d227d5f2b0d00000000001976a914f59fd064cd71af53b9079b8c4457d4049f3af93f88ac00000000",
  "locktime": 0,
  "size": 802,
  "txid": "a7fcc7391e2db0fe13b3a12d37fdbdc6138b2c76a9a447020fa92071a64dfe0c",
  "version": 1,
  "vin": [
    {
      "scriptSig": {
        "asm": "Script(OP_0 OP_PUSHBYTES_71 3044022019a9856c615a5c57e798f3e94e570a2fee9506a86881f3bfce564aaadb48ff3202201ac0f6bd82980bfe0106f59d4e13561a5366385ae81b60be88c475a042066af501)",
        "hex": "00473044022019a9856c615a5c57e798f3e94e570a2fee9506a86881f3bfce564aaadb48ff3202201ac0f6bd82980bfe0106f59d4e13561a5366385ae81b60be88c475a042066af501"
      },
      "sequence": 4294967295,
      "txid": "1c0d75567d990c62d151c74d057e5f25b13b882868dfe7140e0ea0d2cd7586c9",
      "vout": 4
    },
    {
      "scriptSig": {
        "asm": "Script(OP_0 OP_PUSHBYTES_71 304402207fcd30bbf0b21778a179d9a3575dec3bec29f597dd92129657befd3b48230c4602207c41650109659783a733a3b0591c2f321488be7c05a6a4048398a462e68db7a001)",
        "hex": "0047304402207fcd30bbf0b21778a179d9a3575dec3bec29f597dd92129657befd3b48230c4602207c41650109659783a733a3b0591c2f321488be7c05a6a4048398a462e68db7a001"
      },
      "sequence": 4294967295,
      "txid": "ef274ef3c0216f302768183736829af072f97f33f6d7ce34d374bebaa9a01919",
      "vout": 1
    },
    {
      "scriptSig": {
        "asm": "Script(OP_0 OP_PUSHBYTES_71 3044022059c470a1c89a272b8f419237d8d115213243423f3d3210c89be55b60f2d0c21b0220088990f3f7ce38a780950f4e3934b0259f39122ecb44fbd2b39a39ea0b11b21301)",
        "hex": "00473044022059c470a1c89a272b8f419237d8d115213243423f3d3210c89be55b60f2d0c21b0220088990f3f7ce38a780950f4e3934b0259f39122ecb44fbd2b39a39ea0b11b21301"
      },
      "sequence": 4294967295,
      "txid": "114f5b24f1f94ffcdf1ba9bdfe00873abb170cccb36607ed2daa0444c5b12fc4",
      "vout": 1
    },
    {
      "scriptSig": {
        "asm": "Script(OP_PUSHBYTES_71 304402201328d5ffe98f71e31004a6625937a55bdd396162aeb97d2dd4e7977484f9063f02203f22595bc5efd796951c4c9e62b57e5c43a587ed1b5f47b10ee745edcf3b2b0601 OP_PUSHBYTES_65 045af5f261ad1e978355b6ad1f12218e3fc3439e02b66bb883ce40ad7686cdec83a8087863bdf36ce7473f4c68ca6534b2ca74a2e8c1428d9695be7edf4f0d705b)",
        "hex": "47304402201328d5ffe98f71e31004a6625937a55bdd396162aeb97d2dd4e7977484f9063f02203f22595bc5efd796951c4c9e62b57e5c43a587ed1b5f47b10ee745edcf3b2b060141045af5f261ad1e978355b6ad1f12218e3fc3439e02b66bb883ce40ad7686cdec83a8087863bdf36ce7473f4c68ca6534b2ca74a2e8c1428d9695be7edf4f0d705b"
      },
      "sequence": 4294967295,
      "txid": "ef274ef3c0216f302768183736829af072f97f33f6d7ce34d374bebaa9a01919",
      "vout": 3
    }
  ],
  "vout": [
    {
      "n": 0,
      "scriptPubKey": {
        "asm": "Script(OP_DUP OP_HASH160 OP_PUSHBYTES_20 f59fd64eb03beacf88b7a7d87e8df12cbabe9989 OP_EQUALVERIFY OP_CHECKSIG)",
        "hex": "76a914f59fd64eb03beacf88b7a7d87e8df12cbabe998988ac",
        "type": "pubkeyhash"
      },
      "value": 0.00005757
    },
    {
      "n": 1,
      "scriptPubKey": {
        "asm": "Script(OP_PUSHNUM_1 OP_PUSHBYTES_65 045af5f261ad1e978355b6ad1f12218e3fc3439e02b66bb883ce40ad7686cdec83a8087863bdf36ce7473f4c68ca6534b2ca74a2e8c1428d9695be7edf4f0d705b OP_PUSHBYTES_33 0320a0de360cc2ae8672db7d557086a4e7c8eca062c0a5a4ba9922dee0aacf3e12 OP_PUSHBYTES_33 031f52544a7b22766572223a312c2261757468223a2230222c227469746c65223a OP_PUSHNUM_3 OP_CHECKMULTISIG)",
        "hex": "5141045af5f261ad1e978355b6ad1f12218e3fc3439e02b66bb883ce40ad7686cdec83a8087863bdf36ce7473f4c68ca6534b2ca74a2e8c1428d9695be7edf4f0d705b210320a0de360cc2ae8672db7d557086a4e7c8eca062c0a5a4ba9922dee0aacf3e1221031f52544a7b22766572223a312c2261757468223a2230222c227469746c65223a53ae",
        "type": "multisig"
      },
      "value": 0.00005757
    },
    {
      "n": 2,
      "scriptPubKey": {
        "asm": "Script(OP_RETURN OP_PUSHBYTES_46 2250506b205075626c69632047726f7570222c22656d61696c223a2270706b70756240676d61696c2e636f6d227d)",
        "hex": "6a2e2250506b205075626c69632047726f7570222c22656d61696c223a2270706b70756240676d61696c2e636f6d227d",
        "type": "nulldata"
      },
      "value": 0.0
    },
    {
      "n": 3,
      "scriptPubKey": {
        "asm": "Script(OP_DUP OP_HASH160 OP_PUSHBYTES_20 f59fd064cd71af53b9079b8c4457d4049f3af93f OP_EQUALVERIFY OP_CHECKSIG)",
        "hex": "76a914f59fd064cd71af53b9079b8c4457d4049f3af93f88ac",
        "type": "pubkeyhash"
      },
      "value": 0.00863071
    }
  ],
  "vsize": 802,
  "weight": 3208
}