{
  "hash": "82d0872a72032c21cadfa1f7590f661f00c1bc663c4eb93b5730df40c7b87cbf",
  "hex": "0100000002c0def9e48f3503b1b647218440bd835c17184f6f763857e977c9ea812b2a4a26010000009100473044022011771f7bb4ee9759fe748a5175cdb3e892c430c412d2a68f7f5a1a0a47db9dea0220417a5818ad7e55ded22c900f1de43ff0581b3b93aa858ff979e15f20bee0346d8147304402201c6215540d86bfa9e494b23b190973aef956dd62cfdb98e1114bccf21fd55b70022048dc875d856fa79cdf8c48fce7d907216f3d98f1f3f4f785ebe505fdd7972de981ffffffff561d597dfc92e0583b3291011e6325b51f256cc8a1de2c720d0570b7667327cd0600000049483045022100e749f0f8fc78198c65c9c4c99ea9ebbe6c5a15a6a8078dc8a16a98a1dbbf6b1f02203a3277b7eb132e24bfad9f7ca865c05e9c98c0a20d05f59714c9f7cf8d29bf6901ffffffff0200000000000000002e6a02bb3a144ab37c0701000ab7d8d022a1ef091afc492cbd1314f4f89b3eddb2ea3c024590ecb797df419149335d28230000000000004752210282fb41394be72ee82c77d3d153a967c91f2238d4d8685aef64808a5d42aee56521035f3dc5b18e8546fffdaf3d685bae45e30e4b0ac8b644550cbe182e82cd2ae63352ae00000000",
  "locktime": 0,
  "size": 445,
  "txid": "82d0872a72032c21cadfa1f7590f661f00c1bc663c4eb93b5730df40c7b87cbf",
  "version": 1,
  "vin": [
    {
      "scriptSig": {
        "asm": "Script(OP_0 OP_PUSHBYTES_71 3044022011771f7bb4ee9759fe748a5175cdb3e892c430c412d2a68f7f5a1a0a47db9dea0220417a5818ad7e55ded22c900f1de43ff0581b3b93aa858ff979e15f20bee0346d81 OP_PUSHBYTES_71 304402201c6215540d86bfa9e494b23b190973aef956dd62cfdb98e1114bccf21fd55b70022048dc875d856fa79cdf8c48fce7d907216f3d98f1f3f4f785ebe505fdd7972de981)",
        "hex": "00473044022011771f7bb4ee9759fe748a5175cdb3e892c430c412d2a68f7f5a1a0a47db9dea0220417a5818ad7e55ded22c900f1de43ff0581b3b93aa858ff979e15f20bee0346d8147304402201c6215540d86bfa9e494b23b190973aef956dd62cfdb98e1114bccf21fd55b70022048dc875d856fa79cdf8c48fce7d907216f3d98f1f3f4f785ebe505fdd7972de981"
      },
      "sequence": 4294967295,
      "txid": "264a2a2b81eac977e95738766f4f18175c83bd40842147b6b103358fe4f9dec0",
      "vout": 1
    },
    {
      "scriptSig": {
        "asm": "Script(OP_PUSHBYTES_72 3045022100e749f0f8fc78198c65c9c4c99ea9ebbe6c5a15a6a8078dc8a16a98a1dbbf6b1f02203a3277b7eb132e24bfad9f7ca865c05e9c98c0a20d05f59714c9f7cf8d29bf6901)",
        "hex": "483045022100e749f0f8fc78198c65c9c4c99ea9ebbe6c5a15a6a8078dc8a16a98a1dbbf6b1f02203a3277b7eb132e24bfad9f7ca865c05e9c98c0a20d05f59714c9f7cf8d29bf6901"
      },
      "sequence": 4294967295,
      "txid": "cd277366b770050d722cdea1c86c251fb525631e0191323b58e092fc7d591d56",
      "vout": 6
    }
  ],
  "vout": [
    {
      "n": 0,
      "scriptPubKey": {
        "asm": "Script(OP_RETURN OP_PUSHBYTES_2 bb3a OP_PUSHBYTES_20 4ab37c0701000ab7d8d022a1ef091afc492cbd13 OP_PUSHBYTES_20 f4f89b3eddb2ea3c024590ecb797df419149335d)",
        "hex": "6a02bb3a144ab37c0701000ab7d8d022a1ef091afc492cbd1314f4f89b3eddb2ea3c024590ecb797df419149335d",
        "type": "nulldata"
      },
      "value": 0.0
    },
    {
      "n": 1,
      "scriptPubKey": {
        "asm": "Script(OP_PUSHNUM_2 OP_PUSHBYTES_33 0282fb41394be72ee82c77d3d153a967c91f2238d4d8685aef64808a5d42aee565 OP_PUSHBYTES_33 035f3dc5b18e8546fffdaf3d685bae45e30e4b0ac8b644550cbe182e82cd2ae633 OP_PUSHNUM_2 OP_CHECKMULTISIG)",
        "hex": "52210282fb41394be72ee82c77d3d153a967c91f2238d4d8685aef64808a5d42aee56521035f3dc5b18e8546fffdaf3d685bae45e30e4b0ac8b644550cbe182e82cd2ae63352ae",
        "type": "multisig"
      },
      "value": 0.00009
    }
  ],
  "vsize": 445,
  "weight": 1780
}