{
  "hash": "6c0f929f25ba6a91c218d76d2f9f563db69fd36861b0754602373d249ee30434",
  "hex": "01000000028edabffa60a409ee7d0e2b0a149938a9c6b6852c40e6d956fad83ecde9d5135401000000490047304402204700166f2bda9d0c4191254a76ad948e80e8c0ed9c56ddc97fa9bd704a8d1eac022003bf2f9da6eb53887f71e19f61b6a219c5ce9a6fe1994dee70e212644410865e01ffffffff8edabffa60a409ee7d0e2b0a149938a9c6b6852c40e6d956fad83ecde9d51354030000006a473044022052f4a3f611a76c4a7646ed3684a454392449003302f37066fb1816f76edccd160220111f0f949e42218a5c81010a4cf2a54fa13a1faf4b24ed9552735da7f72253a5012103c0dddc8d5da75f71935b068b47ef857b380ad4f4fccb3bdd2e36a51efe83d708ffffffff047d160000000000001976a91406265bad3e663467043a9536ec73b9d519c8d31088ac7d1600000000000047512103c0dddc8d5da75f71935b068b47ef857b380ad4f4fccb3bdd2e36a51efe83d708210320a0de360cc2ae8672db7d557086a4e7c8eca062c0a5a4ba9922dee0aacf3e1252ae0000000000000000266a245254217b22766572223a312c2261757468223a2230222c227469746c65223a225a58227dc3d11d00000000001976a91408f4118b6046da6787e75444f80a3fea8b2a29a588ac00000000",
  "locktime": 0,
  "size": 466,
  "txid": "6c0f929f25ba6a91c218d76d2f9f563db69fd36861b0754602373d249ee30434",
  "version": 1,
  "vin": [
    {
      "scriptSig": {
        "asm": "Script(OP_0 OP_PUSHBYTES_71 304402204700166f2bda9d0c4191254a76ad948e80e8c0ed9c56ddc97fa9bd704a8d1eac022003bf2f9da6eb53887f71e19f61b6a219c5ce9a6fe1994dee70e212644410865e01)",
        "hex": "0047304402204700166f2bda9d0c4191254a76ad948e80e8c0ed9c56ddc97fa9bd704a8d1eac022003bf2f9da6eb53887f71e19f61b6a219c5ce9a6fe1994dee70e212644410865e01"
      },
      "sequence": 4294967295,
      "txid": "5413d5e9cd3ed8fa56d9e6402c85b6c6a93899140a2b0e7dee09a460fabfda8e",
      "vout": 1
    },
    {
      "scriptSig": {
        "asm": "Script(OP_PUSHBYTES_71 3044022052f4a3f611a76c4a7646ed3684a454392449003302f37066fb1816f76edccd160220111f0f949e42218a5c81010a4cf2a54fa13a1faf4b24ed9552735da7f72253a501 OP_PUSHBYTES_33 03c0dddc8d5da75f71935b068b47ef857b380ad4f4fccb3bdd2e36a51efe83d708)",
        "hex": "473044022052f4a3f611a76c4a7646ed3684a454392449003302f37066fb1816f76edccd160220111f0f949e42218a5c81010a4cf2a54fa13a1faf4b24ed9552735da7f72253a5012103c0dddc8d5da75f71935b068b47ef857b380ad4f4fccb3bdd2e36a51efe83d708"
      },
      "sequence": 4294967295,
      "txid": "5413d5e9cd3ed8fa56d9e6402c85b6c6a93899140a2b0e7dee09a460fabfda8e",
      "vout": 3
    }
  ],
  "vout": [
    {
      "n": 0,
      "scriptPubKey": {
        "asm": "Script(OP_DUP OP_HASH160 OP_PUSHBYTES_20 06265bad3e663467043a9536ec73b9d519c8d310 OP_EQUALVERIFY OP_CHECKSIG)",
        "hex": "76a91406265bad3e663467043a9536ec73b9d519c8d31088ac",
        "type": "pubkeyhash"
      },
      "value": 0.00005757
    },
    {
      "n": 1,
      "scriptPubKey": {
        "asm": "Script(OP_PUSHNUM_1 OP_PUSHBYTES_33 03c0dddc8d5da75f71935b068b47ef857b380ad4f4fccb3bdd2e36a51efe83d708 OP_PUSHBYTES_33 0320a0de360cc2ae8672db7d557086a4e7c8eca062c0a5a4ba9922dee0aacf3e12 OP_PUSHNUM_2 OP_CHECKMULTISIG)",
        "hex": "512103c0dddc8d5da75f71935b068b47ef857b380ad4f4fccb3bdd2e36a51efe83d708210320a0de360cc2ae8672db7d557086a4e7c8eca062c0a5a4ba9922dee0aacf3e1252ae",
        "type": "multisig"
      },
      "value": 0.00005757
    },
    {
      "n": 2,
      "scriptPubKey": {
        "asm": "Script(OP_RETURN OP_PUSHBYTES_36 5254217b22766572223a312c2261757468223a2230222c227469746c65223a225a58227d)",
        "hex": "6a245254217b22766572223a312c2261757468223a2230222c227469746c65223a225a58227d",
        "type": "nulldata"
      },
      "value": 0.0
    },
    {
      "n": 3,
      "scriptPubKey": {
        "asm": "Script(OP_DUP OP_HASH160 OP_PUSHBYTES_20 08f4118b6046da6787e75444f80a3fea8b2a29a5 OP_EQUALVERIFY OP_CHECKSIG)",
        "hex": "76a91408f4118b6046da6787e75444f80a3fea8b2a29a588ac",
        "type": "pubkeyhash"
      },
      "value": 0.01954243
    }
  ],
  "vsize": 466,
  "weight": 1864
}