{
  "hash": "d5f4ca511eab05f5df94fb83b3cb7087b89e22afca5a2adb3f0f856674554e78",
  "hex": "0100000002f300bd08f632871650695776be19241567bb6f390e6d01668fef014ab0ed48cc010000004a00483045022100e27203f5c7c70b03324302d4e5dd3f75461c193c015e1a5c8ba494c4ec88af9702200365bbffb735921813e43d3bb793d5357d5fedfa83ca1eb9b4e8cb599c5f039c01fffffffff300bd08f632871650695776be19241567bb6f390e6d01668fef014ab0ed48cc030000006b483045022100cec6cbd0a53102c30edc40fe4ecf7f5dc76c9e03abe2701e9c87b1dad9d7d50602203841115cddbbfb330b41a830cef8aa6a57c7af6b501ab3bf5a70450d4711fae7012102323cc5df49cac1569f6f620eadab5589329b7368c8c85ed78f1cd0fa51d43a3bffffffff047d160000000000001976a9147e6fc52a31c98f02ff20beae4c631d032b4b74d488ac7d1600000000000047512102323cc5df49cac1569f6f620eadab5589329b7368c8c85ed78f1cd0fa51d43a3b210320a0de360cc2ae8672db7d557086a4e7c8eca062c0a5a4ba9922dee0aacf3e1252ae00000000000000002a6a285254257b22766572223a312c2261757468223a2230222c227469746c65223a22e6829fe7a9ba227de0160000000000001976a914ff830baaa00e1bbf90c7fd59047501e7a5c5862a88ac00000000",
  "locktime": 0,
  "size": 472,
  "txid": "d5f4ca511eab05f5df94fb83b3cb7087b89e22afca5a2adb3f0f856674554e78",
  "version": 1,
  "vin": [
    {
      "scriptSig": {
        "asm": "Script(OP_0 OP_PUSHBYTES_72 3045022100e27203f5c7c70b03324302d4e5dd3f75461c193c015e1a5c8ba494c4ec88af9702200365bbffb735921813e43d3bb793d5357d5fedfa83ca1eb9b4e8cb599c5f039c01)",
        "hex": "00483045022100e27203f5c7c70b03324302d4e5dd3f75461c193c015e1a5c8ba494c4ec88af9702200365bbffb735921813e43d3bb793d5357d5fedfa83ca1eb9b4e8cb599c5f039c01"
      },
      "sequence": 4294967295,
      "txid": "cc48edb04a01ef8f66016d0e396fbb67152419be76576950168732f608bd00f3",
      "vout": 1
    },
    {
      "scriptSig": {
        "asm": "Script(OP_PUSHBYTES_72 3045022100cec6cbd0a53102c30edc40fe4ecf7f5dc76c9e03abe2701e9c87b1dad9d7d50602203841115cddbbfb330b41a830cef8aa6a57c7af6b501ab3bf5a70450d4711fae701 OP_PUSHBYTES_33 02323cc5df49cac1569f6f620eadab5589329b7368c8c85ed78f1cd0fa51d43a3b)",
        "hex": "483045022100cec6cbd0a53102c30edc40fe4ecf7f5dc76c9e03abe2701e9c87b1dad9d7d50602203841115cddbbfb330b41a830cef8aa6a57c7af6b501ab3bf5a70450d4711fae7012102323cc5df49cac1569f6f620eadab5589329b7368c8c85ed78f1cd0fa51d43a3b"
      },
      "sequence": 4294967295,
      "txid": "cc48edb04a01ef8f66016d0e396fbb67152419be76576950168732f608bd00f3",
      "vout": 3
    }
  ],
  "vout": [
    {
      "n": 0,
      "scriptPubKey": {
        "asm": "Script(OP_DUP OP_HASH160 OP_PUSHBYTES_20 7e6fc52a31c98f02ff20beae4c631d032b4b74d4 OP_EQUALVERIFY OP_CHECKSIG)",
        "hex": "76a9147e6fc52a31c98f02ff20beae4c631d032b4b74d488ac",
        "type": "pubkeyhash"
      },
      "value": 0.00005757
    },
    {
      "n": 1,
      "scriptPubKey": {
        "asm": "Script(OP_PUSHNUM_1 OP_PUSHBYTES_33 02323cc5df49cac1569f6f620eadab5589329b7368c8c85ed78f1cd0fa51d43a3b OP_PUSHBYTES_33 0320a0de360cc2ae8672db7d557086a4e7c8eca062c0a5a4ba9922dee0aacf3e12 OP_PUSHNUM_2 OP_CHECKMULTISIG)",
        "hex": "512102323cc5df49cac1569f6f620eadab5589329b7368c8c85ed78f1cd0fa51d43a3b210320a0de360cc2ae8672db7d557086a4e7c8eca062c0a5a4ba9922dee0aacf3e1252ae",
        "type": "multisig"
      },
      "value": 0.00005757
    },
    {
      "n": 2,
      "scriptPubKey": {
        "asm": "Script(OP_RETURN OP_PUSHBYTES_40 5254257b22766572223a312c2261757468223a2230222c227469746c65223a22e6829fe7a9ba227d)",
        "hex": "6a285254257b22766572223a312c2261757468223a2230222c227469746c65223a22e6829fe7a9ba227d",
        "type": "nulldata"
      },
      "value": 0.0
    },
    {
      "n": 3,
      "scriptPubKey": {
        "asm": "Script(OP_DUP OP_HASH160 OP_PUSHBYTES_20 ff830baaa00e1bbf90c7fd59047501e7a5c5862a OP_EQUALVERIFY OP_CHECKSIG)",
        "hex": "76a914ff830baaa00e1bbf90c7fd59047501e7a5c5862a88ac",
        "type": "pubkeyhash"
      },
      "value": 0.00005856
    }
  ],
  "vsize": 472,
  "weight": 1888
}