{
  "txid": "b8864525a2eef4f76a58f33a4af50dc24461445e1a420e21bcc99a1901740e79",
  "hash": "b8864525a2eef4f76a58f33a4af50dc24461445e1a420e21bcc99a1901740e79",
  "version": 1,
  "size": 306,
  "vsize": 306,
  "weight": 1224,
  "locktime": 0,
  "vin": [
    {
      "txid": "df964d3c4acbabc67e4bc52c90701f3878677a0075045c1d245e6d0400f3b0a0",
      "vout": 0,
      "scriptSig": {
        "asm": "304502210088449f841dca59c03cb0a1cc65981323b5c5cef3d54dd0dbb158eed30ece0db70220607d9a35eb2a53d06bf69db169614b13fedc79b2cf4a61e94ed8bdf2e70295d4[ALL] 02619c30f643a4679ec2f690f3d6564df7df2ae23ae4a55393ae0bef22db9dbcaf",
        "hex": "48304502210088449f841dca59c03cb0a1cc65981323b5c5cef3d54dd0dbb158eed30ece0db70220607d9a35eb2a53d06bf69db169614b13fedc79b2cf4a61e94ed8bdf2e70295d4012102619c30f643a4679ec2f690f3d6564df7df2ae23ae4a55393ae0bef22db9dbcaf"
      },
      "sequence": 4294967295
    }
  ],
  "vout": [
    {
      "value": 0.00005500,
      "n": 0,
      "scriptPubKey": {
        "asm": "OP_DUP OP_HASH160 946cb2e08075bcbaf157e47bcb67eb2b2339d242 OP_EQUALVERIFY OP_CHECKSIG",
        "desc": "addr(1EXoDusjGwvnjZUyKkxZ4UHEf77z6A5S4P)#03u9lduk",
        "hex": "76a914946cb2e08075bcbaf157e47bcb67eb2b2339d24288ac",
        "address": "1EXoDusjGwvnjZUyKkxZ4UHEf77z6A5S4P",
        "type": "pubkeyhash"
      }
    },
    {
      "value": 0.09973500,
      "n": 1,
      "scriptPubKey": {
        "asm": "OP_DUP OP_HASH160 67669873a19989a900d7fde35e40f967b42d3873 OP_EQUALVERIFY OP_CHECKSIG",
        "desc": "addr(1ARjWDkZ7kT9fwjPrjcQyvbXDkEySzKHwu)#sd0n3v4d",
        "hex": "76a91467669873a19989a900d7fde35e40f967b42d387388ac",
        "address": "1ARjWDkZ7kT9fwjPrjcQyvbXDkEySzKHwu",
        "type": "pubkeyhash"
      }
    },
    {
      "value": 0.00011000,
      "n": 2,
      "scriptPubKey": {
        "asm": "1 02619c30f643a4679ec2f690f3d6564df7df2ae23ae4a55393ae0bef22db9dbcaf 026766a63680d3cc5c81c929d37ac5f82774f44bcada76bb9baffb7b9984f6a91c 2 OP_CHECKMULTISIG",
        "desc": "multi(1,02619c30f643a4679ec2f690f3d6564df7df2ae23ae4a55393ae0bef22db9dbcaf,026766a63680d3cc5c81c929d37ac5f82774f44bcada76bb9baffb7b9984f6a91c)#m2fquu8j",
        "hex": "512102619c30f643a4679ec2f690f3d6564df7df2ae23ae4a55393ae0bef22db9dbcaf21026766a63680d3cc5c81c929d37ac5f82774f44bcada76bb9baffb7b9984f6a91c52ae",
        "type": "multisig"
      }
    }
  ],
  "hex": "0100000001a0b0f300046d5e241d5c0475007a6778381f70902cc54b7ec6abcb4a3c4d96df000000006b48304502210088449f841dca59c03cb0a1cc65981323b5c5cef3d54dd0dbb158eed30ece0db70220607d9a35eb2a53d06bf69db169614b13fedc79b2cf4a61e94ed8bdf2e70295d4012102619c30f643a4679ec2f690f3d6564df7df2ae23ae4a55393ae0bef22db9dbcafffffffff037c150000000000001976a914946cb2e08075bcbaf157e47bcb67eb2b2339d24288acfc2e9800000000001976a91467669873a19989a900d7fde35e40f967b42d387388acf82a00000000000047512102619c30f643a4679ec2f690f3d6564df7df2ae23ae4a55393ae0bef22db9dbcaf21026766a63680d3cc5c81c929d37ac5f82774f44bcada76bb9baffb7b9984f6a91c52ae00000000",
  "blockhash": "000000000000000049b630ae81eafca5728ff50bb80978b8424755ca67bf1c4f",
  "confirmations": 617171,
  "time": 1398173740,
  "blocktime": 1398173740
}
