{
  "txid": "b01d1594a7e2083ebcd428706045df003f290c4dc7bd6d77c93df9fcca68232f",
  "hash": "b01d1594a7e2083ebcd428706045df003f290c4dc7bd6d77c93df9fcca68232f",
  "version": 1,
  "size": 1246,
  "vsize": 1246,
  "weight": 4984,
  "locktime": 0,
  "vin": [
    {
      "txid": "7feadf33ff57c787ad42ea17c9740b783091c9b68374ea242f3e04217cc7ab0e",
      "vout": 0,
      "scriptSig": {
        "asm": "3045022100dddebb8593986cd9d41a71cfb31f7f88cacf90f89ca9e08cd23616b3df6e755002201f2b259bb8e1de59952a8a3e182f67b72f8ffdf84747d3ed92fed047c69b765d[ALL] 04dc82c5812af7e44e40f16e5e03607935c0d3e531096e94deae1263f3b464a898232f90f7f3d747ff693dd796ea9df9df3b7c838591bf570db160f858b0130e76",
        "hex": "483045022100dddebb8593986cd9d41a71cfb31f7f88cacf90f89ca9e08cd23616b3df6e755002201f2b259bb8e1de59952a8a3e182f67b72f8ffdf84747d3ed92fed047c69b765d014104dc82c5812af7e44e40f16e5e03607935c0d3e531096e94deae1263f3b464a898232f90f7f3d747ff693dd796ea9df9df3b7c838591bf570db160f858b0130e76"
      },
      "sequence": 4294967295
    }
  ],
  "vout": [
    {
      "value": 0.00929103,
      "n": 0,
      "scriptPubKey": {
        "asm": "OP_DUP OP_HASH160 f603fad065ebbbf66ce7880c968004195c4f89b8 OP_EQUALVERIFY OP_CHECKSIG",
        "desc": "addr(1PRozi3UhpXtC4kZtPD1nfCFXJkXrV27Wp)#l9w4eu8y",
        "hex": "76a914f603fad065ebbbf66ce7880c968004195c4f89b888ac",
        "address": "1PRozi3UhpXtC4kZtPD1nfCFXJkXrV27Wp",
        "type": "pubkeyhash"
      }
    },
    {
      "value": 0.00005757,
      "n": 1,
      "scriptPubKey": {
        "asm": "OP_DUP OP_HASH160 946cb2e08075bcbaf157e47bcb67eb2b2339d242 OP_EQUALVERIFY OP_CHECKSIG",
        "desc": "addr(1EXoDusjGwvnjZUyKkxZ4UHEf77z6A5S4P)#03u9lduk",
        "hex": "76a914946cb2e08075bcbaf157e47bcb67eb2b2339d24288ac",
        "address": "1EXoDusjGwvnjZUyKkxZ4UHEf77z6A5S4P",
        "type": "pubkeyhash"
      }
    },
    {
      "value": 0.00017271,
      "n": 2,
      "scriptPubKey": {
        "asm": "1 04dc82c5812af7e44e40f16e5e03607935c0d3e531096e94deae1263f3b464a898232f90f7f3d747ff693dd796ea9df9df3b7c838591bf570db160f858b0130e76 024a0fe93b27241f8d449a2bba5ba7e55890ebe02155508d18499db3d18bc7d290 02b344aa1859ad54fa42c4fc97842b7ddd9fa65d86ba1e80af84e53cee3e4b55d1 3 OP_CHECKMULTISIG",
        "desc": "multi(1,04dc82c5812af7e44e40f16e5e03607935c0d3e531096e94deae1263f3b464a898232f90f7f3d747ff693dd796ea9df9df3b7c838591bf570db160f858b0130e76,024a0fe93b27241f8d449a2bba5ba7e55890ebe02155508d18499db3d18bc7d290,02b344aa1859ad54fa42c4fc97842b7ddd9fa65d86ba1e80af84e53cee3e4b55d1)#ad0xtqwe",
        "hex": "514104dc82c5812af7e44e40f16e5e03607935c0d3e531096e94deae1263f3b464a898232f90f7f3d747ff693dd796ea9df9df3b7c838591bf570db160f858b0130e7621024a0fe93b27241f8d449a2bba5ba7e55890ebe02155508d18499db3d18bc7d2902102b344aa1859ad54fa42c4fc97842b7ddd9fa65d86ba1e80af84e53cee3e4b55d153ae",
        "type": "multisig"
      }
    },
    {
      "value": 0.00017271,
      "n": 3,
      "scriptPubKey": {
        "asm": "1 04dc82c5812af7e44e40f16e5e03607935c0d3e531096e94deae1263f3b464a898232f90f7f3d747ff693dd796ea9df9df3b7c838591bf570db160f858b0130e76 02dab3bdc09b42f445a7951d19782f9bb0e7ee1684b8e60aa1822cefe53ff40a47 02dfd2506d73d009a3dafa7ee5a0f8b00a86c7582ea9476910b93bb292ae4e4300 3 OP_CHECKMULTISIG",
        "desc": "multi(1,04dc82c5812af7e44e40f16e5e03607935c0d3e531096e94deae1263f3b464a898232f90f7f3d747ff693dd796ea9df9df3b7c838591bf570db160f858b0130e76,02dab3bdc09b42f445a7951d19782f9bb0e7ee1684b8e60aa1822cefe53ff40a47,02dfd2506d73d009a3dafa7ee5a0f8b00a86c7582ea9476910b93bb292ae4e4300)#x87ynw9w",
        "hex": "514104dc82c5812af7e44e40f16e5e03607935c0d3e531096e94deae1263f3b464a898232f90f7f3d747ff693dd796ea9df9df3b7c838591bf570db160f858b0130e762102dab3bdc09b42f445a7951d19782f9bb0e7ee1684b8e60aa1822cefe53ff40a472102dfd2506d73d009a3dafa7ee5a0f8b00a86c7582ea9476910b93bb292ae4e430053ae",
        "type": "multisig"
      }
    },
    {
      "value": 0.00017271,
      "n": 4,
      "scriptPubKey": {
        "asm": "1 04dc82c5812af7e44e40f16e5e03607935c0d3e531096e94deae1263f3b464a898232f90f7f3d747ff693dd796ea9df9df3b7c838591bf570db160f858b0130e76 0296fe366a4a7ce638a0d910af6bb80dc3856feb4fccfe0bea2e2a86ae23278452 02dfdabfec44f38636c9ad9d69f486dadfe8667ce929357c511a12b062b22d018c 3 OP_CHECKMULTISIG",
        "desc": "multi(1,04dc82c5812af7e44e40f16e5e03607935c0d3e531096e94deae1263f3b464a898232f90f7f3d747ff693dd796ea9df9df3b7c838591bf570db160f858b0130e76,0296fe366a4a7ce638a0d910af6bb80dc3856feb4fccfe0bea2e2a86ae23278452,02dfdabfec44f38636c9ad9d69f486dadfe8667ce929357c511a12b062b22d018c)#8f4f7jef",
        "hex": "514104dc82c5812af7e44e40f16e5e03607935c0d3e531096e94deae1263f3b464a898232f90f7f3d747ff693dd796ea9df9df3b7c838591bf570db160f858b0130e76210296fe366a4a7ce638a0d910af6bb80dc3856feb4fccfe0bea2e2a86ae232784522102dfdabfec44f38636c9ad9d69f486dadfe8667ce929357c511a12b062b22d018c53ae",
        "type": "multisig"
      }
    },
    {
      "value": 0.00017271,
      "n": 5,
      "scriptPubKey": {
        "asm": "1 04dc82c5812af7e44e40f16e5e03607935c0d3e531096e94deae1263f3b464a898232f90f7f3d747ff693dd796ea9df9df3b7c838591bf570db160f858b0130e76 0265c06caefd578db39d4a8824be65afb2941370a546226b07deaa87cf6383b5e2 02024dd8c26ffbb1a1c2a69886c37414a1f341f4fed0d5607819e5e39aaa5661a9 3 OP_CHECKMULTISIG",
        "desc": "multi(1,04dc82c5812af7e44e40f16e5e03607935c0d3e531096e94deae1263f3b464a898232f90f7f3d747ff693dd796ea9df9df3b7c838591bf570db160f858b0130e76,0265c06caefd578db39d4a8824be65afb2941370a546226b07deaa87cf6383b5e2,02024dd8c26ffbb1a1c2a69886c37414a1f341f4fed0d5607819e5e39aaa5661a9)#f6yux3zt",
        "hex": "514104dc82c5812af7e44e40f16e5e03607935c0d3e531096e94deae1263f3b464a898232f90f7f3d747ff693dd796ea9df9df3b7c838591bf570db160f858b0130e76210265c06caefd578db39d4a8824be65afb2941370a546226b07deaa87cf6383b5e22102024dd8c26ffbb1a1c2a69886c37414a1f341f4fed0d5607819e5e39aaa5661a953ae",
        "type": "multisig"
      }
    },
    {
      "value": 0.00017271,
      "n": 6,
      "scriptPubKey": {
        "asm": "1 04dc82c5812af7e44e40f16e5e03607935c0d3e531096e94deae1263f3b464a898232f90f7f3d747ff693dd796ea9df9df3b7c838591bf570db160f858b0130e76 0262291be69b7a50efa9e92c8c96d9080fd1401589de6f1b9d0b6784afccdf2f87 02a849ebe7701418e771027b4c28480f767746d0459628eaa56cbc4e20111cb42e 3 OP_CHECKMULTISIG",
        "desc": "multi(1,04dc82c5812af7e44e40f16e5e03607935c0d3e531096e94deae1263f3b464a898232f90f7f3d747ff693dd796ea9df9df3b7c838591bf570db160f858b0130e76,0262291be69b7a50efa9e92c8c96d9080fd1401589de6f1b9d0b6784afccdf2f87,02a849ebe7701418e771027b4c28480f767746d0459628eaa56cbc4e20111cb42e)#4ajft7c8",
        "hex": "514104dc82c5812af7e44e40f16e5e03607935c0d3e531096e94deae1263f3b464a898232f90f7f3d747ff693dd796ea9df9df3b7c838591bf570db160f858b0130e76210262291be69b7a50efa9e92c8c96d9080fd1401589de6f1b9d0b6784afccdf2f872102a849ebe7701418e771027b4c28480f767746d0459628eaa56cbc4e20111cb42e53ae",
        "type": "multisig"
      }
    },
    {
      "value": 0.00017271,
      "n": 7,
      "scriptPubKey": {
        "asm": "1 04dc82c5812af7e44e40f16e5e03607935c0d3e531096e94deae1263f3b464a898232f90f7f3d747ff693dd796ea9df9df3b7c838591bf570db160f858b0130e76 0215b9d295e9b7a0f5036a4f9c78907a1a54c9822850e2e758cf3a2dcca5d0aef0 02a46ac0889fb74dd4329978ee0b12ccd10e1cf8152c6c90883e18a31c134fc7be 3 OP_CHECKMULTISIG",
        "desc": "multi(1,04dc82c5812af7e44e40f16e5e03607935c0d3e531096e94deae1263f3b464a898232f90f7f3d747ff693dd796ea9df9df3b7c838591bf570db160f858b0130e76,0215b9d295e9b7a0f5036a4f9c78907a1a54c9822850e2e758cf3a2dcca5d0aef0,02a46ac0889fb74dd4329978ee0b12ccd10e1cf8152c6c90883e18a31c134fc7be)#x9tna3kz",
        "hex": "514104dc82c5812af7e44e40f16e5e03607935c0d3e531096e94deae1263f3b464a898232f90f7f3d747ff693dd796ea9df9df3b7c838591bf570db160f858b0130e76210215b9d295e9b7a0f5036a4f9c78907a1a54c9822850e2e758cf3a2dcca5d0aef02102a46ac0889fb74dd4329978ee0b12ccd10e1cf8152c6c90883e18a31c134fc7be53ae",
        "type": "multisig"
      }
    },
    {
      "value": 0.00011514,
      "n": 8,
      "scriptPubKey": {
        "asm": "1 04dc82c5812af7e44e40f16e5e03607935c0d3e531096e94deae1263f3b464a898232f90f7f3d747ff693dd796ea9df9df3b7c838591bf570db160f858b0130e76 02a603c6994c99907e058a534a048b08e8152041d18b84812340fae5379a4d572f 2 OP_CHECKMULTISIG",
        "desc": "multi(1,04dc82c5812af7e44e40f16e5e03607935c0d3e531096e94deae1263f3b464a898232f90f7f3d747ff693dd796ea9df9df3b7c838591bf570db160f858b0130e76,02a603c6994c99907e058a534a048b08e8152041d18b84812340fae5379a4d572f)#dnkc2lvq",
        "hex": "514104dc82c5812af7e44e40f16e5e03607935c0d3e531096e94deae1263f3b464a898232f90f7f3d747ff693dd796ea9df9df3b7c838591bf570db160f858b0130e762102a603c6994c99907e058a534a048b08e8152041d18b84812340fae5379a4d572f52ae",
        "type": "multisig"
      }
    }
  ],
  "hex": "01000000010eabc77c21043e2f24ea7483b6c99130780b74c917ea42ad87c757ff33dfea7f000000008b483045022100dddebb8593986cd9d41a71cfb31f7f88cacf90f89ca9e08cd23616b3df6e755002201f2b259bb8e1de59952a8a3e182f67b72f8ffdf84747d3ed92fed047c69b765d014104dc82c5812af7e44e40f16e5e03607935c0d3e531096e94deae1263f3b464a898232f90f7f3d747ff693dd796ea9df9df3b7c838591bf570db160f858b0130e76ffffffff094f2d0e00000000001976a914f603fad065ebbbf66ce7880c968004195c4f89b888ac7d160000000000001976a914946cb2e08075bcbaf157e47bcb67eb2b2339d24288ac774300000000000089514104dc82c5812af7e44e40f16e5e03607935c0d3e531096e94deae1263f3b464a898232f90f7f3d747ff693dd796ea9df9df3b7c838591bf570db160f858b0130e7621024a0fe93b27241f8d449a2bba5ba7e55890ebe02155508d18499db3d18bc7d2902102b344aa1859ad54fa42c4fc97842b7ddd9fa65d86ba1e80af84e53cee3e4b55d153ae774300000000000089514104dc82c5812af7e44e40f16e5e03607935c0d3e531096e94deae1263f3b464a898232f90f7f3d747ff693dd796ea9df9df3b7c838591bf570db160f858b0130e762102dab3bdc09b42f445a7951d19782f9bb0e7ee1684b8e60aa1822cefe53ff40a472102dfd2506d73d009a3dafa7ee5a0f8b00a86c7582ea9476910b93bb292ae4e430053ae774300000000000089514104dc82c5812af7e44e40f16e5e03607935c0d3e531096e94deae1263f3b464a898232f90f7f3d747ff693dd796ea9df9df3b7c838591bf570db160f858b0130e76210296fe366a4a7ce638a0d910af6bb80dc3856feb4fccfe0bea2e2a86ae232784522102dfdabfec44f38636c9ad9d69f486dadfe8667ce929357c511a12b062b22d018c53ae774300000000000089514104dc82c5812af7e44e40f16e5e03607935c0d3e531096e94deae1263f3b464a898232f90f7f3d747ff693dd796ea9df9df3b7c838591bf570db160f858b0130e76210265c06caefd578db39d4a8824be65afb2941370a546226b07deaa87cf6383b5e22102024dd8c26ffbb1a1c2a69886c37414a1f341f4fed0d5607819e5e39aaa5661a953ae774300000000000089514104dc82c5812af7e44e40f16e5e03607935c0d3e531096e94deae1263f3b464a898232f90f7f3d747ff693dd796ea9df9df3b7c838591bf570db160f858b0130e76210262291be69b7a50efa9e92c8c96d9080fd1401589de6f1b9d0b6784afccdf2f872102a849ebe7701418e771027b4c28480f767746d0459628eaa56cbc4e20111cb42e53ae774300000000000089514104dc82c5812af7e44e40f16e5e03607935c0d3e531096e94deae1263f3b464a898232f90f7f3d747ff693dd796ea9df9df3b7c838591bf570db160f858b0130e76210215b9d295e9b7a0f5036a4f9c78907a1a54c9822850e2e758cf3a2dcca5d0aef02102a46ac0889fb74dd4329978ee0b12ccd10e1cf8152c6c90883e18a31c134fc7be53aefa2c00000000000067514104dc82c5812af7e44e40f16e5e03607935c0d3e531096e94deae1263f3b464a898232f90f7f3d747ff693dd796ea9df9df3b7c838591bf570db160f858b0130e762102a603c6994c99907e058a534a048b08e8152041d18b84812340fae5379a4d572f52ae00000000",
  "blockhash": "00000000000000002169219ba74b54104140ae00035ffe8f057c5eb386eaeee1",
  "confirmations": 600781,
  "time": 1406925999,
  "blocktime": 1406925999
}
