{
  "txid": "153091863886921ab8bf6a7cc17ea99610795522f48b1824d2e417954e466281",
  "hash": "153091863886921ab8bf6a7cc17ea99610795522f48b1824d2e417954e466281",
  "version": 1,
  "size": 1279,
  "vsize": 1279,
  "weight": 5116,
  "locktime": 0,
  "vin": [
    {
      "txid": "b3c85361f9b4cd4410955ee8ffc2dacbee8f460c08c66deb0cd10936f7a5a101",
      "vout": 0,
      "scriptSig": {
        "asm": "30450221009c50c1e33a8d7730f15c6b700e4e69fee2a1a0b1e4683dce803cba2d42f2fdb902205b54d9b10bccc6ecfae79f8ee818d440106289ec9229675b4305ce62a117259a[ALL] 04766d9bfa01f0c8b6ab02717400976b5bf090e2f3136a20ae5960475eb7b19e63af47a2bddf9bfbbd14c91aa3e910e3baaa0dcdbc137afff07757a3b0d2d66d69",
        "hex": "4830450221009c50c1e33a8d7730f15c6b700e4e69fee2a1a0b1e4683dce803cba2d42f2fdb902205b54d9b10bccc6ecfae79f8ee818d440106289ec9229675b4305ce62a117259a014104766d9bfa01f0c8b6ab02717400976b5bf090e2f3136a20ae5960475eb7b19e63af47a2bddf9bfbbd14c91aa3e910e3baaa0dcdbc137afff07757a3b0d2d66d69"
      },
      "sequence": 4294967295
    },
    {
      "txid": "cb5abb071dc60417609590af18860229316f6c34b2ef0b1cdbe22723cfd7cc79",
      "vout": 0,
      "scriptSig": {
        "asm": "304402201a85e402179e66b452b146cedcad877a31da46b6caa13c9740ea113597adb9390220562eb00b8386ae8b9abe1c866159cba70d34512209a44a2c23e1c26b56bdeb97[ALL] 04766d9bfa01f0c8b6ab02717400976b5bf090e2f3136a20ae5960475eb7b19e63af47a2bddf9bfbbd14c91aa3e910e3baaa0dcdbc137afff07757a3b0d2d66d69",
        "hex": "47304402201a85e402179e66b452b146cedcad877a31da46b6caa13c9740ea113597adb9390220562eb00b8386ae8b9abe1c866159cba70d34512209a44a2c23e1c26b56bdeb97014104766d9bfa01f0c8b6ab02717400976b5bf090e2f3136a20ae5960475eb7b19e63af47a2bddf9bfbbd14c91aa3e910e3baaa0dcdbc137afff07757a3b0d2d66d69"
      },
      "sequence": 4294967295
    }
  ],
  "vout": [
    {
      "value": 0.00017724,
      "n": 0,
      "scriptPubKey": {
        "asm": "OP_DUP OP_HASH160 84ba71d9b723263d171385cb450e18e6e25886b0 OP_EQUALVERIFY OP_CHECKSIG",
        "desc": "addr(1D6oYjFVRAETW1Us9oS36YC71gfRw1omZB)#j5k0x68e",
        "hex": "76a91484ba71d9b723263d171385cb450e18e6e25886b088ac",
        "address": "1D6oYjFVRAETW1Us9oS36YC71gfRw1omZB",
        "type": "pubkeyhash"
      }
    },
    {
      "value": 0.00000882,
      "n": 1,
      "scriptPubKey": {
        "asm": "1 04766d9bfa01f0c8b6ab02717400976b5bf090e2f3136a20ae5960475eb7b19e63af47a2bddf9bfbbd14c91aa3e910e3baaa0dcdbc137afff07757a3b0d2d66d69 02563a09224230f2dfe9d2ecf3babd45b5f3021c2355c47b4f69a43c05541a6a35 02bed2f86ef1b18b30437acbd4b76de484c0157a19f37be9f0d369ef76e5b530f4 3 OP_CHECKMULTISIG",
        "desc": "multi(1,04766d9bfa01f0c8b6ab02717400976b5bf090e2f3136a20ae5960475eb7b19e63af47a2bddf9bfbbd14c91aa3e910e3baaa0dcdbc137afff07757a3b0d2d66d69,02563a09224230f2dfe9d2ecf3babd45b5f3021c2355c47b4f69a43c05541a6a35,02bed2f86ef1b18b30437acbd4b76de484c0157a19f37be9f0d369ef76e5b530f4)#ayhgu8u9",
        "hex": "514104766d9bfa01f0c8b6ab02717400976b5bf090e2f3136a20ae5960475eb7b19e63af47a2bddf9bfbbd14c91aa3e910e3baaa0dcdbc137afff07757a3b0d2d66d692102563a09224230f2dfe9d2ecf3babd45b5f3021c2355c47b4f69a43c05541a6a352102bed2f86ef1b18b30437acbd4b76de484c0157a19f37be9f0d369ef76e5b530f453ae",
        "type": "multisig"
      }
    },
    {
      "value": 0.00000882,
      "n": 2,
      "scriptPubKey": {
        "asm": "1 04766d9bfa01f0c8b6ab02717400976b5bf090e2f3136a20ae5960475eb7b19e63af47a2bddf9bfbbd14c91aa3e910e3baaa0dcdbc137afff07757a3b0d2d66d69 02574e792232edca7f3eed9eb104200e5713e10759db9b376901fbd1e0a07abc2f 02cf886ea4326489e587b2660c90d01d799e20e45369dba2caeecd99a82e481ad0 3 OP_CHECKMULTISIG",
        "desc": "multi(1,04766d9bfa01f0c8b6ab02717400976b5bf090e2f3136a20ae5960475eb7b19e63af47a2bddf9bfbbd14c91aa3e910e3baaa0dcdbc137afff07757a3b0d2d66d69,02574e792232edca7f3eed9eb104200e5713e10759db9b376901fbd1e0a07abc2f,02cf886ea4326489e587b2660c90d01d799e20e45369dba2caeecd99a82e481ad0)#thxka053",
        "hex": "514104766d9bfa01f0c8b6ab02717400976b5bf090e2f3136a20ae5960475eb7b19e63af47a2bddf9bfbbd14c91aa3e910e3baaa0dcdbc137afff07757a3b0d2d66d692102574e792232edca7f3eed9eb104200e5713e10759db9b376901fbd1e0a07abc2f2102cf886ea4326489e587b2660c90d01d799e20e45369dba2caeecd99a82e481ad053ae",
        "type": "multisig"
      }
    },
    {
      "value": 0.00000882,
      "n": 3,
      "scriptPubKey": {
        "asm": "1 04766d9bfa01f0c8b6ab02717400976b5bf090e2f3136a20ae5960475eb7b19e63af47a2bddf9bfbbd14c91aa3e910e3baaa0dcdbc137afff07757a3b0d2d66d69 028623f3a785feb236b025b0c601c48281cd0a2e908a576f03213eb94525b33864 02ac24d53d71d927cb3800e2b37563a2c51c333372ff3f99bd036ea63da0556ddf 3 OP_CHECKMULTISIG",
        "desc": "multi(1,04766d9bfa01f0c8b6ab02717400976b5bf090e2f3136a20ae5960475eb7b19e63af47a2bddf9bfbbd14c91aa3e910e3baaa0dcdbc137afff07757a3b0d2d66d69,028623f3a785feb236b025b0c601c48281cd0a2e908a576f03213eb94525b33864,02ac24d53d71d927cb3800e2b37563a2c51c333372ff3f99bd036ea63da0556ddf)#h77ka5t2",
        "hex": "514104766d9bfa01f0c8b6ab02717400976b5bf090e2f3136a20ae5960475eb7b19e63af47a2bddf9bfbbd14c91aa3e910e3baaa0dcdbc137afff07757a3b0d2d66d6921028623f3a785feb236b025b0c601c48281cd0a2e908a576f03213eb94525b338642102ac24d53d71d927cb3800e2b37563a2c51c333372ff3f99bd036ea63da0556ddf53ae",
        "type": "multisig"
      }
    },
    {
      "value": 0.00000882,
      "n": 4,
      "scriptPubKey": {
        "asm": "1 04766d9bfa01f0c8b6ab02717400976b5bf090e2f3136a20ae5960475eb7b19e63af47a2bddf9bfbbd14c91aa3e910e3baaa0dcdbc137afff07757a3b0d2d66d69 02add0f5fe207995f820b3fbc57eb189c47f02498e0f535258a76fea4459e5a693 0297c35d8d219d8f1b8aa8614dc9b96f5b7994f96bc831dd705696e82636e53ff2 3 OP_CHECKMULTISIG",
        "desc": "multi(1,04766d9bfa01f0c8b6ab02717400976b5bf090e2f3136a20ae5960475eb7b19e63af47a2bddf9bfbbd14c91aa3e910e3baaa0dcdbc137afff07757a3b0d2d66d69,02add0f5fe207995f820b3fbc57eb189c47f02498e0f535258a76fea4459e5a693,0297c35d8d219d8f1b8aa8614dc9b96f5b7994f96bc831dd705696e82636e53ff2)#unsuxwvl",
        "hex": "514104766d9bfa01f0c8b6ab02717400976b5bf090e2f3136a20ae5960475eb7b19e63af47a2bddf9bfbbd14c91aa3e910e3baaa0dcdbc137afff07757a3b0d2d66d692102add0f5fe207995f820b3fbc57eb189c47f02498e0f535258a76fea4459e5a693210297c35d8d219d8f1b8aa8614dc9b96f5b7994f96bc831dd705696e82636e53ff253ae",
        "type": "multisig"
      }
    },
    {
      "value": 0.00000882,
      "n": 5,
      "scriptPubKey": {
        "asm": "1 04766d9bfa01f0c8b6ab02717400976b5bf090e2f3136a20ae5960475eb7b19e63af47a2bddf9bfbbd14c91aa3e910e3baaa0dcdbc137afff07757a3b0d2d66d69 024a8ef5eeea052c350a7158ee2c7998c8f63512ab3aaa2e1b3f8d4c402b1d4aa7 02abacd8b4abe43e2f11ba0ab625d36290b80ccf0bc58ba33215c9d5368c38220b 3 OP_CHECKMULTISIG",
        "desc": "multi(1,04766d9bfa01f0c8b6ab02717400976b5bf090e2f3136a20ae5960475eb7b19e63af47a2bddf9bfbbd14c91aa3e910e3baaa0dcdbc137afff07757a3b0d2d66d69,024a8ef5eeea052c350a7158ee2c7998c8f63512ab3aaa2e1b3f8d4c402b1d4aa7,02abacd8b4abe43e2f11ba0ab625d36290b80ccf0bc58ba33215c9d5368c38220b)#c5uazqnn",
        "hex": "514104766d9bfa01f0c8b6ab02717400976b5bf090e2f3136a20ae5960475eb7b19e63af47a2bddf9bfbbd14c91aa3e910e3baaa0dcdbc137afff07757a3b0d2d66d6921024a8ef5eeea052c350a7158ee2c7998c8f63512ab3aaa2e1b3f8d4c402b1d4aa72102abacd8b4abe43e2f11ba0ab625d36290b80ccf0bc58ba33215c9d5368c38220b53ae",
        "type": "multisig"
      }
    },
    {
      "value": 0.00000780,
      "n": 6,
      "scriptPubKey": {
        "asm": "1 04766d9bfa01f0c8b6ab02717400976b5bf090e2f3136a20ae5960475eb7b19e63af47a2bddf9bfbbd14c91aa3e910e3baaa0dcdbc137afff07757a3b0d2d66d69 02b932522db4197bae13943e6a713c8da1df4217b0388b0a8bcead0135905ac01b 2 OP_CHECKMULTISIG",
        "desc": "multi(1,04766d9bfa01f0c8b6ab02717400976b5bf090e2f3136a20ae5960475eb7b19e63af47a2bddf9bfbbd14c91aa3e910e3baaa0dcdbc137afff07757a3b0d2d66d69,02b932522db4197bae13943e6a713c8da1df4217b0388b0a8bcead0135905ac01b)#xjk76h7v",
        "hex": "514104766d9bfa01f0c8b6ab02717400976b5bf090e2f3136a20ae5960475eb7b19e63af47a2bddf9bfbbd14c91aa3e910e3baaa0dcdbc137afff07757a3b0d2d66d692102b932522db4197bae13943e6a713c8da1df4217b0388b0a8bcead0135905ac01b52ae",
        "type": "multisig"
      }
    },
    {
      "value": 0.00000546,
      "n": 7,
      "scriptPubKey": {
        "asm": "OP_DUP OP_HASH160 946cb2e08075bcbaf157e47bcb67eb2b2339d242 OP_EQUALVERIFY OP_CHECKSIG",
        "desc": "addr(1EXoDusjGwvnjZUyKkxZ4UHEf77z6A5S4P)#03u9lduk",
        "hex": "76a914946cb2e08075bcbaf157e47bcb67eb2b2339d24288ac",
        "address": "1EXoDusjGwvnjZUyKkxZ4UHEf77z6A5S4P",
        "type": "pubkeyhash"
      }
    }
  ],
  "hex": "010000000201a1a5f73609d10ceb6dc6080c468feecbdac2ffe85e951044cdb4f96153c8b3000000008b4830450221009c50c1e33a8d7730f15c6b700e4e69fee2a1a0b1e4683dce803cba2d42f2fdb902205b54d9b10bccc6ecfae79f8ee818d440106289ec9229675b4305ce62a117259a014104766d9bfa01f0c8b6ab02717400976b5bf090e2f3136a20ae5960475eb7b19e63af47a2bddf9bfbbd14c91aa3e910e3baaa0dcdbc137afff07757a3b0d2d66d69ffffffff79ccd7cf2327e2db1c0befb2346c6f3129028618af9095601704c61d07bb5acb000000008a47304402201a85e402179e66b452b146cedcad877a31da46b6caa13c9740ea113597adb9390220562eb00b8386ae8b9abe1c866159cba70d34512209a44a2c23e1c26b56bdeb97014104766d9bfa01f0c8b6ab02717400976b5bf090e2f3136a20ae5960475eb7b19e63af47a2bddf9bfbbd14c91aa3e910e3baaa0dcdbc137afff07757a3b0d2d66d69ffffffff083c450000000000001976a91484ba71d9b723263d171385cb450e18e6e25886b088ac720300000000000089514104766d9bfa01f0c8b6ab02717400976b5bf090e2f3136a20ae5960475eb7b19e63af47a2bddf9bfbbd14c91aa3e910e3baaa0dcdbc137afff07757a3b0d2d66d692102563a09224230f2dfe9d2ecf3babd45b5f3021c2355c47b4f69a43c05541a6a352102bed2f86ef1b18b30437acbd4b76de484c0157a19f37be9f0d369ef76e5b530f453ae720300000000000089514104766d9bfa01f0c8b6ab02717400976b5bf090e2f3136a20ae5960475eb7b19e63af47a2bddf9bfbbd14c91aa3e910e3baaa0dcdbc137afff07757a3b0d2d66d692102574e792232edca7f3eed9eb104200e5713e10759db9b376901fbd1e0a07abc2f2102cf886ea4326489e587b2660c90d01d799e20e45369dba2caeecd99a82e481ad053ae720300000000000089514104766d9bfa01f0c8b6ab02717400976b5bf090e2f3136a20ae5960475eb7b19e63af47a2bddf9bfbbd14c91aa3e910e3baaa0dcdbc137afff07757a3b0d2d66d6921028623f3a785feb236b025b0c601c48281cd0a2e908a576f03213eb94525b338642102ac24d53d71d927cb3800e2b37563a2c51c333372ff3f99bd036ea63da0556ddf53ae720300000000000089514104766d9bfa01f0c8b6ab02717400976b5bf090e2f3136a20ae5960475eb7b19e63af47a2bddf9bfbbd14c91aa3e910e3baaa0dcdbc137afff07757a3b0d2d66d692102add0f5fe207995f820b3fbc57eb189c47f02498e0f535258a76fea4459e5a693210297c35d8d219d8f1b8aa8614dc9b96f5b7994f96bc831dd705696e82636e53ff253ae720300000000000089514104766d9bfa01f0c8b6ab02717400976b5bf090e2f3136a20ae5960475eb7b19e63af47a2bddf9bfbbd14c91aa3e910e3baaa0dcdbc137afff07757a3b0d2d66d6921024a8ef5eeea052c350a7158ee2c7998c8f63512ab3aaa2e1b3f8d4c402b1d4aa72102abacd8b4abe43e2f11ba0ab625d36290b80ccf0bc58ba33215c9d5368c38220b53ae0c0300000000000067514104766d9bfa01f0c8b6ab02717400976b5bf090e2f3136a20ae5960475eb7b19e63af47a2bddf9bfbbd14c91aa3e910e3baaa0dcdbc137afff07757a3b0d2d66d692102b932522db4197bae13943e6a713c8da1df4217b0388b0a8bcead0135905ac01b52ae22020000000000001976a914946cb2e08075bcbaf157e47bcb67eb2b2339d24288ac00000000",
  "blockhash": "00000000000000000000aa3570b3564aece96b9ce5107e303759e7cda2f7013d",
  "confirmations": 11729,
  "time": 1750807554,
  "blocktime": 1750807554
}