{
  "txid": "3d7742608f3df0436c7d482465b092344c083105fb4d8f5f7745494074ec1d3b",
  "hash": "3d7742608f3df0436c7d482465b092344c083105fb4d8f5f7745494074ec1d3b",
  "version": 1,
  "size": 403,
  "vsize": 403,
  "weight": 1612,
  "locktime": 0,
  "vin": [
    {
      "txid": "5fa6f173e7eec88e3bfeb6d63a28acaccb5e7e8ca4afdca0936b9b1aa3fae6c5",
      "vout": 1,
      "scriptSig": {
        "asm": "30440220140b8660e3b198954882f6891b6d285e8608b74e4f1c7255b3f1baba2a77e03d022017d8be25573629a3043cd0af1e8f1e5248a4b1e3312584755834e98988f32894[ALL] 049019465b68e6483a95aa22695e6f904f8d992e492c656a0243823ef9114520bfcea3901cffbf774e71c90d2c36c262f7b2c874e252f8c1b3b08c5db65c272a0e",
        "hex": "4730440220140b8660e3b198954882f6891b6d285e8608b74e4f1c7255b3f1baba2a77e03d022017d8be25573629a3043cd0af1e8f1e5248a4b1e3312584755834e98988f328940141049019465b68e6483a95aa22695e6f904f8d992e492c656a0243823ef9114520bfcea3901cffbf774e71c90d2c36c262f7b2c874e252f8c1b3b08c5db65c272a0e"
      },
      "sequence": 4294967295
    }
  ],
  "vout": [
    {
      "value": 0.00005757,
      "n": 0,
      "scriptPubKey": {
        "asm": "OP_DUP OP_HASH160 946cb2e08075bcbaf157e47bcb67eb2b2339d242 OP_EQUALVERIFY OP_CHECKSIG",
        "desc": "addr(1EXoDusjGwvnjZUyKkxZ4UHEf77z6A5S4P)#03u9lduk",
        "hex": "76a914946cb2e08075bcbaf157e47bcb67eb2b2339d24288ac",
        "address": "1EXoDusjGwvnjZUyKkxZ4UHEf77z6A5S4P",
        "type": "pubkeyhash"
      }
    },
    {
      "value": 0.00005757,
      "n": 1,
      "scriptPubKey": {
        "asm": "OP_DUP OP_HASH160 66bf4a6cff8e109ee2caf6353f3cb3f4a1d2d3fb OP_EQUALVERIFY OP_CHECKSIG",
        "desc": "addr(1ANH5gQGpxYyVijz6hm3w4m9KgY3y9uk3e)#m9vxlq39",
        "hex": "76a91466bf4a6cff8e109ee2caf6353f3cb3f4a1d2d3fb88ac",
        "address": "1ANH5gQGpxYyVijz6hm3w4m9KgY3y9uk3e",
        "type": "pubkeyhash"
      }
    },
    {
      "value": 0.00011514,
      "n": 2,
      "scriptPubKey": {
        "asm": "1 049019465b68e6483a95aa22695e6f904f8d992e492c656a0243823ef9114520bfcea3901cffbf774e71c90d2c36c262f7b2c874e252f8c1b3b08c5db65c272a0e 0287d29f6b3a91f0875afb24ecf0b9c5378e93769e2a74c70fcd9255acb87cc07a 2 OP_CHECKMULTISIG",
        "desc": "multi(1,049019465b68e6483a95aa22695e6f904f8d992e492c656a0243823ef9114520bfcea3901cffbf774e71c90d2c36c262f7b2c874e252f8c1b3b08c5db65c272a0e,0287d29f6b3a91f0875afb24ecf0b9c5378e93769e2a74c70fcd9255acb87cc07a)#hagmjzhd",
        "hex": "5141049019465b68e6483a95aa22695e6f904f8d992e492c656a0243823ef9114520bfcea3901cffbf774e71c90d2c36c262f7b2c874e252f8c1b3b08c5db65c272a0e210287d29f6b3a91f0875afb24ecf0b9c5378e93769e2a74c70fcd9255acb87cc07a52ae",
        "type": "multisig"
      }
    },
    {
      "value": 0.01524985,
      "n": 3,
      "scriptPubKey": {
        "asm": "OP_DUP OP_HASH160 fad953831953fbbbe0853078a0329c13a1cee0dc OP_EQUALVERIFY OP_CHECKSIG",
        "desc": "addr(1PsNH3nb8CFqjFZQEnHv3igYHtDNv1c8gY)#nzku7lj5",
        "hex": "76a914fad953831953fbbbe0853078a0329c13a1cee0dc88ac",
        "address": "1PsNH3nb8CFqjFZQEnHv3igYHtDNv1c8gY",
        "type": "pubkeyhash"
      }
    }
  ],
  "hex": "0100000001c5e6faa31a9b6b93a0dcafa48c7e5ecbacac283ad6b6fe3b8ec8eee773f1a65f010000008a4730440220140b8660e3b198954882f6891b6d285e8608b74e4f1c7255b3f1baba2a77e03d022017d8be25573629a3043cd0af1e8f1e5248a4b1e3312584755834e98988f328940141049019465b68e6483a95aa22695e6f904f8d992e492c656a0243823ef9114520bfcea3901cffbf774e71c90d2c36c262f7b2c874e252f8c1b3b08c5db65c272a0effffffff047d160000000000001976a914946cb2e08075bcbaf157e47bcb67eb2b2339d24288ac7d160000000000001976a91466bf4a6cff8e109ee2caf6353f3cb3f4a1d2d3fb88acfa2c000000000000675141049019465b68e6483a95aa22695e6f904f8d992e492c656a0243823ef9114520bfcea3901cffbf774e71c90d2c36c262f7b2c874e252f8c1b3b08c5db65c272a0e210287d29f6b3a91f0875afb24ecf0b9c5378e93769e2a74c70fcd9255acb87cc07a52aef9441700000000001976a914fad953831953fbbbe0853078a0329c13a1cee0dc88ac00000000",
  "blockhash": "00000000000000003575961c32ba38ac17fa251a641647cd338e83cb14ffeff9",
  "confirmations": 597995,
  "time": 1408394737,
  "blocktime": 1408394737
}
