{
  "txid": "243e1d05d7098c3da5decb823707b67d4f547eb0588f26f1847ace57df7a9907",
  "hash": "243e1d05d7098c3da5decb823707b67d4f547eb0588f26f1847ace57df7a9907",
  "version": 1,
  "size": 369,
  "vsize": 369,
  "weight": 1476,
  "locktime": 0,
  "vin": [
    {
      "txid": "053c5cdcb7af03a75fa26bbdea36f0eae860c93c40561506145b88be1921f210",
      "vout": 0,
      "scriptSig": {
        "asm": "304402202d56473f0cc7e403bbdff7944ee61acd18880326bd6fa7e19737b444ee7bfeb1022030a4a0d6896572a7174c4439806f3874412eb28d44e92d483cb73f76dc8a1ac8[ALL] 04bf2f4e1700f2af35e897f116afc9caa9216a597fbce817601a33118fbb2fcfe040872ecb2299afd38bcb14957840c39a34d4201b4c7bdcfd812443b94ee79afe",
        "hex": "47304402202d56473f0cc7e403bbdff7944ee61acd18880326bd6fa7e19737b444ee7bfeb1022030a4a0d6896572a7174c4439806f3874412eb28d44e92d483cb73f76dc8a1ac8014104bf2f4e1700f2af35e897f116afc9caa9216a597fbce817601a33118fbb2fcfe040872ecb2299afd38bcb14957840c39a34d4201b4c7bdcfd812443b94ee79afe"
      },
      "sequence": 4294967295
    }
  ],
  "vout": [
    {
      "value": 0.00000780,
      "n": 0,
      "scriptPubKey": {
        "asm": "1 04bf2f4e1700f2af35e897f116afc9caa9216a597fbce817601a33118fbb2fcfe040872ecb2299afd38bcb14957840c39a34d4201b4c7bdcfd812443b94ee79afe 028e008d94a850c452be56d103bc3c8a7313691e076c8fc3af123cb3c73a261634 2 OP_CHECKMULTISIG",
        "desc": "multi(1,04bf2f4e1700f2af35e897f116afc9caa9216a597fbce817601a33118fbb2fcfe040872ecb2299afd38bcb14957840c39a34d4201b4c7bdcfd812443b94ee79afe,028e008d94a850c452be56d103bc3c8a7313691e076c8fc3af123cb3c73a261634)#huh2rv52",
        "hex": "514104bf2f4e1700f2af35e897f116afc9caa9216a597fbce817601a33118fbb2fcfe040872ecb2299afd38bcb14957840c39a34d4201b4c7bdcfd812443b94ee79afe21028e008d94a850c452be56d103bc3c8a7313691e076c8fc3af123cb3c73a26163452ae",
        "type": "multisig"
      }
    },
    {
      "value": 27.16988674,
      "n": 1,
      "scriptPubKey": {
        "asm": "OP_DUP OP_HASH160 b608bd77ebf6577263f331995e32fda49ac9708e OP_EQUALVERIFY OP_CHECKSIG",
        "desc": "addr(1HbWTBq4uZadEWndAWPATPMfZeFPtYjvNn)#k8fcjncp",
        "hex": "76a914b608bd77ebf6577263f331995e32fda49ac9708e88ac",
        "address": "1HbWTBq4uZadEWndAWPATPMfZeFPtYjvNn",
        "type": "pubkeyhash"
      }
    },
    {
      "value": 0.00000546,
      "n": 2,
      "scriptPubKey": {
        "asm": "OP_DUP OP_HASH160 946cb2e08075bcbaf157e47bcb67eb2b2339d242 OP_EQUALVERIFY OP_CHECKSIG",
        "desc": "addr(1EXoDusjGwvnjZUyKkxZ4UHEf77z6A5S4P)#03u9lduk",
        "hex": "76a914946cb2e08075bcbaf157e47bcb67eb2b2339d24288ac",
        "address": "1EXoDusjGwvnjZUyKkxZ4UHEf77z6A5S4P",
        "type": "pubkeyhash"
      }
    }
  ],
  "hex": "010000000110f22119be885b14061556403cc960e8eaf036eabd6ba25fa703afb7dc5c3c05000000008a47304402202d56473f0cc7e403bbdff7944ee61acd18880326bd6fa7e19737b444ee7bfeb1022030a4a0d6896572a7174c4439806f3874412eb28d44e92d483cb73f76dc8a1ac8014104bf2f4e1700f2af35e897f116afc9caa9216a597fbce817601a33118fbb2fcfe040872ecb2299afd38bcb14957840c39a34d4201b4c7bdcfd812443b94ee79afeffffffff030c0300000000000067514104bf2f4e1700f2af35e897f116afc9caa9216a597fbce817601a33118fbb2fcfe040872ecb2299afd38bcb14957840c39a34d4201b4c7bdcfd812443b94ee79afe21028e008d94a850c452be56d103bc3c8a7313691e076c8fc3af123cb3c73a26163452ae02f5f1a1000000001976a914b608bd77ebf6577263f331995e32fda49ac9708e88ac22020000000000001976a914946cb2e08075bcbaf157e47bcb67eb2b2339d24288ac00000000",
  "blockhash": "0000000000000000092f48c8cf4e053cbc290480bbdd422add4dce5974492473",
  "confirmations": 546792,
  "time": 1438203616,
  "blocktime": 1438203616
}