{
  "txid": "0937f162eda99e5aeeab550b26ea7cdd1322a3281fe1721b6ae9c8eb0eab374d",
  "hash": "0937f162eda99e5aeeab550b26ea7cdd1322a3281fe1721b6ae9c8eb0eab374d",
  "version": 1,
  "size": 370,
  "vsize": 370,
  "weight": 1480,
  "locktime": 0,
  "vin": [
    {
      "txid": "b798f0b4edca0b63d2dd3e9e81335044fed807796f20a97aedac0bfb6da95236",
      "vout": 2,
      "scriptSig": {
        "asm": "30450221008df05fff660d9f4ca79437185bed7fea77d2b4bd35da026d823185e50d9360b902201e9806e5a0e6450aa918a718f464f10deaf0279f7b894a1eb828c3c30a31083c[ALL] 04dc5f7f45007d5a38be2187641c69cb450e9848e8c029fdc8d6bf1cdbb3d11ae419214aae603e3bff7f12bd7f71aaeb46b4e2116952ec3d8b9ee0a1f2de4e2ef4",
        "hex": "4830450221008df05fff660d9f4ca79437185bed7fea77d2b4bd35da026d823185e50d9360b902201e9806e5a0e6450aa918a718f464f10deaf0279f7b894a1eb828c3c30a31083c014104dc5f7f45007d5a38be2187641c69cb450e9848e8c029fdc8d6bf1cdbb3d11ae419214aae603e3bff7f12bd7f71aaeb46b4e2116952ec3d8b9ee0a1f2de4e2ef4"
      },
      "sequence": 4294967295
    }
  ],
  "vout": [
    {
      "value": 0.00303766,
      "n": 0,
      "scriptPubKey": {
        "asm": "OP_DUP OP_HASH160 f6b75c526ce508fdadd316d591cd662a175fe2aa OP_EQUALVERIFY OP_CHECKSIG",
        "desc": "addr(1PVWtK1ATnvbRaRceLRH5xj8XV1LxUBu7n)#pa4zaq5w",
        "hex": "76a914f6b75c526ce508fdadd316d591cd662a175fe2aa88ac",
        "address": "1PVWtK1ATnvbRaRceLRH5xj8XV1LxUBu7n",
        "type": "pubkeyhash"
      }
    },
    {
      "value": 0.00006000,
      "n": 1,
      "scriptPubKey": {
        "asm": "OP_DUP OP_HASH160 946cb2e08075bcbaf157e47bcb67eb2b2339d242 OP_EQUALVERIFY OP_CHECKSIG",
        "desc": "addr(1EXoDusjGwvnjZUyKkxZ4UHEf77z6A5S4P)#03u9lduk",
        "hex": "76a914946cb2e08075bcbaf157e47bcb67eb2b2339d24288ac",
        "address": "1EXoDusjGwvnjZUyKkxZ4UHEf77z6A5S4P",
        "type": "pubkeyhash"
      }
    },
    {
      "value": 0.00012000,
      "n": 2,
      "scriptPubKey": {
        "asm": "1 04dc5f7f45007d5a38be2187641c69cb450e9848e8c029fdc8d6bf1cdbb3d11ae419214aae603e3bff7f12bd7f71aaeb46b4e2116952ec3d8b9ee0a1f2de4e2ef4 02caa5e7913fc542b893cbd268186ea9011fff6709a565c0668d269cf65f020385 2 OP_CHECKMULTISIG",
        "desc": "multi(1,04dc5f7f45007d5a38be2187641c69cb450e9848e8c029fdc8d6bf1cdbb3d11ae419214aae603e3bff7f12bd7f71aaeb46b4e2116952ec3d8b9ee0a1f2de4e2ef4,02caa5e7913fc542b893cbd268186ea9011fff6709a565c0668d269cf65f020385)#49rjfezc",
        "hex": "514104dc5f7f45007d5a38be2187641c69cb450e9848e8c029fdc8d6bf1cdbb3d11ae419214aae603e3bff7f12bd7f71aaeb46b4e2116952ec3d8b9ee0a1f2de4e2ef42102caa5e7913fc542b893cbd268186ea9011fff6709a565c0668d269cf65f02038552ae",
        "type": "multisig"
      }
    }
  ],
  "hex": "01000000013652a96dfb0baced7aa9206f7907d8fe445033819e3eddd2630bcaedb4f098b7020000008b4830450221008df05fff660d9f4ca79437185bed7fea77d2b4bd35da026d823185e50d9360b902201e9806e5a0e6450aa918a718f464f10deaf0279f7b894a1eb828c3c30a31083c014104dc5f7f45007d5a38be2187641c69cb450e9848e8c029fdc8d6bf1cdbb3d11ae419214aae603e3bff7f12bd7f71aaeb46b4e2116952ec3d8b9ee0a1f2de4e2ef4ffffffff0396a20400000000001976a914f6b75c526ce508fdadd316d591cd662a175fe2aa88ac70170000000000001976a914946cb2e08075bcbaf157e47bcb67eb2b2339d24288ace02e00000000000067514104dc5f7f45007d5a38be2187641c69cb450e9848e8c029fdc8d6bf1cdbb3d11ae419214aae603e3bff7f12bd7f71aaeb46b4e2116952ec3d8b9ee0a1f2de4e2ef42102caa5e7913fc542b893cbd268186ea9011fff6709a565c0668d269cf65f02038552ae00000000",
  "blockhash": "00000000000000002599f9515045e352a40cf9f0361e2e36c44372b28bb25a09",
  "confirmations": 604714,
  "time": 1405448678,
  "blocktime": 1405448678
}
