{
  "txid": "eda3d2bbb8125397f4d4909ea25d845dc451e8a3206035bf0d736bb3ece5d758",
  "hash": "eda3d2bbb8125397f4d4909ea25d845dc451e8a3206035bf0d736bb3ece5d758",
  "version": 1,
  "size": 516,
  "vsize": 516,
  "weight": 2064,
  "locktime": 0,
  "vin": [
    {
      "txid": "85538aa567d929a400342043299725a49518d32f2ed238a25c21831f84dc83e5",
      "vout": 2,
      "scriptSig": {
        "asm": "3045022020102f839cfc648685cd1cfe185d5ed76368db8faee2ad2a7bc620f04c8c7d45022100ac8703ffa3170bf777eb1b1461d78cdbb5e3a6e1051aa46a80d9f30fe705a424[ALL] 046da28da8843ce92babea0d8685ba9c0131b6d5bcbacf5bc9dc89c974724d7ab50ec2fb0be0bcc640117ad89d1c7abaa934eb7d626c2fa8497dafde485272a4cb",
        "hex": "483045022020102f839cfc648685cd1cfe185d5ed76368db8faee2ad2a7bc620f04c8c7d45022100ac8703ffa3170bf777eb1b1461d78cdbb5e3a6e1051aa46a80d9f30fe705a4240141046da28da8843ce92babea0d8685ba9c0131b6d5bcbacf5bc9dc89c974724d7ab50ec2fb0be0bcc640117ad89d1c7abaa934eb7d626c2fa8497dafde485272a4cb"
      },
      "sequence": 4294967295
    }
  ],
  "vout": [
    {
      "value": 0.00005757,
      "n": 0,
      "scriptPubKey": {
        "asm": "OP_DUP OP_HASH160 946cb2e08075bcbaf157e47bcb67eb2b2339d242 OP_EQUALVERIFY OP_CHECKSIG",
        "desc": "addr(1EXoDusjGwvnjZUyKkxZ4UHEf77z6A5S4P)#03u9lduk",
        "hex": "76a914946cb2e08075bcbaf157e47bcb67eb2b2339d24288ac",
        "address": "1EXoDusjGwvnjZUyKkxZ4UHEf77z6A5S4P",
        "type": "pubkeyhash"
      }
    },
    {
      "value": 0.04508524,
      "n": 1,
      "scriptPubKey": {
        "asm": "OP_DUP OP_HASH160 7e7bc8c1b4ab7b4e99cefa5d40a7fa394f5c7d7e OP_EQUALVERIFY OP_CHECKSIG",
        "desc": "addr(1CXnRrBm3NezYeAcu555Ubu7swwKsn26dT)#kapq6hpk",
        "hex": "76a9147e7bc8c1b4ab7b4e99cefa5d40a7fa394f5c7d7e88ac",
        "address": "1CXnRrBm3NezYeAcu555Ubu7swwKsn26dT",
        "type": "pubkeyhash"
      }
    },
    {
      "value": 0.00017271,
      "n": 2,
      "scriptPubKey": {
        "asm": "1 046da28da8843ce92babea0d8685ba9c0131b6d5bcbacf5bc9dc89c974724d7ab50ec2fb0be0bcc640117ad89d1c7abaa934eb7d626c2fa8497dafde485272a4cb 024ac209b8e3f321f96c4a8942c81ce175a3022d60462da2ada09fe4d2d0edf141 02886ed8aa4cd39f543bf2ec7f39a5d5a1ec77e33de102cb3227020098454a8ce9 3 OP_CHECKMULTISIG",
        "desc": "multi(1,046da28da8843ce92babea0d8685ba9c0131b6d5bcbacf5bc9dc89c974724d7ab50ec2fb0be0bcc640117ad89d1c7abaa934eb7d626c2fa8497dafde485272a4cb,024ac209b8e3f321f96c4a8942c81ce175a3022d60462da2ada09fe4d2d0edf141,02886ed8aa4cd39f543bf2ec7f39a5d5a1ec77e33de102cb3227020098454a8ce9)#aglvsapv",
        "hex": "5141046da28da8843ce92babea0d8685ba9c0131b6d5bcbacf5bc9dc89c974724d7ab50ec2fb0be0bcc640117ad89d1c7abaa934eb7d626c2fa8497dafde485272a4cb21024ac209b8e3f321f96c4a8942c81ce175a3022d60462da2ada09fe4d2d0edf1412102886ed8aa4cd39f543bf2ec7f39a5d5a1ec77e33de102cb3227020098454a8ce953ae",
        "type": "multisig"
      }
    },
    {
      "value": 0.00011514,
      "n": 3,
      "scriptPubKey": {
        "asm": "1 046da28da8843ce92babea0d8685ba9c0131b6d5bcbacf5bc9dc89c974724d7ab50ec2fb0be0bcc640117ad89d1c7abaa934eb7d626c2fa8497dafde485272a4cb 022d8987efd05931a4a17382504d89bbb2f5946ec831734756d7aa2598162b67ef 2 OP_CHECKMULTISIG",
        "desc": "multi(1,046da28da8843ce92babea0d8685ba9c0131b6d5bcbacf5bc9dc89c974724d7ab50ec2fb0be0bcc640117ad89d1c7abaa934eb7d626c2fa8497dafde485272a4cb,022d8987efd05931a4a17382504d89bbb2f5946ec831734756d7aa2598162b67ef)#79m2gj7l",
        "hex": "5141046da28da8843ce92babea0d8685ba9c0131b6d5bcbacf5bc9dc89c974724d7ab50ec2fb0be0bcc640117ad89d1c7abaa934eb7d626c2fa8497dafde485272a4cb21022d8987efd05931a4a17382504d89bbb2f5946ec831734756d7aa2598162b67ef52ae",
        "type": "multisig"
      }
    }
  ],
  "hex": "0100000001e583dc841f83215ca238d22e2fd31895a425972943203400a429d967a58a5385020000008b483045022020102f839cfc648685cd1cfe185d5ed76368db8faee2ad2a7bc620f04c8c7d45022100ac8703ffa3170bf777eb1b1461d78cdbb5e3a6e1051aa46a80d9f30fe705a4240141046da28da8843ce92babea0d8685ba9c0131b6d5bcbacf5bc9dc89c974724d7ab50ec2fb0be0bcc640117ad89d1c7abaa934eb7d626c2fa8497dafde485272a4cbffffffff047d160000000000001976a914946cb2e08075bcbaf157e47bcb67eb2b2339d24288ac6ccb4400000000001976a9147e7bc8c1b4ab7b4e99cefa5d40a7fa394f5c7d7e88ac7743000000000000895141046da28da8843ce92babea0d8685ba9c0131b6d5bcbacf5bc9dc89c974724d7ab50ec2fb0be0bcc640117ad89d1c7abaa934eb7d626c2fa8497dafde485272a4cb21024ac209b8e3f321f96c4a8942c81ce175a3022d60462da2ada09fe4d2d0edf1412102886ed8aa4cd39f543bf2ec7f39a5d5a1ec77e33de102cb3227020098454a8ce953aefa2c000000000000675141046da28da8843ce92babea0d8685ba9c0131b6d5bcbacf5bc9dc89c974724d7ab50ec2fb0be0bcc640117ad89d1c7abaa934eb7d626c2fa8497dafde485272a4cb21022d8987efd05931a4a17382504d89bbb2f5946ec831734756d7aa2598162b67ef52ae00000000",
  "blockhash": "0000000000000000234e74e72f6775c45936e9f918ebfc168db3fb2c91c84114",
  "confirmations": 606557,
  "time": 1404401559,
  "blocktime": 1404401559
}
