{
  "txid": "c1ff92f278432d6e14e08ab60f2dceab4d8b4396b4d7e62b5b10e88e840b39d4",
  "hash": "c1ff92f278432d6e14e08ab60f2dceab4d8b4396b4d7e62b5b10e88e840b39d4",
  "version": 1,
  "size": 403,
  "vsize": 403,
  "weight": 1612,
  "locktime": 0,
  "vin": [
    {
      "txid": "ad42161f67791bcd9a61734202bcc3b47397dcc8e0de3a58322fe412104128c4",
      "vout": 0,
      "scriptSig": {
        "asm": "30440220628f716d9aac1fcd07ae4a7aff17b1ba2fa05068c58f7b54bfb90ea7ac255a290220447a58825f06b761f36964d29d106b76cf7f3daa3928f00839402fb73aa92830[ALL] 04dc5f7f45007d5a38be2187641c69cb450e9848e8c029fdc8d6bf1cdbb3d11ae419214aae603e3bff7f12bd7f71aaeb46b4e2116952ec3d8b9ee0a1f2de4e2ef4",
        "hex": "4730440220628f716d9aac1fcd07ae4a7aff17b1ba2fa05068c58f7b54bfb90ea7ac255a290220447a58825f06b761f36964d29d106b76cf7f3daa3928f00839402fb73aa92830014104dc5f7f45007d5a38be2187641c69cb450e9848e8c029fdc8d6bf1cdbb3d11ae419214aae603e3bff7f12bd7f71aaeb46b4e2116952ec3d8b9ee0a1f2de4e2ef4"
      },
      "sequence": 4294967295
    }
  ],
  "vout": [
    {
      "value": 0.00005757,
      "n": 0,
      "scriptPubKey": {
        "asm": "OP_DUP OP_HASH160 f603fad065ebbbf66ce7880c968004195c4f89b8 OP_EQUALVERIFY OP_CHECKSIG",
        "desc": "addr(1PRozi3UhpXtC4kZtPD1nfCFXJkXrV27Wp)#l9w4eu8y",
        "hex": "76a914f603fad065ebbbf66ce7880c968004195c4f89b888ac",
        "address": "1PRozi3UhpXtC4kZtPD1nfCFXJkXrV27Wp",
        "type": "pubkeyhash"
      }
    },
    {
      "value": 0.00005757,
      "n": 1,
      "scriptPubKey": {
        "asm": "OP_DUP OP_HASH160 946cb2e08075bcbaf157e47bcb67eb2b2339d242 OP_EQUALVERIFY OP_CHECKSIG",
        "desc": "addr(1EXoDusjGwvnjZUyKkxZ4UHEf77z6A5S4P)#03u9lduk",
        "hex": "76a914946cb2e08075bcbaf157e47bcb67eb2b2339d24288ac",
        "address": "1EXoDusjGwvnjZUyKkxZ4UHEf77z6A5S4P",
        "type": "pubkeyhash"
      }
    },
    {
      "value": 0.00265370,
      "n": 2,
      "scriptPubKey": {
        "asm": "OP_DUP OP_HASH160 f6b75c526ce508fdadd316d591cd662a175fe2aa OP_EQUALVERIFY OP_CHECKSIG",
        "desc": "addr(1PVWtK1ATnvbRaRceLRH5xj8XV1LxUBu7n)#pa4zaq5w",
        "hex": "76a914f6b75c526ce508fdadd316d591cd662a175fe2aa88ac",
        "address": "1PVWtK1ATnvbRaRceLRH5xj8XV1LxUBu7n",
        "type": "pubkeyhash"
      }
    },
    {
      "value": 0.00011514,
      "n": 3,
      "scriptPubKey": {
        "asm": "1 04dc5f7f45007d5a38be2187641c69cb450e9848e8c029fdc8d6bf1cdbb3d11ae419214aae603e3bff7f12bd7f71aaeb46b4e2116952ec3d8b9ee0a1f2de4e2ef4 02caa5e7913cc542b889cbd268186b5ce01eff6709a565c0668d269cf65f0203d4 2 OP_CHECKMULTISIG",
        "desc": "multi(1,04dc5f7f45007d5a38be2187641c69cb450e9848e8c029fdc8d6bf1cdbb3d11ae419214aae603e3bff7f12bd7f71aaeb46b4e2116952ec3d8b9ee0a1f2de4e2ef4,02caa5e7913cc542b889cbd268186b5ce01eff6709a565c0668d269cf65f0203d4)#uhtal047",
        "hex": "514104dc5f7f45007d5a38be2187641c69cb450e9848e8c029fdc8d6bf1cdbb3d11ae419214aae603e3bff7f12bd7f71aaeb46b4e2116952ec3d8b9ee0a1f2de4e2ef42102caa5e7913cc542b889cbd268186b5ce01eff6709a565c0668d269cf65f0203d452ae",
        "type": "multisig"
      }
    }
  ],
  "hex": "0100000001c428411012e42f32583adee0c8dc9773b4c3bc024273619acd1b79671f1642ad000000008a4730440220628f716d9aac1fcd07ae4a7aff17b1ba2fa05068c58f7b54bfb90ea7ac255a290220447a58825f06b761f36964d29d106b76cf7f3daa3928f00839402fb73aa92830014104dc5f7f45007d5a38be2187641c69cb450e9848e8c029fdc8d6bf1cdbb3d11ae419214aae603e3bff7f12bd7f71aaeb46b4e2116952ec3d8b9ee0a1f2de4e2ef4ffffffff047d160000000000001976a914f603fad065ebbbf66ce7880c968004195c4f89b888ac7d160000000000001976a914946cb2e08075bcbaf157e47bcb67eb2b2339d24288ac9a0c0400000000001976a914f6b75c526ce508fdadd316d591cd662a175fe2aa88acfa2c00000000000067514104dc5f7f45007d5a38be2187641c69cb450e9848e8c029fdc8d6bf1cdbb3d11ae419214aae603e3bff7f12bd7f71aaeb46b4e2116952ec3d8b9ee0a1f2de4e2ef42102caa5e7913cc542b889cbd268186b5ce01eff6709a565c0668d269cf65f0203d452ae00000000",
  "blockhash": "0000000000000000293cff120461e5ecd4f3570c859e41091df16e23ef5b510e",
  "confirmations": 600028,
  "time": 1407364434,
  "blocktime": 1407364434
}
