{
  "txid": "3bfadbdaa445bb0b5c6ba35d03cad7dc5631a0c26229edd234d0dc409619f03f",
  "hash": "3bfadbdaa445bb0b5c6ba35d03cad7dc5631a0c26229edd234d0dc409619f03f",
  "version": 1,
  "size": 662,
  "vsize": 662,
  "weight": 2648,
  "locktime": 0,
  "vin": [
    {
      "txid": "0db0ac67e11b427c39fdc25775b6b0caf2e9f001c1301acf6863bd88dbe8395e",
      "vout": 0,
      "scriptSig": {
        "asm": "30450220705ba22279867304b1d660652400d29efb8cd201a26b1a4c7908e42403d256ef022100f17c9dc71caac6f43578171ebed106838687b5be674f1e88e1753d734dc2e8fd[ALL] 04d04e52ef6ac676394089e25fd1a2d69865cf3513e878331041b00238f9b58444565448bc7b7a153c25ba609556b7f6545e2ca124aba749ef4f98a44415d64131",
        "hex": "4830450220705ba22279867304b1d660652400d29efb8cd201a26b1a4c7908e42403d256ef022100f17c9dc71caac6f43578171ebed106838687b5be674f1e88e1753d734dc2e8fd014104d04e52ef6ac676394089e25fd1a2d69865cf3513e878331041b00238f9b58444565448bc7b7a153c25ba609556b7f6545e2ca124aba749ef4f98a44415d64131"
      },
      "sequence": 4294967295
    }
  ],
  "vout": [
    {
      "value": 0.00898187,
      "n": 0,
      "scriptPubKey": {
        "asm": "OP_DUP OP_HASH160 5409b84f671bd227249fae4b06094db18c2e4232 OP_EQUALVERIFY OP_CHECKSIG",
        "desc": "addr(18fMQUB86vgx3WaQnYBdx5D2d5zYN8zKtd)#gdvgzhr0",
        "hex": "76a9145409b84f671bd227249fae4b06094db18c2e423288ac",
        "address": "18fMQUB86vgx3WaQnYBdx5D2d5zYN8zKtd",
        "type": "pubkeyhash"
      }
    },
    {
      "value": 0.00005757,
      "n": 1,
      "scriptPubKey": {
        "asm": "OP_DUP OP_HASH160 946cb2e08075bcbaf157e47bcb67eb2b2339d242 OP_EQUALVERIFY OP_CHECKSIG",
        "desc": "addr(1EXoDusjGwvnjZUyKkxZ4UHEf77z6A5S4P)#03u9lduk",
        "hex": "76a914946cb2e08075bcbaf157e47bcb67eb2b2339d24288ac",
        "address": "1EXoDusjGwvnjZUyKkxZ4UHEf77z6A5S4P",
        "type": "pubkeyhash"
      }
    },
    {
      "value": 0.00017271,
      "n": 2,
      "scriptPubKey": {
        "asm": "1 04d04e52ef6ac676394089e25fd1a2d69865cf3513e878331041b00238f9b58444565448bc7b7a153c25ba609556b7f6545e2ca124aba749ef4f98a44415d64131 0252de6c3282114e6e52641ca26a4ca17bf2bde80cd55f2db142d4107595a92b1b 02ee2eb7ae9bba1ac35d9037188648ff1e51c8eebde0d0c8c8d827eb0aeef943a4 3 OP_CHECKMULTISIG",
        "desc": "multi(1,04d04e52ef6ac676394089e25fd1a2d69865cf3513e878331041b00238f9b58444565448bc7b7a153c25ba609556b7f6545e2ca124aba749ef4f98a44415d64131,0252de6c3282114e6e52641ca26a4ca17bf2bde80cd55f2db142d4107595a92b1b,02ee2eb7ae9bba1ac35d9037188648ff1e51c8eebde0d0c8c8d827eb0aeef943a4)#dc7l3mh7",
        "hex": "514104d04e52ef6ac676394089e25fd1a2d69865cf3513e878331041b00238f9b58444565448bc7b7a153c25ba609556b7f6545e2ca124aba749ef4f98a44415d64131210252de6c3282114e6e52641ca26a4ca17bf2bde80cd55f2db142d4107595a92b1b2102ee2eb7ae9bba1ac35d9037188648ff1e51c8eebde0d0c8c8d827eb0aeef943a453ae",
        "type": "multisig"
      }
    },
    {
      "value": 0.00017271,
      "n": 3,
      "scriptPubKey": {
        "asm": "1 04d04e52ef6ac676394089e25fd1a2d69865cf3513e878331041b00238f9b58444565448bc7b7a153c25ba609556b7f6545e2ca124aba749ef4f98a44415d64131 02840c1f4490466d8ef27d371f507d838df4c7210b5d03c08c01d1039b30467e8e 0266700fab94f8f25ecd6fa09d1d0374ab3e098c9794148862c88558c040d77574 3 OP_CHECKMULTISIG",
        "desc": "multi(1,04d04e52ef6ac676394089e25fd1a2d69865cf3513e878331041b00238f9b58444565448bc7b7a153c25ba609556b7f6545e2ca124aba749ef4f98a44415d64131,02840c1f4490466d8ef27d371f507d838df4c7210b5d03c08c01d1039b30467e8e,0266700fab94f8f25ecd6fa09d1d0374ab3e098c9794148862c88558c040d77574)#d4qg0v3k",
        "hex": "514104d04e52ef6ac676394089e25fd1a2d69865cf3513e878331041b00238f9b58444565448bc7b7a153c25ba609556b7f6545e2ca124aba749ef4f98a44415d641312102840c1f4490466d8ef27d371f507d838df4c7210b5d03c08c01d1039b30467e8e210266700fab94f8f25ecd6fa09d1d0374ab3e098c9794148862c88558c040d7757453ae",
        "type": "multisig"
      }
    },
    {
      "value": 0.00011514,
      "n": 4,
      "scriptPubKey": {
        "asm": "1 04d04e52ef6ac676394089e25fd1a2d69865cf3513e878331041b00238f9b58444565448bc7b7a153c25ba609556b7f6545e2ca124aba749ef4f98a44415d64131 02e4c853bed3cc341c36162939c929970b3f23dc49c202b4a21bdafeab887c8b3b 2 OP_CHECKMULTISIG",
        "desc": "multi(1,04d04e52ef6ac676394089e25fd1a2d69865cf3513e878331041b00238f9b58444565448bc7b7a153c25ba609556b7f6545e2ca124aba749ef4f98a44415d64131,02e4c853bed3cc341c36162939c929970b3f23dc49c202b4a21bdafeab887c8b3b)#9dtl9a0n",
        "hex": "514104d04e52ef6ac676394089e25fd1a2d69865cf3513e878331041b00238f9b58444565448bc7b7a153c25ba609556b7f6545e2ca124aba749ef4f98a44415d641312102e4c853bed3cc341c36162939c929970b3f23dc49c202b4a21bdafeab887c8b3b52ae",
        "type": "multisig"
      }
    }
  ],
  "hex": "01000000015e39e8db88bd6368cf1a30c101f0e9f2cab0b67557c2fd397c421be167acb00d000000008b4830450220705ba22279867304b1d660652400d29efb8cd201a26b1a4c7908e42403d256ef022100f17c9dc71caac6f43578171ebed106838687b5be674f1e88e1753d734dc2e8fd014104d04e52ef6ac676394089e25fd1a2d69865cf3513e878331041b00238f9b58444565448bc7b7a153c25ba609556b7f6545e2ca124aba749ef4f98a44415d64131ffffffff058bb40d00000000001976a9145409b84f671bd227249fae4b06094db18c2e423288ac7d160000000000001976a914946cb2e08075bcbaf157e47bcb67eb2b2339d24288ac774300000000000089514104d04e52ef6ac676394089e25fd1a2d69865cf3513e878331041b00238f9b58444565448bc7b7a153c25ba609556b7f6545e2ca124aba749ef4f98a44415d64131210252de6c3282114e6e52641ca26a4ca17bf2bde80cd55f2db142d4107595a92b1b2102ee2eb7ae9bba1ac35d9037188648ff1e51c8eebde0d0c8c8d827eb0aeef943a453ae774300000000000089514104d04e52ef6ac676394089e25fd1a2d69865cf3513e878331041b00238f9b58444565448bc7b7a153c25ba609556b7f6545e2ca124aba749ef4f98a44415d641312102840c1f4490466d8ef27d371f507d838df4c7210b5d03c08c01d1039b30467e8e210266700fab94f8f25ecd6fa09d1d0374ab3e098c9794148862c88558c040d7757453aefa2c00000000000067514104d04e52ef6ac676394089e25fd1a2d69865cf3513e878331041b00238f9b58444565448bc7b7a153c25ba609556b7f6545e2ca124aba749ef4f98a44415d641312102e4c853bed3cc341c36162939c929970b3f23dc49c202b4a21bdafeab887c8b3b52ae00000000",
  "blockhash": "000000000000000008787ec9ef428b3fd228026481c9c7a835b0165b54c21ff1",
  "confirmations": 599014,
  "time": 1407873559,
  "blocktime": 1407873559
}
