{
  "txid": "725ba706446baa48a2416ab2ffc229c56600d59f31b782ac6c5c82868e1ad97f",
  "hash": "725ba706446baa48a2416ab2ffc229c56600d59f31b782ac6c5c82868e1ad97f",
  "version": 1,
  "size": 305,
  "vsize": 305,
  "weight": 1220,
  "locktime": 0,
  "vin": [
    {
      "txid": "488c6da638c4190b852e8bbfd5d8080d29e1a786142b0b32d5acb4cf5f9a0eb7",
      "vout": 1,
      "scriptSig": {
        "asm": "3044022060358343349377df3f541407766fb5be121302742b926914cccad7a090c6f5cc022029b8b20a6f45666e4a397d50ff2068f599875b58bd45589e4d83ef89284cf1ef[ALL] 03b0e9b494983a3977cbb68de0a1edb412376e1613e78e6966c5dfbbb3e189ae9b",
        "hex": "473044022060358343349377df3f541407766fb5be121302742b926914cccad7a090c6f5cc022029b8b20a6f45666e4a397d50ff2068f599875b58bd45589e4d83ef89284cf1ef012103b0e9b494983a3977cbb68de0a1edb412376e1613e78e6966c5dfbbb3e189ae9b"
      },
      "sequence": 4294967295
    }
  ],
  "vout": [
    {
      "value": 0.00000684,
      "n": 0,
      "scriptPubKey": {
        "asm": "1 03b0e9b494983a3977cbb68de0a1edb412376e1613e78e6966c5dfbbb3e189ae9b 023809d6c9ed5edbdd79e6f15e5ce33eb444e2a539c911ebcfa2f8b280f4bd6349 2 OP_CHECKMULTISIG",
        "desc": "multi(1,03b0e9b494983a3977cbb68de0a1edb412376e1613e78e6966c5dfbbb3e189ae9b,023809d6c9ed5edbdd79e6f15e5ce33eb444e2a539c911ebcfa2f8b280f4bd6349)#gf2evq08",
        "hex": "512103b0e9b494983a3977cbb68de0a1edb412376e1613e78e6966c5dfbbb3e189ae9b21023809d6c9ed5edbdd79e6f15e5ce33eb444e2a539c911ebcfa2f8b280f4bd634952ae",
        "type": "multisig"
      }
    },
    {
      "value": 0.00000546,
      "n": 1,
      "scriptPubKey": {
        "asm": "OP_DUP OP_HASH160 946cb2e08075bcbaf157e47bcb67eb2b2339d242 OP_EQUALVERIFY OP_CHECKSIG",
        "desc": "addr(1EXoDusjGwvnjZUyKkxZ4UHEf77z6A5S4P)#03u9lduk",
        "hex": "76a914946cb2e08075bcbaf157e47bcb67eb2b2339d24288ac",
        "address": "1EXoDusjGwvnjZUyKkxZ4UHEf77z6A5S4P",
        "type": "pubkeyhash"
      }
    },
    {
      "value": 0.01932120,
      "n": 2,
      "scriptPubKey": {
        "asm": "OP_DUP OP_HASH160 fbbdb3ce0e77ce7bb47b98229250f5532c3096ee OP_EQUALVERIFY OP_CHECKSIG",
        "desc": "addr(1Px5ruEuWdtvkG3AJ1sJ8Q7ckV8B1f3us5)#uudxkzsx",
        "hex": "76a914fbbdb3ce0e77ce7bb47b98229250f5532c3096ee88ac",
        "address": "1Px5ruEuWdtvkG3AJ1sJ8Q7ckV8B1f3us5",
        "type": "pubkeyhash"
      }
    }
  ],
  "hex": "0100000001b70e9a5fcfb4acd5320b2b1486a7e1290d08d8d5bf8b2e850b19c438a66d8c48010000006a473044022060358343349377df3f541407766fb5be121302742b926914cccad7a090c6f5cc022029b8b20a6f45666e4a397d50ff2068f599875b58bd45589e4d83ef89284cf1ef012103b0e9b494983a3977cbb68de0a1edb412376e1613e78e6966c5dfbbb3e189ae9bffffffff03ac0200000000000047512103b0e9b494983a3977cbb68de0a1edb412376e1613e78e6966c5dfbbb3e189ae9b21023809d6c9ed5edbdd79e6f15e5ce33eb444e2a539c911ebcfa2f8b280f4bd634952ae22020000000000001976a914946cb2e08075bcbaf157e47bcb67eb2b2339d24288ac587b1d00000000001976a914fbbdb3ce0e77ce7bb47b98229250f5532c3096ee88ac00000000",
  "blockhash": "00000000000000000f384b3ab54bf14a71e6f1fbe8d8a4ce88f26f3ebfaed374",
  "confirmations": 549154,
  "time": 1436818546,
  "blocktime": 1436818546
}