{
  "txid": "9a017721f168c0a733d7a8495ffbab102c5c56ac3907f57382dc10a18357b004",
  "hash": "9a017721f168c0a733d7a8495ffbab102c5c56ac3907f57382dc10a18357b004",
  "version": 1,
  "size": 404,
  "vsize": 404,
  "weight": 1616,
  "locktime": 0,
  "vin": [
    {
      "txid": "f706f60ff3f8cfb4161e9135af82d432f5bc588cae77dfdfedde011ec8baf287",
      "vout": 2,
      "scriptSig": {
        "asm": "3045022100c7647b05dacc438f91ceaf9beaf3f74f22ec3fe609da6649a91410706650a4b602201620ed55f36d3c7d02befe3b21394d0d972165c35c373c68625ae070a1e34af5[ALL] 04c66dbbe3a2dd25ab6ddd3eaa35356166c5f55fba2e76772ffcfa1e4ffa6ae779a5adad05d8b432d2388460f77e7d5cbe92f2bdf0a73fc947a361c3e512dba4a6",
        "hex": "483045022100c7647b05dacc438f91ceaf9beaf3f74f22ec3fe609da6649a91410706650a4b602201620ed55f36d3c7d02befe3b21394d0d972165c35c373c68625ae070a1e34af5014104c66dbbe3a2dd25ab6ddd3eaa35356166c5f55fba2e76772ffcfa1e4ffa6ae779a5adad05d8b432d2388460f77e7d5cbe92f2bdf0a73fc947a361c3e512dba4a6"
      },
      "sequence": 4294967295
    }
  ],
  "vout": [
    {
      "value": 0.00005757,
      "n": 0,
      "scriptPubKey": {
        "asm": "OP_DUP OP_HASH160 946cb2e08075bcbaf157e47bcb67eb2b2339d242 OP_EQUALVERIFY OP_CHECKSIG",
        "desc": "addr(1EXoDusjGwvnjZUyKkxZ4UHEf77z6A5S4P)#03u9lduk",
        "hex": "76a914946cb2e08075bcbaf157e47bcb67eb2b2339d24288ac",
        "address": "1EXoDusjGwvnjZUyKkxZ4UHEf77z6A5S4P",
        "type": "pubkeyhash"
      }
    },
    {
      "value": 0.00011514,
      "n": 1,
      "scriptPubKey": {
        "asm": "1 04c66dbbe3a2dd25ab6ddd3eaa35356166c5f55fba2e76772ffcfa1e4ffa6ae779a5adad05d8b432d2388460f77e7d5cbe92f2bdf0a73fc947a361c3e512dba4a6 02b927ebeb689d4f07adccbae96ccf75f01635a94c7b0650bb0d93fe45e092d748 025cf4c84c8132e57b13a6d7f49d63954cf545377d25de7beeb5b5ad33da948bdc 3 OP_CHECKMULTISIG",
        "desc": "multi(1,04c66dbbe3a2dd25ab6ddd3eaa35356166c5f55fba2e76772ffcfa1e4ffa6ae779a5adad05d8b432d2388460f77e7d5cbe92f2bdf0a73fc947a361c3e512dba4a6,02b927ebeb689d4f07adccbae96ccf75f01635a94c7b0650bb0d93fe45e092d748,025cf4c84c8132e57b13a6d7f49d63954cf545377d25de7beeb5b5ad33da948bdc)#29g6mn23",
        "hex": "514104c66dbbe3a2dd25ab6ddd3eaa35356166c5f55fba2e76772ffcfa1e4ffa6ae779a5adad05d8b432d2388460f77e7d5cbe92f2bdf0a73fc947a361c3e512dba4a62102b927ebeb689d4f07adccbae96ccf75f01635a94c7b0650bb0d93fe45e092d74821025cf4c84c8132e57b13a6d7f49d63954cf545377d25de7beeb5b5ad33da948bdc53ae",
        "type": "multisig"
      }
    },
    {
      "value": 0.00121243,
      "n": 2,
      "scriptPubKey": {
        "asm": "OP_DUP OP_HASH160 bd6acf2a99430ec6707785f0f7d8512efc621882 OP_EQUALVERIFY OP_CHECKSIG",
        "desc": "addr(1JGYfVZ8Ghp4L8igCGgfjVtF4cWotsHhmn)#3r2k4zd6",
        "hex": "76a914bd6acf2a99430ec6707785f0f7d8512efc62188288ac",
        "address": "1JGYfVZ8Ghp4L8igCGgfjVtF4cWotsHhmn",
        "type": "pubkeyhash"
      }
    }
  ],
  "hex": "010000000187f2bac81e01deeddfdf77ae8c58bcf532d482af35911e16b4cff8f30ff606f7020000008b483045022100c7647b05dacc438f91ceaf9beaf3f74f22ec3fe609da6649a91410706650a4b602201620ed55f36d3c7d02befe3b21394d0d972165c35c373c68625ae070a1e34af5014104c66dbbe3a2dd25ab6ddd3eaa35356166c5f55fba2e76772ffcfa1e4ffa6ae779a5adad05d8b432d2388460f77e7d5cbe92f2bdf0a73fc947a361c3e512dba4a6ffffffff037d160000000000001976a914946cb2e08075bcbaf157e47bcb67eb2b2339d24288acfa2c00000000000089514104c66dbbe3a2dd25ab6ddd3eaa35356166c5f55fba2e76772ffcfa1e4ffa6ae779a5adad05d8b432d2388460f77e7d5cbe92f2bdf0a73fc947a361c3e512dba4a62102b927ebeb689d4f07adccbae96ccf75f01635a94c7b0650bb0d93fe45e092d74821025cf4c84c8132e57b13a6d7f49d63954cf545377d25de7beeb5b5ad33da948bdc53ae9bd90100000000001976a914bd6acf2a99430ec6707785f0f7d8512efc62188288ac00000000",
  "blockhash": "000000000000000018d41af05b47e32643d3d08c9ce3280e707a06d040f66f1c",
  "confirmations": 597467,
  "time": 1408655406,
  "blocktime": 1408655406
}
