{
  "txid": "7429731487105e72ab915a77e677a59d08e6be43b4e8daab58906058382ffbce",
  "hash": "7429731487105e72ab915a77e677a59d08e6be43b4e8daab58906058382ffbce",
  "version": 1,
  "size": 369,
  "vsize": 369,
  "weight": 1476,
  "locktime": 0,
  "vin": [
    {
      "txid": "1caf0432ef165b19d5b5d726dc7fd1461390283c15bade2c9683fd712099e53b",
      "vout": 0,
      "scriptSig": {
        "asm": "30440220568dd3ef1e401c6613702bf8e6d6941bfb6771408a58bed4e645168967111a6b02206f45d9e89db137bb738cea8d1feeb7ff8272e463512c06a3a3dc465babd8426e[ALL] 04dc5f7f45007d5a38be2187641c69cb450e9848e8c029fdc8d6bf1cdbb3d11ae419214aae603e3bff7f12bd7f71aaeb46b4e2116952ec3d8b9ee0a1f2de4e2ef4",
        "hex": "4730440220568dd3ef1e401c6613702bf8e6d6941bfb6771408a58bed4e645168967111a6b02206f45d9e89db137bb738cea8d1feeb7ff8272e463512c06a3a3dc465babd8426e014104dc5f7f45007d5a38be2187641c69cb450e9848e8c029fdc8d6bf1cdbb3d11ae419214aae603e3bff7f12bd7f71aaeb46b4e2116952ec3d8b9ee0a1f2de4e2ef4"
      },
      "sequence": 4294967295
    }
  ],
  "vout": [
    {
      "value": 0.00585000,
      "n": 0,
      "scriptPubKey": {
        "asm": "OP_DUP OP_HASH160 f6b75c526ce508fdadd316d591cd662a175fe2aa OP_EQUALVERIFY OP_CHECKSIG",
        "desc": "addr(1PVWtK1ATnvbRaRceLRH5xj8XV1LxUBu7n)#pa4zaq5w",
        "hex": "76a914f6b75c526ce508fdadd316d591cd662a175fe2aa88ac",
        "address": "1PVWtK1ATnvbRaRceLRH5xj8XV1LxUBu7n",
        "type": "pubkeyhash"
      }
    },
    {
      "value": 0.00005500,
      "n": 1,
      "scriptPubKey": {
        "asm": "OP_DUP OP_HASH160 946cb2e08075bcbaf157e47bcb67eb2b2339d242 OP_EQUALVERIFY OP_CHECKSIG",
        "desc": "addr(1EXoDusjGwvnjZUyKkxZ4UHEf77z6A5S4P)#03u9lduk",
        "hex": "76a914946cb2e08075bcbaf157e47bcb67eb2b2339d24288ac",
        "address": "1EXoDusjGwvnjZUyKkxZ4UHEf77z6A5S4P",
        "type": "pubkeyhash"
      }
    },
    {
      "value": 0.00011000,
      "n": 2,
      "scriptPubKey": {
        "asm": "1 04dc5f7f45007d5a38be2187641c69cb450e9848e8c029fdc8d6bf1cdbb3d11ae419214aae603e3bff7f12bd7f71aaeb46b4e2116952ec3d8b9ee0a1f2de4e2ef4 02caa5e791044542b8c8cbd268187691851fff6709a565c0668d269cf65f0203d0 2 OP_CHECKMULTISIG",
        "desc": "multi(1,04dc5f7f45007d5a38be2187641c69cb450e9848e8c029fdc8d6bf1cdbb3d11ae419214aae603e3bff7f12bd7f71aaeb46b4e2116952ec3d8b9ee0a1f2de4e2ef4,02caa5e791044542b8c8cbd268187691851fff6709a565c0668d269cf65f0203d0)#5fng9maw",
        "hex": "514104dc5f7f45007d5a38be2187641c69cb450e9848e8c029fdc8d6bf1cdbb3d11ae419214aae603e3bff7f12bd7f71aaeb46b4e2116952ec3d8b9ee0a1f2de4e2ef42102caa5e791044542b8c8cbd268187691851fff6709a565c0668d269cf65f0203d052ae",
        "type": "multisig"
      }
    }
  ],
  "hex": "01000000013be5992071fd83962cdeba153c28901346d17fdc26d7b5d5195b16ef3204af1c000000008a4730440220568dd3ef1e401c6613702bf8e6d6941bfb6771408a58bed4e645168967111a6b02206f45d9e89db137bb738cea8d1feeb7ff8272e463512c06a3a3dc465babd8426e014104dc5f7f45007d5a38be2187641c69cb450e9848e8c029fdc8d6bf1cdbb3d11ae419214aae603e3bff7f12bd7f71aaeb46b4e2116952ec3d8b9ee0a1f2de4e2ef4ffffffff0328ed0800000000001976a914f6b75c526ce508fdadd316d591cd662a175fe2aa88ac7c150000000000001976a914946cb2e08075bcbaf157e47bcb67eb2b2339d24288acf82a00000000000067514104dc5f7f45007d5a38be2187641c69cb450e9848e8c029fdc8d6bf1cdbb3d11ae419214aae603e3bff7f12bd7f71aaeb46b4e2116952ec3d8b9ee0a1f2de4e2ef42102caa5e791044542b8c8cbd268187691851fff6709a565c0668d269cf65f0203d052ae00000000",
  "blockhash": "00000000000000001d901e57484c013279ea69b0843bdf03b37adf94817dbb5a",
  "confirmations": 593626,
  "time": 1410716537,
  "blocktime": 1410716537
}
