{
  "hash": "4a3574cd6053c14f6858555b942da16d1f6594aa1750e515c1f6be77e7f686e4",
  "hex": "0100000001f80de8fc7b485c49144058d91dbad4dee6439810e36bde0f30b042c7be69e498000000006c493046022100cb7a271301cf9c4fbe6146fbf6dda5286e0acec6f11826399bda8d4aaa951b4b02210097e5783537067048a30819fbd172b0e9f7de294e285cf6cad60d165391e883ee012103c358f06b2713cca556b4e645e1948dbb44060c13dc2fa7d85f74c643e256c861ffffffff0168bf00000000000067512103c358f06b2713cca556b4e645e1948dbb44060c13dc2fa7d85f74c643e256c86141047b2262223a2248656c6c6f2050656f706c652120486f772061726520796f753f2042793a204665646f722e227dffffffffffffffffffffffffffffffffffffff52ae00000000",
  "locktime": 0,
  "size": 271,
  "txid": "4a3574cd6053c14f6858555b942da16d1f6594aa1750e515c1f6be77e7f686e4",
  "version": 1,
  "vin": [
    {
      "scriptSig": {
        "asm": "Script(OP_PUSHBYTES_73 3046022100cb7a271301cf9c4fbe6146fbf6dda5286e0acec6f11826399bda8d4aaa951b4b02210097e5783537067048a30819fbd172b0e9f7de294e285cf6cad60d165391e883ee01 OP_PUSHBYTES_33 03c358f06b2713cca556b4e645e1948dbb44060c13dc2fa7d85f74c643e256c861)",
        "hex": "493046022100cb7a271301cf9c4fbe6146fbf6dda5286e0acec6f11826399bda8d4aaa951b4b02210097e5783537067048a30819fbd172b0e9f7de294e285cf6cad60d165391e883ee012103c358f06b2713cca556b4e645e1948dbb44060c13dc2fa7d85f74c643e256c861"
      },
      "sequence": 4294967295,
      "txid": "98e469bec742b0300fde6be3109843e6ded4ba1dd9584014495c487bfce80df8",
      "vout": 0
    }
  ],
  "vout": [
    {
      "n": 0,
      "scriptPubKey": {
        "asm": "Script(OP_PUSHNUM_1 OP_PUSHBYTES_33 03c358f06b2713cca556b4e645e1948dbb44060c13dc2fa7d85f74c643e256c861 OP_PUSHBYTES_65 047b2262223a2248656c6c6f2050656f706c652120486f772061726520796f753f2042793a204665646f722e227dffffffffffffffffffffffffffffffffffffff OP_PUSHNUM_2 OP_CHECKMULTISIG)",
        "hex": "512103c358f06b2713cca556b4e645e1948dbb44060c13dc2fa7d85f74c643e256c86141047b2262223a2248656c6c6f2050656f706c652120486f772061726520796f753f2042793a204665646f722e227dffffffffffffffffffffffffffffffffffffff52ae",
        "type": "multisig"
      },
      "value": 0.00049
    }
  ],
  "vsize": 271,
  "weight": 1084
}