{
  "hash": "cb1be4ac93aa899f79467c60c223b2c1f7ab43e5b7b22bc9954797a6020c6fc0",
  "hex": "0100000000010170df50e0d73d14e2ce75fb6619aaf04477ce6b3974caf5302a57ae6d5957537f0100000000ffffffff02102700000000000025512100000000000000000000000000000000000000000000000000000000000000000051ae90be0600000000001976a91458ed1bf3e14c3d791ed0983d3ae60d4ebbcc7c6988ac0247304402203c3a1ce0dda81bdba4f5a86054138c363d4068d70cabdb00adfbec07509c0396022028466203307667e38ffee87aef5e7c514df3340b7c25a3f993fc72166ff96d980121037cc299e79e422d6cf6df00cef6d7fc1470d5de5d9534f346468b8ffe09ae6f8600000000",
  "locktime": 0,
  "size": 240,
  "txid": "9cf7c3fcf15ec0427a98623abe1fa752ad10c1615670c0dbe0a11516f277540e",
  "version": 1,
  "vin": [
    {
      "scriptSig": {
        "asm": "Script()",
        "hex": ""
      },
      "sequence": 4294967295,
      "txid": "7f5357596dae572a30f5ca74396bce7744f0aa1966fb75cee2143dd7e050df70",
      "vout": 1
    }
  ],
  "vout": [
    {
      "n": 0,
      "scriptPubKey": {
        "asm": "Script(OP_PUSHNUM_1 OP_PUSHBYTES_33 000000000000000000000000000000000000000000000000000000000000000000 OP_PUSHNUM_1 OP_CHECKMULTISIG)",
        "hex": "512100000000000000000000000000000000000000000000000000000000000000000051ae",
        "type": "multisig"
      },
      "value": 0.0001
    },
    {
      "n": 1,
      "scriptPubKey": {
        "asm": "Script(OP_DUP OP_HASH160 OP_PUSHBYTES_20 58ed1bf3e14c3d791ed0983d3ae60d4ebbcc7c69 OP_EQUALVERIFY OP_CHECKSIG)",
        "hex": "76a91458ed1bf3e14c3d791ed0983d3ae60d4ebbcc7c6988ac",
        "type": "pubkeyhash"
      },
      "value": 0.00442
    }
  ],
  "vsize": 159,
  "weight": 633
}