{
  "hash": "0716406f435e576bea06a9de51b3756594f59c8c7272f9c41b63a90442348d07",
  "hex": "0100000001367e6c6076636e195d5328672926ea0cbbfbc0a9462fa1778cfc2353d6001d94000000006b483045022100d8fde50ddb8ef66203d17b295cadb367295d4e9f1910e3a3016be14a9960accc022014d691abe436a2e62f4b6e12379376c1f4bfdc58c3410d3dd5cca885ca20f25a012102d7c64e9c3f69404b7d9bf8ff3980dc28928c6fd118be342a610f280a1bb43f4bffffffff04781e0000000000001976a91493890319e8c6df5354c7e0086fa3dd9a03f6fe5788ac781e0000000000006951215c00000000000000000000000000000000000000000000000000000000000000002100000000000000000000000000000000000000006d6964617372657a6572762e63216f6d2f7265706f7274732f616d73742d6973732d30303030312e7a6970003dd50553ae985b0700000000001976a914b191ae5f33f091d09a63e2d6496e8be437ed738f88ac00000000000000002a6a284844455643484102f1162b3590d662842cc1375a05bf7189705d2cdc33ff07ea90476d1d96e2b74200000000",
  "locktime": 0,
  "size": 391,
  "txid": "0716406f435e576bea06a9de51b3756594f59c8c7272f9c41b63a90442348d07",
  "version": 1,
  "vin": [
    {
      "scriptSig": {
        "asm": "Script(OP_PUSHBYTES_72 3045022100d8fde50ddb8ef66203d17b295cadb367295d4e9f1910e3a3016be14a9960accc022014d691abe436a2e62f4b6e12379376c1f4bfdc58c3410d3dd5cca885ca20f25a01 OP_PUSHBYTES_33 02d7c64e9c3f69404b7d9bf8ff3980dc28928c6fd118be342a610f280a1bb43f4b)",
        "hex": "483045022100d8fde50ddb8ef66203d17b295cadb367295d4e9f1910e3a3016be14a9960accc022014d691abe436a2e62f4b6e12379376c1f4bfdc58c3410d3dd5cca885ca20f25a012102d7c64e9c3f69404b7d9bf8ff3980dc28928c6fd118be342a610f280a1bb43f4b"
      },
      "sequence": 4294967295,
      "txid": "941d00d65323fc8c77a12f46a9c0fbbb0cea26296728535d196e6376606c7e36",
      "vout": 0
    }
  ],
  "vout": [
    {
      "n": 0,
      "scriptPubKey": {
        "asm": "Script(OP_DUP OP_HASH160 OP_PUSHBYTES_20 93890319e8c6df5354c7e0086fa3dd9a03f6fe57 OP_EQUALVERIFY OP_CHECKSIG)",
        "hex": "76a91493890319e8c6df5354c7e0086fa3dd9a03f6fe5788ac",
        "type": "pubkeyhash"
      },
      "value": 0.000078
    },
    {
      "n": 1,
      "scriptPubKey": {
        "asm": "Script(OP_PUSHNUM_1 OP_PUSHBYTES_33 5c0000000000000000000000000000000000000000000000000000000000000000 OP_PUSHBYTES_33 00000000000000000000000000000000000000006d6964617372657a6572762e63 OP_PUSHBYTES_33 6f6d2f7265706f7274732f616d73742d6973732d30303030312e7a6970003dd505 OP_PUSHNUM_3 OP_CHECKMULTISIG)",
        "hex": "51215c00000000000000000000000000000000000000000000000000000000000000002100000000000000000000000000000000000000006d6964617372657a6572762e63216f6d2f7265706f7274732f616d73742d6973732d30303030312e7a6970003dd50553ae",
        "type": "multisig"
      },
      "value": 0.000078
    },
    {
      "n": 2,
      "scriptPubKey": {
        "asm": "Script(OP_DUP OP_HASH160 OP_PUSHBYTES_20 b191ae5f33f091d09a63e2d6496e8be437ed738f OP_EQUALVERIFY OP_CHECKSIG)",
        "hex": "76a914b191ae5f33f091d09a63e2d6496e8be437ed738f88ac",
        "type": "pubkeyhash"
      },
      "value": 0.004822
    },
    {
      "n": 3,
      "scriptPubKey": {
        "asm": "Script(OP_RETURN OP_PUSHBYTES_40 4844455643484102f1162b3590d662842cc1375a05bf7189705d2cdc33ff07ea90476d1d96e2b742)",
        "hex": "6a284844455643484102f1162b3590d662842cc1375a05bf7189705d2cdc33ff07ea90476d1d96e2b742",
        "type": "nulldata"
      },
      "value": 0.0
    }
  ],
  "vsize": 391,
  "weight": 1564
}