{
  "txid": "4b72a223007eab8a951d43edc171befeabc7b5dca4213770c88e09ba5b936e17",
  "hash": "4b72a223007eab8a951d43edc171befeabc7b5dca4213770c88e09ba5b936e17",
  "version": 1,
  "size": 4990,
  "vsize": 4990,
  "weight": 19960,
  "locktime": 0,
  "vin": [
    {
      "txid": "fe026e3e0a96e35f8db4e03dcc3bcdd95e659cb7d7f16ff9634e42ce1ac119d2",
      "vout": 0,
      "scriptSig": {
        "asm": "3045022100903c148f2b76c05a96a421a69a000022ee930bad96da22751695c927cc4e77de02203c2c9c1f7c9aeca907f05e7a384d0b8bf9992bb53687b6d1ac6968aadd365de4[ALL] 02ed07fe6f1ce6f29d67a42521c17451e6b5ce8e380ed4931950a2c20bb86a0acc",
        "hex": "483045022100903c148f2b76c05a96a421a69a000022ee930bad96da22751695c927cc4e77de02203c2c9c1f7c9aeca907f05e7a384d0b8bf9992bb53687b6d1ac6968aadd365de4012102ed07fe6f1ce6f29d67a42521c17451e6b5ce8e380ed4931950a2c20bb86a0acc"
      },
      "sequence": 4294967295
    }
  ],
  "vout": [
    {
      "value": 1E-8,
      "n": 0,
      "scriptPubKey": {
        "asm": "1 2b11000083a072f523212f7573722f62696e2f707974686f6e330a230a232046696c6520696e73657274696f6e20746f6f6c20666f7220426974636f696e0a2320 5265717569726573206769743a2f2f6769746875622e636f6d2f6a6761727a696b2f707974686f6e2d626974636f696e7270632e6769740a230a23202863292032 303133205361746f736869204e616b616d6f746f20416c6c205269676874732052657365727665640a230a2320554e415554484f52495a4544204455504c494341 3 OP_CHECKMULTISIG",
        "desc": "raw(51412b11000083a072f523212f7573722f62696e2f707974686f6e330a230a232046696c6520696e73657274696f6e20746f6f6c20666f7220426974636f696e0a2320415265717569726573206769743a2f2f6769746875622e636f6d2f6a6761727a696b2f707974686f6e2d626974636f696e7270632e6769740a230a2320286329203241303133205361746f736869204e616b616d6f746f20416c6c205269676874732052657365727665640a230a2320554e415554484f52495a4544204455504c49434153ae)#5x2ssgcu",
        "hex": "51412b11000083a072f523212f7573722f62696e2f707974686f6e330a230a232046696c6520696e73657274696f6e20746f6f6c20666f7220426974636f696e0a2320415265717569726573206769743a2f2f6769746875622e636f6d2f6a6761727a696b2f707974686f6e2d626974636f696e7270632e6769740a230a2320286329203241303133205361746f736869204e616b616d6f746f20416c6c205269676874732052657365727665640a230a2320554e415554484f52495a4544204455504c49434153ae",
        "type": "nonstandard"
      }
    },
    {
      "value": 1E-8,
      "n": 1,
      "scriptPubKey": {
        "asm": "1 54494f4e20414e442f4f52205553414745204f4620544849532050524f4752414d2049532050524f4849424954454420425920555320414e4420494e5445524e41 54494f4e414c20434f50595249474854204c41570a0a696d706f727420696f0a696d706f7274206a736f6e7270630a696d706f7274206f730a696d706f72742072 616e646f6d0a696d706f7274207374727563740a696d706f7274207379730a66726f6d2062696e617363696920696d706f72742063726333322c6865786c696679 3 OP_CHECKMULTISIG",
        "desc": "raw(514154494f4e20414e442f4f52205553414745204f4620544849532050524f4752414d2049532050524f4849424954454420425920555320414e4420494e5445524e414154494f4e414c20434f50595249474854204c41570a0a696d706f727420696f0a696d706f7274206a736f6e7270630a696d706f7274206f730a696d706f7274207241616e646f6d0a696d706f7274207374727563740a696d706f7274207379730a66726f6d2062696e617363696920696d706f72742063726333322c6865786c69667953ae)#s6006dc2",
        "hex": "514154494f4e20414e442f4f52205553414745204f4620544849532050524f4752414d2049532050524f4849424954454420425920555320414e4420494e5445524e414154494f4e414c20434f50595249474854204c41570a0a696d706f727420696f0a696d706f7274206a736f6e7270630a696d706f7274206f730a696d706f7274207241616e646f6d0a696d706f7274207374727563740a696d706f7274207379730a66726f6d2062696e617363696920696d706f72742063726333322c6865786c69667953ae",
        "type": "nonstandard"
      }
    },
    {
      "value": 1E-8,
      "n": 2,
      "scriptPubKey": {
        "asm": "1 2c756e6865786c6966790a66726f6d20646563696d616c20696d706f727420446563696d616c0a0a6966206c656e287379732e6172677629203c20353a0a202020 207072696e74285c0a2222225c0a55736167653a202573203c66696c653e203c6465737420616464723e203c6465737420616d6f756e743e207b3c6665652d7065 722d6b623e7d0a0a5365742042544352504355524c3d687474703a2f2f757365723a70617373406c6f63616c686f73743a706f72746e756d222222202520737973 3 OP_CHECKMULTISIG",
        "desc": "raw(51412c756e6865786c6966790a66726f6d20646563696d616c20696d706f727420446563696d616c0a0a6966206c656e287379732e6172677629203c20353a0a20202041207072696e74285c0a2222225c0a55736167653a202573203c66696c653e203c6465737420616464723e203c6465737420616d6f756e743e207b3c6665652d706541722d6b623e7d0a0a5365742042544352504355524c3d687474703a2f2f757365723a70617373406c6f63616c686f73743a706f72746e756d22222220252073797353ae)#lze34kd8",
        "hex": "51412c756e6865786c6966790a66726f6d20646563696d616c20696d706f727420446563696d616c0a0a6966206c656e287379732e6172677629203c20353a0a20202041207072696e74285c0a2222225c0a55736167653a202573203c66696c653e203c6465737420616464723e203c6465737420616d6f756e743e207b3c6665652d706541722d6b623e7d0a0a5365742042544352504355524c3d687474703a2f2f757365723a70617373406c6f63616c686f73743a706f72746e756d22222220252073797353ae",
        "type": "nonstandard"
      }
    },
    {
      "value": 1E-8,
      "n": 3,
      "scriptPubKey": {
        "asm": "1 2e617267765b305d2c2066696c653d7379732e737464657272290a202020207379732e6578697428290a0a434f494e203d203130303030303030300a0a64656620 756e68657873747228737472293a0a2020202072657475726e20756e6865786c696679287374722e656e636f64652827757466382729290a0a70726f7879203d20 6a736f6e7270632e5365727669636550726f7879286f732e656e7669726f6e5b2742544352504355524c275d290a0a6465662073656c6563745f7478696e732876 3 OP_CHECKMULTISIG",
        "desc": "raw(51412e617267765b305d2c2066696c653d7379732e737464657272290a202020207379732e6578697428290a0a434f494e203d203130303030303030300a0a6465662041756e68657873747228737472293a0a2020202072657475726e20756e6865786c696679287374722e656e636f64652827757466382729290a0a70726f7879203d20416a736f6e7270632e5365727669636550726f7879286f732e656e7669726f6e5b2742544352504355524c275d290a0a6465662073656c6563745f7478696e73287653ae)#lgrf5hkn",
        "hex": "51412e617267765b305d2c2066696c653d7379732e737464657272290a202020207379732e6578697428290a0a434f494e203d203130303030303030300a0a6465662041756e68657873747228737472293a0a2020202072657475726e20756e6865786c696679287374722e656e636f64652827757466382729290a0a70726f7879203d20416a736f6e7270632e5365727669636550726f7879286f732e656e7669726f6e5b2742544352504355524c275d290a0a6465662073656c6563745f7478696e73287653ae",
        "type": "nonstandard"
      }
    },
    {
      "value": 1E-8,
      "n": 4,
      "scriptPubKey": {
        "asm": "1 616c7565293a0a20202020756e7370656e74203d206c6973742870726f78792e6c697374756e7370656e742829290a2020202072616e646f6d2e73687566666c65 28756e7370656e74290a0a2020202072203d205b5d0a20202020746f74616c203d20300a20202020666f7220747820696e20756e7370656e743a0a202020202020 2020746f74616c202b3d2074785b27616d6f756e74275d0a2020202020202020722e617070656e64287478290a0a2020202020202020696620746f74616c203e3d 3 OP_CHECKMULTISIG",
        "desc": "raw(5141616c7565293a0a20202020756e7370656e74203d206c6973742870726f78792e6c697374756e7370656e742829290a2020202072616e646f6d2e73687566666c654128756e7370656e74290a0a2020202072203d205b5d0a20202020746f74616c203d20300a20202020666f7220747820696e20756e7370656e743a0a202020202020412020746f74616c202b3d2074785b27616d6f756e74275d0a2020202020202020722e617070656e64287478290a0a2020202020202020696620746f74616c203e3d53ae)#c8cdu6hh",
        "hex": "5141616c7565293a0a20202020756e7370656e74203d206c6973742870726f78792e6c697374756e7370656e742829290a2020202072616e646f6d2e73687566666c654128756e7370656e74290a0a2020202072203d205b5d0a20202020746f74616c203d20300a20202020666f7220747820696e20756e7370656e743a0a202020202020412020746f74616c202b3d2074785b27616d6f756e74275d0a2020202020202020722e617070656e64287478290a0a2020202020202020696620746f74616c203e3d53ae",
        "type": "nonstandard"
      }
    },
    {
      "value": 1E-8,
      "n": 5,
      "scriptPubKey": {
        "asm": "1 2076616c75653a0a202020202020202020202020627265616b0a0a20202020696620746f74616c203c2076616c75653a0a202020202020202072657475726e204e 6f6e650a20202020656c73653a0a202020202020202072657475726e2028722c20746f74616c290a0a64656620766172696e74286e293a0a202020206966206e20 3c20307866643a0a202020202020202072657475726e206279746573285b6e5d290a20202020656c6966206e203c203078666666663a0a20202020202020207265 3 OP_CHECKMULTISIG",
        "desc": "raw(51412076616c75653a0a202020202020202020202020627265616b0a0a20202020696620746f74616c203c2076616c75653a0a202020202020202072657475726e204e416f6e650a20202020656c73653a0a202020202020202072657475726e2028722c20746f74616c290a0a64656620766172696e74286e293a0a202020206966206e20413c20307866643a0a202020202020202072657475726e206279746573285b6e5d290a20202020656c6966206e203c203078666666663a0a2020202020202020726553ae)#pt6zf6rw",
        "hex": "51412076616c75653a0a202020202020202020202020627265616b0a0a20202020696620746f74616c203c2076616c75653a0a202020202020202072657475726e204e416f6e650a20202020656c73653a0a202020202020202072657475726e2028722c20746f74616c290a0a64656620766172696e74286e293a0a202020206966206e20413c20307866643a0a202020202020202072657475726e206279746573285b6e5d290a20202020656c6966206e203c203078666666663a0a2020202020202020726553ae",
        "type": "nonstandard"
      }
    },
    {
      "value": 1E-8,
      "n": 6,
      "scriptPubKey": {
        "asm": "1 7475726e2062275c78666427202b207374727563742e7061636b28273c48272c6e290a20202020656c73653a0a20202020202020206173736572742046616c7365 0a0a646566207061636b7478696e28707265766f75742c207363726970745369672c207365713d30786666666666666666293a0a2020202072657475726e207072 65766f75745b305d5b3a3a2d315d202b207374727563742e7061636b28273c4c272c707265766f75745b315d29202b20766172696e74286c656e28736372697074 3 OP_CHECKMULTISIG",
        "desc": "raw(51417475726e2062275c78666427202b207374727563742e7061636b28273c48272c6e290a20202020656c73653a0a20202020202020206173736572742046616c7365410a0a646566207061636b7478696e28707265766f75742c207363726970745369672c207365713d30786666666666666666293a0a2020202072657475726e2070724165766f75745b305d5b3a3a2d315d202b207374727563742e7061636b28273c4c272c707265766f75745b315d29202b20766172696e74286c656e2873637269707453ae)#fv5l3xmc",
        "hex": "51417475726e2062275c78666427202b207374727563742e7061636b28273c48272c6e290a20202020656c73653a0a20202020202020206173736572742046616c7365410a0a646566207061636b7478696e28707265766f75742c207363726970745369672c207365713d30786666666666666666293a0a2020202072657475726e2070724165766f75745b305d5b3a3a2d315d202b207374727563742e7061636b28273c4c272c707265766f75745b315d29202b20766172696e74286c656e2873637269707453ae",
        "type": "nonstandard"
      }
    },
    {
      "value": 1E-8,
      "n": 7,
      "scriptPubKey": {
        "asm": "1 5369672929202b20736372697074536967202b207374727563742e7061636b28273c4c272c20736571290a0a646566207061636b74786f75742876616c75652c20 7363726970745075624b6579293a0a2020202072657475726e207374727563742e7061636b28273c51272c696e742876616c75652a434f494e2929202b20766172 696e74286c656e287363726970745075624b65792929202b207363726970745075624b65790a0a646566207061636b7478287478696e732c2074786f7574732c20 3 OP_CHECKMULTISIG",
        "desc": "raw(51415369672929202b20736372697074536967202b207374727563742e7061636b28273c4c272c20736571290a0a646566207061636b74786f75742876616c75652c20417363726970745075624b6579293a0a2020202072657475726e207374727563742e7061636b28273c51272c696e742876616c75652a434f494e2929202b2076617241696e74286c656e287363726970745075624b65792929202b207363726970745075624b65790a0a646566207061636b7478287478696e732c2074786f7574732c2053ae)#sxm5r4w8",
        "hex": "51415369672929202b20736372697074536967202b207374727563742e7061636b28273c4c272c20736571290a0a646566207061636b74786f75742876616c75652c20417363726970745075624b6579293a0a2020202072657475726e207374727563742e7061636b28273c51272c696e742876616c75652a434f494e2929202b2076617241696e74286c656e287363726970745075624b65792929202b207363726970745075624b65790a0a646566207061636b7478287478696e732c2074786f7574732c2053ae",
        "type": "nonstandard"
      }
    },
    {
      "value": 1E-8,
      "n": 8,
      "scriptPubKey": {
        "asm": "1 6c6f636b74696d653d30293a0a2020202072203d2062275c7830315c7830305c7830305c7830302720232076657273696f6e0a2020202072202b3d20766172696e 74286c656e287478696e7329290a0a20202020666f72207478696e20696e207478696e733a0a202020202020202072202b3d207061636b7478696e2828756e6865 78737472287478696e5b2774786964275d292c7478696e5b27766f7574275d292c20622727290a0a2020202072202b3d20766172696e74286c656e2874786f7574 3 OP_CHECKMULTISIG",
        "desc": "raw(51416c6f636b74696d653d30293a0a2020202072203d2062275c7830315c7830305c7830305c7830302720232076657273696f6e0a2020202072202b3d20766172696e4174286c656e287478696e7329290a0a20202020666f72207478696e20696e207478696e733a0a202020202020202072202b3d207061636b7478696e2828756e68654178737472287478696e5b2774786964275d292c7478696e5b27766f7574275d292c20622727290a0a2020202072202b3d20766172696e74286c656e2874786f757453ae)#8xmdskes",
        "hex": "51416c6f636b74696d653d30293a0a2020202072203d2062275c7830315c7830305c7830305c7830302720232076657273696f6e0a2020202072202b3d20766172696e4174286c656e287478696e7329290a0a20202020666f72207478696e20696e207478696e733a0a202020202020202072202b3d207061636b7478696e2828756e68654178737472287478696e5b2774786964275d292c7478696e5b27766f7574275d292c20622727290a0a2020202072202b3d20766172696e74286c656e2874786f757453ae",
        "type": "nonstandard"
      }
    },
    {
      "value": 1E-8,
      "n": 9,
      "scriptPubKey": {
        "asm": "1 7329290a0a20202020666f72202876616c75652c207363726970745075624b65792920696e2074786f7574733a0a202020202020202072202b3d207061636b7478 6f75742876616c75652c207363726970745075624b6579290a0a2020202072202b3d207374727563742e7061636b28273c4c272c206c6f636b74696d65290a2020 202072657475726e20720a0a4f505f434845434b534947203d2062275c786163270a4f505f434845434b4d554c5449534947203d2062275c786165270a4f505f50 3 OP_CHECKMULTISIG",
        "desc": "raw(51417329290a0a20202020666f72202876616c75652c207363726970745075624b65792920696e2074786f7574733a0a202020202020202072202b3d207061636b7478416f75742876616c75652c207363726970745075624b6579290a0a2020202072202b3d207374727563742e7061636b28273c4c272c206c6f636b74696d65290a202041202072657475726e20720a0a4f505f434845434b534947203d2062275c786163270a4f505f434845434b4d554c5449534947203d2062275c786165270a4f505f5053ae)#lwm8lqay",
        "hex": "51417329290a0a20202020666f72202876616c75652c207363726970745075624b65792920696e2074786f7574733a0a202020202020202072202b3d207061636b7478416f75742876616c75652c207363726970745075624b6579290a0a2020202072202b3d207374727563742e7061636b28273c4c272c206c6f636b74696d65290a202041202072657475726e20720a0a4f505f434845434b534947203d2062275c786163270a4f505f434845434b4d554c5449534947203d2062275c786165270a4f505f5053ae",
        "type": "nonstandard"
      }
    },
    {
      "value": 1E-8,
      "n": 10,
      "scriptPubKey": {
        "asm": "1 5553484441544131203d2062275c783463270a4f505f445550203d2062275c783736270a4f505f48415348313630203d2062275c786139270a4f505f455155414c 564552494659203d2062275c783838270a6465662070757368646174612864617461293a0a20202020617373657274206c656e286461746129203c204f505f5055 534844415441315b305d0a2020202072657475726e206279746573285b6c656e2864617461295d29202b20646174610a0a6465662070757368696e74286e293a0a 3 OP_CHECKMULTISIG",
        "desc": "raw(51415553484441544131203d2062275c783463270a4f505f445550203d2062275c783736270a4f505f48415348313630203d2062275c786139270a4f505f455155414c41564552494659203d2062275c783838270a6465662070757368646174612864617461293a0a20202020617373657274206c656e286461746129203c204f505f505541534844415441315b305d0a2020202072657475726e206279746573285b6c656e2864617461295d29202b20646174610a0a6465662070757368696e74286e293a0a53ae)#7axas5tw",
        "hex": "51415553484441544131203d2062275c783463270a4f505f445550203d2062275c783736270a4f505f48415348313630203d2062275c786139270a4f505f455155414c41564552494659203d2062275c783838270a6465662070757368646174612864617461293a0a20202020617373657274206c656e286461746129203c204f505f505541534844415441315b305d0a2020202072657475726e206279746573285b6c656e2864617461295d29202b20646174610a0a6465662070757368696e74286e293a0a53ae",
        "type": "nonstandard"
      }
    },
    {
      "value": 1E-8,
      "n": 11,
      "scriptPubKey": {
        "asm": "1 202020206173736572742030203c206e203c3d2031360a2020202072657475726e206279746573285b30783531202b206e2d315d290a0a0a646566206164647232 62797465732873293a0a202020206469676974733538203d202731323334353637383941424344454647484a4b4c4d4e505152535455565758595a616263646566 6768696a6b6d6e6f707172737475767778797a270a202020206e203d20300a20202020666f72206320696e20733a0a20202020202020206e202a3d2035380a2020 3 OP_CHECKMULTISIG",
        "desc": "raw(5141202020206173736572742030203c206e203c3d2031360a2020202072657475726e206279746573285b30783531202b206e2d315d290a0a0a6465662061646472324162797465732873293a0a202020206469676974733538203d202731323334353637383941424344454647484a4b4c4d4e505152535455565758595a616263646566416768696a6b6d6e6f707172737475767778797a270a202020206e203d20300a20202020666f72206320696e20733a0a20202020202020206e202a3d2035380a202053ae)#u975czk9",
        "hex": "5141202020206173736572742030203c206e203c3d2031360a2020202072657475726e206279746573285b30783531202b206e2d315d290a0a0a6465662061646472324162797465732873293a0a202020206469676974733538203d202731323334353637383941424344454647484a4b4c4d4e505152535455565758595a616263646566416768696a6b6d6e6f707172737475767778797a270a202020206e203d20300a20202020666f72206320696e20733a0a20202020202020206e202a3d2035380a202053ae",
        "type": "nonstandard"
      }
    },
    {
      "value": 1E-8,
      "n": 12,
      "scriptPubKey": {
        "asm": "1 20202020202069662063206e6f7420696e2064696769747335383a0a20202020202020202020202072616973652056616c75654572726f720a2020202020202020 6e202b3d2064696769747335382e696e6465782863290a0a2020202068203d20272578272025206e0a202020206966206c656e286829202520323a0a2020202020 20202068203d20273027202b20680a0a20202020666f72206320696e20733a0a202020202020202069662063203d3d2064696769747335385b305d3a0a20202020 3 OP_CHECKMULTISIG",
        "desc": "raw(514120202020202069662063206e6f7420696e2064696769747335383a0a20202020202020202020202072616973652056616c75654572726f720a2020202020202020416e202b3d2064696769747335382e696e6465782863290a0a2020202068203d20272578272025206e0a202020206966206c656e286829202520323a0a20202020204120202068203d20273027202b20680a0a20202020666f72206320696e20733a0a202020202020202069662063203d3d2064696769747335385b305d3a0a2020202053ae)#4khd8ts8",
        "hex": "514120202020202069662063206e6f7420696e2064696769747335383a0a20202020202020202020202072616973652056616c75654572726f720a2020202020202020416e202b3d2064696769747335382e696e6465782863290a0a2020202068203d20272578272025206e0a202020206966206c656e286829202520323a0a20202020204120202068203d20273027202b20680a0a20202020666f72206320696e20733a0a202020202020202069662063203d3d2064696769747335385b305d3a0a2020202053ae",
        "type": "nonstandard"
      }
    },
    {
      "value": 1E-8,
      "n": 13,
      "scriptPubKey": {
        "asm": "1 202020202020202068203d2027303027202b20680a2020202020202020656c73653a0a202020202020202020202020627265616b0a2020202072657475726e2075 6e6865787374722868295b313a2d345d202320736b69702076657273696f6e20616e6420636865636b73756d0a0a64656620636865636b6d756c74697369675f73 63726970745075624b65795f64756d70286664293a0a2020202064617461203d2066642e726561642836352a33290a202020206966206e6f7420646174613a0a20 3 OP_CHECKMULTISIG",
        "desc": "raw(5141202020202020202068203d2027303027202b20680a2020202020202020656c73653a0a202020202020202020202020627265616b0a2020202072657475726e2075416e6865787374722868295b313a2d345d202320736b69702076657273696f6e20616e6420636865636b73756d0a0a64656620636865636b6d756c74697369675f734163726970745075624b65795f64756d70286664293a0a2020202064617461203d2066642e726561642836352a33290a202020206966206e6f7420646174613a0a2053ae)#hszrf5gx",
        "hex": "5141202020202020202068203d2027303027202b20680a2020202020202020656c73653a0a202020202020202020202020627265616b0a2020202072657475726e2075416e6865787374722868295b313a2d345d202320736b69702076657273696f6e20616e6420636865636b73756d0a0a64656620636865636b6d756c74697369675f734163726970745075624b65795f64756d70286664293a0a2020202064617461203d2066642e726561642836352a33290a202020206966206e6f7420646174613a0a2053ae",
        "type": "nonstandard"
      }
    },
    {
      "value": 1E-8,
      "n": 14,
      "scriptPubKey": {
        "asm": "1 2020202020202072657475726e204e6f6e650a0a2020202072203d2070757368696e742831290a0a202020206e203d20300a202020207768696c6520646174613a 0a20202020202020206368756e6b203d20646174615b303a36355d0a202020202020202064617461203d20646174615b36353a5d0a0a2020202020202020696620 6c656e286368756e6b29203c2033333a0a2020202020202020202020206368756e6b202b3d2062275c783030272a2833332d6c656e286368756e6b29290a202020 3 OP_CHECKMULTISIG",
        "desc": "raw(51412020202020202072657475726e204e6f6e650a0a2020202072203d2070757368696e742831290a0a202020206e203d20300a202020207768696c6520646174613a410a20202020202020206368756e6b203d20646174615b303a36355d0a202020202020202064617461203d20646174615b36353a5d0a0a2020202020202020696620416c656e286368756e6b29203c2033333a0a2020202020202020202020206368756e6b202b3d2062275c783030272a2833332d6c656e286368756e6b29290a20202053ae)#l87m5leg",
        "hex": "51412020202020202072657475726e204e6f6e650a0a2020202072203d2070757368696e742831290a0a202020206e203d20300a202020207768696c6520646174613a410a20202020202020206368756e6b203d20646174615b303a36355d0a202020202020202064617461203d20646174615b36353a5d0a0a2020202020202020696620416c656e286368756e6b29203c2033333a0a2020202020202020202020206368756e6b202b3d2062275c783030272a2833332d6c656e286368756e6b29290a20202053ae",
        "type": "nonstandard"
      }
    },
    {
      "value": 1E-8,
      "n": 15,
      "scriptPubKey": {
        "asm": "1 2020202020656c6966206c656e286368756e6b29203c2036353a0a2020202020202020202020206368756e6b202b3d2062275c783030272a2836352d6c656e2863 68756e6b29290a0a202020202020202072202b3d207075736864617461286368756e6b290a20202020202020206e202b3d20310a0a2020202072202b3d20707573 68696e74286e29202b204f505f434845434b4d554c54495349470a2020202072657475726e20720a0a0a287478696e732c206368616e676529203d2073656c6563 3 OP_CHECKMULTISIG",
        "desc": "raw(51412020202020656c6966206c656e286368756e6b29203c2036353a0a2020202020202020202020206368756e6b202b3d2062275c783030272a2836352d6c656e28634168756e6b29290a0a202020202020202072202b3d207075736864617461286368756e6b290a20202020202020206e202b3d20310a0a2020202072202b3d207075734168696e74286e29202b204f505f434845434b4d554c54495349470a2020202072657475726e20720a0a0a287478696e732c206368616e676529203d2073656c656353ae)#r87nhdas",
        "hex": "51412020202020656c6966206c656e286368756e6b29203c2036353a0a2020202020202020202020206368756e6b202b3d2062275c783030272a2836352d6c656e28634168756e6b29290a0a202020202020202072202b3d207075736864617461286368756e6b290a20202020202020206e202b3d20310a0a2020202072202b3d207075734168696e74286e29202b204f505f434845434b4d554c54495349470a2020202072657475726e20720a0a0a287478696e732c206368616e676529203d2073656c656353ae",
        "type": "nonstandard"
      }
    },
    {
      "value": 1E-8,
      "n": 16,
      "scriptPubKey": {
        "asm": "1 745f7478696e732830290a0a74786f757473203d205b5d0a0a64617461203d206f70656e287379732e617267765b315d2c27726227292e7265616428290a646174 61203d207374727563742e7061636b28273c4c272c206c656e28646174612929202b207374727563742e7061636b28273c4c272c20637263333228646174612929 202b20646174610a6664203d20696f2e4279746573494f2864617461290a0a7768696c6520547275653a0a202020207363726970745075624b6579203d20636865 3 OP_CHECKMULTISIG",
        "desc": "raw(5141745f7478696e732830290a0a74786f757473203d205b5d0a0a64617461203d206f70656e287379732e617267765b315d2c27726227292e7265616428290a6461744161203d207374727563742e7061636b28273c4c272c206c656e28646174612929202b207374727563742e7061636b28273c4c272c2063726333322864617461292941202b20646174610a6664203d20696f2e4279746573494f2864617461290a0a7768696c6520547275653a0a202020207363726970745075624b6579203d2063686553ae)#ujnxt9a2",
        "hex": "5141745f7478696e732830290a0a74786f757473203d205b5d0a0a64617461203d206f70656e287379732e617267765b315d2c27726227292e7265616428290a6461744161203d207374727563742e7061636b28273c4c272c206c656e28646174612929202b207374727563742e7061636b28273c4c272c2063726333322864617461292941202b20646174610a6664203d20696f2e4279746573494f2864617461290a0a7768696c6520547275653a0a202020207363726970745075624b6579203d2063686553ae",
        "type": "nonstandard"
      }
    },
    {
      "value": 1E-8,
      "n": 17,
      "scriptPubKey": {
        "asm": "1 636b6d756c74697369675f7363726970745075624b65795f64756d70286664290a0a202020206966207363726970745075624b6579206973204e6f6e653a0a2020 202020202020627265616b0a0a2020202076616c7565203d20446563696d616c28312f434f494e290a2020202074786f7574732e617070656e64282876616c7565 2c207363726970745075624b657929290a0a202020206368616e6765202d3d2076616c75650a0a232064657374206f75747075740a6f75745f76616c7565203d20 3 OP_CHECKMULTISIG",
        "desc": "raw(5141636b6d756c74697369675f7363726970745075624b65795f64756d70286664290a0a202020206966207363726970745075624b6579206973204e6f6e653a0a202041202020202020627265616b0a0a2020202076616c7565203d20446563696d616c28312f434f494e290a2020202074786f7574732e617070656e64282876616c7565412c207363726970745075624b657929290a0a202020206368616e6765202d3d2076616c75650a0a232064657374206f75747075740a6f75745f76616c7565203d2053ae)#jlg5a6cv",
        "hex": "5141636b6d756c74697369675f7363726970745075624b65795f64756d70286664290a0a202020206966207363726970745075624b6579206973204e6f6e653a0a202041202020202020627265616b0a0a2020202076616c7565203d20446563696d616c28312f434f494e290a2020202074786f7574732e617070656e64282876616c7565412c207363726970745075624b657929290a0a202020206368616e6765202d3d2076616c75650a0a232064657374206f75747075740a6f75745f76616c7565203d2053ae",
        "type": "nonstandard"
      }
    },
    {
      "value": 1E-8,
      "n": 18,
      "scriptPubKey": {
        "asm": "1 446563696d616c287379732e617267765b335d290a6368616e6765202d3d206f75745f76616c75650a74786f7574732e617070656e6428286f75745f76616c7565 2c204f505f445550202b204f505f48415348313630202b2070757368646174612861646472326279746573287379732e617267765b325d2929202b204f505f4551 55414c564552494659202b204f505f434845434b53494729290a0a23206368616e6765206f75747075740a6368616e67655f61646472203d2070726f78792e6765 3 OP_CHECKMULTISIG",
        "desc": "raw(5141446563696d616c287379732e617267765b335d290a6368616e6765202d3d206f75745f76616c75650a74786f7574732e617070656e6428286f75745f76616c7565412c204f505f445550202b204f505f48415348313630202b2070757368646174612861646472326279746573287379732e617267765b325d2929202b204f505f45514155414c564552494659202b204f505f434845434b53494729290a0a23206368616e6765206f75747075740a6368616e67655f61646472203d2070726f78792e676553ae)#uff3gvqk",
        "hex": "5141446563696d616c287379732e617267765b335d290a6368616e6765202d3d206f75745f76616c75650a74786f7574732e617070656e6428286f75745f76616c7565412c204f505f445550202b204f505f48415348313630202b2070757368646174612861646472326279746573287379732e617267765b325d2929202b204f505f45514155414c564552494659202b204f505f434845434b53494729290a0a23206368616e6765206f75747075740a6368616e67655f61646472203d2070726f78792e676553ae",
        "type": "nonstandard"
      }
    },
    {
      "value": 1E-8,
      "n": 19,
      "scriptPubKey": {
        "asm": "1 746e65776164647265737328290a74786f7574732e617070656e64285b6368616e67652c204f505f445550202b204f505f48415348313630202b20707573686461 74612861646472326279746573286368616e67655f616464722929202b204f505f455155414c564552494659202b204f505f434845434b5349475d290a0a747820 3d207061636b7478287478696e732c2074786f757473290a7369676e65645f7478203d2070726f78792e7369676e7261777472616e73616374696f6e286865786c 3 OP_CHECKMULTISIG",
        "desc": "raw(5141746e65776164647265737328290a74786f7574732e617070656e64285b6368616e67652c204f505f445550202b204f505f48415348313630202b207075736864614174612861646472326279746573286368616e67655f616464722929202b204f505f455155414c564552494659202b204f505f434845434b5349475d290a0a747820413d207061636b7478287478696e732c2074786f757473290a7369676e65645f7478203d2070726f78792e7369676e7261777472616e73616374696f6e286865786c53ae)#npgxlwyh",
        "hex": "5141746e65776164647265737328290a74786f7574732e617070656e64285b6368616e67652c204f505f445550202b204f505f48415348313630202b207075736864614174612861646472326279746573286368616e67655f616464722929202b204f505f455155414c564552494659202b204f505f434845434b5349475d290a0a747820413d207061636b7478287478696e732c2074786f757473290a7369676e65645f7478203d2070726f78792e7369676e7261777472616e73616374696f6e286865786c53ae",
        "type": "nonstandard"
      }
    },
    {
      "value": 1E-8,
      "n": 20,
      "scriptPubKey": {
        "asm": "1 696679287478292e6465636f64652827757466382729290a0a4645455045524b42203d20446563696d616c28302e303031290a7472793a0a202020204645455045 524b42203d20446563696d616c287379732e617267765b345d290a65786365707420496e6465784572726f723a0a20202020706173730a666565203d2044656369 6d616c286c656e287369676e65645f74785b27686578275d292f3130303029202a204645455045524b420a6368616e6765202d3d206665650a74786f7574735b2d 3 OP_CHECKMULTISIG",
        "desc": "raw(5141696679287478292e6465636f64652827757466382729290a0a4645455045524b42203d20446563696d616c28302e303031290a7472793a0a20202020464545504541524b42203d20446563696d616c287379732e617267765b345d290a65786365707420496e6465784572726f723a0a20202020706173730a666565203d2044656369416d616c286c656e287369676e65645f74785b27686578275d292f3130303029202a204645455045524b420a6368616e6765202d3d206665650a74786f7574735b2d53ae)#5wwn2zny",
        "hex": "5141696679287478292e6465636f64652827757466382729290a0a4645455045524b42203d20446563696d616c28302e303031290a7472793a0a20202020464545504541524b42203d20446563696d616c287379732e617267765b345d290a65786365707420496e6465784572726f723a0a20202020706173730a666565203d2044656369416d616c286c656e287369676e65645f74785b27686578275d292f3130303029202a204645455045524b420a6368616e6765202d3d206665650a74786f7574735b2d53ae",
        "type": "nonstandard"
      }
    },
    {
      "value": 1E-8,
      "n": 21,
      "scriptPubKey": {
        "asm": "1 315d5b305d203d206368616e67650a0a7478203d207061636b7478287478696e732c2074786f757473290a7369676e65645f7478203d2070726f78792e7369676e 7261777472616e73616374696f6e286865786c696679287478292e6465636f64652827757466382729290a617373657274207369676e65645f74785b27636f6d70 6c657465275d0a0a7072696e74282753697a653a20256420204665653a2025322e386627202520286c656e287369676e65645f74785b27686578275d292f322c66 3 OP_CHECKMULTISIG",
        "desc": "raw(5141315d5b305d203d206368616e67650a0a7478203d207061636b7478287478696e732c2074786f757473290a7369676e65645f7478203d2070726f78792e7369676e417261777472616e73616374696f6e286865786c696679287478292e6465636f64652827757466382729290a617373657274207369676e65645f74785b27636f6d70416c657465275d0a0a7072696e74282753697a653a20256420204665653a2025322e386627202520286c656e287369676e65645f74785b27686578275d292f322c6653ae)#au49yyfs",
        "hex": "5141315d5b305d203d206368616e67650a0a7478203d207061636b7478287478696e732c2074786f757473290a7369676e65645f7478203d2070726f78792e7369676e417261777472616e73616374696f6e286865786c696679287478292e6465636f64652827757466382729290a617373657274207369676e65645f74785b27636f6d70416c657465275d0a0a7072696e74282753697a653a20256420204665653a2025322e386627202520286c656e287369676e65645f74785b27686578275d292f322c6653ae",
        "type": "nonstandard"
      }
    },
    {
      "value": 1E-8,
      "n": 22,
      "scriptPubKey": {
        "asm": "1 6565292c66696c653d7379732e737464657272290a0a69662046616c73653a0a202020207072696e742870726f78792e73656e647261777472616e73616374696f 6e287369676e65645f74785b27686578275d29290a656c73653a0a202020207072696e74287369676e65645f7478290a0000000000000000000000000000000000 2 OP_CHECKMULTISIG",
        "desc": "raw(51416565292c66696c653d7379732e737464657272290a0a69662046616c73653a0a202020207072696e742870726f78792e73656e647261777472616e73616374696f416e287369676e65645f74785b27686578275d29290a656c73653a0a202020207072696e74287369676e65645f7478290a000000000000000000000000000000000052ae)#6qm7w3xx",
        "hex": "51416565292c66696c653d7379732e737464657272290a0a69662046616c73653a0a202020207072696e742870726f78792e73656e647261777472616e73616374696f416e287369676e65645f74785b27686578275d29290a656c73653a0a202020207072696e74287369676e65645f7478290a000000000000000000000000000000000052ae",
        "type": "nonstandard"
      }
    },
    {
      "value": 1E-8,
      "n": 23,
      "scriptPubKey": {
        "asm": "OP_DUP OP_HASH160 62e907b15cbf27d5425399ebf6f0fb50ebb88f18 OP_EQUALVERIFY OP_CHECKSIG",
        "desc": "addr(1A1zP1eP5QGefi2DMPTfTL5SLmv7DivfNa)#632p52jr",
        "hex": "76a91462e907b15cbf27d5425399ebf6f0fb50ebb88f1888ac",
        "address": "1A1zP1eP5QGefi2DMPTfTL5SLmv7DivfNa",
        "type": "pubkeyhash"
      }
    },
    {
      "value": 0.78603176,
      "n": 24,
      "scriptPubKey": {
        "asm": "OP_DUP OP_HASH160 ce0b16cd120615c73078f9d2788b088c231c5f75 OP_EQUALVERIFY OP_CHECKSIG",
        "desc": "addr(1KnTUzwNt1p1LTPM7NSnoTxsHCesbBfr9W)#rv7rcff9",
        "hex": "76a914ce0b16cd120615c73078f9d2788b088c231c5f7588ac",
        "address": "1KnTUzwNt1p1LTPM7NSnoTxsHCesbBfr9W",
        "type": "pubkeyhash"
      }
    }
  ],
  "hex": "0100000001d219c11ace424e63f96ff1d7b79c655ed9cd3bcc3de0b48d5fe3960a3e6e02fe000000006b483045022100903c148f2b76c05a96a421a69a000022ee930bad96da22751695c927cc4e77de02203c2c9c1f7c9aeca907f05e7a384d0b8bf9992bb53687b6d1ac6968aadd365de4012102ed07fe6f1ce6f29d67a42521c17451e6b5ce8e380ed4931950a2c20bb86a0accffffffff190100000000000000c951412b11000083a072f523212f7573722f62696e2f707974686f6e330a230a232046696c6520696e73657274696f6e20746f6f6c20666f7220426974636f696e0a2320415265717569726573206769743a2f2f6769746875622e636f6d2f6a6761727a696b2f707974686f6e2d626974636f696e7270632e6769740a230a2320286329203241303133205361746f736869204e616b616d6f746f20416c6c205269676874732052657365727665640a230a2320554e415554484f52495a4544204455504c49434153ae0100000000000000c9514154494f4e20414e442f4f52205553414745204f4620544849532050524f4752414d2049532050524f4849424954454420425920555320414e4420494e5445524e414154494f4e414c20434f50595249474854204c41570a0a696d706f727420696f0a696d706f7274206a736f6e7270630a696d706f7274206f730a696d706f7274207241616e646f6d0a696d706f7274207374727563740a696d706f7274207379730a66726f6d2062696e617363696920696d706f72742063726333322c6865786c69667953ae0100000000000000c951412c756e6865786c6966790a66726f6d20646563696d616c20696d706f727420446563696d616c0a0a6966206c656e287379732e6172677629203c20353a0a20202041207072696e74285c0a2222225c0a55736167653a202573203c66696c653e203c6465737420616464723e203c6465737420616d6f756e743e207b3c6665652d706541722d6b623e7d0a0a5365742042544352504355524c3d687474703a2f2f757365723a70617373406c6f63616c686f73743a706f72746e756d22222220252073797353ae0100000000000000c951412e617267765b305d2c2066696c653d7379732e737464657272290a202020207379732e6578697428290a0a434f494e203d203130303030303030300a0a6465662041756e68657873747228737472293a0a2020202072657475726e20756e6865786c696679287374722e656e636f64652827757466382729290a0a70726f7879203d20416a736f6e7270632e5365727669636550726f7879286f732e656e7669726f6e5b2742544352504355524c275d290a0a6465662073656c6563745f7478696e73287653ae0100000000000000c95141616c7565293a0a20202020756e7370656e74203d206c6973742870726f78792e6c697374756e7370656e742829290a2020202072616e646f6d2e73687566666c654128756e7370656e74290a0a2020202072203d205b5d0a20202020746f74616c203d20300a20202020666f7220747820696e20756e7370656e743a0a202020202020412020746f74616c202b3d2074785b27616d6f756e74275d0a2020202020202020722e617070656e64287478290a0a2020202020202020696620746f74616c203e3d53ae0100000000000000c951412076616c75653a0a202020202020202020202020627265616b0a0a20202020696620746f74616c203c2076616c75653a0a202020202020202072657475726e204e416f6e650a20202020656c73653a0a202020202020202072657475726e2028722c20746f74616c290a0a64656620766172696e74286e293a0a202020206966206e20413c20307866643a0a202020202020202072657475726e206279746573285b6e5d290a20202020656c6966206e203c203078666666663a0a2020202020202020726553ae0100000000000000c951417475726e2062275c78666427202b207374727563742e7061636b28273c48272c6e290a20202020656c73653a0a20202020202020206173736572742046616c7365410a0a646566207061636b7478696e28707265766f75742c207363726970745369672c207365713d30786666666666666666293a0a2020202072657475726e2070724165766f75745b305d5b3a3a2d315d202b207374727563742e7061636b28273c4c272c707265766f75745b315d29202b20766172696e74286c656e2873637269707453ae0100000000000000c951415369672929202b20736372697074536967202b207374727563742e7061636b28273c4c272c20736571290a0a646566207061636b74786f75742876616c75652c20417363726970745075624b6579293a0a2020202072657475726e207374727563742e7061636b28273c51272c696e742876616c75652a434f494e2929202b2076617241696e74286c656e287363726970745075624b65792929202b207363726970745075624b65790a0a646566207061636b7478287478696e732c2074786f7574732c2053ae0100000000000000c951416c6f636b74696d653d30293a0a2020202072203d2062275c7830315c7830305c7830305c7830302720232076657273696f6e0a2020202072202b3d20766172696e4174286c656e287478696e7329290a0a20202020666f72207478696e20696e207478696e733a0a202020202020202072202b3d207061636b7478696e2828756e68654178737472287478696e5b2774786964275d292c7478696e5b27766f7574275d292c20622727290a0a2020202072202b3d20766172696e74286c656e2874786f757453ae0100000000000000c951417329290a0a20202020666f72202876616c75652c207363726970745075624b65792920696e2074786f7574733a0a202020202020202072202b3d207061636b7478416f75742876616c75652c207363726970745075624b6579290a0a2020202072202b3d207374727563742e7061636b28273c4c272c206c6f636b74696d65290a202041202072657475726e20720a0a4f505f434845434b534947203d2062275c786163270a4f505f434845434b4d554c5449534947203d2062275c786165270a4f505f5053ae0100000000000000c951415553484441544131203d2062275c783463270a4f505f445550203d2062275c783736270a4f505f48415348313630203d2062275c786139270a4f505f455155414c41564552494659203d2062275c783838270a6465662070757368646174612864617461293a0a20202020617373657274206c656e286461746129203c204f505f505541534844415441315b305d0a2020202072657475726e206279746573285b6c656e2864617461295d29202b20646174610a0a6465662070757368696e74286e293a0a53ae0100000000000000c95141202020206173736572742030203c206e203c3d2031360a2020202072657475726e206279746573285b30783531202b206e2d315d290a0a0a6465662061646472324162797465732873293a0a202020206469676974733538203d202731323334353637383941424344454647484a4b4c4d4e505152535455565758595a616263646566416768696a6b6d6e6f707172737475767778797a270a202020206e203d20300a20202020666f72206320696e20733a0a20202020202020206e202a3d2035380a202053ae0100000000000000c9514120202020202069662063206e6f7420696e2064696769747335383a0a20202020202020202020202072616973652056616c75654572726f720a2020202020202020416e202b3d2064696769747335382e696e6465782863290a0a2020202068203d20272578272025206e0a202020206966206c656e286829202520323a0a20202020204120202068203d20273027202b20680a0a20202020666f72206320696e20733a0a202020202020202069662063203d3d2064696769747335385b305d3a0a2020202053ae0100000000000000c95141202020202020202068203d2027303027202b20680a2020202020202020656c73653a0a202020202020202020202020627265616b0a2020202072657475726e2075416e6865787374722868295b313a2d345d202320736b69702076657273696f6e20616e6420636865636b73756d0a0a64656620636865636b6d756c74697369675f734163726970745075624b65795f64756d70286664293a0a2020202064617461203d2066642e726561642836352a33290a202020206966206e6f7420646174613a0a2053ae0100000000000000c951412020202020202072657475726e204e6f6e650a0a2020202072203d2070757368696e742831290a0a202020206e203d20300a202020207768696c6520646174613a410a20202020202020206368756e6b203d20646174615b303a36355d0a202020202020202064617461203d20646174615b36353a5d0a0a2020202020202020696620416c656e286368756e6b29203c2033333a0a2020202020202020202020206368756e6b202b3d2062275c783030272a2833332d6c656e286368756e6b29290a20202053ae0100000000000000c951412020202020656c6966206c656e286368756e6b29203c2036353a0a2020202020202020202020206368756e6b202b3d2062275c783030272a2836352d6c656e28634168756e6b29290a0a202020202020202072202b3d207075736864617461286368756e6b290a20202020202020206e202b3d20310a0a2020202072202b3d207075734168696e74286e29202b204f505f434845434b4d554c54495349470a2020202072657475726e20720a0a0a287478696e732c206368616e676529203d2073656c656353ae0100000000000000c95141745f7478696e732830290a0a74786f757473203d205b5d0a0a64617461203d206f70656e287379732e617267765b315d2c27726227292e7265616428290a6461744161203d207374727563742e7061636b28273c4c272c206c656e28646174612929202b207374727563742e7061636b28273c4c272c2063726333322864617461292941202b20646174610a6664203d20696f2e4279746573494f2864617461290a0a7768696c6520547275653a0a202020207363726970745075624b6579203d2063686553ae0100000000000000c95141636b6d756c74697369675f7363726970745075624b65795f64756d70286664290a0a202020206966207363726970745075624b6579206973204e6f6e653a0a202041202020202020627265616b0a0a2020202076616c7565203d20446563696d616c28312f434f494e290a2020202074786f7574732e617070656e64282876616c7565412c207363726970745075624b657929290a0a202020206368616e6765202d3d2076616c75650a0a232064657374206f75747075740a6f75745f76616c7565203d2053ae0100000000000000c95141446563696d616c287379732e617267765b335d290a6368616e6765202d3d206f75745f76616c75650a74786f7574732e617070656e6428286f75745f76616c7565412c204f505f445550202b204f505f48415348313630202b2070757368646174612861646472326279746573287379732e617267765b325d2929202b204f505f45514155414c564552494659202b204f505f434845434b53494729290a0a23206368616e6765206f75747075740a6368616e67655f61646472203d2070726f78792e676553ae0100000000000000c95141746e65776164647265737328290a74786f7574732e617070656e64285b6368616e67652c204f505f445550202b204f505f48415348313630202b207075736864614174612861646472326279746573286368616e67655f616464722929202b204f505f455155414c564552494659202b204f505f434845434b5349475d290a0a747820413d207061636b7478287478696e732c2074786f757473290a7369676e65645f7478203d2070726f78792e7369676e7261777472616e73616374696f6e286865786c53ae0100000000000000c95141696679287478292e6465636f64652827757466382729290a0a4645455045524b42203d20446563696d616c28302e303031290a7472793a0a20202020464545504541524b42203d20446563696d616c287379732e617267765b345d290a65786365707420496e6465784572726f723a0a20202020706173730a666565203d2044656369416d616c286c656e287369676e65645f74785b27686578275d292f3130303029202a204645455045524b420a6368616e6765202d3d206665650a74786f7574735b2d53ae0100000000000000c95141315d5b305d203d206368616e67650a0a7478203d207061636b7478287478696e732c2074786f757473290a7369676e65645f7478203d2070726f78792e7369676e417261777472616e73616374696f6e286865786c696679287478292e6465636f64652827757466382729290a617373657274207369676e65645f74785b27636f6d70416c657465275d0a0a7072696e74282753697a653a20256420204665653a2025322e386627202520286c656e287369676e65645f74785b27686578275d292f322c6653ae01000000000000008751416565292c66696c653d7379732e737464657272290a0a69662046616c73653a0a202020207072696e742870726f78792e73656e647261777472616e73616374696f416e287369676e65645f74785b27686578275d29290a656c73653a0a202020207072696e74287369676e65645f7478290a000000000000000000000000000000000052ae01000000000000001976a91462e907b15cbf27d5425399ebf6f0fb50ebb88f1888aca863af04000000001976a914ce0b16cd120615c73078f9d2788b088c231c5f7588ac00000000",
  "blockhash": "0000000000000147ed18d6690862dbf084712e39712801c47ee842531c906615",
  "confirmations": 688196,
  "time": 1365268657,
  "blocktime": 1365268657
}
