{
  "txid": "cd27c98d834dd96c4f16d16f33560d99a3a8805a255ef9d9007f803a07d5f457",
  "hash": "cd27c98d834dd96c4f16d16f33560d99a3a8805a255ef9d9007f803a07d5f457",
  "version": 1,
  "size": 271,
  "vsize": 271,
  "weight": 1084,
  "locktime": 0,
  "vin": [
    {
      "txid": "76979566535003a737813caafcf4ccf841667be6da7dcc282fc1562ecc18d998",
      "vout": 0,
      "scriptSig": {
        "asm": "3044022028dceb4e81284afec5b42dee7fb8646d5e6461e3345b3b484cad649eae672e6402205217eec63be81f33c531a5592297bc0c2d2a5b4ed721e283be26a242030fc83c[ALL] 034ce3dd3c31f2d232b0fb38d4401d2b2efbc6db3f2d7b3cfc44f962cde7951819",
        "hex": "473044022028dceb4e81284afec5b42dee7fb8646d5e6461e3345b3b484cad649eae672e6402205217eec63be81f33c531a5592297bc0c2d2a5b4ed721e283be26a242030fc83c0121034ce3dd3c31f2d232b0fb38d4401d2b2efbc6db3f2d7b3cfc44f962cde7951819"
      },
      "prevout": {
        "generated": false,
        "height": 234404,
        "value": 0.00100000,
        "scriptPubKey": {
          "asm": "OP_DUP OP_HASH160 0e1b92fb266d9e291ff29e4ee44b492b6bc27693 OP_EQUALVERIFY OP_CHECKSIG",
          "desc": "addr(12HbVa796QwHgCiAVrrMRqXjgNFK1NhhyD)#m38zqpy4",
          "hex": "76a9140e1b92fb266d9e291ff29e4ee44b492b6bc2769388ac",
          "address": "12HbVa796QwHgCiAVrrMRqXjgNFK1NhhyD",
          "type": "pubkeyhash"
        }
      },
      "sequence": 4294967295
    }
  ],
  "vout": [
    {
      "value": 0.00050000,
      "n": 0,
      "scriptPubKey": {
        "asm": "2 038c27319c310c852dafa055aeca4751e9e4e887a951fb8deda5c59f6cf3f389b6 035ea1cdc13c3403b17a85d88eab20d825ffa1fea85324784ef657e3c48b73d684 034ce3dd3c31f2d232b0fb38d4401d2b2efbc6db3f2d7b3cfc44f962cde7951819 3 OP_CHECKMULTISIG",
        "desc": "multi(2,038c27319c310c852dafa055aeca4751e9e4e887a951fb8deda5c59f6cf3f389b6,035ea1cdc13c3403b17a85d88eab20d825ffa1fea85324784ef657e3c48b73d684,034ce3dd3c31f2d232b0fb38d4401d2b2efbc6db3f2d7b3cfc44f962cde7951819)#tpk264zr",
        "hex": "5221038c27319c310c852dafa055aeca4751e9e4e887a951fb8deda5c59f6cf3f389b621035ea1cdc13c3403b17a85d88eab20d825ffa1fea85324784ef657e3c48b73d68421034ce3dd3c31f2d232b0fb38d4401d2b2efbc6db3f2d7b3cfc44f962cde795181953ae",
        "type": "multisig"
      }
    }
  ],
  "fee": 0.00050000,
  "hex": "010000000198d918cc2e56c12f28cc7ddae67b6641f8ccf4fcaa3c8137a703505366959776000000006a473044022028dceb4e81284afec5b42dee7fb8646d5e6461e3345b3b484cad649eae672e6402205217eec63be81f33c531a5592297bc0c2d2a5b4ed721e283be26a242030fc83c0121034ce3dd3c31f2d232b0fb38d4401d2b2efbc6db3f2d7b3cfc44f962cde7951819ffffffff0150c3000000000000695221038c27319c310c852dafa055aeca4751e9e4e887a951fb8deda5c59f6cf3f389b621035ea1cdc13c3403b17a85d88eab20d825ffa1fea85324784ef657e3c48b73d68421034ce3dd3c31f2d232b0fb38d4401d2b2efbc6db3f2d7b3cfc44f962cde795181953ae00000000",
  "blockhash": "000000000000016d27091a415755f8a4563819c4ab02b8a47af70d7153751a72",
  "confirmations": 691377,
  "time": 1367723217,
  "blocktime": 1367723217
}
